:100000000C9423010C9425140C944C140C9473142C
:100010000C944B010C944B010C944B010C944B0130
:100020000C944B010C945C1C0C944B010C944B01F4
:100030000C944B010C944B010C944B010C944B0110
:100040000C944B010C944B010C949A140C944B019E
:100050000C94DD170C940F180C944B010C944B016D
:100060000C944B010C944B010C940C0B0C944B0115
:100070000C944B010C944B010C944B01BA0CD30C17
:10008000D30CD10CD30CB80CD30CD30CD30CAB0CBD
:10009000D30CD30CC30CCF0CCD0CD30CD30CD30C82
:1000A000CB0C536574205375636365737366756C0D
:1000B0000068683A6D6D206D6F646500456E74650B
:1000C0007220616C61726D2074696D6520666F725B
:1000D0006D617420286D6F64652069732031207410
:1000E0006F20362C20342069732070657220646183
:1000F000792900536574205375636365737366755E
:100100006C006D6D6D2D64642D7979797920686846
:100110002D6D6D2D73732073616D706C6520696E2C
:100120007075743A2044656320323620323030399D
:100130002031323A33343A353600456E74657220D8
:100140006461746520666F726D6174006B457874CC
:10015000506F77657250696E3A3D00526570656107
:1001600074204D6F6465205365743A20002D2D2D49
:100170002D2D2D2D2D2D2D2D2D2D2D2D2D2D2D2DAF
:100180000043686F6F73652061206D656E7520692F
:1001900074656D3A004120736574205B415D6C614C
:1001A000726D2074696D65005420736574205B5412
:1001B0005D696D65001F1C1F1E1F1E1F1F1E1F1E59
:1001C0001F000000020300000000000000050409F9
:1001D0000800000000000000000000000000000017
:1001E0000001020408102040800102040810204091
:1001F0008001020408102040800102040810204001
:100200008002020202020202020404040404040442
:1002100004030303030303030301010101010101BB
:1002200001000020002300260029000000220025F4
:100230000028002B0000002100240027002A0002D3
:10024000FF02410A3F1811241FBECFEFD0E1DEBFED
:10025000CDBF12E0A0E0B1E0E0EDF9E402C005900E
:100260000D92AC33B107D9F724E0ACE3B2E001C0A2
:100270001D92AB31B207E1F711E0C3E2D1E004C057
:100280002197FE010E94CF1FC032D107C9F70E94FB
:100290006D180C94E6240C94000081E080936602B3
:1002A00083B78E7F83BF0895DC01ED91FC910190AF
:1002B000F081E02D09946AE470E08CE992E00E94FC
:1002C000C00961E070E08CE992E00E94540161E3B2
:1002D00070E08CE992E00E9454018CE992E00C9469
:1002E0003E0A1F93CF93DF9300D000D000D0CDB74C
:1002F000DEB7CE0101960E94980D1D81CE010196B8
:100300000E94ED0C1F921F931F928F938C811F925E
:100310008F938EE091E09F938F9385E492E09F937B
:100320008F930E94FC214CE465E472E087E692E042
:100330000E94C31241E060E070E087E692E00E9414
:100340006C1341E061E070E087E692E00E946C137C
:1003500041E062E070E087E692E00E946C1341E0C9
:1003600063E070E087E692E00E946C1341E064E095
:1003700070E087E692E00E946C1341E065E070E077
:1003800087E692E00E946C1344EF51E060E070E079
:1003900087E692E00E947C1340E060E070E087E630
:1003A00092E00E946C1340E061E070E087E692E02A
:1003B0000E946C1340E062E070E087E692E00E94E9
:1003C0006C1340E063E070E087E692E00E946C13FB
:1003D00040E064E070E087E692E00E946C1340E049
:1003E00065E070E087E692E00E946C1344EF51E014
:1003F00060E070E087E692E00E947C1384E00E9457
:1004000044160FB6F894DEBF0FBECDBF892B21F086
:1004100010923F0210923E0226960FB6F894DEBF6D
:100420000FBECDBFDF91CF911F910895CF93DF9382
:1004300000D000D000D0CDB7DEB7CE0101960E942B
:10044000980DCE0101960E94ED0C1F928F938B8127
:100450001F928F938A811F928F938EE191E09F93D9
:100460008F9385E492E09F938F930E94FC214CE44C
:1004700065E472E087E692E00E94C31240ED57E027
:1004800060E070E087E692E00E947C1384E00E94C6
:1004900044160FB6F894DEBF0FBECDBF892B21F0F6
:1004A00010923F0210923E0226960FB6F894DEBFDD
:1004B0000FBECDBFDF91CF910895CF93DF9300D0D2
:1004C00000D000D0CDB7DEB7CE0101960E94980DC6
:1004D0008E811F928F938D811F928F938C811F929B
:1004E0008F938B811F928F938A811F928F93898123
:1004F00090E08053984F9F938F938DE291E09F936C
:100500008F9385E492E09F938F930E94FC2165E492
:1005100072E085E693E00E94FE180FB6F894DEBF05
:100520000FBECDBF26960FB6F894DEBF0FBECDBF6F
:10053000DF91CF910895CF93DF93C9E0D0E061E0E0
:1005400080E00E9415166CE271E080E090E00E946D
:10055000151560E080E00E9415166CE271E080E005
:1005600090E00E941515219751F7DF91CF910895E2
:100570000F931F93CF93DF9305E010E0C0E0D0E02E
:100580008FE10E948F15C80FD91F01501109C1F7C3
:10059000CE0165E070E00E947A1FCB01DF91CF9120
:1005A0001F910F910895CF93DF93EB0120E030E08E
:1005B000A901BC018CE00E94BA1988E78C9FB001A8
:1005C0008D9F700D1124072E000C880B990BDF9165
:1005D000CF910C941515CF93DF93EC018CE00E9422
:1005E000471C88E78C9FB0018D9F700D1124072E4A
:1005F000000C880B990BDF91CF910C941515EF929D
:10060000FF920F931F9388E0E82EF12C00E010E09A
:100610002DE030E04FE050E06EE070E087E692E0E1
:100620000E9455111F910F91FF90EF900895AF9286
:10063000BF92CF92DF92EF92FF920F931F93CF93CF
:10064000DF93CDB7DEB769970FB6F894DEBF0FBE64
:10065000CDBF6AE371E085E693E00E94EC1862E0AA
:1006600071E085E693E00E94EC1885E693E00E9435
:10067000A6164497D4F38E010F5F1F4F7E018CE0C6
:10068000E80EF11C580185E693E00E94C016F801BF
:1006900081938F01EE15FF05B1F785E693E00E9487
:1006A000C01667018E010C5E1F4F85E693E00E9425
:1006B000C016F60181936F010E171F07B1F76AE0AC
:1006C00070E080E090E00E94151585E693E00E94BE
:1006D0005B17A701B501C8010E948C0CC8010E94DC
:1006E000A80F6AE070E080E090E00E941515B50167
:1006F00085E693E00E94FE18C8010E94980DC8018B
:100700000E94ED0C182F68E670E08CE992E00E94E0
:10071000C00964E070E08CE992E00E945401612F0E
:100720008CE992E00E9477098CE992E00E943E0AEF
:1007300063EF70E085E693E00E94EC1869960FB6CF
:10074000F894DEBF0FBECDBFDF91CF911F910F9107
:10075000FF90EF90DF90CF90BF90AF900895CF9330
:10076000DF93EC0160E570E08CE992E00E94C00943
:100770006D2F70E08CE992E00E945401BE01772752
:100780008CE992E00E94540160E08CE992E00E94C2
:10079000C20942E050E060E570E08CE992E00E941E
:1007A000390A8CE992E00E942609C82F8CE992E070
:1007B0000E942609982F88278C0F911DDF91CF91D9
:1007C0000895CF93DF93C0E0D0E0CE010E94AF0345
:1007D00062E070E00E94D3022296C039D105A9F7E9
:1007E00082E090E00E94EB028CE0DF91CF910C94CC
:1007F000471C82E00E944416892B19F565E070E0E1
:1008000080E090E00E94151582E00E9444168BE97A
:1008100092E00E94420F892B39F00E94E10310926E
:1008200065021092640209C0809164029091650291
:100830000196909365028093640210923F02109299
:100840003E020895FF920F931F93CF93DF9300D042
:1008500000D000D0CDB7DEB76AE470E08CE992E05A
:100860000E94C00961E070E08CE992E00E945401AE
:100870008CE992E00E943E0A41E050E06AE470E0B8
:100880008CE992E00E94390A8CE992E00E942609E4
:10089000082F6AE470E08CE992E00E94C00961E0F0
:1008A00070E08CE992E00E945401602F60648CE952
:1008B00092E00E9477098CE992E00E943E0A60E48F
:1008C00071E080E090E00E9415156AE470E08CE928
:1008D00092E00E94C00960E070E08CE992E00E9422
:1008E00054018CE992E00E943E0A42E050E06AE442
:1008F00070E08CE992E00E94390A8CE992E00E9453
:100900001E09029751F48CE992E00E942609182FE3
:100910008CE992E00E942609F82E612F70E0762F74
:1009200066276F0D711D8B0194E0159507959A95BB
:10093000E1F7B8016F707727072E000C880B990B31
:100940000E94511E20E030E040E25FE30E94DD1E85
:100950000E94191E7F936F93B801110F880B990B9A
:100960000E94511E20E030E040E85DE30E94DD1E61
:100970000E94191E7F936F938CE491E09F938F9355
:1009800080E492E09F938F930E94FC2103E428EB84
:100990003BE040E050E060E472E087E692E00E94D5
:1009A000AD1367E571E0CE0101960E94671D4CE42E
:1009B000BE016F5F7F4F87E692E00E94481387E693
:1009C00092E00E94721384E00E9444160FB6F894DD
:1009D000DEBF0FBECDBF892B21F010923F021092D7
:1009E0003E02CE0101960E94F91C26960FB6F8949D
:1009F000DEBF0FBECDBFDF91CF911F910F91FF9052
:100A00000895CF93DF9300D000D000D0CDB7DEB7EC
:100A1000CE0101960E94980D8E811F928F938D8139
:100A20001F928F938C811F928F9380E691E09F930A
:100A30008F9385E492E09F938F930E94FC214CE476
:100A400065E472E087E692E00E94C31241E060E054
:100A500070E087E692E00E946C1341E061E070E094
:100A600087E692E00E946C1341E062E070E087E666
:100A700092E00E946C1341E063E070E087E692E050
:100A80000E946C1341E064E070E087E692E00E940F
:100A90006C1341E065E070E087E692E00E946C1321
:100AA00044EF51E060E070E087E692E00E947C1342
:100AB00040E060E070E087E692E00E946C1340E066
:100AC00061E070E087E692E00E946C1340E062E033
:100AD00070E087E692E00E946C1340E063E070E013
:100AE00087E692E00E946C1340E064E070E087E6E5
:100AF00092E00E946C1340E065E070E087E692E0CF
:100B00000E946C1344EF51E060E070E087E692E0F1
:100B10000E947C1380913E0290913F02019664E214
:100B200070E00E947A1F0FB6F894DEBF0FBECDBFF3
:100B3000892B59F40E94220484E00E944416892BD8
:100B400021F010923F0210923E0226960FB6F894C2
:100B5000DEBF0FBECDBFDF91CF9108958F929F92E0
:100B6000AF92BF92CF92DF92EF92FF920F931F93BB
:100B7000CF93DF93CDB7DEB762970FB6F894DEBFA1
:100B80000FBECDBF6AE470E08CE992E00E94C0091C
:100B900061E070E08CE992E00E9454018CE992E0FF
:100BA0000E943E0A41E050E06AE470E08CE992E085
:100BB0000E94390A8CE992E00E942609082F6AE413
:100BC00070E08CE992E00E94C00961E070E08CE97D
:100BD00092E00E945401602F60648CE992E00E94D0
:100BE00077098CE992E00E943E0A60E471E080E0BF
:100BF00090E00E9415156AE470E08CE992E00E9492
:100C0000C00960E070E08CE992E00E9454018CE938
:100C100092E00E943E0A42E050E06AE470E08CE913
:100C200092E00E94390A8CE992E00E941E09029724
:100C300051F48CE992E00E942609182F8CE992E089
:100C40000E942609F82E612F70E0762F66276F0D1F
:100C5000711D4B0194E0959487949A95E1F70E9459
:100C6000B80290933D0280933C02BC01990F880B1F
:100C7000990B1F921F921F9224E62F9322E0A22E1F
:100C8000B12CC12CD12C12EDE12E13E0F12E00E09D
:100C900010E024EF32E040E050E00E94B81C709376
:100CA0003D0260933C02CE010D960E94980DE090AB
:100CB0003C02D0903D02F9880889CE010D960E9431
:100CC000ED0C182FDF92EF92B4016F707727072E8B
:100CD000000C880B990B0E94511E20E030E040E28E
:100CE0005FE30E94DD1E0E94191E7F936F93B40183
:100CF000990C880B990B0E94511E20E030E040E8CF
:100D00005DE30E94DD1E0E94191E7F936F931F9268
:100D1000FF921F920F931F921F938F851F928F93A5
:100D20008E851F928F938D8590E08053984F9F936F
:100D30008F938FE691E09F938F9385E492E09F934A
:100D40008F930E94FC2165E472E0CE0107960E9419
:100D5000671D67E571E0CE0101960E94671DBE0127
:100D6000695F7F4FCE0101960E94C11DBC01CE017B
:100D700007960E947C1DCE0101960E94F91C0FB6B9
:100D8000F894DEBF0FBECDBF8B859C85892BA9F063
:100D90000CE42AE832E040E050E0BE01695F7F4F9A
:100DA00087E692E00E94C61341E050E060E070E008
:100DB000CE0107960E94E51DE7CFCE0107960E945F
:100DC000F91C62960FB6F894DEBF0FBECDBFDF915F
:100DD000CF911F910F91FF90EF90DF90CF90BF9038
:100DE000AF909F908F90089580916602882379F04C
:100DF00082E00E940F140E94AE05109265021092CC
:100E0000640210923F0210923E021092660280919C
:100E10006402909165028230910599F03CF400974C
:100E200069F00197A1F40E94710115C0833091050A
:100E300059F0049761F40E94AE0509C00E940105B3
:100E40000AC00E94160207C00E94220404C0109229
:100E500065021092640280913E0290913F028835B3
:100E60009240D1F40E94AE0510923F0210923E02D1
:100E700042E050E06DE471E082E00E94E0136AE03D
:100E800070E080E090E00E94151583B7816083BF19
:100E9000889583B78E7F83BF80913E0290913F02F9
:100EA000019690933F0280933E020C94F903BF9207
:100EB000CF92DF92EF92FF920F931F93CF93DF9326
:100EC000CDB7DEB72C970FB6F894DEBF0FBECDBFFF
:100ED000CE0107960E94980DD884B9846CEB70E01F
:100EE00085E693E00E94EC1861EB70E085E693E004
:100EF0000E94EC1885E693E00E94A6160897D4F3AA
:100F000085E693E00E94C016182F682F85E693E0CF
:100F10000E94141785E693E00E94C016082F682FE0
:100F200085E693E00E941417110F1056812F880F49
:100F3000880F180F0053010F85E693E00E94C0163A
:100F4000682F85E693E00E94141785E693E00E94DF
:100F5000C016182F682F85E693E00E94141785E6C7
:100F600093E00E94C016F82E682F85E693E00E9459
:100F70001417110F1056E12EEE0CEE0C1E0D80ED25
:100F80008F0DE12EE80E85E693E00E94C016682FD3
:100F900085E693E00E94141785E693E00E94C01650
:100FA000182F682F85E693E00E9414176EE571E014
:100FB00085E693E00E94FE186AE070E080E090E031
:100FC0000E94151585E693E00E945B17C12C2B2D1E
:100FD0004D2D63EE77E0CE0101960E94780CCE0194
:100FE00001960E94461060ED610F70E08BE992E07F
:100FF0000E94570E62EA70E085E693E00E94EC18CA
:101000002C960FB6F894DEBF0FBECDBFDF91CF9107
:101010001F910F91FF90EF90DF90CF90BF900895B8
:10102000AF92BF92CF92DF92EF92FF920F931F93F6
:10103000CF93DF9360E082E00E94D91560E084E006
:101040000E94D91561E08CE00E94D91561E080E032
:101050000E94D91582E00E948C151092660226E04B
:1010600040E056E960E070E085E693E00E947D177D
:101070000E94240D8BE992E00E94420F0E945B01C6
:1010800083B7817F846083BF0E945D026EE272E05D
:1010900085E693E00E94FE1868EA71E085E693E039
:1010A0000E94EC1865E971E085E693E00E94EC1877
:1010B0006EE272E085E693E00E94FE1861E871E05E
:1010C00085E693E00E94EC186DE671E085E693E01A
:1010D0000E94EC180E94B80290933D0280933C025B
:1010E0006DE971E085E693E00E94DF1860913C02B3
:1010F00070913D024AE050E085E693E00E94A81915
:1011000060913C0270913D02072E000C880B990BF8
:101110001F921F921F9224E62F9322E0A22EB12C41
:10112000C12CD12C12EDE12E13E0F12E00E010E0E5
:1011300024EF32E040E050E00E94B81C70933D0282
:1011400060933C026AEA71E085E693E00E94DF1852
:1011500060913C0270913D024AE050E085E693E0E8
:101160000E94A8190E949B0285E693E00E94A616A1
:101170000F900F900F900F901816190614F585E632
:1011800093E00E94C01699278435910559F024F404
:101190008134910551F00BC08136910531F08437CF
:1011A000910529F40E94170302C00E9457076AE0C4
:1011B00070E080E090E00E94151585E693E00E94C3
:1011C0005B176BE571E085E693E00E94BB188BE945
:1011D00092E00E94F50E4AE050E0BC0185E693E003
:1011E0000E94A81961E08BE992E00E941A0E0E9409
:1011F000630F0E94AE051092650210926402109275
:101200003F0210923E0284E00E944416EC016CE41E
:1012100071E085E693E00E94BB184AE050E0BE0111
:1012200085E693E0DF91CF911F910F91FF90EF90B2
:10123000DF90CF90BF90AF900C94A8198091CC0212
:1012400090E02091CD02821B910908959091CD02EA
:101250008091CC02981750F4E92FF0E0E253FD4F53
:10126000208130E09F5F9093CD0202C02FEF3FEFCF
:10127000C9010895E091CD028091CC02E81730F4C5
:10128000F0E0E253FD4F808190E008958FEF9FEFF3
:1012900008950895CF92DF92EF92FF920F931F93DC
:1012A000CF93DF937C01CB018A012091A8022223F6
:1012B00089F0EB016B01C40ED51ECC15DD0569F07C
:1012C0006991D701ED91FC910190F081E02DC7016A
:1012D0000995F3CF642F0E94E30AC801DF91CF91F3
:1012E0001F910F91FF90EF90DF90CF900895CF93D3
:1012F000DF931F92CDB7DEB769832091A802222326
:10130000D1F02091A902203240F021E030E0FC0130
:101310003383228380E090E015C08091AA02E82FF9
:10132000F0E0E555FD4F998190838F5F8093AA028D
:101330008093A90205C061E0CE0101960E94E30AF4
:1013400081E090E00F90DF91CF910895FC0113822E
:10135000128288EE93E0A0E0B0E084839583A683B8
:10136000B7838EEB91E091838083089581E0809331
:10137000A8026093CB021092AA021092A9020895CB
:101380000C94B6090F93062F21E04091A9026BEA55
:1013900072E08091CB020E948D0A1092AA021092F4
:1013A000A9021092A8020F9108954F925F926F9236
:1013B0007F92AF92BF92CF92EF92FF920F931F93C3
:1013C000CF93DF935C01F62ED42F28013901EE2054
:1013D00021F10E94B609CE2DC43008F0C3E0C150FF
:1013E000C0F028E0C29FC0011124A301920104C0F3
:1013F00056954795379527958A95D2F7CA01B90131
:10140000D501ED91FC910190F081E02DC501099588
:10141000E6CF60E0C5010E94C2094D2FD13208F02D
:1014200040E22C2D6EEC72E08F2D0E94450A109246
:10143000CD028093CC02DF91CF911F910F91FF904D
:10144000EF90CF90BF90AF907F906F905F904F9054
:101450000895CF92EF920F931F93C22EE12C00E0DC
:1014600010E098010E94D5091F910F91EF90CF9045
:10147000089521E00C94290A0C94290A61E00C9447
:10148000C2098CE992E00C94A609413208F043C0ED
:1014900090915B039111FCCF91E090935B032093BB
:1014A00059032FEF2093EE0210923303240F209361
:1014B000320390935A0390915A03880F892B80939B
:1014C0005A0380915803813061F41092580380913F
:1014D0005A038093BB008091BC0083FDF8CF85EC5C
:1014E00001C085EE8093BC0080915B038130E1F305
:1014F00080913303841710F440913303A4E3B3E0E5
:10150000962FFB018E2F891B841718F48D918193E0
:10151000F9CF842F089580E008950F93413208F0A9
:101520004AC090915B039111FCCF32E030935B0392
:10153000009359033FEF3093EE0210923303409330
:101540003203562FA4E3B3E0FB013E2F351B3417C3
:1015500018F431913D93F9CF10925A0330915A0308
:10156000880F832B80935A0380915803813061F454
:101570001092580380915A038093BB008091BC0065
:1015800083FDF8CF85EC01C085EE8093BC0022235B
:1015900021F080915B038230D1F38091EE028F3F86
:1015A00079F08091EE02803241F08091EE0280333A
:1015B00031F094E005C091E003C092E001C093E0F7
:1015C000892F0F910895613298F420915B032430A4
:1015D00089F460931003282FA2E1B3E0FC018E2F61
:1015E000821B861718F481918D93F9CF80E00895BE
:1015F00081E0089582E0089585ED8093BC0080919C
:10160000BC0084FDFCCF10925B03089585EC8093B1
:10161000BC0010925B0308951F920F920FB60F92B9
:1016200011242F933F934F935F936F937F938F93E7
:101630009F93AF93BF93EF93FF938091B900887FFF
:10164000803609F49EC078F5883209F45DC090F4C4
:10165000803109F456C038F4882309F4F5C0883085
:1016600009F44FC0F5C0883109F44EC0803209F446
:101670005FC0EEC0803409F46AC058F4803309F4C6
:1016800057C0883309F0E4C08093EE020E94060B35
:10169000DFC0803509F44FC0883509F45DC0883457
:1016A00009F0D6C0D3C0883909F4C4C0A8F488377B
:1016B00009F467C038F4883609F463C0803709F448
:1016C00060C0C6C0883809F4B5C0803909F45FC06D
:1016D000803809F0BDC05BC0803B09F483C038F49A
:1016E000803A09F466C0883A09F47CC0B1C0803CF5
:1016F00009F4A4C0883C09F4A1C0883B09F487C060
:10170000A7C080915A0310C0909133038091320397
:10171000981770F5E091330381E08E0F80933303C7
:10172000F0E0EC5CFC4F80818093BB0085EC83C0D3
:101730008093EE028BC0E091330381E08E0F8093A3
:1017400033038091BB00F0E0EC5CFC4F8083909110
:101750003303809132036BC0E091330381E08E0F3D
:10176000809333038091BB00F0E0EC5CFC4F8083FE
:101770008091590381116AC081E08093580384EA03
:101780005EC083E080935B031092EF02CFCF809125
:10179000EF02803208F04EC0E091EF0281E08E0F40
:1017A0008093EF028091BB00F0E0E051FD4F808319
:1017B000BDCF0E94060B8091EF02803230F4E091A1
:1017C000EF02F0E0E051FD4F10826091EF0270E017
:1017D000E0915403F091550380EF92E00995109247
:1017E000EF0236C084E080935B03109211031092E5
:1017F0001003E0915603F09157030995809110036F
:10180000811105C081E08093100310921203E091D2
:10181000110381E08E0F80931103F0E0EE5EFC4F28
:1018200080818093BB0090911103809110039817E1
:1018300008F47CCF85E88093BC000AC085EC8093D7
:10184000BC0010925B0304C01092EE020E94FC0ADE
:10185000FF91EF91BF91AF919F918F917F916F9188
:101860005F914F913F912F910F900FBE0F901F905E
:101870001895803D27E0920710F0805D974050E07A
:10188000E5EBF1E021E0261730F43491430F511DD0
:101890002F5F3196F8CF633038F09C0123703327E7
:1018A000232B11F44F5F5F4FBC016D5F7F4F769527
:1018B000679576956795EDE6F1E08E9F90018F9F95
:1018C000300D9E9F300D1124C9010197860F971F7F
:1018D000840F951F0895FC01908190539A3008F071
:1018E00090E0818180532AE0929F800D1124089519
:1018F000CF92EF920F93FC01603D87E0780710F0E4
:10190000605D77406083418322830383E482C582E4
:101910000F91EF90CF900895EF92FF920F931F9346
:10192000CF93DF93EC018B017A01CB0109960E94E2
:101930006B0C8883D801EC918E2FEE0F990BAA0BBC
:10194000BB0BFC01E154F109E331F10560F5E25C08
:10195000FF4F0C94CF1FF8018181813629F08281DD
:101960008E3621F087E01EC081E01CC086E01AC0E0
:1019700082E018C0D80112968C91823711F088E06D
:1019800011C084E00FC0F8018281823711F085E038
:1019900009C083E007C089E005C08AE003C08BE08E
:1019A00001C08CE08983C80104960E946B0C8A8375
:1019B000C7010E946B0C8B83C70103960E946B0CBE
:1019C0008C83C70106960E946B0C8D83DF91CF91AB
:1019D0001F910F91FF90EF900895FC01808142814B
:1019E000618190E00E94390C069667E070E00E94E9
:1019F000661F089568E670E08CE992E00E94C009D5
:101A000060E070E08CE992E00E9454018CE992E081
:101A10000C943E0A0F931F93CF93DF93082FC8E0D7
:101A2000D0E010E8802F812311F061E301C060E372
:101A300085E693E00E94E1181695219799F7DF91CA
:101A4000CF911F910F910895CF93DF9368E670E0D7
:101A50008CE992E00E94C00968E070E08CE992E0B5
:101A60000E9454018CE992E00E943E0A41E050E05D
:101A700068E670E08CE992E00E94390A8CE992E015
:101A80000E942609EC0187FF16C068E670E08CE929
:101A900092E00E94C00968E070E08CE992E00E9448
:101AA0005401BE0160688CE992E00E9454018CE907
:101AB00092E00E943E0A6AE070E080E090E00E94BE
:101AC000151568E670E08CE992E00E94C0096AE0B2
:101AD00070E08CE992E00E9454018CE992E00E944F
:101AE0003E0A41E050E068E670E08CE992E00E9436
:101AF000390A8CE992E00E942609EC0168E670E060
:101B00008CE992E00E94C0096AE070E08CE992E002
:101B10000E945401BE016F798CE992E00E94540149
:101B20008CE992E00E943E0A81E0DF91CF91089516
:101B3000CF92DF92EF92FF920F931F93CF93DF9399
:101B4000EC0168E670E08CE992E00E94C00961E077
:101B500070E08CE992E00E9454018CE992E00E94CE
:101B60003E0A21E030E047E050E068E670E08CE9B2
:101B700092E00E943C0A8CE992E00E9426098F774D
:101B8000982F92959F701AEF082F919F000D1124A6
:101B90008CE992E00E9426098F77982F92959F708A
:101BA000C82E919FC00C11248CE992E00E94260956
:101BB0008F73982F92959F70D82E919FD00C1124DF
:101BC0008CE992E00E9426098CE992E00E942609A5
:101BD0008F73982F92959F70F82E919FF00C11247F
:101BE0008CE992E00E9426098F71982F92959F7040
:101BF000E82E919FE00C11248CE992E00E942609C6
:101C00009C01332794E0359527959A95E1F7129F2B
:101C1000800D11248883E982FA82DB82CC820D83D5
:101C2000CE01DF91CF911F910F91FF90EF90DF9048
:101C3000CF900895CF93DF93C62F68E670E08CE9CC
:101C400092E00E94C0096AE070E08CE992E00E9494
:101C500054018CE992E00E943E0A41E050E068E6BF
:101C600070E08CE992E00E94390A8CE992E00E94CF
:101C70002609CC2319F0EC01C06802C0EC01CF7733
:101C800068E670E08CE992E00E94C0096AE070E0CA
:101C90008CE992E00E945401BE018CE992E00E941E
:101CA00054018CE992E0DF91CF910C943E0AAF92FF
:101CB000BF92CF92DF92EF92FF920F931F93CF9339
:101CC000DF935B0168E670E08CE992E00E94C00956
:101CD0006BE070E08CE992E00E9454018CE992E0A4
:101CE0000E943E0A44E050E068E670E08CE992E031
:101CF0000E94390A8CE992E00E942609EC018CE9E5
:101D000092E00E9426096C018CE992E00E9426096B
:101D10007C018CE992E00E9426098C0183E0A816E0
:101D2000B10411F154F481E0A816B104B1F082E0DD
:101D3000A816B10451F50F7711C085E0A816B104BB
:101D4000E9F0B4F086E0A816B104F9F40F77E8944E
:101D5000E7F8E894C7F8CF7318C000686894E7F80C
:101D60006894C7F8C06C11C00F77E894E7F8F8CF13
:101D70000F77E894E7F8E894C7F8F4CF0F77E89482
:101D8000E7F8E894C7F8CF77C06468E670E08CE9BC
:101D900092E00E94C0096BE070E08CE992E00E9442
:101DA0005401BE018CE992E00E945401B6018CE915
:101DB00092E00E945401B7018CE992E00E94540124
:101DC000B8018CE992E00E9454018CE992E00E94F3
:101DD0003E0ADF91CF911F910F91FF90EF90DF901E
:101DE000CF90BF90AF900C94FA0CFF920F931F937B
:101DF000CF93DF9368E670E08CE992E00E94C0091F
:101E00006BE070E08CE992E00E9454018CE992E072
:101E10000E943E0A44E050E068E670E08CE992E0FF
:101E20000E94390A8CE992E00E942609182F8CE959
:101E300092E00E942609082F8CE992E00E94260970
:101E4000F82E8CE992E00E94260987FB882780F90A
:101E5000C82F80E0D82FF7FCC26007FDC46017FDD3
:101E6000C86016FDC061C053DE4FC8810C2E000C47
:101E7000DD0B0E94FA0CCE01DF91CF911F910F91E3
:101E8000FF90089568E670E08CE992E00E94C00936
:101E90006FE070E08CE992E00E9454018CE992E0DE
:101EA0000E943E0A41E050E068E670E08CE992E072
:101EB0000E94390A8CE992E00E94260986FB882755
:101EC00080F990E00895CF93DF9368E670E08CE9A5
:101ED00092E00E94C00960E070E08CE992E00E940C
:101EE00054018CE992E00E943E0A40E150E068E62D
:101EF00070E08CE992E00E94390AC0E0D0E08CE901
:101F000092E00E9426090E940A0D6AEC71E085E6C3
:101F100093E00E94DF1840E150E0BE0185E693E0C7
:101F20000E94A8192196C031D10549F768E670E0F2
:101F30008CE992E00E94C00960E070E08CE992E0D8
:101F40000E9454018CE992E0DF91CF910C943E0AFB
:101F5000EF92FF920F931F93CF938C0168E670E08E
:101F60008CE992E00E94C00964E070E08CE992E0A4
:101F70000E9454018CE992E00E943E0A41E050E048
:101F800068E670E08CE992E00E94390A8CE992E000
:101F90000E9426097C0168E670E08CE992E00E94CC
:101FA000C00961E070E08CE992E00E945401F80100
:101FB0002581CAE0822F6C2F0E945A1F682F660F5E
:101FC000860F880F682F620F8CE992E00E947709D4
:101FD000F8012481822F6C2F0E945A1F682F660FF0
:101FE000860F880F682F620F8CE992E00E947709B4
:101FF000F8012381822F6C2F0E945A1F682F660FD1
:10200000860F880F682F620F8CE992E00E94770993
:10201000B7018CE992E00E945401F8012281822FDD
:102020006C2F0E945A1F682F660F860F880F682F2B
:10203000620F8CE992E00E947709F8012181822FDA
:102040006C2F0E945A1F682F660F860F880F682F0B
:10205000620F8CE992E00E947709F8012081822FBB
:102060006C2F0E945A1F682F660F860F880F682FEB
:10207000620F8CE992E00E9477098CE992E0CF919F
:102080001F910F91FF90EF900C943E0A1F93CF93F6
:10209000DF93EC0168E670E08CE992E00E94C009F1
:1020A0006AE070E08CE992E00E94540129811AE014
:1020B000822F612F0E945A1F682F660F860F880F8C
:1020C000682F620F8CE992E00E9477092A81822FA3
:1020D000612F0E945A1F682F660F860F880F682F86
:1020E000620F8CE992E00E9477092B81822F612F89
:1020F0000E945A1F682F660F860F880F682F620F85
:102100008CE992E00E9477092C81822F612F0E9436
:102110005A1F682F660F860F880F682F620F8CE991
:1021200092E00E9477092D81822F612F0E945A1F11
:10213000682F660F860F880F682F620F8CE992E078
:102140000E94770960E070E08CE992E00E945401FF
:102150008CE992E0DF91CF911F910C943E0AEF92AF
:10216000FF920F931F93CF93DF93EC017C018CE2DE
:10217000E80EF11C00EF11E028853985C801805F69
:102180009140821793072CF560E088810E94151614
:102190008E819F81F8012081892B09F0209540E0F4
:1021A0006A818C810E946D16F70121917F0140E0C8
:1021B0006A818C810E946D1661E088810E941516EB
:1021C00061E070E080E090E00E9415150F5F1F4F06
:1021D000D3CFDF91CF911F910F91FF90EF90089592
:1021E000CF93DF93EC0160E088810E94151620E018
:1021F00041E06A818C810E946D1620E041E06A8195
:102200008C810E946D1661E08881DF91CF910C94E2
:102210001516CF93DF93EC01862F688379835B8358
:102220004A833D832C8361E00E94D91561E08A8155
:102230000E94D91561E08C810E94D915CE01DF91F1
:10224000CF910C94F010EF92FF920F931F93CF93C6
:10225000DF93EC010E940911CE018C9661E001151B
:10226000110509F460E0619570E048E050E00E94DB
:10227000DF2188E0E816F1041CF49E2D8F2D02C0AA
:1022800098E080E01F830E839887898721E030E003
:102290003B872A879C878D871D8E1C8EDF91CF916F
:1022A0001F910F91FF90EF900895EF92FF920F937F
:1022B0001F930E9423111F910F91FF90EF9008959B
:1022C000CF93DF93EC01645D7F4FFC01E60FF71FB6
:1022D000D901CD01821B930B841795075CF48E8185
:1022E0009F81892B11F09C9102C09C9190959193B4
:1022F0001196EFCFDF91CF910895FC0126813781B0
:10230000E60FF71F442319F0232B31F402C0232BCF
:1023100019F084A5816002C084A58E7F84A70895EA
:102320000F931F93CF93DF93EA01D9018FEF97EFBC
:102330004FEE5DEFFD01E21BF30BE617F70784F5A7
:10234000E991F0EDFE0FFA3030F40E2E000CFF0B89
:10235000EE51FE4F09C0FFE9FE0FFA3140F40E2E98
:10236000000CFF0BE956FE4FE081EC9317C0FFEB2A
:10237000FE0FFA3130F40E2E000CFF0BE954FE4F25
:10238000F3CFED3211F45C9309C0EF3511F44C93A7
:1023900005C0E33211F49C9301C08C931196CACF0F
:1023A0000F3F8FEF180731F0F901E00FF11F808127
:1023B00081608083DF91CF911F910F910895CF921B
:1023C000DF92EF92FF920F931F93CF93DF93EE2D47
:1023D000D9011197EC3429F46150710980E090E043
:1023E00017C0C901861B970BE23511F4BD0108C067
:1023F00097FD019695958795680F791F6150710932
:10240000F801C0E27F01E01AF10AE816F90614F0BB
:10241000FA0106C0C193F6CF97FF06C00196319628
:1024200068177907CCF709C0A817B907BCF3408132
:10243000E801C80FD91F4883F1CFFB013196E00FA7
:10244000F11F80E2AF01401B510B4217530714F4F8
:102450008193F8CF8FEFC816D80639F06C197D0933
:1024600077FD03C0A617B7071CF48FEF9FEF01C0DD
:10247000CB01DF91CF911F910F91FF90EF90DF90F3
:10248000CF9008952F923F924F925F926F927F92DA
:102490008F929F92AF92BF92CF92DF92EF92FF9274
:1024A0000F931F93CF93DF93CDB7DEB75C016DB66B
:1024B0007EB677FD50C0FC01828593856817790749
:1024C0000CF049C0FA0101900020E9F73197CF01E3
:1024D000841B950B660F771F1501260E371EF10121
:1024E000848495846DB77EB7681979090FB6F8941E
:1024F0007EBF0FBE6DBFEDB7FEB731962F01CC2466
:10250000CA94DC2CE22E8F019401BC01C5010E940B
:10251000DF116DB77EB7681979090FB6F8947EBFE1
:102520000FBE6DBF8DB79EB701967C010FEF1FEFF9
:102530009C01A201B401C5010E949011F101648DBA
:10254000758D9701A401C5010E9460110FB6F89422
:102550007EBE0FBE6DBE0FB6F8947EBE0FBE6DBEC2
:10256000DF91CF911F910F91FF90EF90DF90CF906F
:10257000BF90AF909F908F907F906F905F904F90A3
:102580003F902F900895242FAB0160E070E00C94F1
:1025900042122F923F924F925F926F927F928F9250
:1025A0009F92AF92BF92CF92DF92EF92FF920F93E2
:1025B0001F93CF93DF9300D01F92CDB7DEB75C019E
:1025C0006B013A0129838DB79EB79B838A8377FD80
:1025D00042C0F5018285938568177907E4F52DB629
:1025E0003EB600E010E0B801C3010E94D41D98017E
:1025F0002F5F3F4F882311F08901F5CF8DB79EB72C
:10260000821B930B0FB6F8949EBF0FBE8DBFEDB724
:10261000FEB731962F014F01E12CF12C0E151F054D
:1026200059F0B701C3010E94D41DF40181934F01F9
:10263000FFEFEF1AFF0AF2CFF201E00FF11F108255
:102640002981A201B601C5010E9442120FB6F89479
:102650003EBE0FBE2DBE8A819B810FB6F8949EBFF1
:102660000FBE8DBF0F900F900F90DF91CF911F91F4
:102670000F91FF90EF90DF90CF90BF90AF909F9021
:102680008F907F906F905F904F903F902F90089524
:10269000242FAB0160E070E00C94C91277FD1BC0E1
:1026A000DC011A96ED91FC911B976E177F079CF445
:1026B00057FD11C0660F771FFC01E60FF71F6485F9
:1026C0007585461757073CF4648D758D640F751F2B
:1026D000422F0C947D110895242FAB0160E070E02F
:1026E0000C944E13CF93DF93EC010E94AF10CE01F8
:1026F000DF91CF910C94F010CF92DF92EF92FF9286
:102700000F931F93CF93DF93EC016A017B010E942B
:10271000E41408851985012E000C220B330BC01A16
:10272000D10AE20AF30AC60ED71EE81EF91E0E945D
:10273000E414C616D706E806F90620F0CE010E947A
:10274000AF10F5CFCE01DF91CF911F910F91FF9088
:10275000EF90DF90CF900C94F010CF92DF92EF9239
:10276000FF920F93CF93DF93EC0169017A01402F21
:102770000E94C312B701A601CE01DF91CF910F9144
:10278000FF90EF90DF90CF900C947C13CF92DF926C
:10279000EF92FF920F93CF93DF93EC0169017A01DF
:1027A000402F0E944813B701A601CE01DF91CF91BF
:1027B0000F91FF90EF90DF90CF900C947C130895D1
:1027C000833060F5E82FF0E0EE0FFF1FEA5FFE4F69
:1027D00071836083813051F08230A1F08091690073
:1027E0008C7F482B40936900E89A08958091690096
:1027F000837F440F551F440F551F482B409369009A
:10280000E99A0895809169008F7C94E0440F551FE8
:102810009A95E1F7482B40936900EA9A089583302E
:1028200098F4813021F0823021F0E89803C0E998D3
:1028300001C0EA98E82FF0E0EE0FFF1FEA5FFE4FBD
:102840008FED93E19183808308951F920F920FB6CD
:102850000F9211242F933F934F935F936F937F9326
:102860008F939F93AF93BF93EF93FF93E0910601F4
:10287000F09107010995FF91EF91BF91AF919F9161
:102880008F917F916F915F914F913F912F910F9019
:102890000FBE0F901F9018951F920F920FB60F92B8
:1028A00011242F933F934F935F936F937F938F9355
:1028B0009F93AF93BF93EF93FF93E0910801F09143
:1028C00009010995FF91EF91BF91AF919F918F9170
:1028D0007F916F915F914F913F912F910F900FBE1C
:1028E0000F901F9018951F920F920FB60F92112400
:1028F0002F933F934F935F936F937F938F939F9308
:10290000AF93BF93EF93FF93E0910A01F0910B0116
:102910000995FF91EF91BF91AF919F918F917F9119
:102920006F915F914F913F912F910F900FBE0F903C
:102930001F9018951F920F920FB60F9211242F938C
:102940003F938F939F93AF93BF9380915D0390913B
:102950005E03A0915F03B091600330915C0326E0B9
:10296000230F2D3720F40296A11DB11D05C029E8C3
:10297000230F0396A11DB11D20935C0380935D037B
:1029800090935E03A0935F03B09360038091610313
:1029900090916203A0916303B09164030196A11D1D
:1029A000B11D8093610390936203A0936303B0937E
:1029B0006403BF91AF919F918F913F912F910F90A1
:1029C0000FBE0F901F9018952FB7F89460915D037C
:1029D00070915E0380915F03909160032FBF089513
:1029E0003FB7F8948091610390916203A0916303D3
:1029F000B091640326B5A89B05C02F3F19F001963E
:102A0000A11DB11D3FBFBA2FA92F982F8827820F74
:102A1000911DA11DB11DBC01CD0143E0660F771FC3
:102A2000881F991F4A95D1F708958F929F92AF9270
:102A3000BF92CF92DF92EF92FF926B017C010E94D6
:102A4000F0144B015C01C114D104E104F10401F163
:102A50000E94181E0E94F014DC01CB01881999090C
:102A6000AA09BB09883E9340A105B10560F321E0A6
:102A7000C21AD108E108F10888EE880E83E0981E9A
:102A8000A11CB11CC114D104E104F10419F7DBCF7E
:102A9000FF90EF90DF90CF90BF90AF909F908F907E
:102AA0000895789484B5826084BD84B5816084BDC6
:102AB00085B5826085BD85B5816085BDEEE6F0E0B7
:102AC000808181608083E1E8F0E010828081826013
:102AD0008083808181608083E0E8F0E08081816094
:102AE0008083E1EBF0E0808184608083E0EBF0E0C4
:102AF000808181608083EAE7F0E080818460808368
:102B000080818260808380818E7F808380818068E5
:102B100080831092C100089580930C01089588303D
:102B200028F0883110F0885101C08FEF20910C01FE
:102B300090E4299F900111248770822B80937C0060
:102B400080917A00806480937A0080917A0086FD7B
:102B5000FCCF809178002091790090E0922B08952D
:102B6000843081F028F4823099F08330A1F0089508
:102B70008830A9F08930B9F08530D1F48091800097
:102B80008F7D03C0809180008F77809380000895AF
:102B900084B58F7702C084B58F7D84BD0895809100
:102BA000B0008F7703C08091B0008F7D8093B0001C
:102BB0000895CF93DF9390E0FC01EF51FE4F2491F5
:102BC000FC01EF5FFD4F8491882361F190E0880F55
:102BD000991FFC01EB5CFD4FC591D491FC01E55DB3
:102BE000FD4FA591B491611109C09FB7F8948881F8
:102BF000209582238883EC912E230BC0623061F4F0
:102C00009FB7F8948881322F309583238883EC9185
:102C10002E2B2C939FBF06C08FB7F894E8812E2BE4
:102C200028838FBFDF91CF9108951F93CF93DF93B8
:102C3000282F30E0F901EF53FE4F8491F901EF5155
:102C4000FE4FD491F901EF5FFD4FC491CC23C1F049
:102C5000162F81110E94B015EC2FF0E0EE0FFF1F30
:102C6000E55DFD4FA591B4919FB7F894111104C093
:102C70008C91D095D82302C0EC91DE2BDC939FBFC2
:102C8000DF91CF911F910895CF93DF93282F30E0EC
:102C9000F901EF53FE4F8491F901EF51FE4FD491AA
:102CA000F901EF5FFD4FC491CC2391F081110E9497
:102CB000B015EC2FF0E0EE0FFF1FEF5DFD4FA5917B
:102CC000B491EC91ED2381E090E021F480E002C02A
:102CD00080E090E0DF91CF910895BF92CF92DF9294
:102CE000EF92FF920F931F93CF93DF93C82ED62EB0
:102CF000B42EC7E0D0E0022F10E087E0E82EF12CE0
:102D0000B11005C0C7018C1B9D0BB80102C0B801F2
:102D10008C2F02C0759567958A95E2F761708C2DAE
:102D20000E94151661E08D2D0E94151660E08D2D14
:102D30000E941516219720F7DF91CF911F910F91D7
:102D4000FF90EF90DF90CF90BF900895FC01918DA0
:102D5000228D892F90E0805C9F4F821B91098F7399
:102D600099270895FC01918D828D981731F0828DFD
:102D7000E80FF11D858D90E008958FEF9FEF089586
:102D8000FC01918D828D981761F0828DDF01A80F73
:102D9000B11D5D968C91928D9F5F9F73928F90E095
:102DA00008958FEF9FEF089585E398E1892B41F017
:102DB00080E090E0892B21F00E94351881110DC030
:102DC00080E090E0892B71F080E090E0892B51F059
:102DD0000E940000811104C008950E940000F0CFFD
:102DE0000C9400000895FC01848DDF01A80FB11D33
:102DF000A35ABF4F2C91848D90E001968F73992731
:102E0000848FA689B7892C93A089B1898C9180641D
:102E10008C93938D848D981306C00288F389E02DDE
:102E200080818F7D80830895EF92FF920F931F938F
:102E3000CF93DF93EC0181E0888F9B8D8C8D98136D
:102E400005C0E889F989808185FD24C0F62E0B8DA7
:102E500010E00F5F1F4F0F731127E02E8C8DE812CB
:102E60000CC00FB607FCFACFE889F989808185FF8D
:102E7000F5CFCE010E94F316F1CF8B8DFE01E80F46
:102E8000F11DE35AFF4FF0820B8FEA89FB898081A5
:102E9000806207C0EE89FF896083E889F9898081B3
:102EA0008064808381E090E0DF91CF911F910F914A
:102EB000FF90EF900895CF93DF93EC01888D8823E6
:102EC000C9F0EA89FB89808185FD05C0A889B98997
:102ED0008C9186FD0FC00FB607FCF5CF808185FF72
:102EE000F2CFA889B9898C9185FFEDCFCE010E94E0
:102EF000F316E7CFDF91CF910895CF92DF92EF9253
:102F0000FF921F93CF93DF93EC016A017B01122F95
:102F100060E874E88EE190E0A70196010E948E1FA0
:102F2000DA01C9010197A109B109B695A79597954D
:102F300087959C01E889F98982E08083211580E1E9
:102F40003807A8F0E889F989108260E472E48FE01C
:102F500090E0A70196010E948E1FDA01C901019736
:102F6000A109B109B695A795979587959C01EC8520
:102F7000FD853083EE85FF852083188EEC89FD89E1
:102F80001083EA89FB89808180618083EA89FB89DB
:102F9000808188608083EA89FB8980818068808362
:102FA000EA89FB8980818F7D8083DF91CF911F919A
:102FB000FF90EF90DF90CF9008951F920F920FB681
:102FC0000F9211242F938F939F93EF93FF93E09190
:102FD0007503F09176038081E0917B03F0917C038F
:102FE00082FD12C0908180917E038F5F8F7320914C
:102FF0007F03821751F0E0917E03F0E0EB59FC4F24
:10300000958F80937E0301C08081FF91EF919F9106
:103010008F912F910F900FBE0F901F9018951F92B8
:103020000F920FB60F9211242F933F934F935F93FC
:103030006F937F938F939F93AF93BF93EF93FF9380
:1030400085E693E00E94F316FF91EF91BF91AF9157
:103050009F918F917F916F915F914F913F912F91B0
:103060000F900FBE0F901F90189585E693E00E9479
:10307000A61621E0892B09F420E0822F0895E5E6C9
:10308000F3E01382128288EE93E0A0E0B0E0848344
:103090009583A683B78380E292E09183808385EC59
:1030A00090E09587848784EC90E09787868780EC12
:1030B00090E0918B808B81EC90E0938B828B82EC03
:1030C00090E0958B848B86EC90E0978B868B118EAD
:1030D000128E138E148E089508950E9451150E9429
:1030E0006C180E941008C4EDD6E10E94F4062097E7
:1030F000E1F30E94D416F9CFCF92DF92EF92FF92C4
:103100000F931F93CF93DF936C017A018B01C0E083
:10311000D0E0CE15DF0581F0D8016D918D01D6018B
:10312000ED91FC910190F081E02DC6010995892B6C
:1031300011F02196EECF7E01C701DF91CF911F9153
:103140000F91FF90EF90DF90CF900895611571057A
:1031500079F0FB0101900020E9F73197AF01461BA0
:10316000570BDC01ED91FC910280F381E02D099475
:1031700080E090E00895EF92FF920F931F93CF931A
:10318000DF938C017B01C0E0D0E0F701EC0FFD1F65
:103190006491662361F0D801ED91FC910190F0817A
:1031A000E02DC8010995892B11F02196EECFCE01B3
:1031B000DF91CF911F910F91FF90EF9008950C94A4
:1031C000A618DC01ED91FC910190F081E02D0994AD
:1031D0006CE272E00C94A6180F931F93CF93DF93C9
:1031E000EC010E94BB188C01CE010E94E818800FF0
:1031F000911FDF91CF911F910F9108950F931F930E
:10320000CF93DF93EC010E94A6188C01CE010E949F
:10321000E818800F911FDF91CF911F910F910895B2
:103220008F929F92AF92BF92EF92FF920F931F9354
:10323000CF93DF93CDB7DEB7A1970FB6F894DEBF7B
:103240000FBECDBF7C01FA01CB0119A2223008F4D8
:103250002AE08E010F5D1F4F822E912CA12CB12CE4
:10326000BF01A50194010E948E1FF901CA010150FE
:1032700011096A3014F4605D01C0695CD8016C9377
:10328000232B242B252B61F7B801C7010E94A61818
:10329000A1960FB6F894DEBF0FBECDBFDF91CF91E0
:1032A0001F910F91FF90EF90BF90AF909F908F90E4
:1032B0000895CF92DF92EF92FF920F931F93CF93D7
:1032C000DF932115310581F4DC01ED91FC91019032
:1032D000F081E02D642FDF91CF911F910F91FF902E
:1032E000EF90DF90CF9009942A30310501F577FFF8
:1032F0001DC06A017B01EC016DE20E94E1188C01A6
:1033000044275527BA014C195D096E097F092AE047
:10331000CE010E941019800F911FDF91CF911F9154
:103320000F91FF90EF90DF90CF9008952AE0DF910A
:10333000CF911F910F91FF90EF90DF90CF900C9461
:1033400010199A01AB01770F660B770B0C94591982
:103350000F931F93CF93DF93EC010E94A1198C016F
:10336000CE010E94E818800F911FDF91CF911F912D
:103370000F9108954F925F926F927F928F929F92DA
:10338000AF92BF92CF92DF92EF92FF920F931F9373
:10339000CF93DF9300D000D01F92CDB7DEB78B0163
:1033A00029013A0190910D01891721F09F3F09F001
:1033B00038C205C0EFE3F2E024912D8384C08093EE
:1033C0000D01EFE3F2E094919D839F3F09F429C240
:1033D000913009F44DC058F1923009F074C0109248
:1033E000B0001092B1009091B00092609093B00044
:1033F0009091B10091609093B100282F30E0F901D5
:10340000EF5FFD4FE491F0E0EE0FFF1FE55DFD4F34
:10341000459154915093040440930304F901EF51F2
:10342000FE4FE491E093020492E09D83F6C114BC48
:1034300015BC94B5926094BD95B5916095BD282F4B
:1034400030E0F901EF5FFD4FE491F0E0EE0FFF1F78
:10345000E55DFD4F45915491509312044093110442
:10346000F901EF51FE4FE491E09310041D82D5C1A4
:10347000109280001092810090918100986090934A
:10348000810090918100916090938100282F30E01D
:10349000F901EF5FFD4FE491F0E0EE0FFF1FE55DF6
:1034A000FD4F4591549150930B0440930A04F90148
:1034B000EF51FE4FE491E093090461E00E94D915B9
:1034C00021E02D83A5C02D8127FDABC161E00E94C5
:1034D000D9158D818D7F09F09BC04801A12CB12C9D
:1034E00060E079E08DE390E0A50194010E94B01FB7
:1034F00029833A834B835C8369017A0181E0C81A8E
:10350000D108E108F1089FEFC916D104E104F104E4
:1035100009F008F461C060E271EA87E090E0A5017B
:1035200094010E94B01F69017A0181E0C81AD10894
:10353000E108F1089D81923009F0F4C02FEFC21626
:10354000D104E104F10409F008F458C068E478EE0D
:1035500081E090E0A50194010E94B01F69017A0109
:1035600081E0C81AD108E108F1089FEFC916D1041B
:10357000E104F10409F008F44EC164E274EF80E064
:1035800090E0A50194010E94B01F69017A0181E0D9
:10359000C81AD108E108F1089FEFC916D104E10467
:1035A000F10471F168F162E17AE780E090E0A50151
:1035B00094010E94B01F69017A0181E0C81AD10804
:1035C000E108F1089FEFC916D104E104F10411F0FC
:1035D00008F0C9C085E015C081E09D81911111C03E
:1035E00095B5987F892B85BD411451046104710400
:1035F00009F04FC02FEF3FEFA90163C082E001C087
:1036000084E09091B100987F892B8093B1003CC0F9
:103610004801A12CB12C60E079E08DE390E0A50198
:1036200094010E94B01F69017A0181E0C81AD10893
:10363000E108F108C114D10491E0E906F10488F031
:1036400064E274EF80E090E0A50194010E94B01F55
:1036500069017A0181E0C81AD108E108F10883E024
:1036600001C081E09D81913079F490918100987F33
:10367000892B80938100411451046104710449F441
:103680002FEF3FEFA9012CC04114510461047104D4
:1036900071F0D801AA0FBB1FA30192010E94E41F81
:1036A00028EE33E040E050E00E948E1F03C02FEF71
:1036B0003FEFA9018D81813099F0823019F181119C
:1036C000B0C0C7BC20931304309314044093150476
:1036D0005093160480916E00826080936E00A1C0AA
:1036E000D0928900C092880020930C0430930D047E
:1036F00040930E0450930F0480916F00826080937A
:103700006F008FC0C092B30020930504309306046D
:103710004093070450930804809170008260809366
:1037200070007FC08FEFC816D104E104F104C9F026
:10373000C0F064E274EF80E090E0A50194010E9483
:10374000B01F69017A0191E0C91AD108E108F108B6
:103750002FEFC216D104E104F10409F080F583E0F3
:103760003CCF82E03ACF69E07DE380E090E0A501C4
:1037700094010E94B01F69017A0181E0C81AD10842
:10378000E108F1089FEFC916D104E104F104A9F0A2
:10379000A0F089819A81AB81BC812AE0B595A7957B
:1037A000979587952A95D1F76C017D0121E0C21A82
:1037B000D108E108F10887E024CF86E022CF69E054
:1037C0007DE380E090E0A50194010E94B01F6901B3
:1037D0007A0181E0C81AD108E108F1089FEFC91603
:1037E000D104E104F104A9F0A0F089819A81AB81B0
:1037F000BC814AE0B595A795979587954A95D1F7ED
:103800006C017D0121E0C21AD108E108F10885E0D0
:10381000E4CE84E0E2CE83E0F4CE61E00E94D915EC
:103820005CCE0F900F900F900F900F90DF91CF9183
:103830001F910F91FF90EF90DF90CF90BF90AF90CE
:103840009F908F907F906F905F904F900895813000
:1038500039F018F0823051F0089510926E000895FA
:1038600080916F008D7F80936F000895809170002C
:103870008D7F8093700081E08093B0008091B100D3
:10388000887F84608093B1001092B3000895CF9335
:10389000C82F80910D01C81307C0EFE3F2E08491B7
:1038A0009FEF90930D0101C08FEF0E94271C60E0F5
:1038B0008C2FCF910C9415161F920F920FB60F926A
:1038C00011242F933F934F935F936F937F938F9325
:1038D0009F93AF93BF93EF93FF93809105049091D3
:1038E0000604A0910704B0910804892B8A2B8B2B26
:1038F00051F190910204E0910304F091040480815D
:10390000892780838091050490910604A091070483
:10391000B0910804181619061A061B06C4F4809103
:10392000050490910604A0910704B0910804019742
:10393000A109B1098093050490930604A09307049C
:10394000B093080404C080910D010E94471CFF91B0
:10395000EF91BF91AF919F918F917F916F915F9107
:103960004F913F912F910F900FBE0F901F90189580
:103970004F925F926F927F92AF92BF92CF92DF92FF
:10398000EF92FF920F931F93CF93DF93CDB7DEB7E4
:1039900029013A019B01AC0124193509460957094F
:1039A00089899A89AB89BC89BC01CD016A197B09D7
:1039B0008C099D090E944A1FA80197012419350905
:1039C000460957090E94B01FCA01B9016A0D7B1D43
:1039D0008C1D9D1DDF91CF911F910F91FF90EF9056
:1039E000DF90CF90BF90AF907F906F905F904F909F
:1039F0000895FC01808191810C948720CF93DF93FF
:103A0000EC0188819981009711F00E94872019822A
:103A100018821D821C821B821A82DF91CF91089529
:103A20000F931F93CF93DF93EC018B016F5F7F4F59
:103A3000888199810E941021009731F099838883B1
:103A40001B830A8381E001C080E0DF91CF911F9149
:103A50000F910895CF93DF93EC0188819981892B91
:103A600029F08A819B818617970760F4CE010E9416
:103A7000101D882341F08C819D81892B19F4E881E8
:103A8000F981108281E0DF91CF910895EF92FF924A
:103A90000F931F93CF93DF93EC017B018A01BA014F
:103AA0000E942A1D811104C0CE010E94FE1C07C085
:103AB0001D830C83B701888199810E94E621CE0184
:103AC000DF91CF911F910F91FF90EF900895FC012E
:103AD000118210821382128215821482611571057F
:103AE00051F0FB0101900020E9F73197AF01461B2F
:103AF000570B0C94461D0895CF93DF93EC01FB0107
:103B00008617970761F0608171816115710529F051
:103B1000448155810E94461D02C00E94FE1CCE01B8
:103B2000DF91CF910895EF92FF920F931F93CF9360
:103B3000DF936115710511F480E01CC0411551053A
:103B4000C1F07B01EC018C819D818A01080F191F56
:103B5000B801CE010E942A1D882371F32881398182
:103B60008C819D81B701820F931F0E94E6211D83E6
:103B70000C8381E0DF91CF911F910F91FF90EF9027
:103B80000895CF93DF93EC01FB014481558160815F
:103B900071810E94931D811103C0CE010E94FE1C01
:103BA000CE01DF91CF910895FC0124813581621708
:103BB000730748F480819181009729F0FC01E60F9A
:103BC000F71F8081089580E00895CF93DF93DC0193
:103BD0001496ED91FC9115976E177F0730F54115FE
:103BE000510519F1DF01A61BB70B9A01A417B50700
:103BF00008F49D01DB01EC0188819981E21BF30B44
:103C0000FD83EC83AF01461B570B260F371FBC010A
:103C1000620F731F8A0F9B1F0E94ED21E881F981BB
:103C20008C819D81E80FF91F1082DF91CF9108955B
:103C300008950E94201E6894B1110C94D71E089517
:103C40000E94BC1E88F09F5798F0B92F9927B75152
:103C5000B0F0E1F0660F771F881F991F1AF0BA9530
:103C6000C9F714C0B13091F00E94D61EB1E008959A
:103C70000C94D61E672F782F8827B85F39F0B93F8C
:103C8000CCF3869577956795B395D9F73EF49095E3
:103C90008095709561957F4F8F4F9F4F0895E89461
:103CA00009C097FB3EF490958095709561957F4F84
:103CB0008F4F9F4F9923A9F0F92F96E9BB27939532
:103CC000F695879577956795B795F111F8CFFAF442
:103CD000BB0F11F460FF1BC06F5F7F4F8F4F9F4F73
:103CE00016C0882311F096E911C0772321F09EE8D1
:103CF000872F762F05C0662371F096E8862F70E037
:103D000060E02AF09A95660F771F881FDAF7880F10
:103D10009695879597F9089597F99F6780E870E0E1
:103D200060E008959FEF80EC089500240A94161631
:103D3000170618060906089500240A941216130699
:103D4000140605060895092E0394000C11F4882327
:103D500052F0BB0F40F4BF2B11F460FF04C06F5F43
:103D60007F4F8F4F9F4F089557FD9058440F551F19
:103D700059F05F3F71F04795880F97FB991F61F0ED
:103D80009F3F79F087950895121613061406551F64
:103D9000F2CF4695F1DF08C0161617061806991FD0
:103DA000F1CF86957105610508940895E894BB27C5
:103DB00066277727CB0197F908950E94F01E0C948F
:103DC000A31E0E94951E38F00E949C1E20F0952391
:103DD00011F00C948C1E0C94921E11240C94D71E7E
:103DE0000E94B41E70F3959FC1F3950F50E0551FCC
:103DF000629FF001729FBB27F00DB11D639FAA2740
:103E0000F00DB11DAA1F649F6627B00DA11D661F8E
:103E1000829F2227B00DA11D621F739FB00DA11DAF
:103E2000621F839FA00D611D221F749F3327A00D69
:103E3000611D231F849F600D211D822F762F6A2F05
:103E400011249F5750409AF0F1F088234AF0EE0F6A
:103E5000FF1FBB1F661F771F881F91505040A9F797
:103E60009E3F510580F00C948C1E0C94D71E5F3F32
:103E7000E4F3983ED4F3869577956795B795F795D3
:103E8000E7959F5FC1F7FE2B880F911D969587954B
:103E900097F90895DB018F939F930E94E41FBF91D0
:103EA000AF91A29F800D911DA39F900DB29F900D89
:103EB00011240895991B79E004C0991F961708F002
:103EC000961B881F7A95C9F780950895AA1BBB1B7E
:103ED00051E107C0AA1FBB1FA617B70710F0A61B0A
:103EE000B70B881F991F5A95A9F780959095BC012B
:103EF000CD01089597FB072E16F4009407D077FDA7
:103F000009D00E94661F07FC05D03EF4909581956C
:103F10009F4F0895709561957F4F0895A1E21A2EE5
:103F2000AA1BBB1BFD010DC0AA1FBB1FEE1FFF1F5D
:103F3000A217B307E407F50720F0A21BB30BE40BAD
:103F4000F50B661F771F881F991F1A9469F76095F4
:103F50007095809590959B01AC01BD01CF010895AE
:103F6000052E97FB1EF400940E94C71F57FD07D033
:103F70000E948E1F07FC03D04EF40C94C71F50956F
:103F80004095309521953F4F4F4F5F4F0895909545
:103F90008095709561957F4F8F4F9F4F0895EE0FDD
:103FA000FF1F0590F491E02D0994A29FB001B39FEB
:103FB000C001A39F700D811D1124911DB29F700D32
:103FC000811D1124911D08950E94D51FA59F900D5C
:103FD000B49F900DA49F800D911D112408950F93FF
:103FE0001F93CF93DF938230910510F482E090E02D
:103FF000E0911904F0911A0420E030E0A0E0B0E074
:10400000309719F140815181028113814817590776
:10401000C8F08417950769F4109731F012960C9345
:10402000129713961C9327C00093190410931A0437
:1040300022C02115310519F04217530718F49A01CF
:10404000BD01EF01DF01F801DBCF21153105F9F0EA
:10405000281B390B2430310580F48A819B8161153E
:10406000710521F0FB019383828304C090931A04AD
:1040700080931904FE01329644C0FE01E20FF31F43
:104080008193919322503109398328833AC020913A
:10409000170430911804232B41F420910201309130
:1040A00003013093180420931704209100013091EC
:1040B00001012115310541F42DB73EB740910401AE
:1040C00050910501241B350BE0911704F091180461
:1040D000E217F307A0F42E1B3F0B2817390778F0DF
:1040E000AC014E5F5F4F2417350748F04E0F5F1F3E
:1040F00050931804409317048193919302C0E0E019
:10410000F0E0CF01DF91CF911F910F910895CF93F0
:10411000DF93009709F481C0FC0132971382128269
:10412000A0911904B0911A04109781F42081318173
:10413000820F931F20911704309118042817390714
:1041400051F5F0931804E093170467C0ED0120E0E7
:1041500030E0CE17DF0740F44A815B819E014115B4
:104160005105F1F0EA01F5CFD383C283408151813B
:10417000840F951FC817D90759F488819981840F36
:10418000951F0296918380838A819B81938382838A
:104190002115310529F4F0931A04E09319043DC068
:1041A000E901FB83EA8349915991C40FD51FEC17AC
:1041B000FD0761F480819181840F951F0296E901CA
:1041C00099838883828193819B838A83E0E0F0E0F6
:1041D00012968D919C911397009719F0FD01DC01C7
:1041E000F7CF8D919C9111979D012E5F3F4F820FCC
:1041F000931F20911704309118042817390769F488
:10420000309729F410921A041092190402C01382F4
:104210001282B0931804A0931704DF91CF910895F0
:10422000A0E0B0E0E6E1F1E20C94B324EC010097E9
:1042300021F4CB010E94EF1FB4C0FC01E60FF71F71
:104240009C0122503109E217F30708F4A8C0D901F4
:104250000D911C91119706171707B0F00530110545
:1042600008F49BC0C80104978617970708F495C007
:1042700002501109061B170B019311936D937C9348
:10428000CF010E94872089C05B01A01AB10A4C01AE
:10429000800E911EA0911904B0911A04612C712C0A
:1042A000E12CF12C109709F446C08D919C91119747
:1042B000A815B905B1F56C0142E0C40ED11CCA14B1
:1042C000DB0478F14C018A189B08640142E0C40EBB
:1042D000D11C1296BC9012971396AC91B5E0CB16F8
:1042E000D10440F0B282A38391828082D9016D9380
:1042F0007C9309C00E5F1F4F800F911FF9019183BE
:104300008083EB2DFA2FE114F10431F0D7011396DD
:10431000FC93EE93129741C0F0931A04E0931904B2
:104320003CC06816790608F43C017D0112960D9098
:10433000BC91A02DB7CF80911704909118048816D6
:104340009906E1F466167706C8F480910001909111
:104350000101009741F48DB79EB74091040150913F
:104360000501841B950BE817F907C8F4F0931804AE
:10437000E0931704F901718360830FC0CB010E94A1
:10438000EF1F7C01009759F0A801BE010E94D621C1
:10439000CE010E948720C70104C0CE0102C080E088
:1043A00090E0CDB7DEB7EEE00C94CF24FB01DC014A
:1043B00002C001900D9241505040D8F70895DC01A1
:1043C00001C06D9341505040E0F70895FB01DC01BE
:1043D00001900D920020E1F70895FB01DC014150AE
:1043E000504048F001900D920020C9F701C01D9285
:1043F00041505040E0F70895AEE0B0E0E2E0F2E274
:104400000C94BD240D891E8986E08C831A83098350
:104410008FEF9FE79E838D83AE01475E5F4F6F896D
:10442000788DCE0101960E941E22EF81F885E00F63
:10443000F11F10822E96E4E00C94D924ABE0B0E09A
:10444000E4E2F2E20C94AF246C017B018A01FC01EE
:1044500017821682838181FFCCC1CE0101963C0177
:10446000F6019381F70193FD859193FF81917F017F
:10447000882309F4BAC1853239F493FD859193FFFD
:1044800081917F01853229F4B60190E00E941524C4
:10449000E7CF912C212C312CFFE1F315D8F08B3292
:1044A00079F038F4803279F08332A1F4232D206141
:1044B0001DC08D3261F0803369F4232D216016C058
:1044C000832D8260382EE32DE4603E2E2AC0F32D2A
:1044D000F8601DC037FC2DC020ED280F2A3040F0B9
:1044E0008E32B9F436FC81C1232D2064322E19C0DE
:1044F00036FE06C08AE0989E200D1124922E11C02F
:10450000EAE02E9E200D1124222EF32DF0623F2E84
:1045100008C08C3621F4832D8068382E02C088367E
:1045200041F4F70193FD859193FF81917F01811102
:10453000B3CF982F9F7D9554933028F40C5F1F4F75
:104540009FE399830DC0833631F0833771F0833553
:1045500009F059C021C0F801808189830E5F1F4F87
:1045600088248394912C530113C02801F2E04F0E4C
:10457000511CF801A080B18036FE03C0692D70E0A7
:1045800002C06FEF7FEFC5010E940A244C01820137
:10459000F32DFF773F2E16C0280122E0420E511C5A
:1045A000F801A080B18036FE03C0692D70E002C022
:1045B0006FEF7FEFC5010E94FF234C01F32DF068E0
:1045C0003F2E820133FC1BC0822D90E08816990695
:1045D000B0F4B60180E290E00E9415242A94F4CF52
:1045E000F50137FC859137FE81915F01B60190E0BE
:1045F0000E94152421102A9421E0821A9108811426
:10460000910471F7E8C0843611F0893641F5F8015C
:1046100037FE07C060817181828193810C5F1F4FDB
:1046200008C060817181072E000C880B990B0E5F0A
:104630001F4FF32DFF763F2E97FF09C09095809571
:10464000709561957F4F8F4F9F4FF0683F2E2AE006
:1046500030E0A3010E945124882E861845C085377A
:1046600031F4232D2F7EB22E2AE030E025C0932D89
:10467000997FB92E8F36C1F018F4883579F0B5C01E
:10468000803719F0883721F0B0C0E92FE061BE2EE5
:10469000B4FE0DC0FB2DF460BF2E09C034FE0AC06D
:1046A000292F2660B22E06C028E030E005C020E1A8
:1046B00030E002C020E132E0F801B7FE07C06081BF
:1046C0007181828193810C5F1F4F06C0608171816F
:1046D00080E090E00E5F1F4FA3010E945124882EBE
:1046E0008618FB2DFF773F2E36FE0DC0232D2E7F23
:1046F000A22E891458F434FE0BC032FC09C0832D5D
:104700008E7EA82E05C0B82CA32C03C0B82C01C0E7
:10471000B92CA4FE0FC0FE01E80DF11D808180338D
:1047200021F49A2D997EA92E09C0A2FE06C0B39449
:10473000B39404C08A2D867809F0B394A3FC11C009
:10474000A0FE06C0B21488F4280C922C9B180EC050
:10475000B21460F4B60180E290E00E941524B39494
:10476000F7CFB21418F42B1802C0982C212CA4FEF9
:1047700010C0B60180E390E00E941524A2FE17C08D
:10478000A1FC03C088E790E002C088E590E0B60194
:104790000CC08A2D867859F0A1FE02C08BE201C0C0
:1047A00080E2A7FC8DE2B60190E00E9415248914F6
:1047B00038F4B60180E390E00E9415249A94F7CF74
:1047C0008A94F301E80DF11D8081B60190E00E940A
:1047D00015248110F5CF222009F442CEB60180E2E3
:1047E00090E00E9415242A94F6CFF60186819781E5
:1047F00002C08FEF9FEF2B96E2E10C94CB24FC01DB
:104800000590615070400110D8F7809590958E0FFB
:104810009F1F0895FC016150704001900110D8F76E
:10482000809590958E0F9F1F08950F931F93CF93A0
:10483000DF93FB01238121FD03C08FEF9FEF2CC08D
:1048400022FF16C0468157812481358142175307C4
:1048500044F4A081B1819D012F5F3F4F31832083BC
:104860008C93268137812F5F3F4F3783268314C077
:104870008B01EC01FB010084F185E02D0995892B6A
:10488000E1F6D80116968D919C911797019617968F
:104890009C938E931697CE01DF91CF911F910F912C
:1048A0000895FA01AA27283051F1203181F1E894C6
:1048B0006F936E7F6E5F7F4F8F4F9F4FAF4FB1E013
:1048C0003ED0B4E03CD0670F781F891F9A1FA11D0E
:1048D000680F791F8A1F911DA11D6A0F711D811D0F
:1048E000911DA11D20D009F468943F912AE0269FD4
:1048F00011243019305D3193DEF6CF010895462F33
:104900004770405D4193B3E00FD0C9F7F6CF462F13
:104910004F70405D4A3318F0495D31FD405241937C
:1049200002D0A9F7EACFB4E0A69597958795779539
:104930006795BA95C9F700976105710508959B01C0
:10494000AC010A2E06945795479537952795BA9549
:10495000C9F7620F731F841F951FA01D08952F9222
:104960003F924F925F926F927F928F929F92AF92FF
:10497000BF92CF92DF92EF92FF920F931F93CF934C
:10498000DF93CDB7DEB7CA1BDB0B0FB6F894DEBFE3
:104990000FBECDBF09942A88398848885F846E8409
:1049A0007D848C849B84AA84B984C884DF80EE8053
:1049B000FD800C811B81AA81B981CE0FD11D0FB65C
:1049C000F894DEBF0FBECDBFED010895F894FFCF80
:1049D00000001B048000DF130000000001FF2530F1
:1049E0003275206425303175202530327500253030
:1049F00032752D25303275206425317500253475CA
:104A00002D253032752D2530327520253032753AFE
:104A1000253032753A25303275202E00253032751A
:104A20002325303175430020202020202020200025
:104A30002530327520253032752025303275002022
:104A40002534752D253032752D253032752064259D
:104A5000317520253032755F2530327520202532A2
:104A6000752325317543205025327520004241546D
:104A70005445525F56414C3A3D00424154544552D0
:104A80005F56414C2825293A3D0000000000770977
:104A90004A091E0926093A094909203A20307800B6
:104AA0000600000000000000000000000000000000
:104AB00005000000000000000400000003000201E7
:104AC000804020100804020111C163856171439187
:104AD000F38751E313D5C531197349E1C783819336
:104AE0008925039F250D9949411F011900000000E8
:104AF00014177C18A616C016B2165B170D0A006EA6
:0C4B0000616E00696E66006F7666000052
:00000001FF
