:100000000C9410010C9456220C947D220C94A42282
:100010000C9438010C9438010C9438010C9438017C
:100020000C9438010C94032B0C9438010C94380177
:100030000C9438010C9490180C9438010C943801ED
:100040000C9438010C9438010C94CB220C94380198
:100050000C945A260C948C260C9438010C9438017C
:100060000C9438010C9438010C94760D0C943801E2
:100070000C9438010C9438010C94380153657420A9
:100080005375636365737366756C0068683A6D6D6C
:10009000206D6F646500456E74657220616C6172DD
:1000A0006D2074696D6520666F726D617420286DB6
:1000B0006F6465206973203120746F20362C2034E2
:1000C000206973207065722064617929005365741A
:1000D000205375636365737366756C006D6D6D2D6C
:1000E00064642D797979792068682D6D6D2D73732D
:1000F0002073616D706C6520696E7075743A204470
:10010000656320323620323030392031323A333490
:100110003A353600456E74657220646174652066F8
:100120006F726D6174006B457874506F77657250B3
:10013000696E3A3D00526570656174204D6F64656B
:10014000205365743A20002D2D2D2D2D2D2D2D2D74
:100150002D2D2D2D2D2D2D2D2D2D0043686F6F73E1
:10016000652061206D656E75206974656D3A00418A
:1001700020736574205B415D6C61726D2074696DE4
:1001800065005420736574205B545D696D65001FC4
:100190001C1F1E1F1E1F1F1E1F1E1F00000002030C
:1001A0000000000000000005040908000000000035
:1001B0000000000000000000000000010204081020
:1001C0002040800102040810204080010204081031
:1001D0002040800102040810204080020202020236
:1001E00002020204040404040404040303030303DA
:1001F00003030301010101010101010000200023AB
:10020000002600290000002200250028002B000005
:10021000002100240027002A00028D049D0CBC262A
:1002200011241FBECFEFD0E1DEBFCDBF12E0A0E0B2
:10023000B1E0E6E6F9E602C005900D92A839B107F3
:10024000D9F725E0A8E9B2E001C01D92A136B207B6
:10025000E1F711E0C0E1D1E004C02197FE010E9466
:100260007B2FCD30D107C9F70E94EA260C94B13418
:100270000C94000081E08093C9020895DC01ED91A7
:10028000FC910190F081E02D09946AE470E080E136
:1002900093E00E941D0C61E070E080E193E00E9419
:1002A0003E0161E370E080E193E00E943E0180E165
:1002B00093E00E949A0C6AE070E080E090E00E9477
:1002C000462360E470E080E193E00E941D0C62E050
:1002D00070E080E193E00E943E0170E060E080E128
:1002E00093E00E943E0170E060E080E193E00E94B4
:1002F0003E0180E193E00C949A0CCF93DF9300D001
:1003000000D000D0CDB7DEB7CE0101960E94FB0F22
:100310008E811F928F938D811F928F938C811F925C
:100320008F938EE091E09F938F9382EA92E09F9368
:100330008F930E94D9314CE462EA72E08BED92E037
:100340000E94571541E070E060E08BED92E00E9462
:10035000FE1541E061E070E08BED92E00E94FE1539
:1003600041E062E070E08BED92E00E94FE1541E01A
:1003700063E070E08BED92E00E94FE1541E064E0E6
:1003800070E08BED92E00E94FE1541E065E070E0C8
:100390008BED92E00E94FE1544EF51E060E070E0CA
:1003A0008BED92E00E94041640E070E060E08BED7F
:1003B00092E00E94FE1540E061E070E08BED92E07B
:1003C0000E94FE1540E062E070E08BED92E00E943A
:1003D000FE1540E063E070E08BED92E00E94FE15B8
:1003E00040E064E070E08BED92E00E94FE1540E09A
:1003F00065E070E08BED92E00E94FE1544EF51E065
:1004000060E070E08BED92E00E9404160FB6F89465
:10041000DEBF0FBECDBF26960FB6F894DEBF0FBE6F
:10042000CDBFDF91CF9108950F931F93CF93DF93AB
:1004300000D000D000D0CDB7DEB7CE0101960E942B
:10044000FB0FCE0101960E94510F1F928F938D8159
:100450001F928F938C811F928F938DE191E09F93D8
:100460008F9302EA12E01F930F930E94D9314CE45C
:10047000B8018BED92E00E94571544EF51E060E027
:1004800070E08BED92E00E940416CE0101960E946E
:10049000510F1F928F938D811F928F938C811F928A
:1004A0008F938CE291E09F938F931F930F930E9401
:1004B000D9314CE4B8018BED92E00E94571544EF1E
:1004C00051E060E070E08BED92E00E9404160FB600
:1004D000F894DEBF0FBECDBF26960FB6F894DEBFF0
:1004E0000FBECDBFDF91CF911F910F910895EF9275
:1004F000FF920F93CF93DF9300D000D000D0CDB701
:10050000DEB785E0E82EF12C6BE371E08DE992E037
:100510000E94C33103E424EF31E040E050E06DE994
:1005200072E08BED92E00E94351660E471E0CE013E
:1005300001960E940F2C4CE4BE016F5F7F4F8BED44
:1005400092E00E94DC1548E552E060E070E08BED3F
:1005500092E00E940416CE0101960E94A02B81E039
:10056000E81AF10889F626960FB6F894DEBF0FBE9A
:10057000CDBFDF91CF910F91FF90EF900895EF9253
:10058000FF920F93CF93DF9300D000D000D0CDB770
:10059000DEB785E0E82EF12C69E471E08DE992E0A8
:1005A0000E94C33103E42CE231E040E050E06DE909
:1005B00072E08BED92E00E94351660E471E0CE01AE
:1005C00001960E940F2C4CE4BE016F5F7F4F8BEDB4
:1005D00092E00E94DC154CE251E060E070E08BEDAF
:1005E00092E00E940416CE0101960E94A02B81E0A9
:1005F000E81AF10889F626960FB6F894DEBF0FBE0A
:10060000CDBFDF91CF910F91FF90EF9008950F93A1
:1006100003E428EB3BE040E050E060E571E08BED67
:1006200092E00E9435160F9108950F9303E428EB92
:100630003BE040E050E063E571E08BED92E00E942A
:1006400035160F910895CF93DF9300D000D000D0DE
:10065000CDB7DEB7CE0101960E94FB0F8E811F92AF
:100660008F938D811F928F938C811F928F938B819B
:100670001F928F938A811F928F93898190E080537C
:10068000984F9F938F9387E591E09F938F9382EA92
:1006900092E09F938F930E94D93162EA72E08BEAD5
:1006A00094E00E947E270FB6F894DEBF0FBECDBF48
:1006B00026960FB6F894DEBF0FBECDBFDF91CF9167
:1006C0000895CF93DF938FE10E94BD23EC018FE16A
:1006D0000E94BD23C80FD91F8FE10E94BD238C0F3C
:1006E0009D1F63E070E00E94262FCB01DF91CF9128
:1006F0000895AF92BF92CF92DF92EF92FF920F9345
:100700001F93CF93DF9300D000D000D0CDB7DEB7DA
:10071000CE0101960E94FB0F0E946103BC01990F5C
:10072000880B990B1F921F921F9224E62F93A12CE6
:10073000B12C650114EDE12E13E0F12E00E010E084
:100740002EEE32E040E050E00E945F2B9B010F90C4
:100750000F900F900F9066357105ACF18B811F9251
:100760008F938A811F928F9386E791E09F938F9357
:1007700082EA92E09F938F930E94D9310FB6F8944A
:10078000DEBF0FBECDBF4CE462EA72E08BED92E0BB
:100790000E94571540ED57E060E070E08BED92E06D
:1007A0000E94041626960FB6F894DEBF0FBECDBF8A
:1007B000DF91CF911F910F91FF90EF90DF90CF903D
:1007C000BF90AF900895AB01475451094F30510588
:1007D00048F48B811F928F938A811F928F9384E8B4
:1007E00091E0C4CFAB01485351094F30510548F453
:1007F0008B811F928F938A811F928F9382E991E060
:10080000B5CFAB01495251094F30510548F48B81A6
:100810001F928F938A811F928F9380EA91E0A6CFD7
:10082000655171096431710548F48B811F928F9372
:100830008A811F928F938EEA91E098CF25313105FE
:100840000CF0A1CF8B811F928F938A811F928F937F
:100850008CEB91E08BCFCF93DF93EB0120E030E086
:10086000A901BC018CE00E94682888E78C9FB00138
:100870008D9F700D1124072E000C880B990BDF91B2
:10088000CF910C944623CF93DF93EC018CE00E9430
:10089000EE2A88E78C9FB0018D9F700D1124072EE2
:1008A000000C880B990BDF91CF910C94462390910B
:1008B0007A009F7790937A008A30B1F094E0899F14
:1008C00090011124207287708860822B98E10FB606
:1008D000F894A895909360000FBE8093600080917B
:1008E000600080648093600083B7817F846083BFF1
:1008F000F89483B7816083BF85B7806685BF8F7D9D
:1009000085BF7894889583B78E7F83BF78948091D4
:100910007A00806880937A000895EF92FF920F9397
:100920001F9388E0E82EF12C10E000E02DE030E08D
:100930004FE050E06EE070E08BED92E00E94CE134D
:1009400063E070E08AED92E01F910F91FF90EF90CD
:100950000C946716AF92BF92CF92DF92EF92FF9204
:100960000F931F93CF93DF93CDB7DEB769970FB681
:10097000F894DEBF0FBECDBF64E171E08BEA94E076
:100980000E946C276CED70E08BEA94E00E946C276B
:100990008BEA94E00E942D254497D4F38E010F5FDB
:1009A0001F4F7E018CE0E80EF11C58018BEA94E0A9
:1009B0000E944725F80181938F01EE15FF05B1F7DD
:1009C0008BEA94E00E94472567018E010C5E1F4F61
:1009D0008BEA94E00E944725F60181936F010E1780
:1009E0001F07B1F76AE070E080E090E00E944623C4
:1009F0008BEA94E00E949725A701B501C8010E94E7
:100A0000E30EC8010E9434126AE070E080E090E0DA
:100A10000E944623B5018BEA94E00E947E27C8011C
:100A20000E94FB0FC8010E94510F182F68E670E06A
:100A300080E193E00E941D0C64E070E080E193E0AF
:100A40000E943E01612F80E193E00E94B70B80E19C
:100A500093E00E949A0C6DEC70E08BEA94E00E94A7
:100A60006C2769960FB6F894DEBF0FBECDBFDF913D
:100A7000CF911F910F91FF90EF90DF90CF90BF909B
:100A8000AF900895BF92CF92DF92EF92FF920F93B3
:100A90001F93CF93DF93CDB7DEB72C970FB6F894A3
:100AA000DEBF0FBECDBFCE0107960E94FB0FD884DC
:100AB000B98466E970E08BEA94E00E946C276BE8E9
:100AC00070E08BEA94E00E946C278BEA94E00E942D
:100AD0002D250897D4F38BEA94E00E944725182F20
:100AE000682F8BEA94E00E94B7258BEA94E00E947D
:100AF0004725082F682F8BEA94E00E94B7258AE0EB
:100B0000E82E00511E9D000D11248BEA94E00E94F6
:100B10004725682F8BEA94E00E94B7258BEA94E082
:100B20000E944725F82E682F8BEA94E00E94B72593
:100B30008BEA94E00E944725182F682F8BEA94E0F7
:100B40000E94B7251051FE9C100D1124E12E8BEA56
:100B500094E00E944725682F8BEA94E00E94B72515
:100B60008BEA94E00E944725182F682F8BEA94E0C7
:100B70000E94B72567E471E08BEA94E00E947E272B
:100B80006AE070E080E090E00E9446238BEA94E007
:100B90000E949725C12C2B2D4D2D63EE77E0CE01C1
:100BA00001960E94CF0ECE0101960E94C7121053EB
:100BB000612F70E08FE093E00E94DF106CE770E03F
:100BC0008BEA94E00E946C272C960FB6F894DEBF57
:100BD0000FBECDBFDF91CF911F910F91FF90EF908E
:100BE000DF90CF90BF900895CF936AE470E080E1EA
:100BF00093E00E941D0C61E070E080E193E00E94B0
:100C00003E0180E193E00E949A0C65E070E080E094
:100C100090E00E94462341E050E06AE470E080E109
:100C200093E00E94950C80E193E00E94940BC82F02
:100C30006AE470E080E193E00E941D0C61E070E0E6
:100C400080E193E00E943E016C2F606480E193E0BC
:100C50000E94B70B80E193E00E949A0C6AE471E075
:100C600080E090E00E9446236AE470E080E193E037
:100C70000E941D0C70E060E080E193E00E943E0164
:100C800080E193E00E949A0C42E050E06AE470E058
:100C900080E193E00E94950C80E193E00E94940B28
:100CA000C82F80E193E00E94940B20E03C2FA90123
:100CB000482BCA0124E0959587952A95E1F7CF91B5
:100CC0000895CF9360E470E080E193E00E941D0CF2
:100CD00061E070E080E193E00E943E0180E193E0FA
:100CE0000E949A0C6AE070E080E090E00E94462347
:100CF00042E050E060E470E080E193E00E94950CF7
:100D000080E193E00E94940BC82F80E193E00E9461
:100D1000940B60E07C2F682B90E080E00E94D72D40
:100D200020E030E040E857E30E94892E20E030E0E8
:100D300048EC52E40E94892ECF9108950F931F939F
:100D4000CF93DF930E94F405EC010E94F4058C011F
:100D50000E9461060E94A82D1F926F93CF70DD271D
:100D6000BE01DD0F880B990B0E94D92D20E030E0E9
:100D700040E25FE30E94892E0E94A82D1F926F938C
:100D8000B801110F880B990B0E94D92D20E030E09B
:100D900040E85DE30E94892E0E94A82D1F926F9368
:100DA0008AEC91E09F938F9382EA92E09F938F93D6
:100DB0000E94D9314CE462EA72E08BED92E00E942D
:100DC00057158DB79EB70A960FB6F8949EBF0FBE03
:100DD0008DBF48E853E160E070E08BED92E0DF9179
:100DE000CF911F910F910C9404164F925F926F92C6
:100DF0007F928F929F92AF92BF92CF92DF92EF92AB
:100E0000FF920F931F93CF93DF93CDB7DEB7629717
:100E10000FB6F894DEBF0FBECDBF0E94F4054C01A3
:100E20000E9461062B013C010E946103BC01990FE5
:100E3000880B990B1F921F921F9224E62F93A12CCF
:100E4000B12C650114EDE12E13E0F12E00E010E06D
:100E50002EEE32E040E050E00E945F2BE62ED72ECF
:100E6000CE010D960E94FB0FF9880889CE010D96E0
:100E70000E94510F182FDF92EF92C301B2010E941E
:100E8000A82D1F926F93B401990C880B990B0E94A7
:100E9000D92D20E030E040E85DE30E94892E0E94D9
:100EA000A82D1F926F931F92FF921F920F931F9274
:100EB0001F938F851F928F938E851F928F938D85A1
:100EC00090E08053984F9F938F9387ED91E09F938D
:100ED0008F9382EA92E09F938F930E94D93162EAC6
:100EE00072E0CE0107960E940F2C60E471E0CE0103
:100EF00001960E940F2CBE01695F7F4FCE010196C3
:100F00000E94672CBC01CE0107960E94242CCE01C2
:100F100001960E94A02B0FB6F894DEBF0FBECDBF86
:100F20008B859C85892BA9F00CE42EE531E040E00F
:100F300050E0BE01695F7F4F8BED92E00E944E163C
:100F400041E050E070E060E0CE0107960E948B2CFB
:100F5000E7CFCE0107960E94A02B62960FB6F894B9
:100F6000DEBF0FBECDBFDF91CF911F910F91FF90DC
:100F7000EF90DF90CF90BF90AF909F908F907F9039
:100F80006F905F904F900895AF92BF92CF92DF9293
:100F9000EF92FF920F931F93CF93DF9360E082E075
:100FA0000E94612460E081E00E94612461E08CE0A5
:100FB0000E94612461E080E00E94612461E084E09D
:100FC0000E94612460E080E00E949D2460E084E053
:100FD0000E949D241092C7028FE78093980282E0BE
:100FE0000E94BA231092C90281E08093C80226E0D1
:100FF00040E056E960E070E08BEA94E00E94FE2554
:101000000E94870F8FE093E00E94CE110E9445015D
:101010000E94230366E972E08BEA94E00E947E2737
:1010200062E871E08BEA94E00E946C276FE671E061
:101030008BEA94E00E946C2766E972E08BEA94E008
:101040000E947E276BE571E08BEA94E00E946C279A
:1010500067E471E08BEA94E00E946C270E947702BB
:101060000E946103EC0165E072E08BEA94E00E946B
:1010700059274AE050E0BE018BEA94E00E943028F4
:10108000BE01DD0F880B990B1F921F921F9224E661
:101090002F93A12CB12C650114EDE12E13E0F12E5C
:1010A00000E010E02EEE32E040E050E00E945F2BC6
:1010B0006B0162E172E08BEA94E00E9459274AE0FA
:1010C00050E0B6018BEA94E00E9430288BEA94E06D
:1010D0000E942D250F900F900F900F901816190653
:1010E000CCF48BEA94E00E9447259927843591053A
:1010F00009F462C00CF059C08134910509F45FC055
:101100006AE070E080E090E00E9446238BEA94E081
:101110000E94972565E371E08BEA94E00E943527F1
:101120008FE093E00E9481114AE050E0BC018BEA1D
:1011300094E00E94302861E08FE093E00E94A210CA
:101140000E94EF110E94F5068091C8028823D1F118
:101150000E9407031092C6021092C50210929C02D0
:1011600010929B0210929A021092990281E00E94C2
:10117000CB24C82F66E271E08BEA94E00E94352709
:101180004AE050E06C2F8BEA94E00E9456288AEDEA
:1011900092E0DF91CF911F910F91FF90EF90DF9040
:1011A000CF90BF90AF900C946C168136910539F0BA
:1011B0008437910509F0A4CF0E94AA04A1CF0E9410
:1011C00042059ECF0E941503C5CFCF93DF936AECF3
:1011D00072E08AED92E00E944317892B09F4DAC08D
:1011E0008091CE029091CF02A091D002B091D10215
:1011F00086382CE392072AE1A20727E3B20709F415
:10120000C6C038F5873E28E1920725EFA20722E005
:10121000B20709F452C060F48D3F9240A54FB2402E
:1012200009F468C08AED92E0DF91CF910C948816A2
:101230008D3D22E2920725EFA20722E0B20709F4D2
:101240006EC08B3D9642A243B44161F70E94F50601
:10125000E9CF8E3A20E4920722EAA2072EE4B207F1
:1012600009F47AC0E0F4863C2DE1920724EDA20750
:1012700029E3B20709F453C08B3A904EA748BE4405
:1012800089F68091C80291E089278093C8028091F5
:10129000C802882309F478C00E940703C3CF8133B2
:1012A00029EB92072AE2A20723EAB20719F1863B4B
:1012B0009B44A849B04E09F0B5CF8091C70288235E
:1012C00009F4B0CFC0E1D0E080919802882319F0F2
:1012D0008150809398026AE070E080E090E00E9484
:1012E00046236091980270E084E00E94DB232197FE
:1012F00059F798CF8091C702882339F060E084E0E5
:101300000E949D241092C7028DCF6091980270E0D8
:1013100084E00E94DB2381E08093C70283CF809129
:10132000C702882309F47ECFC0E1D0E08091980203
:101330008F3F19F08F5F809398026AE070E080E041
:1013400090E00E9446236091980270E084E00E9441
:10135000DB23219759F766CF8091C5029091C60291
:1013600001969093C6028093C5028091C502909128
:10137000C602049724F01092C6021092C502109281
:101380009C0210929B024ECF0E9415034BCF0E94ED
:101390009E0648CFDF91CF910895CF93DF93EC0164
:1013A00060E570E080E193E00E941D0C6D2F70E01D
:1013B00080E193E00E943E01BE01772780E193E047
:1013C0000E943E0160E080E193E00E941F0C42E039
:1013D00050E060E570E080E193E00E94950C80E1D0
:1013E00093E00E94940BC82F80E193E00E94940B3D
:1013F000982F88278C0F911DDF91CF910895CF935F
:10140000DF938AED92E00E948816D0E0C0E0CE0122
:101410000E94CD0962E070E00E942B042296C4363F
:10142000D105A9F782E090E00E944304CAE5D2E02A
:101430008CE00E94EE2A68E770E080E090E00E9475
:10144000462382E00E94CB24892B91F465E070E072
:1014500080E090E00E94462382E00E94CB2410921C
:10146000C6021092C5028CE0DF91CF910C94EE2A57
:101470006AEC72E08AED92E00E944317892B99F79B
:1014800020E030E0A90162E078E08CE00E9468286A
:1014900060E570E080E090E00E944623219741F6ED
:1014A000E2CFCF93DF9300D000D000D0CDB7DEB72E
:1014B00082E00E94CB24892B79F565E070E080E022
:1014C00090E00E94462382E00E94CB248FE093E0CC
:1014D0000E94CE11892B99F08091C802882379F05F
:1014E000CE0101960E94FB0FCE0101960E94510F82
:1014F00081115CC01092C6021092C50209C0809191
:10150000C5029091C60201969093C6028093C502CF
:1015100010929C0210929B0281E00E94CB24892BA6
:1015200051F080919B0290919C02C39724F01092FD
:101530009C0210929B020E9461038130934024F52B
:1015400061E080E00E949D2480919B0290919C022A
:1015500001966CE370E00E94262F892BA9F40E946B
:10156000BF0242E050E06AE371E082E00E94112293
:101570006AE070E080E090E00E9446238AE00E94EA
:10158000570482E00E9440220E9461038D30934004
:1015900024F060E080E00E949D2426960FB6F89427
:1015A000DEBF0FBECDBFDF91CF910895863009F425
:1015B000A1CF0E94FF099ECF8091C9028823C9F064
:1015C00082E00E9440221092C9028091C8028823C2
:1015D00051F10E9407030E94F5061092C602109274
:1015E000C50210929C0210929B0210929A021092D5
:1015F00099028091C5029091C6028230910509F44A
:101600005FC0A4F4009751F1019709F452C0109201
:10161000C6021092C5028091C802882309F479C0DD
:101620001092C8021DC00E941503D5CF84309105C9
:1016300009F457C00CF452C0059749F70E94BF0245
:1016400042E050E06AE371E082E00E9411228AE009
:101650000E94570482E00E944022D9CF0E947D015F
:1016600080919B0290919C0282329140A9F40E9449
:10167000BF0242E050E06AE371E082E00E94112282
:101680006AE070E080E090E00E9446238AE00E94D9
:10169000570482E00E94402280919B0290919C021C
:1016A000019690939C0280939B020E94E5080C9403
:1016B000510A0E94140210929A0210929902D0CFFD
:1016C0000E9479038091990290919A028430910549
:1016D000BCF01092C6021092C50212C00E949E0673
:1016E000EACF0E94F5068091C802882379F00E9413
:1016F00007038091990290919A02181619064CF3EB
:10170000019690939A0280939902AACF0E941503A2
:10171000F0CF81E08093C802A3CF809140039091E5
:101720004103891B990B08959091410380914003D7
:101730002FEF3FEF981748F4E92FF0E0EE5BFC4FF6
:10174000208130E09F5F90934103C9010895E091AB
:10175000410380914003E81730F4F0E0EE5BFC4F6A
:10176000808190E008958FEF9FEF08950895CF93C3
:10177000DF931F92CDB7DEB7698320911C0322232C
:10178000F9F020911D03203258F021E030E0FC01F7
:101790003383228390E080E00F90DF91CF91089512
:1017A00080911E03E82FF0E0E15EFC4F9981908369
:1017B0008F5F80931E0380931D0381E090E0ECCF48
:1017C00061E0CE0101960E944D0DF7CFCF92DF92DE
:1017D000EF92FF920F931F93CF93DF937C01CB0186
:1017E0008A0120911C03222389F0EB016B01C40EB6
:1017F000D51ECC15DD0569F06991D701ED91FC91FD
:101800000190F081E02DC7010995F3CF642F0E946C
:101810004D0DC801DF91CF911F910F91FF90EF9077
:10182000DF90CF90089581E080931C0360933F0385
:1018300010921E0310921D0308950C94130C0F9325
:10184000062F21E040911D036FE173E080913F037B
:101850000E94F60C10921E0310921D0310921C039E
:101860000F9108954F925F926F927F92AF92BF92C5
:10187000CF92EF92FF920F931F93CF93DF935C0170
:10188000F62ED42F28013901EE2019F10E94130CF5
:10189000CE2DC43008F0C3E0C150B8F028E0C29F9C
:1018A000C0011124A301920104C0569547953795B4
:1018B00027958A95D2F7B901D501ED91FC91019058
:1018C000F081E02DC5010995E7CF60E0C5010E94D8
:1018D0001F0C4D2FD13208F040E22C2D62E473E052
:1018E0008F2D0E94AE0C1092410380934003DF9134
:1018F000CF911F910F91FF90EF90CF90BF90AF903D
:101900007F906F905F904F900895CF92EF920F93DA
:101910001F93C22EE12C00E010E098010E94320CCF
:101920001F910F91EF90CF90089521E00C94850CBA
:101930000C94850C61E00C941F0CE0E1F3E0138241
:10194000128288EE93E0A0E0B0E084839583A683C2
:10195000B78386E292E0918380830895413208F054
:1019600043C09091CF039111FCCF91E09093CF03AE
:101970002093CD032FEF209362031092A703240F2F
:101980002093A6039093CE039091CE03880F892BCA
:101990008093CE038091CC03813009F51092CC0363
:1019A0008091CE038093BB008091BC0083FDF8CF73
:1019B00085EC8093BC008091CF038130E1F380916E
:1019C000A703841710F44091A703A8EAB3E0962F69
:1019D000FB018E2F891B841720F0842F089585EE3C
:1019E000E8CF8D918193F5CF40E0F7CF0F9341324F
:1019F00008F04BC09091CF039111FCCF92E09093EF
:101A0000CF030093CD039FEF909362031092A7033F
:101A10004093A603362FA8EAB3E0FB019E2F931B49
:101A2000941770F11092CE039091CE03880F892BFA
:101A30008093CE038091CC03813029F51092CC03A2
:101A40008091CE038093BB008091BC0083FDF8CFD2
:101A500085EC8093BC00222321F08091CF0382305B
:101A6000D1F3809162038F3F91F0809162038032C5
:101A700081F080916203803371F084E00F910895CA
:101A800091919D93CBCF85EEE4CF81E0F7CF80E0BD
:101A9000F5CF82E0F3CF83E0F1CF613298F420916B
:101AA000CF03243089F460938403282FA6E8B3E0A1
:101AB000FC018E2F821B861710F080E00895819123
:101AC0008D93F7CF81E0089582E0089585ED8093AE
:101AD000BC008091BC0084FDFCCF1092CF03089520
:101AE00085EC8093BC001092CF0308951F920F9253
:101AF0000FB60F9211242F933F934F935F936F93E1
:101B00007F938F939F93AF93BF93EF93FF938091B6
:101B1000B900887F803609F44CC008F03FC0883295
:101B200009F4A8C018F5803109F49CC0B8F48823E2
:101B300009F4F9C0883009F495C0FF91EF91BF9185
:101B4000AF919F918F917F916F915F914F913F9155
:101B50002F910F900FBE0F901F901895883109F4A8
:101B600089C0803251F78093620315C0803409F434
:101B70009EC048F48033B9F38833F9F6809362034A
:101B80000E94700DDACF803509F485C0883509F4DC
:101B900096C0883491F60E94660DCFCF883909F43B
:101BA0008CC038F5883729F050F4883611F080372A
:101BB00021F683E08093CF031092630357C08838E7
:101BC00009F47BC0803919F0803809F0B6CF8091D4
:101BD0006303803208F071C0E091630381E08E0FEF
:101BE000809363038091BB00F0E0EC59FC4F80834D
:101BF0003DC0803B39F0E0F4803A09F479C0883A7E
:101C000009F09BCF84E08093CF031092850310925C
:101C10008403E091CA03F091CB030995809184037A
:101C200081110FC081E0809384031092860309C064
:101C3000803C09F476C0883C09F473C0883B09F005
:101C40007CCFE091850381E08E0F80938503F0E0E7
:101C5000EA57FC4F80818093BB009091850380916F
:101C6000840329C08091CE038093BB0085EC8093D0
:101C7000BC0063CF9091A7038091A603981758F5F5
:101C8000E091A70381E08E0F8093A703F0E0E85571
:101C9000FC4F8081E9CFE091A70381E08E0F809314
:101CA000A7038091BB00F0E0E855FC4F8083909142
:101CB000A7038091A6039817C8F285E8D8CFE091D2
:101CC000A70381E08E0F8093A7038091BB00F0E013
:101CD000E855FC4F80838091CD0381115CCF81E07A
:101CE0008093CC0384EA8093BC001092CF0325CF6D
:101CF0000E94700D80916303803230F4E0916303A1
:101D0000F0E0EC59FC4F10826091630370E0E091C9
:101D1000C803F091C90384E693E009951092630328
:101D20000CCF85ECE0CF1092620335CFDC0150E0A0
:101D3000EFE8F1E081E0861730F49491490F511DEE
:101D40008F5F3196F8CF633038F0CD0183709927DB
:101D5000892B11F44F5F5F4F9D012D5F3F4F3695EB
:101D60002795369527956DE671E0A69FC001A79F40
:101D7000900DB69F900D11240197820F931F840F31
:101D8000951F0895FC01908190539A3008F090E0DF
:101D9000818180532AE0929F800D11240895CF9273
:101DA000EF920F93FC01603D87E0780710F0605DD3
:101DB00077406083418322830383E482C5820F914D
:101DC000EF90CF900895EF92FF920F931F93CF93D0
:101DD000DF93EC017B018A01CB0109960E94C20EC0
:101DE0008883D701EC91E154E33118F50E2E000CF5
:101DF000FF0BE350F14F0C947B2F390F190F190F84
:101E00004F0F190F370F190F190F190F100F190F47
:101E1000190F410F4D0F4B0F190F190F190F490FC4
:101E2000F70181818136F9F082818E36F1F087E009
:101E30008983C70104960E94C20E8A83C8010E944A
:101E4000C20E8B83C80103960E94C20E8C83C80108
:101E500006960E94C20E8D83DF91CF911F910F9144
:101E6000FF90EF90089581E0E3CF86E0E1CF82E03C
:101E7000DFCF12968C91823711F088E0D9CF84E0C1
:101E8000D7CFF7018281823711F085E0D1CF83E08F
:101E9000CFCF89E0CDCF8AE0CBCF8BE0C9CF8CE02C
:101EA000C7CFFC0180814281618190E00E94960E43
:101EB000069667E070E00E94122F089568E670E0D1
:101EC00080E193E00E941D0C70E060E080E193E00F
:101ED0000E943E0180E193E00C949A0C0F931F93B3
:101EE000CF93DF93082FC8E0D0E010E8802F812344
:101EF00061E309F460E38BEA94E00E9461271695A0
:101F00002197A1F7DF91CF911F910F910895CF9362
:101F1000DF9368E670E080E193E00E941D0C68E0CA
:101F200070E080E193E00E943E0180E193E00E9436
:101F30009A0C41E050E068E670E080E193E00E9496
:101F4000950C80E193E00E94940BEC0187FF16C092
:101F500068E670E080E193E00E941D0C68E070E0AC
:101F600080E193E00E943E01BE01606880E193E061
:101F70000E943E0180E193E00E949A0C6AE070E0CA
:101F800080E090E00E94462368E670E080E193E004
:101F90000E941D0C6AE070E080E193E00E943E0127
:101FA00080E193E00E949A0C41E050E068E670E026
:101FB00080E193E00E94950C80E193E00E94940BF5
:101FC000EC0168E670E080E193E00E941D0C6AE09D
:101FD00070E080E193E00E943E01BE016F7980E1F4
:101FE00093E00E943E0180E193E00E949A0C81E020
:101FF000DF91CF910895CF92DF92FF920F931F93BD
:10200000CF93DF936C0168E670E080E193E00E947B
:102010001D0C61E070E080E193E00E943E0180E1F0
:1020200093E00E949A0C21E030E047E050E068E63F
:1020300070E080E193E00E94980C80E193E00E94C0
:10204000940B8F77282F30E094E0359527959A955B
:10205000E1F7922F990F990FC22FC91BCC0FC80F10
:1020600080E193E00E94940B8F77282F30E044E0CA
:10207000359527954A95E1F7922F990F990FD22F11
:10208000D91BDD0FD80F80E193E00E94940B8F7372
:10209000282F30E054E0359527955A95E1F7922F97
:1020A000990F990F122F191B110F180F80E193E050
:1020B0000E94940B80E193E00E94940B8F73282F71
:1020C00030E064E0359527956A95E1F7922F990FF6
:1020D000990F022F091B000F080F80E193E00E9467
:1020E000940B8F71282F30E074E0359527957A9501
:1020F000E1F7922F990F990FF22EF91AFF0CF80EB3
:1021000080E193E00E94940B9C01E4E035952795D3
:10211000EA95E1F72F703327922F990F990F291B1A
:10212000220F820FF6018083F18202831383D4830E
:10213000C583C601DF91CF911F910F91FF90DF9072
:10214000CF900895CF93DF93C62F68E670E080E1CB
:1021500093E00E941D0C6AE070E080E193E00E9431
:102160003E0180E193E00E949A0C41E050E068E675
:1021700070E080E193E00E94950C80E193E00E9482
:10218000940BCC23C9F0EC01C06868E670E080E1F4
:1021900093E00E941D0C6AE070E080E193E00E94F1
:1021A0003E01BE0180E193E00E943E0180E193E0A8
:1021B000DF91CF910C949A0CEC01CF77E6CFAF92E0
:1021C000BF92CF92DF92EF92FF920F931F93CF9324
:1021D000DF935B0168E670E080E193E00E941D0CF4
:1021E0006BE070E080E193E00E943E0180E193E0CB
:1021F0000E949A0C44E050E068E670E080E193E0D1
:102200000E94950C80E193E00E94940BEC0180E128
:1022100093E00E94940B6C0180E193E00E94940B88
:102220007C0180E193E00E94940B8C0183E0A8166E
:10223000B10409F454C0D4F581E0A816B10409F43E
:1022400045C082E0A816B10409F447C068E670E012
:1022500080E193E00E941D0C6BE070E080E193E070
:102260000E943E01BE0180E193E00E943E01B60162
:1022700080E193E00E943E01B70180E193E00E947B
:102280003E01B80180E193E00E943E0180E193E0CD
:102290000E949A0CDF91CF911F910F91FF90EF90C8
:1022A000DF90CF90BF90AF900C945E0F85E0A816A2
:1022B000B104F9F0C4F086E0A816B10439F60F773E
:1022C000E894E7F8E894C7F8CF73C0CF0068689443
:1022D000E7F86894C7F8C06CB9CF0F77F8CF0F77DD
:1022E000E894E7F8F6CF0F77E894E7F8E894C7F8B2
:1022F000F2CF0F77E894E7F8E894C7F8CF77C06497
:10230000A5CFFF920F931F93CF93DF9368E670E002
:1023100080E193E00E941D0C6BE070E080E193E0AF
:102320000E943E0180E193E00E949A0C44E050E05C
:1023300068E670E080E193E00E94950C80E193E014
:102340000E94940B182F80E193E00E94940B082FB9
:1023500080E193E00E94940BF82E80E193E00E94CC
:10236000940B87FB882780F9C82F80E0D82FF7FCD3
:10237000C26007FDC46017FDC86016FDC061C85C7F
:10238000DD4FC8810C2E000CDD0B0E945E0FCE01CC
:10239000DF91CF911F910F91FF90089568E670E053
:1023A00080E193E00E941D0C6FE070E080E193E01B
:1023B0000E943E0180E193E00E949A0C41E050E0CF
:1023C00068E670E080E193E00E94950C80E193E084
:1023D0000E94940B86FB882780F990E00895CF93A4
:1023E000DF9368E670E080E193E00E941D0C70E0EE
:1023F00060E080E193E00E943E0180E193E00E9472
:102400009A0C40E150E068E670E080E193E00E94C1
:10241000950CD0E0C0E080E193E00E94940B0E9414
:102420006E0F62E372E08BEA94E00E94592740E16C
:1024300050E0BE018BEA94E00E9430282196C03122
:10244000D10549F768E670E080E193E00E941D0C39
:1024500070E060E080E193E00E943E0180E193E063
:10246000DF91CF910C949A0CFF920F931F93CF930F
:10247000DF93EC0168E670E080E193E00E941D0CC0
:1024800064E070E080E193E00E943E0180E193E02F
:102490000E949A0C41E050E068E670E080E193E031
:1024A0000E94950C80E193E00E94940B8C0168E6F9
:1024B00070E080E193E00E941D0C61E070E080E13B
:1024C00093E00E943E012D818AE0F82E822F6F2D2D
:1024D0000E94062F682F660F680F660F620F80E15B
:1024E00093E00E94B70B2C81822F6F2D0E94062F44
:1024F000682F660F680F660F620F80E193E00E94FD
:10250000B70B2B81822F6F2D0E94062F682F660F2D
:10251000680F660F620F80E193E00E94B70BB8016D
:1025200080E193E00E943E012A81822F6F2D0E945C
:10253000062F682F660F680F660F620F80E193E029
:102540000E94B70B2981822F6F2D0E94062F682FC2
:10255000660F680F660F620F80E193E00E94B70B71
:102560002881822F6F2D0E94062F682F660F680F1B
:10257000660F620F80E193E00E94B70B80E193E069
:10258000DF91CF911F910F91FF900C949A0C1F93A4
:10259000CF93DF93EC0168E670E080E193E00E9466
:1025A0001D0C6AE070E080E193E00E943E01298109
:1025B0001AE0822F612F0E94062F682F660F680F86
:1025C000660F620F80E193E00E94B70B2A81822F91
:1025D000612F0E94062F682F660F680F660F620F2B
:1025E00080E193E00E94B70B2B81822F612F0E9424
:1025F000062F682F660F680F660F620F80E193E069
:102600000E94B70B2C81822F612F0E94062F682F0A
:10261000660F680F660F620F80E193E00E94B70BB0
:102620002D81822F612F0E94062F682F660F680F61
:10263000660F620F80E193E00E94B70B70E060E0EC
:1026400080E193E00E943E0180E193E0DF91CF9131
:102650001F910C949A0CEF92FF920F931F93CF93BC
:10266000DF93EC017C018CE2E80EF11C08E512E03E
:1026700028853985C801885592408217930724F52B
:1026800060E088810E949D24F80121918F018E8154
:102690009F81892B09F0209540E06A818C810E94FE
:1026A000F424F70121917F0140E06A818C810E942E
:1026B000F42461E088810E949D2461E070E080E064
:1026C00090E00E944623D4CFDF91CF911F910F91CC
:1026D000FF90EF900895CF93DF93EC0160E0888145
:1026E0000E949D2420E041E06A818C810E94F424B4
:1026F00020E041E06A818C810E94F42461E08881BD
:10270000DF91CF910C949D24CF93DF93EC01862F22
:10271000688379835B834A833D832C8361E00E94D5
:10272000612461E08A810E94612461E08C810E94C1
:102730006124CE01DF91CF910C946B13EF92FF9245
:102740000F931F93CF93DF93EC010E948413CE016C
:102750008C9661E00115110509F460E0619570E067
:1027600048E050E00E94BC3188E0E816F1041CF01B
:1027700088E0E82EF12C1F830E83F986E88681E03D
:1027800090E09B878A87FD86EC861D8E1C8EDF91EC
:10279000CF911F910F91FF90EF900895EF92FF92CC
:1027A0000F931F930E949E131F910F91FF90EF9024
:1027B0000895CF93DF93EC01645D7F4FFC01E60F3A
:1027C000F71FD901CD01821B930B8417950744F4A1
:1027D0009D916E817F81672B09F490959193F2CF43
:1027E000DF91CF910895FC0126813781E60FF71F15
:1027F000442331F0232B31F484A5816084A708950C
:10280000232BD1F784A58E7FF9CFCF92DF92EF9261
:10281000FF920F931F93CF93DF93D901EA01CC244A
:10282000CA948DE69DEEE7EFFE2EFFEEEF2EEDEF64
:10283000DE2EFE01E41BF50BE617F707C4F5E99160
:10284000F0EDFE0FFA3048F40E2E000CFF0BE65BA5
:10285000FD4FE081EC931196ECCFFFE9FE0FFA31CA
:1028600030F40E2E000CFF0BE150FE4FF2CFFFEBC9
:10287000FE0FFA3130F40E2E000CFF0BE15EFD4F1F
:10288000E8CFED3211F4DC92E6CFEF3511F4EC92A3
:10289000E2CFE33211F4FC92DECFED3311F49C93DE
:1028A000DACFEB3211F48C93D6CFCC92D4CF0F3F4A
:1028B000100731F0F901E00FF11F80818160808302
:1028C000DF91CF911F910F91FF90EF90DF90CF900C
:1028D0000895AF92BF92CF92DF92EF92FF920F9343
:1028E0001F93CF93DF93AE2DC6015901C1E0AC1AFF
:1028F000B108AC34D9F461507109F0E0E0E0DF01D7
:102900006A177B076CF1B7FD0FC0AA16BB0664F00F
:102910007D01EE1AFF0AE40EF51EE701D88078016A
:10292000EA0EFB1EE701D8821196EACFF901E61BF9
:10293000F70BA23599F0F7FD3196F595E7956E0FF7
:102940007F1F61507109D801C0E2FC2E6D01C01AD1
:10295000D10ACE16DF069CF6FD92F8CFB501F3CF73
:10296000F801E60FF71F40E23196DF01A01BB10B23
:10297000A217B30714F44083F7CF8F3F980759F09D
:102980009B01281B390BC90137FD03C0A216B306F2
:1029900014F48FEF9FEFDF91CF911F910F91FF9074
:1029A000EF90DF90CF90BF90AF9008952F923F921D
:1029B0004F925F926F927F928F929F92AF92BF924F
:1029C000CF92DF92EF92FF920F931F93CF93DF93FB
:1029D000CDB7DEB75C016DB67EB677FD50C0FC01A9
:1029E00082859385681779070CF049C0FA01019038
:1029F0000020E9F7CF010197841B950B660F771F25
:102A00001501260E371EF101848495846DB77EB7BB
:102A1000681979090FB6F8947EBF0FBE6DBFEDB788
:102A2000FEB731962F01CC24CA94DC2CE22E8F0104
:102A30009401BC01C5010E9469146DB77EB7681985
:102A400079090FB6F8947EBF0FBE6DBF8DB79EB7E4
:102A500001967C010FEF1FEF9C01A201B401C5019B
:102A60000E940514F101648D758D9701A401C501C3
:102A70000E94D9130FB6F8947EBE0FBE6DBE0FB67E
:102A8000F8947EBE0FBE6DBEDF91CF911F910F9166
:102A9000FF90EF90DF90CF90BF90AF909F908F907E
:102AA0007F906F905F904F903F902F900895242FCC
:102AB000AB0170E060E00C94D6142F923F924F92DD
:102AC0005F926F927F928F929F92AF92BF92CF92BE
:102AD000DF92EF92FF920F931F93CF93DF9300D07B
:102AE0001F92CDB7DEB75C016B013A0129838DB728
:102AF0009EB79B838A8377FD42C0F50182859385CB
:102B000068177907E4F52DB63EB610E000E0B8018D
:102B1000C3010E947A2C98012F5F3F4F882311F048
:102B20008901F5CF8DB79EB7821B930B0FB6F89432
:102B30009EBF0FBE8DBFEDB7FEB731962F014F017F
:102B4000F12CE12C0E151F0559F0B701C3010E94AD
:102B50007A2CF40181934F01FFEFEF1AFF0AF2CFB5
:102B6000F201E00FF11F10822981A201B601C50117
:102B70000E94D6140FB6F8943EBE0FBE2DBE8A81B9
:102B80009B810FB6F8949EBF0FBE8DBF0F900F9024
:102B90000F90DF91CF911F910F91FF90EF90DF90F9
:102BA000CF90BF90AF909F908F907F906F905F90ED
:102BB0004F903F902F900895242FAB0170E060E07C
:102BC0000C945D15DA0177FD18C0FC014285538530
:102BD0006417750794F4B7FD10C0660F771FE60FF2
:102BE000F71F44855585A417B5073CF4648D758D92
:102BF0006A0F7B1F422F0C94F3130895242FAB010F
:102C000070E060E00C94E215CF92DF92EF92FF92B9
:102C10000F931F93CF93DF93EC016A017B010E9416
:102C20001523288539858901330F220B330BC01AF0
:102C3000D10AE20AF30AC60ED71EE81EF91E0E9448
:102C40001523C616D706E806F90620F0CE010E9425
:102C50002B13F5CFCE01DF91CF911F910F91FF90F4
:102C6000EF90DF90CF900C946B13CF92DF92EF92A6
:102C7000FF920F93CF93DF93EC0169017A01402F0C
:102C80000E945715B701A601CE01DF91CF910F9198
:102C9000FF90EF90DF90CF900C940416CF92DF92CC
:102CA000EF92FF920F93CF93DF93EC0169017A01CA
:102CB000402F0E94DC15B701A601CE01DF91CF9114
:102CC0000F91FF90EF90DF90CF900C940416E0ED01
:102CD000F3E0618313820895F8941092800089E0F4
:102CE0008093810080E991E090938900809388002F
:102CF000109285001092840082E080936F00789497
:102D0000E0EDF3E080831482818160E00C94612423
:102D1000E0EDF3E082E08083148208958F929F9229
:102D2000AF92BF92CF92DF92EF92FF92CF93DF9359
:102D3000EB01BA0190E080E00E94D72D4B015C01CD
:102D4000BE0190E080E00E94D72D6B017C012DEC4C
:102D50003CEC4CE45FE30E94892E9B01AC01C50171
:102D6000B4010E942A2D87FD1DC02DEC3CEC4CE4E3
:102D70005FE3C501B4010E94892E9B01AC01C7012C
:102D8000B6010E942A2D87FD10C081E090E0DF91FE
:102D9000CF91FF90EF90DF90CF90BF90AF909F903A
:102DA0008F90089590E080E0F2CF82E090E0EFCF46
:102DB0008F929F92AF92BF92CF92DF92EF92FF924B
:102DC0000F931F93CF93DF93FB01E484F584F6E028
:102DD000EF16F1040CF453C0EB016C01EE0CFF1C78
:102DE00095EC892E9DE9992E9CE1A92E91E8B92EAA
:102DF00006E010E08A859B85FC01E00FF11F408111
:102E00005181980124503109820F931FFC01608188
:102E10007181C6010E948E16FC01A501940163E92F
:102E200071E080E091E00E94F62E4F01FF0FAA08AA
:102E3000BB0886269726A826B9260E5F1F4F0E15BB
:102E40001F05C1F68C829D82AE82BF8280E290E037
:102E5000998788878FEF9FEF9983888361E070E07F
:102E600080E090E0DF91CF911F910F91FF90EF9064
:102E7000DF90CF90BF90AF909F908F90089560E0CB
:102E800070E0CB01EFCF0F931F93CF93DF93EB0154
:102E900027ED33E03B872A872091D40330E03D873C
:102EA0002C872091A10430E03F872E872091D0030A
:102EB000253009F062C08C010E94451C882339F03E
:102EC00081E090E0DF91CF911F910F910895BE01B5
:102ED000C8010E94CD208111F3CFBE01C8010E941C
:102EE0002A208111EDCFBE01C8010E94AF1B8111C4
:102EF000E7CFBE01C8010E94F11D8111E1CFBE01E3
:102F0000C8010E94961E8111DBCFBE01C8010E943C
:102F1000E41C8111D5CFBE01C8010E941C1B811188
:102F2000CFCFBE01C8010E945D1A8111C9CFBE0179
:102F3000C8010E948B1F8111C3CFBE01C8010E942E
:102F400068218111BDCFBE01C8010E944C198111B9
:102F5000B7CFBE01C8010E94E2198111B1CFBE01F5
:102F6000C8010E94D816672B682B692B09F0A8CFDF
:102F700082E08093D0031092D40390E080E0A2CF4F
:102F8000CF92DF92EF92FF92CF93DF93EC01072E67
:102F9000000C880B990B0E94D92D6B017C0120E05D
:102FA00030E040E45FE30E94892E20E030E048E416
:102FB00052E40E942F2D0E94A12DC617D707D4F0EE
:102FC00020E030E040EA5FE3C701B6010E94892EAD
:102FD00020E030E048E452E40E942F2D20E030E071
:102FE00040E85FE30E94BE2C0E94A12D21E06C17F7
:102FF0007D070CF420E0822F90E0DF91CF91FF90CD
:10300000EF90DF90CF900895CF92DF92EF92FF92F2
:10301000CF93DF93EC016C597F4F072E000C880B88
:10302000990B0E94D92D6B017C0120E030E040E437
:103030005FE30E94892E20E030E048E452E40E94E1
:103040002F2D0E94A12DC617D707D4F020E030E025
:1030500040EA5FE3C701B6010E94892E20E030E01C
:1030600048E452E40E942F2D20E030E040E85FE386
:103070000E94BE2C0E94A12D21E06C177D070CF44C
:1030800020E0822F90E0DF91CF91FF90EF90DF90D2
:10309000CF900895CF92DF92EF92FF92CF93DF937C
:1030A000EC0164567109072E000C880B990B0E94E5
:1030B000D92D6B017C0120E030E040E45FE30E9409
:1030C000892E20E030E048E452E40E942F2D0E9437
:1030D000A12DC617D707D4F020E030E040EA5FE327
:1030E000C701B6010E94892E20E030E048E452E496
:1030F0000E942F2D20E030E040E85FE30E94BE2CCC
:103100000E94A12D21E06C177D070CF420E0822F96
:1031100090E0DF91CF91FF90EF90DF90CF900895F6
:103120001F920F920FB60F9211242F933F934F933C
:103130005F936F937F938F939F93AF93BF93EF931F
:10314000FF938091D1030E94CB242091D50330912D
:10315000D6032F5F3F4F3093D6032093D503909132
:10316000D403953618F096E09093D0039091D00355
:10317000943009F466C0B8F49230F1F0933009F459
:1031800044C09091D303992309F46BC081117AC094
:103190008091D203882309F463C08091D20361E057
:1031A0000E949D245EC0953009F457C0963049F7BF
:1031B00091E09093A1044FC08111E3CF2091D503FA
:1031C0003091D6032436310528F41092D60310929C
:1031D000D503D7CF1092A1041092D403E091D40369
:1031E00091E09E0F9093D403F0E02091D5033091AD
:1031F000D603EE0FFF1FE053FC4F3087278310925A
:10320000D6031092D50393E019C0813009F0B9CFED
:10321000E091D40391E09E0F9093D403F0E02091CD
:10322000D5033091D603EE0FFF1FE053FC4F3087DC
:1032300027831092D6031092D50394E09093D00385
:10324000A0CF882359F22091D5033091D60325369B
:10325000310508F496CF95E0F1CF811192CFB5CF2B
:10326000589AFF91EF91BF91AF919F918F917F916C
:103270006F915F914F913F912F910F900FBE0F90E3
:103280001F9018958091D203882321F08091D2035A
:1032900060E086CF5898E5CFAF92BF92CF92DF9291
:1032A000EF92FF920F931F93CF93DF938091D403FC
:1032B000883560F480E0DF91CF911F910F91FF90EE
:1032C000EF90DF90CF90BF90AF9008958B01DB011E
:1032D0001A96ED91FC918281938160E672E20E94E0
:1032E0000418892B39F3D8011A96ED91FC91848149
:1032F000958164E971E10E944A18892BD9F25EE157
:10330000C52ED12CCDE1D0E0F12CE12C8091D4035D
:103310008450990BC817D907F4F5D8011A96ED9186
:10332000FC91CE01880F991FE80FF91F80819181D0
:1033300064EF71E00E940418892B09F4BBCF560199
:10334000AA0CBB1CD8011A96ED91FC91EA0DFB1D4D
:103350008081918168E572E00E944A18892B49F0CA
:10336000EE0CFF1C6894E0F82296B2E0CB0ED11C64
:10337000CDCFD8011A96ED91FC91EA0DFB1D80810D
:10338000918164EA76E00E944A18892B19F0EE0CCC
:10339000FF1CEACFE6012197D595C795F801D187A3
:1033A000C087AA970CF486CFC701FF0CAA0BBB0BF2
:1033B00084839583A683B78389E090E0918380839B
:1033C00081E079CFAF92BF92CF92DF92EF92FF92DE
:1033D0000F931F93CF93DF938091D403803261F0DA
:1033E00080E0DF91CF911F910F91FF90EF90DF90E0
:1033F000CF90BF90AF900895EB01EA85FB85828165
:1034000093816CE271E00E940418892B49F3EA85EC
:10341000FB85848195816EEE72E00E944A18892BAB
:10342000F9F206E010E0C12CD12C7601EA85FB858B
:10343000E00FF11F808191816CE271E00E9404181D
:10344000892B71F2580182E0A80EB11CEA85FB8538
:10345000EA0DFB1D8081918168E077E00E944A18A7
:10346000892BC9F0CC0CDD1CEE1CFF1C6894C0F845
:103470000C5F1F4F0E331105C9F68EE090E099875F
:103480008887CC82DD82EE82FF828FE090E0998394
:10349000888381E0A6CFEA85FB85EA0DFB1D80814C
:1034A00091816EEE72E00E944A18892B09F498CF40
:1034B000CC0CDD1CEE1CFF1CDBCF8F929F92AF92D9
:1034C000BF92CF92DF92EF92FF920F931F93CF9311
:1034D000DF93EB018091D403823269F5EA85FB85A5
:1034E0008281938168E572E00E940418892B19F1AA
:1034F0008091D40390E081509048880F991F2A85CD
:103500003B85820F931FFC018081918168E572E009
:103510000E940418892B79F0198618868FEF9FEF87
:10352000DC018C839D83AE83BF8386E090E099832A
:10353000888381E00BC0EA85FB858281938160E40A
:103540007FE10E940418892B71F480E0DF91CF9114
:103550001F910F91FF90EF90DF90CF90BF90AF90B1
:103560009F908F9008958091D403813270F3EA8503
:10357000FB858481958160EA7FE00E944A18892B4F
:1035800021F306E010E023E0A22EB12CC12CD12CB7
:103590007601EA85FB85E00FF11F8081918168E566
:1035A00072E00E940418892B81F24801F2E08F0E2C
:1035B000911CEA85FB85E80DF91D8081918160E40D
:1035C00076E00E944A18892B29F1CC0CDD1CEE1CF8
:1035D000FF1C6894C0F882E0A80EB11C0C5F1F4F5E
:1035E000E3E2AE16B104A9F6EA85FB85EA5BFF4F7C
:1035F0008081918168E572E00E940418892B09F4AA
:10360000A4CF80E190E099878887CC82DD82EE822A
:10361000FF828BCFEA85FB85E80DF91D80819181C2
:1036200066E272E00E944A18892B09F48ECFCC0C16
:10363000DD1CEE1CFF1CCFCF8F929F92AF92BF92EA
:10364000CF92DF92EF92FF920F931F93CF93DF936E
:103650008091D403893370F480E0DF91CF911F9182
:103660000F91FF90EF90DF90CF90BF90AF909F9021
:103670008F900895EB01EA85FB858281938160E458
:103680007FE10E940418892B39F3EA85FB85848148
:10369000958160EA7FE00E944A18892BE9F206E0F2
:1036A00010E023E0A22EB12CC12CD12C7601EA85AA
:1036B000FB85E00FF11F8081918168E572E00E9437
:1036C0000418892B49F2480182E0880E911CEA8592
:1036D000FB85E80DF91D8081918160E476E00E9410
:1036E0004A18892B51F1CC0CDD1CEE1CFF1C689490
:1036F000C0F882E0A80EB11C0C5F1F4F8BE3A81628
:10370000B104A9F6EA85FB85EA58FF4F80819181D3
:1037100068E572E00E940418892B09F49DCF8CE1C2
:1037200090E099878887CC82DD82EE82FF828AE0F2
:1037300090E09983888381E090CFEA85FB85E80D4E
:10374000F91D8081918166E272E00E944A18892BFE
:1037500009F482CFCC0CDD1CEE1CFF1CCACF6F928B
:103760007F928F929F92AF92BF92CF92DF92EF9211
:10377000FF920F931F93CF93DF938091D4038232F4
:1037800080F480E0DF91CF911F910F91FF90EF9037
:10379000DF90CF90BF90AF909F908F907F906F9071
:1037A00008958B01DB011A96ED91FC918281938142
:1037B0006EE571E00E940418892B19F363E0A62ED0
:1037C000B12CC2E0D0E0C12CD12C76013501809122
:1037D000D4038A151B0409F00CF442C04E01880C76
:1037E000991CD8011A96ED91FC91E80DF91D808184
:1037F00091816EE977E00E940418892BE1F0CC0CEE
:10380000DD1CEE1CFF1C6894C0F8C501880F991FD1
:10381000D8011A96ED91FC91E80FF91F80819181F2
:103820006EE571E00E944A18B2E0AB0EB11C892B24
:10383000B1F02296CBCFF80182859385880E991E30
:10384000D4018D919C916EEE72E00E940418892B38
:1038500009F497CFCC0CDD1CEE1CFF1CD6CFE30186
:103860002197D595C795F801D187C08760971CF43B
:103870001186108686CFC482D582E682F7828CE0DC
:1038800090E09183808381E07DCFAF92BF92CF9211
:10389000DF92EF92FF920F931F93CF93DF93EB0191
:1038A000EA85FB858281938168E273E20E940418B5
:1038B000892B61F480E0DF91CF911F910F91FF90F0
:1038C000EF90DF90CF90BF90AF9008958091D40398
:1038D000843019F5EA85FB85848195816AEC78E06E
:1038E0000E944A18892BC9F0EA85FB858681978159
:1038F00060E372E00E940418892B79F0198618861B
:103900008FEF9FEFDC018C839D83AE83BF8383E0C9
:1039100090E09983888381E0CECF8091D403843472
:1039200048F2EA85FB858481958164E971E10E9412
:103930004A18892B09F4BECF06E010E0C12CD12C27
:103940007601EA85FB85E00FF11F8081918160E3BC
:1039500072E00E940418892B09F4ACCF580182E070
:10396000A80EB11CEA85FB85EA0DFB1D80819181C3
:103970006AE976E00E944A18892BA1F0CC0CDD1C84
:10398000EE1CFF1C6894C0F80C5F1F4F0638110531
:10399000C1F680E290E099878887CC82DD82EE8252
:1039A000FF82B5CFEA85FB85EA0DFB1D8081918101
:1039B00060E372E00E944A18892B09F47BCFCC0C9B
:1039C000DD1CEE1CFF1CE0CF6F927F928F929F92C6
:1039D000AF92BF92CF92DF92EF92FF920F931F931D
:1039E000CF93DF93EB01EA85FB85828193816EEAB9
:1039F0007DE00E940418892B81F480E0DF91CF9153
:103A00001F910F91FF90EF90DF90CF90BF90AF90FC
:103A10009F908F907F906F900895EA85FB858481B9
:103A2000958166ED76E00E940418892B31F386E0DB
:103A3000A82EB12CC12CD12CE12CF12C00E010E0EF
:103A4000612C712CEA85FB85EA0DFB1D808191813B
:103A500066EF71E00E940418892B79F2450182E03B
:103A6000880E911CEA85FB85E80DF91D8081918106
:103A70006CED74E00E944A18892B51F19601A70160
:103A8000B801C30101E00E949B2FC22E6894C0F8C8
:103A9000D32E7A018B013C01F4E0AF0EB11C86EC11
:103AA000A816B10479F69601CC823D834E835F83DC
:103AB000C30100E20E94B62F2A833B8385E090E099
:103AC0009983888380E390E09987888781E096CF07
:103AD0008A859B85880E991EF4018081918160E919
:103AE00071E00E944A18892B09F487CF9601A7013B
:103AF000B801C30101E00E949B2FC22EC9CF8F9253
:103B00009F92AF92BF92CF92DF92EF92FF920F936C
:103B10001F93CF93DF93DB01FA01808191811C9683
:103B20006D917C911D97C1E0D0E0861797070CF04E
:103B300043C0BC01660F771F1A96ED91FC91E60F0A
:103B4000F71FA080B180EC01C095D095C170DD2732
:103B500080FD26C08CE99FEF69017A014C01800E3F
:103B6000911EB401C5010E94C01721E030E0892BED
:103B7000D1F4800E911EB401C5010E94C01722E04D
:103B800030E0892B81F4B401600F711FC5010E94E0
:103B9000C01723E030E0892B31F4CFEFDFEF0CC00A
:103BA00084E690E0D9CFF601808191810196821759
:103BB000930784F491838083CE01DF91CF911F918D
:103BC0000F91FF90EF90DF90CF90BF90AF909F90BC
:103BD0008F90089511821082F70180819181019662
:103BE000E9CF4F925F926F927F928F929F92AF92A6
:103BF000BF92CF92DF92EF92FF920F931F93CF93DA
:103C0000DF9300D000D0CDB7DEB71C821B8221E04D
:103C100030E03A8329832091D4032D30B0F480E042
:103C20000F900F900F900F90DF91CF911F910F91F8
:103C3000FF90EF90DF90CF90BF90AF909F908F90CC
:103C40007F906F905F904F9008957B016C0109E722
:103C500013E09E012D5F3F4FAE014F5F5F4F0E940B
:103C60007F1D892BE1F69E012D5F3F4FAE014F5F17
:103C70005F4FB701C6010E947F1D019781F69E012B
:103C80002D5F3F4FAE014F5F5F4FB701C6010E94EE
:103C90007F1D5C01892B19F6412C512C320120919A
:103CA000D40389819A8128171906A1F19CF109E7AB
:103CB00013E09E012D5F3F4FAE014F5F5F4FB70195
:103CC000C6010E947F1D4C019E012D5F3F4FAE013A
:103CD0004F5F5F4FB701C6010E947F1D21E0821632
:103CE000910469F4892B09F09ACF440C551C661C89
:103CF000771C689440F88FEFA81AB80AD0CF8928AB
:103D000009F08DCF019709F08ACF440C551C661C31
:103D1000771CF1CFF701B186A08644825582668276
:103D2000778281E090E0918380837ACF2F923F92D7
:103D30004F925F926F927F928F929F92AF92BF92BB
:103D4000CF92DF92EF92FF920F931F93CF93DF9367
:103D500000D000D0CDB7DEB71C821B82DB011C96E1
:103D60002D913C9112161306C4F080E00F900F9035
:103D70000F900F90DF91CF911F910F91FF90EF90D7
:103D8000DF90CF90BF90AF909F908F907F906F907B
:103D90005F904F903F902F9008957B016C01DB0165
:103DA0001A96ED91FC9182E090E09A83898382815A
:103DB00093816AE67AE00E940418892BB1F2F70138
:103DC0002285338589819A81AC014F5F5F4F5A8389
:103DD0004983880F991F820F931FDC018D919C915D
:103DE00069E773E00E944A18892B09F4BECF0CEBF7
:103DF00011E09E012D5F3F4FAE014F5F5F4FB70156
:103E0000C6010E947F1D5C01892B09F0AECF9E0187
:103E10002D5F3F4FAE014F5F5F4FB701C6010E945C
:103E20007F1D019709F0A1CF212C312C2101F70131
:103E30002485358589819A81821793070CF05FC0AC
:103E40000CEB11E09E012D5F3F4FAE014F5F5F4FC6
:103E5000B701C6010E947F1D3C01F3E0AF16B1041B
:103E600081F10CEB11E09E012D5F3F4FAE014F5FE2
:103E70005F4FB701C6010E947F1D4C0183E0A81669
:103E8000B10481F40CEB11E09E012D5F3F4FAE01B8
:103E90004F5F5F4FB701C6010E947F1D88159905CE
:103EA00009F063CF61147104E1F06A94672809F0A6
:103EB0005CCF892809F059CF220C331C441C551CB7
:103EC0001AC00CEB11E09E012D5F3F4FAE014F5F1A
:103ED0005F4FB701C6010E947F1D8615970509F245
:103EE00044CF8A94892809F040CF220C331C441C0B
:103EF000551C689420F8EFEFAE1ABE0A98CFB18631
:103F0000A086248235824682578282E090E09183A7
:103F1000808381E02BCFAF92BF92CF92DF92EF925E
:103F2000FF920F931F93CF93DF93EB01EA85FB85FD
:103F30008281938168E873E10E940418892B61F4FF
:103F400080E0DF91CF911F910F91FF90EF90DF9074
:103F5000CF90BF90AF9008958091D403843019F52D
:103F6000EA85FB85848195816AEC78E00E944A1895
:103F7000892BC9F0EA85FB858681978160E372E031
:103F80000E940418892B79F0198618868FEF9FEF0D
:103F9000DC018C839D83AE83BF8387E090E09983AF
:103FA000888381E0CECF8091D403843448F2EA85BF
:103FB000FB858481958168E873E10E944A18892B0A
:103FC00009F4BECF06E010E0C12CD12C7601EA85C1
:103FD000FB85E00FF11F8081918160E372E00E9418
:103FE0000418892B09F4ACCF580182E0A80EB11C4B
:103FF000EA85FB85EA0DFB1D8081918160E476E016
:104000000E944A18892BA1F0CC0CDD1CEE1CFF1C71
:104010006894C0F80C5F1F4F06381105C1F680E2A6
:1040200090E099878887CC82DD82EE82FF82B5CFCF
:10403000EA85FB85EA0DFB1D8081918160E372E0DA
:104040000E944A18892B09F47BCFCC0CDD1CEE1C96
:10405000FF1CE0CF8F929F92AF92BF92CF92DF92E0
:10406000EF92FF920F931F93CF93DF93EB01809119
:10407000D4038A3170F480E0DF91CF911F910F91CA
:10408000FF90EF90DF90CF90BF90AF909F908F9078
:104090000895EA85FB85808191818032934078F490
:1040A000198618868FEF9FEFDC018C839D83AE838A
:1040B000BF838BE090E09983888381E0DDCF8281AC
:1040C00093816CEA7DE00E940418892BA1F2EA85B5
:1040D000FB85848195816CEA7DE00E940418892B20
:1040E00051F254E0A52EB12C03E010E0C12CD12CEC
:1040F00076018091D4038A151B04F1F1ECF1EA8575
:10410000FB85C801880F991FE80FF91F80819181F5
:1041100066EB73E00E944A18892B69F14501880C0F
:10412000991CEA85FB85E80DF91D8081918160E687
:1041300079E00E940418892B61F0CC0CDD1CEE1C88
:10414000FF1C6894C0F80E5F1F4F82E0A80EB11CE0
:10415000D0CFEA85FB85E80DF91D808191816CEB5C
:1041600072E00E940418892B09F485CFCC0CDD1C69
:10417000EE1CFF1CE8CF850101501109159507952C
:10418000198708870C3011051CF41986188673CF1F
:10419000CC82DD82EE82FF828CCF8F929F92AF9293
:1041A000BF92CF92DF92EF92FF920F931F93CF9324
:1041B000DF93EB018091D4038A3170F480E0DF91CA
:1041C000CF911F910F91FF90EF90DF90CF90BF9014
:1041D000AF909F908F900895EA85FB8580819181B3
:1041E000843F914078F4198618868FEF9FEFDC01A9
:1041F0008C839D83AE83BF838BE090E0998388831B
:1042000081E0DDCF8281938160E679E00E9404182D
:10421000892BA1F253E0A52EB12C02E010E0C12CB5
:10422000D12C76018091D4038A151B04F1F1ECF1B5
:10423000EA85FB85C801880F991FE80FF91F808167
:10424000918168E572E00E944A18892B69F1450165
:10425000880C991CEA85FB85E80DF91D8081918108
:1042600060EB74E00E940418892B61F0CC0CDD1C1B
:10427000EE1CFF1C6894C0F80E5F1F4F82E0A80E72
:10428000B11CD0CFEA85FB85E80DF91D80819181B5
:1042900068E572E00E940418892B09F48FCFCC0CDA
:1042A000DD1CEE1CFF1CE8CF85010150110915959E
:1042B0000795198708870C3011051CF41986188694
:1042C0007DCFCC82DD82EE82FF8284E090E096CFCB
:1042D0008F929F92AF92BF92CF92DF92EF92FF9216
:1042E0000F931F93CF93DF938091D403863470F4A0
:1042F00080E0DF91CF911F910F91FF90EF90DF90C1
:10430000CF90BF90AF909F908F900895EB01EA857A
:10431000FB85828193816EEE72E00E940418892BE6
:1043200039F3EA85FB85848195816EEE72E00E9407
:104330004A18892BE9F2EA85FB858681978162E23A
:104340007BE00E940418892B99F2EA85FB85808521
:10435000918562E27BE00E944A18892B49F20AE0CB
:1043600010E025E0A22EB12CC12CD12C7601EA85DB
:10437000FB85E00FF11F808191816EEE72E00E945B
:104380000418892B09F4B4CF480182E0880E911CEF
:10439000EA85FB85E80DF91D8081918166E678E06C
:1043A0000E944A18892B51F1CC0CDD1CEE1CFF1C1D
:1043B0006894C0F882E0A80EB11C0C5F1F4F85E422
:1043C000A816B104A1F6EA85FB85E657FF4F808168
:1043D00091816EEE72E00E940418892B09F488CF57
:1043E00080E290E099878887CC82DD82EE82FF822E
:1043F00088E090E09983888381E07BCFEA85FB8524
:10440000E80DF91D808191816EEE72E00E944A18DC
:10441000892B09F46DCFCC0CDD1CEE1CFF1CCACF20
:104420000895833060F5E82FF0E0EE0FFF1FEA5F9C
:10443000FE4F71836083813051F08230A1F0809112
:1044400069008C7F482B40936900E89A0895809119
:104450006900837F440F551F440F551F482B40931D
:104460006900E99A0895809169008F7C94E0440F77
:10447000551F9A95E1F7482B40936900EA9A0895F1
:10448000833078F4E82FF0E0813061F0823061F021
:10449000E898EE0FFF1FEA5FFE4F80E192E2918302
:1044A00080830895E998F5CFEA98F3CF1F920F9291
:1044B0000FB60F9211242F933F934F935F936F93F7
:1044C0007F938F939F93AF93BF93EF93FF93E0916D
:1044D0000601F09107010995FF91EF91BF91AF910E
:1044E0009F918F917F916F915F914F913F912F910C
:1044F0000F900FBE0F901F9018951F920F920FB63E
:104500000F9211242F933F934F935F936F937F9359
:104510008F939F93AF93BF93EF93FF93E091080125
:10452000F09109010995FF91EF91BF91AF919F9192
:104530008F917F916F915F914F913F912F910F904C
:104540000FBE0F901F9018951F920F920FB60F92EB
:1045500011242F933F934F935F936F937F938F9388
:104560009F93AF93BF93EF93FF93E0910A01F09174
:104570000B010995FF91EF91BF91AF919F918F91A1
:104580007F916F915F914F913F912F910F900FBE4F
:104590000F901F9018951F920F920FB60F92112433
:1045A0002F933F938F939F93AF93BF938091A304D7
:1045B0009091A404A091A504B091A6043091A20406
:1045C00026E0230F2D3758F50296A11DB11D20932B
:1045D000A2048093A3049093A404A093A504B09391
:1045E000A6048091A7049091A804A091A904B09179
:1045F000AA040196A11DB11D8093A7049093A8045D
:10460000A093A904B093AA04BF91AF919F918F91F9
:104610003F912F910F900FBE0F901F90189529E892
:10462000230F0396A11DB11DD2CF2FB7F89460912F
:10463000A3047091A4048091A5049091A6042FBFB7
:1046400008953FB7F8948091A7049091A804A09191
:10465000A904B091AA0426B5A89B05C02F3F19F064
:104660000196A11DB11D3FBFBA2FA92F982F8827F2
:10467000BC01CD01620F711D811D911D43E0660FCC
:10468000771F881F991F4A95D1F708958F929F929F
:10469000AF92BF92CF92DF92EF92FF926B017C01BB
:1046A0000E9421234B015C01C114D104E104F104F7
:1046B000E9F00E94BC2C0E942123681979098A091B
:1046C0009B09683E73408105910570F321E0C21A91
:1046D000D108E108F10888EE880E83E0981EA11C3D
:1046E000B11CC114D104E104F10429F7FF90EF904B
:1046F000DF90CF90BF90AF909F908F900895789467
:1047000084B5826084BD84B5816084BD85B58260D6
:1047100085BD85B5816085BDEEE6F0E08081816074
:104720008083E1E8F0E01082808182608083808174
:1047300081608083E0E8F0E0808181608083E1EB4C
:10474000F0E0808184608083E0EBF0E08081816034
:104750008083EAE7F0E080818460808380818260EA
:10476000808380818E7F80838081806880831092A7
:10477000C100089580930C010895883020F087319E
:1047800008F487E1885120910C0190E4299F900161
:1047900011248770822B80937C0080917A00806442
:1047A00080937A0080917A0086FDFCCF809178001A
:1047B0009091790008951F93CF93DF93182FEB0109
:1047C00061E00E946124209739F460E0812FDF913D
:1047D000CF911F910C949D24CF3FD10511F461E03E
:1047E000F5CFE12FF0E0E556FE4FE491E43031F1F2
:1047F00040F4E230B1F0E330E1F0C038D1057CF7AD
:10480000E4CFE83029F1E93059F1E530B1F7809192
:104810008000806280938000D0938B00C0938A00D8
:1048200004C084B5806884BDC7BDDF91CF911F915E
:10483000089584B5806284BDC8BDF7CF80918000A3
:10484000806880938000D0938900C0938800EDCF6A
:104850008091B00080688093B000C093B300E5CF32
:104860008091B00080628093B000C093B400DDCF2F
:10487000843081F028F4823099F08330A9F00895D3
:104880008830A9F08930C9F08530B1F4809180007A
:104890008F7D03C0809180008F7780938000089582
:1048A00084B58F7784BD089584B58F7DFBCF8091CB
:1048B000B0008F778093B00008958091B0008F7D15
:1048C000F9CFCF93DF9390E0FC01E554FE4F2491A4
:1048D00085529E4FFC0184918823C9F090E0880F97
:1048E000991FFC01E15FFD4FA591B491FC01EB5FC5
:1048F000FD4FC591D49161110DC09FB7F8948C9173
:10490000209582238C938881282328839FBFDF9161
:10491000CF910895623051F49FB7F8943C91822F63
:10492000809583238C93E8812E2BEFCF8FB7F8945B
:10493000EC912E2B2C938FBFEACF1F93CF93DF9355
:10494000282F30E0F901E556FE4F8491F901E55436
:10495000FE4FD491F901E552FE4FC491CC23A9F04A
:10496000162F81110E943824EC2FF0E0EE0FFF1F6C
:10497000EB5FFD4FA591B4918FB7F894EC911111B5
:1049800008C0D095DE23DC938FBFDF91CF911F91BC
:104990000895DE2BF8CFCF93DF93282F30E0F90175
:1049A000E556FE4F8491F901E554FE4FD491F9018B
:1049B000E552FE4FC491CC23A1F081110E9438240E
:1049C000EC2FF0E0EE0FFF1FE550FE4FA591B491E4
:1049D000EC91ED2381E090E009F480E0DF91CF914C
:1049E000089580E090E0FACFBF92CF92DF92EF92ED
:1049F000FF920F931F93CF93DF93C82ED62EB42E22
:104A0000D0E0C0E0022F10E087E0E82EF12CB801E2
:104A10008C2FBB2019F0C7018C1B9D0B02C0759514
:104A200067958A95E2F761708C2D0E949D2461E064
:104A30008D2D0E949D2460E08D2D0E949D24219645
:104A4000C830D10521F7DF91CF911F910F91FF90D1
:104A5000EF90DF90CF90BF900895FC01918D228D53
:104A6000892F90E0805C9F4F821B91098F7399275B
:104A70000895FC01918D828D981731F0828DE80F99
:104A8000F11D858D90E008958FEF9FEF0895FC0153
:104A9000918D828D981761F0A28DAE0FBF2FB11D41
:104AA0005D968C91928D9F5F9F73928F90E0089599
:104AB0008FEF9FEF089582EB96E2892B49F080E01B
:104AC00090E0892B29F00E94B22681110E940000FB
:104AD00080E090E0892B49F080E090E0892B29F07C
:104AE0000E94000081110C9400000895FC01A48D27
:104AF000A80FB92FB11DA35ABF4F2C91848D90E000
:104B000001968F739927848FA689B7892C93A089E2
:104B1000B1898C9180648C93938D848D981306C099
:104B20000288F389E02D80818F7D80830895CF9363
:104B3000DF93EC01888D8823B9F0AA89BB89E889C5
:104B4000F9898C9185FD03C0808186FD0DC00FB66B
:104B500007FCF7CF8C9185FFF2CF808185FFEDCFE9
:104B6000CE010E947625E9CFDF91CF910895EF9293
:104B7000FF920F931F93CF93DF93EC0181E0888F17
:104B80009B8D8C8D981316C0E889F989808185FFEB
:104B900011C0EE89FF896083E889F989808180648A
:104BA000808381E090E0DF91CF911F910F91FF9082
:104BB000EF900895F62E0B8D10E00F5F1F4F0F73CF
:104BC0001127E02E8C8D8E110CC00FB607FCFACF8A
:104BD000E889F989808185FFF5CFCE010E9476258D
:104BE000F1CFEB8DEC0FFD2FF11DE35AFF4FF0825B
:104BF0000B8FEA89FB8980818062D2CFCF92DF92CE
:104C0000EF92FF921F93CF93DF93EC016A017B0138
:104C1000122F60E874E88EE190E0A70196010E94EF
:104C20003A2F215031094109510956954795379539
:104C30002795E889F98982E08083211580E138078A
:104C400098F0E889F989108260E472E48FE090E0DE
:104C5000A70196010E943A2F2150310941095109BB
:104C60005695479537952795EC85FD853083EE85DC
:104C7000FF852083188EEC89FD891083EA89FB89E2
:104C8000808180618083EA89FB898081886080835C
:104C9000EA89FB89808180688083EA89FB89808139
:104CA0008F7D8083DF91CF911F91FF90EF90DF90F8
:104CB000CF9008951F920F920FB60F9211242F9349
:104CC0008F939F93EF93FF93E091BB04F091BC040B
:104CD0008081E091C104F091C20482FD1BC09081EB
:104CE0008091C4048F5F8F732091C504821741F0B7
:104CF000E091C404F0E0E555FB4F958F8093C40428
:104D0000FF91EF919F918F912F910F900FBE0F9078
:104D10001F9018958081F4CF1F920F920FB60F92BB
:104D200011242F933F934F935F936F937F938F93B0
:104D30009F93AF93BF93EF93FF938BEA94E00E940E
:104D40007625FF91EF91BF91AF919F918F917F91C8
:104D50006F915F914F913F912F910F900FBE0F90E8
:104D60001F9018958BEA94E00E942D2521E0892B55
:104D700009F420E0822F0895EBEAF4E01382128216
:104D800088EE93E0A0E0B0E084839583A683B783A8
:104D900088E892E09183808385EC90E09587848712
:104DA00084EC90E09787868780EC90E0918B808BF5
:104DB00081EC90E0938B828B82EC90E0958B848BDE
:104DC00086EC90E0978B868B118E128E138E148E4C
:104DD000089508950E947F230E94E9260E94C40737
:104DE000CBE5D5E20E94DC0A2097E1F30E945B2527
:104DF000F9CFAF92BF92CF92DF92EF92FF920F93D3
:104E00001F93CF93DF936C017B018B01040F151F60
:104E1000EB015E01AE18BF08C017D10759F06991C8
:104E2000D601ED91FC910190F081E02DC60109952C
:104E3000892B79F7C501DF91CF911F910F91FF90D9
:104E4000EF90DF90CF90BF90AF900895FB0101905D
:104E50000020E9F73197AF01461B570BDC01ED91BC
:104E6000FC910280F381E02D0994EF92FF920F9361
:104E70001F93CF93DF938C017B01D0E0C0E0F7015B
:104E8000EC0FFD1F6491662361F0D801ED91FC9158
:104E90000190F081E02DC8010995892B11F0219630
:104EA000EECFCE01DF91CF911F910F91FF90EF9048
:104EB00008956115710511F00C94262790E080E0AB
:104EC0000895DC01ED91FC910190F081E02D0994B1
:104ED00064E972E00C9426270F931F93CF93DF931E
:104EE000EC010E9435278C01CE010E946827800FBB
:104EF000911FDF91CF911F910F9108950F931F93F1
:104F0000CF93DF938C01D0E0C0E06115710519F0FB
:104F10000E942627EC01C8010E9468278C0F9D1F64
:104F2000DF91CF911F910F9108958F929F92AF9231
:104F3000BF92EF92FF920F931F93CF93DF93CDB762
:104F4000DEB7A1970FB6F894DEBF0FBECDBF7C01D0
:104F5000FA01CB0119A2223008F42AE08E010F5D7C
:104F60001F4F822E912CB12CA12CBF01A5019401C1
:104F70000E943A2FF901CA016A300CF5605DD80130
:104F80006E938D01232B242B252B79F790E080E065
:104F9000109721F0BD01C7010E942627A1960FB6E8
:104FA000F894DEBF0FBECDBFDF91CF911F910F915F
:104FB000FF90EF90BF90AF909F908F900895695CA5
:104FC000DECFCF92DF92EF92FF920F931F93CF939A
:104FD000DF932115310581F4DC01ED91FC91019005
:104FE000F081E02D642FDF91CF911F910F91FF9001
:104FF000EF90DF90CF9009942A30310501F52AE037
:1050000077FF1DC06A017B01EC016DE20E94612700
:105010008C0144275527BA014C195D096E097F0997
:105020002AE0CE010E949527800F911FDF91CF913A
:105030001F910F91FF90EF90DF90CF900895DF9137
:10504000CF911F910F91FF90EF90DF90CF900C9434
:1050500095279A01AB01770F660B770B0C94E1272C
:105060000F931F93CF93DF93EC010E9429288C01AB
:10507000CE010E946827800F911FDF91CF911F9171
:105080000F9108952115310541F4DC01ED91FC915A
:105090000190F081E02D642F09940C9495279A01DA
:1050A000462F50E070E060E00C9442280F931F936D
:1050B000CF93DF93EC010E944F288C01CE010E9418
:1050C0006827800F911FDF91CF911F910F91089555
:1050D0004F925F926F927F928F929F92AF92BF9208
:1050E000CF92DF92EF92FF920F931F93CF93DF93B4
:1050F00000D000D01F92CDB7DEB78B0129013A0155
:1051000090910D018917C9F09F3F09F4E3C00F90FA
:105110000F900F900F900F90DF91CF911F910F91F3
:10512000FF90EF90DF90CF90BF90AF909F908F90C7
:105130007F906F905F904F900895E9E1F2E0949135
:105140009D8397FDE4CF61E00E9461248D818823D7
:1051500021F09D81923009F05FC14801B12CA12C52
:1051600060E079E08DE390E0A50198010E945C2F5A
:1051700029833A834B835C8369017A0181E0C81AF1
:10518000D108E108F1089FEFC916D104E104F10448
:1051900009F00CF422C160E271EA87E090E0A50119
:1051A00098010E945C2F69017A0181E0C81AD10838
:1051B000E108F1089D81923009F0BBC18FEFC8165C
:1051C000D104E104F10409F00CF4E0C168E478EEE4
:1051D00081E090E0A50198010E945C2F69017A01AD
:1051E00091E0C91AD108E108F1088FEFC816D1047F
:1051F000E104F10409F00CF4CBC164E274EF80E047
:1052000090E0A50198010E945C2F69017A0191E06C
:10521000C91AD108E108F1088FEFC816D104E104DA
:10522000F10409F008F4B6C162E17AE780E090E0A9
:10523000A50198010E945C2F69017A0191E0C91AC9
:10524000D108E108F1088FEFC816D104E104F10498
:1052500009F008F4A1C169E07DE380E090E0A501D8
:1052600098010E945C2F69017A0191E0C91AD10866
:10527000E108F1088FEFC816D104E104F10411F040
:1052800008F060C186E09091B100987F892B8093EF
:10529000B1002FEF3FEFA9014114510461047104E3
:1052A00009F0ACC09D81913009F4E0C0923009F45E
:1052B00000C191112CCFC7BC2093590530935A05DA
:1052C00040935B0550935C0580916E0082608093F3
:1052D0006E001DCF80930D01E9E1F2E094919D8372
:1052E0009F3F09F414CF913061F150F0923009F4EE
:1052F0004EC09D8197FD0BCF61E00E94612429CFB4
:1053000014BC15BC94B5926094BD95B5916095BDE3
:10531000282F30E0F901E552FE4FE491F0E0EE0F66
:10532000FF1FEB5FFD4F45915491509358054093FB
:105330005705F901E554FE4FE491E09356051D82AF
:1053400002CF1092800010928100909181009860AD
:105350009093810090918100916090938100282F1B
:1053600030E0F901E552FE4FE491F0E0EE0FFF1F4F
:10537000EB5FFD4F4591549150935105409350057B
:10538000F901E554FE4FE491E0934F05DCCE109215
:10539000B0001092B1009091B00092609093B00074
:1053A0009091B10091609093B100282F30E0F90105
:1053B000E552FE4FE491F0E0EE0FFF1FEB5FFD4F73
:1053C0004591549150934A0540934905F901E5549C
:1053D000FE4FE491E0934805B6CE81E09D819111A6
:1053E00052CF95B5987F892B85BD2FEF3FEFA9014F
:1053F000411451046104710409F45DCFD801AA0F6E
:10540000BB1FA30192010E94902F28EE33E040E0E1
:1054100050E00E943A2F46CFB12CA12C60E079E0F9
:105420008DE390E0A50198010E945C2F69017A014B
:1054300081E0C81AD108E108F108C114D10491E053
:10544000E906F1042CF591E08D81813009F021CF3E
:1054500080918100887F892B809381002FEF3FEF1F
:10546000A901411451046104710441F6D0928900EC
:10547000C092880020935205309353054093540501
:105480005093550580916F00826080936F003FCEEE
:1054900064E274EF80E090E0A50198010E945C2F27
:1054A00069017A0181E0C81AD108E108F10893E0A6
:1054B000CBCFC092B30020934B0530934C05409363
:1054C0004D0550934E05809170008260809370006E
:1054D0001ECE64E274EF80E090E0A50194010E948A
:1054E0005C2F69017A0181E0C81AD108E108F1084E
:1054F00083E09FEFC916D104E104F10409F008F438
:105500006DCF69E07DE380E090E0A50194010E9409
:105510005C2F69017A0191E0C91AD108E108F1080C
:105520008FEFC816D104E104F10409F0E8F484E037
:1055300055CF8FEFC816D104E104F10409F04CF601
:1055400082E04CCFC980DA80EB80FC809AE0F59451
:10555000E794D794C7949A95D1F791E0C91AD108E6
:10556000E108F10887E08FCEC980DA80EB80FC800B
:105570008AE0F594E794D794C7948A95D1F781E0AF
:10558000C81AD108E108F10885E028CF82E07BCE77
:1055900083E079CE84E077CE85E075CE813039F036
:1055A00018F0823051F0089510926E0008958091A5
:1055B0006F008D7F80936F000895809170008D7FC4
:1055C0008093700081E08093B0008091B100887F6B
:1055D00084608093B1001092B3000895CF93C82FD8
:1055E00080910D01C8130DC0E9E1F2E084919FEFB5
:1055F00090930D010E94CE2A60E08C2FCF910C94E5
:105600009D248FEFF7CF1F920F920FB60F921124A8
:105610002F933F934F935F936F937F938F939F93BA
:10562000AF93BF93EF93FF9380914B0590914C05FF
:10563000A0914D05B0914E05892B8A2B8B2BD1F172
:1056400090914805E0914905F0914A0580818927AC
:10565000808380914B0590914C05A0914D05B091B0
:105660004E05181619061A061B069CF480914B0568
:1056700090914C05A0914D05B0914E050197A1095F
:10568000B10980934B0590934C05A0934D05B093C1
:105690004E05FF91EF91BF91AF919F918F917F91B7
:1056A0006F915F914F913F912F910F900FBE0F908F
:1056B0001F90189580910D010E94EE2AEACF4F921B
:1056C0005F926F927F92AF92BF92CF92DF92EF92F2
:1056D000FF920F931F93CF93DF93CDB7DEB72901CE
:1056E0003A019B01AC0124193509460957098989FA
:1056F0009A89AB89BC89BC01CD016A197B098C09E7
:105700009D090E94F62EA801970124193509460922
:1057100057090E945C2FCA01B9016A0D7B1D8C1DBF
:105720009D1DDF91CF911F910F91FF90EF90DF9022
:10573000CF90BF90AF907F906F905F904F90089503
:10574000FC01808191810C946D30CF93DF93EC014B
:1057500088819981009711F00E946D30198218821A
:105760001D821C821B821A82DF91CF9108950F93B4
:105770001F93CF93DF93EC018B016F5F7F4F888185
:1057800099810E94F630009751F0998388831B839A
:105790000A8381E0DF91CF911F910F91089580E0FE
:1057A000F9CFCF93DF93EC0188819981892B49F060
:1057B0008A819B818617970720F081E0DF91CF9146
:1057C0000895CE010E94B72B8823C1F38C819D815F
:1057D000892B99F7E881F9811082EFCFEF92FF9240
:1057E0000F931F93CF93DF93EC017B018A01BA01E2
:1057F0000E94D12B81110BC0CE010E94A52BCE019E
:10580000DF91CF911F910F91FF90EF9008951D832D
:105810000C83B701888199810E94C331F0CFFC01CC
:105820001182108213821282158214826115710511
:1058300051F0FB0101900020E9F73197AF01461BC1
:10584000570B0C94EE2B0895CF93DF93EC01FB01E3
:105850008617970749F0608171816115710541F0E4
:10586000448155810E94EE2BCE01DF91CF910895A6
:105870000E94A52BF9CFEF92FF920F931F93CF9326
:10588000DF936115710541F480E0DF91CF911F91A5
:105890000F91FF90EF90089541155105B1F07B01F4
:1058A000EC010C811D81040F151FB8010E94D12B42
:1058B000882351F3288139818C819D81B701820F22
:1058C000931F0E94C3311D830C8381E0DECFCF93F1
:1058D000DF93EC01FB0144815581608171810E945D
:1058E0003B2C811103C0CE010E94A52BCE01DF917C
:1058F000CF910895FC01248135816217730748F424
:1059000080819181009729F0860F971FFC0180818B
:10591000089580E00895CF93DF93DC011496ED9114
:10592000FC916E177F0728F54115510511F19F0174
:10593000261B370B4217530708F49A01DB01EC01D1
:1059400088819981E21BF30BFD83EC83AF01461B39
:10595000570B260F371FBC01620F731F8A0F9B1F47
:105960000E94CA31E881F9818C819D81E80FF91F7D
:105970001082DF91CF91089508955058BB27AA2730
:105980000E94D52C0C944F2E0E94412E38F00E947C
:10599000482E20F039F49F3F19F426F40C943E2E43
:1059A0000EF4E095E7FB0C94382EE92F0E94602E50
:1059B00058F3BA17620773078407950720F079F444
:1059C000A6F50C94822E0EF4E0950B2EBA2FA02D86
:1059D0000B01B90190010C01CA01A0011124FF279C
:1059E000591B99F0593F50F4503E68F11A16F04097
:1059F000A22F232F342F4427585FF3CF4695379596
:105A00002795A795F0405395C9F77EF41F16BA0B5A
:105A1000620B730B840BBAF09150A1F0FF0FBB1F08
:105A2000661F771F881FC2F70EC0BA0F621F731F51
:105A3000841F48F4879577956795B795F7959E3FAE
:105A400008F0B0CF9395880F08F09927EE0F97953F
:105A5000879508950E94142E08F481E008950E940D
:105A6000432D0C944F2E0E94482E58F00E94412E38
:105A700040F029F45F3F29F00C94382E51110C941A
:105A8000832E0C943E2E0E94602E68F39923B1F36E
:105A9000552391F3951B550BBB27AA276217730754
:105AA000840738F09F5F5F4F220F331F441FAA1FE8
:105AB000A9F335D00E2E3AF0E0E832D091505040A4
:105AC000E695001CCAF72BD0FE2F29D0660F771F52
:105AD000881FBB1F261737074807AB07B0E809F038
