:100000000C9423010C94BA150C94E1150C94081669
:100010000C944B010C944B010C944B010C944B0130
:100020000C944B010C94171E0C944B010C944B0137
:100030000C944B010C944B010C944B010C944B0110
:100040000C944B010C944B010C942F160C944B0107
:100050000C9472190C94A4190C944B010C944B0140
:100060000C944B010C944B010C949B0C0C944B0185
:100070000C944B010C944B010C944B01490E620EF5
:10008000620E600E620E470E620E620E620E3A0E35
:10009000620E620E520E5E0E5C0E620E620E620EFA
:1000A0005A0E536574205375636365737366756C7C
:1000B0000068683A6D6D206D6F646500456E74650B
:1000C0007220616C61726D2074696D6520666F725B
:1000D0006D617420286D6F64652069732031207410
:1000E0006F20362C20342069732070657220646183
:1000F000792900536574205375636365737366755E
:100100006C006D6D6D2D64642D7979797920686846
:100110002D6D6D2D73732073616D706C6520696E2C
:100120007075743A2044656320323620323030399D
:100130002031323A33343A353600456E74657220D8
:100140006461746520666F726D6174006B457874CC
:10015000506F77657250696E3A3D00526570656107
:1001600074204D6F6465205365743A20002D2D2D49
:100170002D2D2D2D2D2D2D2D2D2D2D2D2D2D2D2DAF
:100180000043686F6F73652061206D656E7520692F
:1001900074656D3A004120736574205B415D6C614C
:1001A000726D2074696D65005420736574205B5412
:1001B0005D696D65001F1C1F1E1F1E1F1F1E1F1E59
:1001C0001F000000020300000000000000050409F9
:1001D0000800000000000000000000000000000017
:1001E0000001020408102040800102040810204091
:1001F0008001020408102040800102040810204001
:100200008002020202020202020404040404040442
:1002100004030303030303030301010101010101BB
:1002200001000020002300260029000000220025F4
:100230000028002B0000002100240027002A0002D3
:100240000A04D00BD41911241FBECFEFD0E1DEBFBA
:10025000CDBF12E0A0E0B1E0E8E3FDE402C005900C
:100260000D92AE3AB107D9F724E0AEEAB2E001C090
:100270001D92A239B207E1F711E0C3E2D1E004C058
:100280002197FE010E948321C032D107C9F70E9445
:10029000021A0C949A260C94000081E08093DD02EF
:1002A0000895DC01ED91FC910190F081E02D09941D
:1002B0006AE470E083E193E00E944F0B61E070E03C
:1002C00083E193E00E94510161E370E083E193E0F8
:1002D0000E94510183E193E00E94CD0B6AE070E03F
:1002E00080E090E00E94AA1660E470E083E193E071
:1002F0000E944F0B62E070E083E193E00E945101A5
:1003000060E070E083E193E00E94510160E070E002
:1003100083E193E00E94510183E193E00C94CD0BC3
:100320000F931F93CF93DF9300D000D000D0CDB7B1
:10033000DEB7CE0101960E94270FCE0101960E94E2
:100340007C0E1F928F938D811F928F938C811F92B1
:100350008F938EE091E09F938F9307EB12E01F93B2
:100360000F930E94B0234CE4B8018EED92E00E94FE
:10037000621444EF51E060E070E08EED92E00E9484
:100380001115CE0101960E947C0E1F928F938D81D4
:100390001F928F938C811F928F938DE191E09F9399
:1003A0008F931F930F930E94B0234CE4B8018EEDFE
:1003B00092E00E94621444EF51E060E070E08EED44
:1003C00092E00E9411150FB6F894DEBF0FBECDBFAC
:1003D00026960FB6F894DEBF0FBECDBFDF91CF914A
:1003E0001F910F910895EF92FF920F93CF93DF9398
:1003F00000D000D000D0CDB7DEB785E0E82EF12CDC
:100400006CE271E082EB92E00E949A2303E424EF15
:1004100031E040E050E062EB72E08EED92E00E944D
:10042000421561E371E0CE0101960E94221F4CE467
:10043000BE016F5F7F4F8EED92E00E94E71448E5AA
:1004400052E060E070E08EED92E00E941115CE0166
:1004500001960E94B41E81E0E81AF10889F62696FA
:100460000FB6F894DEBF0FBECDBFDF91CF910F91D5
:10047000FF90EF900895EF92FF920F93CF93DF9349
:1004800000D000D000D0CDB7DEB785E0E82EF12C4B
:100490006AE371E082EB92E00E949A2303E42CE28B
:1004A00031E040E050E062EB72E08EED92E00E94BD
:1004B000421561E371E0CE0101960E94221F4CE4D7
:1004C000BE016F5F7F4F8EED92E00E94E7144CE219
:1004D00051E060E070E08EED92E00E941115CE01D7
:1004E00001960E94B41E81E0E81AF10889F626966A
:1004F0000FB6F894DEBF0FBECDBFDF91CF910F9145
:10050000FF90EF9008950F9303E428EB3BE040E069
:1005100050E061E471E08EED92E00E9442150F918F
:1005200008950F9303E428EB3BE040E050E064E4DF
:1005300071E08EED92E00E9442150F910895CF93E5
:10054000DF9300D000D000D0CDB7DEB7CE0101964A
:100550000E94270F8E811F928F938D811F928F9300
:100560008C811F928F938B811F928F938A811F9210
:100570008F93898190E08053984F9F938F9388E465
:1005800091E09F938F9387EB92E09F938F930E94CC
:10059000B02367EB72E08CED93E00E94931A0FB6E4
:1005A000F894DEBF0FBECDBF26960FB6F894DEBF1F
:1005B0000FBECDBFDF91CF9108950F931F93CF93BF
:1005C000DF9303E010E0C0E0D0E08FE10E94241749
:1005D000C80FD91F01501109C1F7CE0163E070E0C7
:1005E0000E942E21CB01DF91CF911F910F91089591
:1005F000AF92BF92CF92DF92EF92FF920F931F9331
:10060000CF93DF9300D000D000D0CDB7DEB7CE01BE
:1006100001960E94270F0E94DD02BC01990F880BF2
:10062000990B1F921F921F9224E62F93A12CB12C9D
:10063000650114EDE12E13E0F12E00E010E02EEE46
:1006400032E040E050E00E94731E9B010F900F903B
:100650000F900F90663571054CF08B811F928F9330
:100660008A811F928F9387E691E046C0AB01475481
:1006700051094F30510548F48B811F928F938A8125
:100680001F928F9385E791E037C0AB014853510922
:100690004F30510548F48B811F928F938A811F92AE
:1006A0008F9383E891E028C0AB01495251094F3044
:1006B000510548F48B811F928F938A811F928F93EB
:1006C00081E991E019C0655171096431710548F4FF
:1006D0008B811F928F938A811F928F938FE991E074
:1006E0000BC025313105ACF48B811F928F938A8129
:1006F0001F928F938DEA91E09F938F9387EB92E007
:100700009F938F930E94B0230FB6F894DEBF0FBE65
:10071000CDBF4CE467EB72E08EED92E00E94621474
:1007200040ED57E060E070E08EED92E00E94111520
:1007300026960FB6F894DEBF0FBECDBFDF91CF91E6
:100740001F910F91FF90EF90DF90CF90BF90AF90EF
:100750000895CF93DF93EB0120E030E0A901BC01C5
:100760008CE00E94751B88E78C9FB0018D9F700DF7
:100770001124072E000C880B990BDF91CF910C945C
:10078000AA16CF93DF93EC018CE00E94021E88E74B
:100790008C9FB0018D9F700D1124072E000C880BCB
:1007A000990BDF91CF910C94AA1690917A009F77C4
:1007B00090937A008A30A9F083FD02C098E001C0CE
:1007C00098E28770892B98E10FB6F894A8959093DA
:1007D00060000FBE80936000809160008064809311
:1007E000600083B7817F846083BFF89483B78160A2
:1007F00083BF85B7806685BF8F7D85BF78948895D8
:1008000083B78E7F83BF789480917A0080688093CD
:100810007A000895EF92FF920F931F9388E0E82EDD
:10082000F12C00E010E02DE030E04FE050E06EE011
:1008300070E08EED92E00E94E4121F910F91FF9004
:10084000EF900895AF92BF92CF92DF92EF92FF9216
:100850000F931F93CF93DF93CDB7DEB769970FB692
:10086000F894DEBF0FBECDBF6AE371E08CED93E07C
:100870000E94811A62E071E08CED93E00E94811A7F
:100880008CED93E00E943B184497D4F38E010F5FE8
:100890001F4F7E018CE0E80EF11C58018CED93E0B7
:1008A0000E945518F80181938F01EE15FF05B1F7ED
:1008B0008CED93E00E94551867018E010C5E1F4F6E
:1008C0008CED93E00E945518F60181936F010E178D
:1008D0001F07B1F76AE070E080E090E00E94AA167E
:1008E0008CED93E00E94F018A701B501C8010E94A9
:1008F0001B0EC8010E9437116AE070E080E090E0B2
:100900000E94AA16B5018CED93E00E94931AC801CB
:100910000E94270FC8010E947C0E182F68E670E025
:1009200083E193E00E944F0B64E070E083E193E089
:100930000E945101612F83E193E00E94060B83E145
:1009400093E00E94CD0B63EF70E08CED93E00E948A
:10095000811A69960FB6F894DEBF0FBECDBFDF9146
:10096000CF911F910F91FF90EF90DF90CF90BF90AC
:10097000AF900895BF92CF92DF92EF92FF920F93C4
:100980001F93CF93DF93CDB7DEB72C970FB6F894B4
:10099000DEBF0FBECDBFCE0107960E94270FD884C1
:1009A000B9846CEB70E08CED93E00E94811A61EBEE
:1009B00070E08CED93E00E94811A8CED93E00E9430
:1009C0003B180897D4F38CED93E00E945518182F2C
:1009D000682F8CED93E00E94A9188CED93E00E94A3
:1009E0005518082F682F8CED93E00E94A918110F5D
:1009F0001056812F880F880F180F0053010F8CEDB0
:100A000093E00E945518682F8CED93E00E94A9187E
:100A10008CED93E00E945518182F682F8CED93E011
:100A20000E94A9188CED93E00E945518F82E682FAB
:100A30008CED93E00E94A918110F1056E12EEE0CD8
:100A4000EE0C1E0D80ED8F0DE12EE80E8CED93E087
:100A50000E945518682F8CED93E00E94A9188CED28
:100A600093E00E945518182F682F8CED93E00E9498
:100A7000A91868E371E08CED93E00E94931A6AE094
:100A800070E080E090E00E94AA168CED93E00E9456
:100A9000F018C12C2B2D4D2D63EE77E0CE01019681
:100AA0000E94070ECE0101960E94D51160ED610FE4
:100AB00070E082E193E00E94E60F62EA70E08CED64
:100AC00093E00E94811A2C960FB6F894DEBF0FBEF9
:100AD000CDBFDF91CF911F910F91FF90EF90DF90ED
:100AE000CF90BF9008951F93CF93DF936AE470E097
:100AF00083E193E00E944F0B61E070E083E193E0BB
:100B00000E94510183E193E00E94CD0B65E070E00B
:100B100080E090E00E94AA1641E050E06AE470E0B4
:100B200083E193E00E94C80B83E193E00E94B50A41
:100B3000182F6AE470E083E193E00E944F0B61E0BC
:100B400070E083E193E00E945101612F606483E1D2
:100B500093E00E94060B83E193E00E94CD0B6AE4D0
:100B600071E080E090E00E94AA166AE470E083E100
:100B700093E00E944F0B60E070E083E193E00E94FD
:100B8000510183E193E00E94CD0B42E050E06AE422
:100B900070E083E193E00E94C80B83E193E00E9440
:100BA000B50A182F83E193E00E94B50AD12F20E007
:100BB000C22F9E01282BC90124E0959587952A957F
:100BC000E1F7DF91CF911F9108951F93CF93DF93AA
:100BD00060E470E083E193E00E944F0B61E070E01D
:100BE00083E193E00E94510183E193E00E94CD0BE9
:100BF0006AE070E080E090E00E94AA1642E050E0D7
:100C000060E470E083E193E00E94C80B83E193E02D
:100C10000E94B50A182F83E193E00E94B50AD12FF4
:100C200090E0C92FBE01682B80E090E00E94032075
:100C300020E030E040E857E30E94912020E030E0DF
:100C400048EC52E40E949120DF91CF911F910895CA
:100C50000F931F93CF93DF930E947305EC010E94C3
:100C600073058C010E94E5050E94D41F1F926F93AB
:100C7000BE016F707727072E000C880B990B0E941E
:100C8000052020E030E040E25FE30E9491200E94D6
:100C9000D41F1F926F93B801110F880B990B0E94FC
:100CA000052020E030E040E85DE30E9491200E94B2
:100CB000D41F1F926F9385EC91E09F938F9387EBE6
:100CC00092E09F938F930E94B0234CE467EB72E015
:100CD0008EED92E00E9462148DB79EB70A960FB611
:100CE000F8949EBF0FBE8DBF4CEA5DE060E070E0FF
:100CF0008EED92E0DF91CF911F910F910C94111521
:100D0000CF93DF9300D000D000D0CDB7DEB7CE01B7
:100D100001960E94270F8E811F928F938D811F92C3
:100D20008F938C811F928F9382ED91E09F938F938D
:100D300087EB92E09F938F930E94B0234CE467EB84
:100D400072E08EED92E00E94621441E060E070E09B
:100D50008EED92E00E940B1541E061E070E08EEDB7
:100D600092E00E940B1541E062E070E08EED92E0AF
:100D70000E940B1541E063E070E08EED92E00E946E
:100D80000B1541E064E070E08EED92E00E940B15DF
:100D900041E065E070E08EED92E00E940B1544EFBB
:100DA00051E060E070E08EED92E00E94111540E0AD
:100DB00060E070E08EED92E00E940B1540E061E093
:100DC00070E08EED92E00E940B1540E062E070E072
:100DD0008EED92E00E940B1540E063E070E08EED36
:100DE00092E00E940B1540E064E070E08EED92E02E
:100DF0000E940B1540E065E070E08EED92E00E94ED
:100E00000B1544EF51E060E070E08EED92E00E943F
:100E100011158091B0029091B102019664E270E0E8
:100E20000E942E210FB6F894DEBF0FBECDBF892BD6
:100E300011F40E94280626960FB6F894DEBF0FBE66
:100E4000CDBFDF91CF9108954F925F926F927F92C5
:100E50008F929F92AF92BF92CF92DF92EF92FF92CA
:100E60000F931F93CF93DF93CDB7DEB762970FB683
:100E7000F894DEBF0FBECDBF0E9473054C010E94E7
:100E8000E5052B013C010E94DD02BC01990F880B96
:100E9000990B1F921F921F9224E62F93A12CB12C25
:100EA000650114EDE12E13E0F12E00E010E02EEECE
:100EB00032E040E050E00E94731EE62ED72ECE01B5
:100EC0000D960E94270FF9880889CE010D960E9481
:100ED0007C0E182FDF92EF92C301B2010E94D41F43
:100EE0001F926F93B401990C880B990B0E940520F7
:100EF00020E030E040E85DE30E9491200E94D41F92
:100F00001F926F931F92FF921F920F931F921F9336
:100F10008F851F928F938E851F928F938D8590E082
:100F20008053984F9F938F9381EE91E09F938F937F
:100F300087EB92E09F938F930E94B02367EB72E060
:100F4000CE0107960E94221F61E371E0CE01019657
:100F50000E94221FBE01695F7F4FCE0101960E9451
:100F60007C1FBC01CE0107960E94371FCE0101965F
:100F70000E94B41E0FB6F894DEBF0FBECDBF8B85A6
:100F80009C85892BA9F00CE426E232E040E050E099
:100F9000BE01695F7F4F8EED92E00E945B1541E0DC
:100FA00050E060E070E0CE0107960E94A01FE7CFFE
:100FB000CE0107960E94B41E62960FB6F894DEBF6B
:100FC0000FBECDBFDF91CF911F910F91FF90EF909A
:100FD000DF90CF90BF90AF909F908F907F906F9059
:100FE0005F904F900895AF92BF92CF92DF92EF92B1
:100FF000FF920F931F93CF93DF9360E082E00E94F4
:101000006E1760E081E00E946E1761E08CE00E9444
:101010006E1761E080E00E946E1760E080E00E9441
:10102000AA1782E00E9421171092DD0281E08093CE
:10103000DC0226E040E056E960E070E08CED93E0F1
:101040000E9412190E94B30E82E193E00E94D11017
:101050000E9458010E949F0260EA72E08CED93E0CA
:101060000E94931A68EA71E08CED93E00E94811A65
:1010700065E971E08CED93E00E94811A60EA72E00C
:101080008CED93E00E94931A61E871E08CED93E09F
:101090000E94811A6DE671E08CED93E00E94811A46
:1010A0000E94F3010E94DD02EC016FE072E08CED22
:1010B00093E00E94741A4AE050E0BE018CED93E088
:1010C0000E94631BBE01DD0F880B990B1F921F92BC
:1010D0001F9224E62F93A12CB12C650114EDE12E73
:1010E00013E0F12E00E010E02EEE32E040E050E0A0
:1010F0000E94731E6B017C016CE172E08CED93E049
:101100000E94741A4AE050E0B6018CED93E00E9410
:10111000631B8CED93E00E943B180F900F900F9093
:101120000F901816190614F58CED93E00E945518CF
:1011300099278435910559F024F48134910551F0B3
:101140000BC08136910531F08437910529F40E9456
:10115000220402C00E94BA046AE070E080E090E0DD
:101160000E94AA168CED93E00E94F0186BE571E0E6
:101170008CED93E00E94501A82E193E00E9484106B
:101180004AE050E0BC018CED93E00E94631B61E0FB
:1011900082E193E00E94A90F0E94F2100E942407AE
:1011A0008091DC02882319F00E94830202C00E9411
:1011B00091021092DB021092DA021092B1021092A8
:1011C000B0021092AF021092AE0281E00E94D917D5
:1011D000C82F6CE471E08CED93E00E94501A4AE055
:1011E00050E06C2F8CED93E0DF91CF911F910F9128
:1011F000FF90EF90DF90CF90BF90AF900C94021BC8
:10120000CF93DF93EC0160E570E083E193E00E940F
:101210004F0B6D2F70E083E193E00E945101BE01FE
:10122000772783E193E00E94510160E083E193E03E
:101230000E94510B42E050E060E570E083E193E0F2
:101240000E94C80B83E193E00E94B50AC82F83E196
:1012500093E00E94B50A982F88278C0F911DDF918B
:10126000CF910895CF93DF93C0E0D0E0CE010E94EC
:10127000000962E070E00E94A9032296C436D105FD
:10128000A9F782E090E00E94C103CAE5D2E08CE0B9
:101290000E94021E68E770E080E090E00E94AA16BB
:1012A00082E00E94D917892B51F465E070E080E05C
:1012B00090E00E94AA1682E00E94D91710C020E098
:1012C00030E0A90162E078E08CE00E94751B60E5E7
:1012D00070E080E090E00E94AA162197C1F68CE0B1
:1012E000DF91CF910C94021ECF93DF9300D000D0FA
:1012F00000D0CDB7DEB782E00E94D917892B59F50F
:1013000065E070E080E090E00E94AA1682E00E9412
:10131000D91782E193E00E94D110892B09F459C0BA
:101320008091DC02882309F454C0CE0101960E940A
:10133000270FCE0101960E947C0E882321F0863073
:1013400011F00E9432091092DB021092DA02109220
:10135000B1021092B00281E00E94D917892B31F0BE
:101360008091B0029091B102C397ECF50E94DD022A
:101370008130934024F561E080E00E94AA178091BB
:10138000B0029091B10201966CE370E00E942E21B0
:10139000892BA9F40E943B0242E050E06DE471E029
:1013A00082E00E9475156AE070E080E090E00E94A3
:1013B000AA168AE00E94D50382E00E94A4150E942A
:1013C000DD028D309340A4F060E080E00E94AA1717
:1013D0000FC08091DA029091DB0201969093DB02BC
:1013E0008093DA02B4CF1092B1021092B002BECF55
:1013F00026960FB6F894DEBF0FBECDBFDF91CF911A
:1014000008958091DD028823E1F082E00E94A41516
:101410001092DD028091DC02882319F00E94830281
:1014200002C00E9491020E9424071092DB021092D7
:10143000DA021092B1021092B0021092AF02109232
:10144000AE028091DA029091DB028230910519F1AF
:1014500044F40097E9F0019709F04AC00E94900116
:1014600026C08430910541F104F1059709F040C090
:101470000E943B0242E050E06DE471E082E00E9495
:1014800075158AE00E94D50382E00E94A41530C041
:101490000E9480063BC00E94F8028091AE029091AB
:1014A000AF0284309105F4F019C00E942806109212
:1014B000AF021092AE022AC00E9424078091DC0283
:1014C000882319F00E94830202C00E949102809139
:1014D000AE029091AF021816190624F41092DB02A6
:1014E0001092DA0201969093AF028093AE020EC082
:1014F0001092DB021092DA028091DC02882319F04C
:101500001092DC0203C081E08093DC028091B00283
:101510009091B10282329140A9F40E943B0242E0D4
:1015200050E06DE471E082E00E9475156AE070E0C1
:1015300080E090E00E94AA168AE00E94D50382E033
:101540000E94A4158091B0029091B10201969093EF
:10155000B1028093B0020C9474098091430390E02F
:1015600020914403821B9109089590914403809136
:101570004303981750F4E92FF0E0EB5BFC4F208118
:1015800030E09F5F9093440302C02FEF3FEFC9010B
:101590000895E091440380914303E81730F4F0E0AC
:1015A000EB5BFC4F808190E008958FEF9FEF0895F3
:1015B0000895CF92DF92EF92FF920F931F93CF93F4
:1015C000DF937C01CB018A0120911F03222389F044
:1015D000EB016B01C40ED51ECC15DD0569F06991D8
:1015E000D701ED91FC910190F081E02DC7010995A3
:1015F000F3CF642F0E94720CC801DF91CF911F912D
:101600000F91FF90EF90DF90CF900895CF93DF93ED
:101610001F92CDB7DEB7698320911F032223D1F03B
:1016200020912003203240F021E030E0FC013383A0
:10163000228380E090E015C080912103E82FF0E044
:10164000EE5DFC4F998190838F5F8093210380939F
:10165000200305C061E0CE0101960E94720C81E07A
:1016600090E00F90DF91CF910895FC0113821282D8
:1016700088EE93E0A0E0B0E084839583A683B783EF
:1016800080E392E091838083089581E080931F033B
:1016900060934203109221031092200308950C944A
:1016A000450B0F93062F21E04091200362E273E087
:1016B000809142030E941C0C10922103109220037F
:1016C00010921F030F9108954F925F926F927F9235
:1016D000AF92BF92CF92EF92FF920F931F93CF934F
:1016E000DF935C01F62ED42F28013901EE2021F181
:1016F0000E94450BCE2DC43008F0C3E0C150C0F0AD
:1017000028E0C29FC0011124A301920104C0569594
:101710004795379527958A95D2F7CA01B901D50122
:10172000ED91FC910190F081E02DC5010995E6CF86
:1017300060E0C5010E94510B4D2FD13208F040E20C
:101740002C2D65E473E08F2D0E94D40B109244037E
:1017500080934303DF91CF911F910F91FF90EF9002
:10176000CF90BF90AF907F906F905F904F90089513
:10177000CF92EF920F931F93C22EE12C00E010E066
:1017800098010E94640B1F910F91EF90CF900895E4
:1017900021E00C94B80B0C94B80B61E00C94510B45
:1017A00083E193E00C94350B413208F043C09091F3
:1017B000D2039111FCCF91E09093D2032093D003F8
:1017C0002FEF209365031092AA03240F2093A903FF
:1017D0009093D1039091D103880F892B8093D103EB
:1017E0008091CF03813061F41092CF038091D103B7
:1017F0008093BB008091BC0083FDF8CF85EC01C0D5
:1018000085EE8093BC008091D2038130E1F380911A
:10181000AA03841710F44091AA03ABEAB3E0962F11
:10182000FB018E2F891B841718F48D918193F9CFBA
:10183000842F089580E008950F93413208F04AC044
:101840009091D2039111FCCF32E03093D2030093F8
:10185000D0033FEF309365031092AA034093A9038E
:10186000562FABEAB3E0FB013E2F351B341718F4BB
:1018700031913D93F9CF1092D1033091D103880F6C
:10188000832B8093D1038091CF03813061F4109238
:10189000CF038091D1038093BB008091BC0083FD76
:1018A000F8CF85EC01C085EE8093BC00222321F0A7
:1018B0008091D2038230D1F3809165038F3F79F01C
:1018C00080916503803241F080916503803331F06F
:1018D00094E005C091E003C092E001C093E0892F3D
:1018E0000F910895613298F42091D203243089F445
:1018F00060938703282FA9E8B3E0FC018E2F821B99
:10190000861718F481918D93F9CF80E0089581E0D6
:10191000089582E0089585ED8093BC008091BC001D
:1019200084FDFCCF1092D203089585EC8093BC0017
:101930001092D20308951F920F920FB60F921124A6
:101940002F933F934F935F936F937F938F939F93C7
:10195000AF93BF93EF93FF938091B900887F803658
:1019600009F49EC078F5883209F45DC090F48031A6
:1019700009F456C038F4882309F4F5C0883009F416
:101980004FC0F5C0883109F44EC0803209F45FC001
:10199000EEC0803409F46AC058F4803309F457C0AB
:1019A000883309F0E4C0809365030E94950CDFC082
:1019B000803509F44FC0883509F45DC0883409F0DA
:1019C000D6C0D3C0883909F4C4C0A8F4883709F454
:1019D00067C038F4883609F463C0803709F460C002
:1019E000C6C0883809F4B5C0803909F45FC08038B2
:1019F00009F0BDC05BC0803B09F483C038F4803A75
:101A000009F466C0883A09F47CC0B1C0803C09F48E
:101A1000A4C0883C09F4A1C0883B09F487C0A7C0D2
:101A20008091D10310C09091AA038091A9039817C7
:101A300070F5E091AA0381E08E0F8093AA03F0E095
:101A4000E555FC4F80818093BB0085EC83C080937B
:101A500065038BC0E091AA0381E08E0F8093AA03F7
:101A60008091BB00F0E0E555FC4F80839091AA0384
:101A70008091A9036BC0E091AA0381E08E0F80934F
:101A8000AA038091BB00F0E0E555FC4F8083809174
:101A9000D00381116AC081E08093CF0384EA5EC0E5
:101AA00083E08093D20310926603CFCF80916603C8
:101AB000803208F04EC0E091660381E08E0F809383
:101AC00066038091BB00F0E0E959FC4F8083BDCFF5
:101AD0000E94950C80916603803230F4E091660399
:101AE000F0E0E959FC4F10826091660370E0E091EC
:101AF000CB03F091CC0387E693E00995109266033F
:101B000036C084E08093D20310928803109287033A
:101B1000E091CD03F091CE03099580918703811167
:101B200005C081E08093870310928903E0918803C8
:101B300081E08E0F80938803F0E0E757FC4F8081AF
:101B40008093BB009091880380918703981708F4D5
:101B50007CCF85E88093BC000AC085EC8093BC00F4
:101B60001092D20304C0109265030E948B0CFF9167
:101B7000EF91BF91AF919F918F917F916F915F9105
:101B80004F913F912F910F900FBE0F901F9018957E
:101B9000803D27E0920710F0805D974050E0E5EB34
:101BA000F1E021E0261730F43491430F511D2F5FEF
:101BB0003196F8CF633038F09C0123703327232B04
:101BC00011F44F5F5F4FBC016D5F7F4F7695679556
:101BD00076956795EDE6F1E08E9F90018F9F300D31
:101BE0009E9F300D1124C9010197860F971F840F06
:101BF000951F0895FC01908190539A3008F090E071
:101C0000818180532AE0929F800D11240895CF9204
:101C1000EF920F93FC01603D87E0780710F0605D64
:101C200077406083418322830383E482C5820F91DE
:101C3000EF90CF900895EF92FF920F931F93CF9361
:101C4000DF93EC018B017A01CB0109960E94FA0D1A
:101C50008883D801EC918E2FEE0F990BAA0BBB0B4A
:101C6000FC01E154F109E331F10560F5E25CFF4F5D
:101C70000C948321F8018181813629F082818E368E
:101C800021F087E01EC081E01CC086E01AC082E01F
:101C900018C0D80112968C91823711F088E011C0DB
:101CA00084E00FC0F8018281823711F085E009C01D
:101CB00083E007C089E005C08AE003C08BE001C073
:101CC0008CE08983C80104960E94FA0D8A83C701BB
:101CD0000E94FA0D8B83C70103960E94FA0D8C8334
:101CE000C70106960E94FA0D8D83DF91CF911F9157
:101CF0000F91FF90EF900895FC01808142816181F6
:101D000090E00E94C80D069667E070E00E941A21DC
:101D1000089568E670E083E193E00E944F0B60E075
:101D200070E083E193E00E94510183E193E00C9421
:101D3000CD0B0F931F93CF93DF93082FC8E0D0E014
:101D400010E8802F812311F061E301C060E38CED86
:101D500093E00E94761A1695219799F7DF91CF911B
:101D60001F910F910895CF93DF9368E670E083E1B0
:101D700093E00E944F0B68E070E083E193E00E94E3
:101D8000510183E193E00E94CD0B41E050E068E611
:101D900070E083E193E00E94C80B83E193E00E942E
:101DA000B50AEC0187FF16C068E670E083E193E0B6
:101DB0000E944F0B68E070E083E193E00E945101C4
:101DC000BE01606883E193E00E94510183E193E0EA
:101DD0000E94CD0B6AE070E080E090E00E94AA16BD
:101DE00068E670E083E193E00E944F0B6AE070E0E8
:101DF00083E193E00E94510183E193E00E94CD0BC7
:101E000041E050E068E670E083E193E00E94C80B97
:101E100083E193E00E94B50AEC0168E670E083E19B
:101E200093E00E944F0B6AE070E083E193E00E9430
:101E30005101BE016F7983E193E00E94510183E17A
:101E400093E00E94CD0B81E0DF91CF910895CF9276
:101E5000DF92EF92FF920F931F93CF93DF93EC01EA
:101E600068E670E083E193E00E944F0B61E070E070
:101E700083E193E00E94510183E193E00E94CD0B46
:101E800021E030E047E050E068E670E083E193E075
:101E90000E94CB0B83E193E00E94B50A8F77982FC5
:101EA00092959F701AEF082F919F000D112483E1E6
:101EB00093E00E94B50A8F77982F92959F70C82E55
:101EC000919FC00C112483E193E00E94B50A8F73A7
:101ED000982F92959F70D82E919FD00C112483E15A
:101EE00093E00E94B50A83E193E00E94B50A8F73E4
:101EF000982F92959F70F82E919FF00C112483E1FA
:101F000093E00E94B50A8F71982F92959F70E82EEA
:101F1000919FE00C112483E193E00E94B50A9C019B
:101F2000332794E0359527959A95E1F7129F800D18
:101F300011248883E982FA82DB82CC820D83CE0170
:101F4000DF91CF911F910F91FF90EF90DF90CF9095
:101F50000895CF93DF93C62F68E670E083E193E0A6
:101F60000E944F0B6AE070E083E193E00E94510110
:101F700083E193E00E94CD0B41E050E068E670E021
:101F800083E193E00E94C80B83E193E00E94B50ACD
:101F9000CC2319F0EC01C06802C0EC01CF7768E6F1
:101FA00070E083E193E00E944F0B6AE070E083E110
:101FB00093E00E945101BE0183E193E00E94510130
:101FC00083E193E0DF91CF910C94CD0BAF92BF9260
:101FD000CF92DF92EF92FF920F931F93CF93DF93F5
:101FE0005B0168E670E083E193E00E944F0B6BE0D9
:101FF00070E083E193E00E94510183E193E00E944D
:10200000CD0B44E050E068E670E083E193E00E948D
:10201000C80B83E193E00E94B50AEC0183E193E0F1
:102020000E94B50A6C0183E193E00E94B50A7C012D
:1020300083E193E00E94B50A8C0183E0A816B10405
:1020400011F154F481E0A816B104B1F082E0A816B1
:10205000B10451F50F7711C085E0A816B104E9F07D
:10206000B4F086E0A816B104F9F40F77E894E7F825
:10207000E894C7F8CF7318C000686894E7F86894CC
:10208000C7F8C06C11C00F77E894E7F8F8CF0F7766
:10209000E894E7F8E894C7F8F4CF0F77E894E7F806
:1020A000E894C7F8CF77C06468E670E083E193E016
:1020B0000E944F0B6BE070E083E193E00E945101BE
:1020C000BE0183E193E00E945101B60183E193E0F8
:1020D0000E945101B70183E193E00E945101B801D0
:1020E00083E193E00E94510183E193E00E94CD0BD4
:1020F000DF91CF911F910F91FF90EF90DF90CF90E4
:10210000BF90AF900C94890EFF920F931F93CF93C3
:10211000DF9368E670E083E193E00E944F0B6BE091
:1021200070E083E193E00E94510183E193E00E941B
:10213000CD0B44E050E068E670E083E193E00E945C
:10214000C80B83E193E00E94B50A182F83E193E066
:102150000E94B50A082F83E193E00E94B50AF82E89
:1021600083E193E00E94B50A87FB882780F9C82F96
:1021700080E0D82FF7FCC26007FDC46017FDC8607F
:1021800016FDC061CE5BDD4FC8810C2E000CDD0B4F
:102190000E94890ECE01DF91CF911F910F91FF9088
:1021A000089568E670E083E193E00E944F0B6FE0D2
:1021B00070E083E193E00E94510183E193E00E948B
:1021C000CD0B41E050E068E670E083E193E00E94CF
:1021D000C80B83E193E00E94B50A86FB882780F94B
:1021E00090E00895CF93DF9368E670E083E193E099
:1021F0000E944F0B60E070E083E193E00E94510188
:1022000083E193E00E94CD0B40E150E068E670E08E
:1022100083E193E00E94C80BC0E0D0E083E193E04B
:102220000E94B50A0E94990E6CE372E08CED93E077
:102230000E94741A40E150E0BE018CED93E00E94D0
:10224000631B2196C031D10549F768E670E083E150
:1022500093E00E944F0B60E070E083E193E00E9406
:10226000510183E193E0DF91CF910C94CD0BEF927C
:10227000FF920F931F93CF938C0168E670E083E188
:1022800093E00E944F0B64E070E083E193E00E94D2
:10229000510183E193E00E94CD0B41E050E068E6FC
:1022A00070E083E193E00E94C80B83E193E00E9419
:1022B000B50A7C0168E670E083E193E00E944F0B71
:1022C00061E070E083E193E00E945101F801258113
:1022D000CAE0822F6C2F0E940E21682F660F860F96
:1022E000880F682F620F83E193E00E94060BF801CC
:1022F0002481822F6C2F0E940E21682F660F860F7B
:10230000880F682F620F83E193E00E94060BF801AB
:102310002381822F6C2F0E940E21682F660F860F5B
:10232000880F682F620F83E193E00E94060BB701CC
:1023300083E193E00E945101F8012281822F6C2FEA
:102340000E940E21682F660F860F880F682F620F7C
:1023500083E193E00E94060BF8012181822F6C2F0C
:102360000E940E21682F660F860F880F682F620F5C
:1023700083E193E00E94060BF8012081822F6C2FED
:102380000E940E21682F660F860F880F682F620F3C
:1023900083E193E00E94060B83E193E0CF911F91CC
:1023A0000F91FF90EF900C94CD0B1F93CF93DF9381
:1023B000EC0168E670E083E193E00E944F0B6AE075
:1023C00070E083E193E00E94510129811AE0822F9D
:1023D000612F0E940E21682F660F860F880F682FCD
:1023E000620F83E193E00E94060B2A81822F612F06
:1023F0000E940E21682F660F860F880F682F620FCC
:1024000083E193E00E94060B2B81822F612F0E94B3
:102410000E21682F660F860F880F682F620F83E1E9
:1024200093E00E94060B2C81822F612F0E940E21C7
:10243000682F660F860F880F682F620F83E193E085
:102440000E94060B2D81822F612F0E940E21682F82
:10245000660F860F880F682F620F83E193E00E945A
:10246000060B60E070E083E193E00E94510183E19C
:1024700093E0DF91CF911F910C94CD0BEF92FF92DF
:102480000F931F93CF93DF93EC017C018CE2E80E56
:10249000F11C02E612E028853985C8018256924077
:1024A000821793072CF560E088810E94AA178E811D
:1024B0009F81F8012081892B09F0209540E06A81F5
:1024C0008C810E940218F70121917F0140E06A810E
:1024D0008C810E94021861E088810E94AA1761E045
:1024E00070E080E090E00E94AA160F5F1F4FD3CFEC
:1024F000DF91CF911F910F91FF90EF900895CF93AF
:10250000DF93EC0160E088810E94AA1720E041E09F
:102510006A818C810E94021820E041E06A818C81EE
:102520000E94021861E08881DF91CF910C94AA1774
:10253000CF93DF93EC01862F688379835B834A8393
:102540003D832C8361E00E946E1761E08A810E94C6
:102550006E1761E08C810E946E17CE01DF91CF91E2
:102560000C947F12EF92FF920F931F93CF93DF9300
:10257000EC010E949812CE018C9661E001151105C4
:1025800009F460E0619570E048E050E00E94932318
:1025900088E0E816F1041CF49E2D8F2D02C098E00F
:1025A00080E01F830E839887898721E030E03B8796
:1025B0002A879C878D871D8E1C8EDF91CF911F915E
:1025C0000F91FF90EF900895EF92FF920F931F935A
:1025D0000E94B2121F910F91FF90EF900895CF9338
:1025E000DF93EC01645D7F4FFC01E60FF71FD9011B
:1025F000CD01821B930B841795075CF48E819F811C
:10260000892B11F09C9102C09C9190959193119609
:10261000EFCFDF91CF910895FC0126813781E60F3E
:10262000F71F442319F0232B31F402C0232B19F098
:1026300084A5816002C084A58E7F84A70895EF924F
:10264000FF920F931F93CF93DF93EA01D9018FEF8E
:102650009DE64DEE57EFEFEEFE2EFDEFEF2EFD0166
:10266000E21BF30BE617F707C4F5E991F0EDFE0F57
:10267000FA3030F40E2E000CFF0BEC5AFD4F09C05F
:10268000FFE9FE0FFA3140F40E2E000CFF0BE75F5E
:10269000FD4FE081EC931FC0FFEBFE0FFA3130F4E9
:1026A0000E2E000CFF0BE75DFD4FF3CFED3211F462
:1026B000EC9211C0EF3511F4FC920DC0E33211F42D
:1026C0005C9309C0ED3311F44C9305C0EB3211F467
:1026D0009C9301C08C931196C2CF0F3F8FEF1807C8
:1026E00031F0F901E00FF11F808181608083DF917B
:1026F000CF911F910F91FF90EF900895CF92DF92AD
:10270000EF92FF920F931F93CF93DF93EE2DD9019A
:102710001197EC3429F46150710980E090E017C002
:10272000C901861B970BE23511F4BD0108C097FD66
:10273000019695958795680F791F61507109F80189
:10274000C0E27F01E01AF10AE816F90614F0FA0176
:1027500006C0C193F6CF97FF06C001963196681761
:102760007907CCF709C0A817B907BCF34081E80185
:10277000C80FD91F4883F1CFFB013196E00FF11F3D
:1027800080E2AF01401B510B4217530714F48193B1
:10279000F8CF8FEFC816D80639F06C197D0977FD90
:1027A00003C0A617B7071CF48FEF9FEF01C0CB0142
:1027B000DF91CF911F910F91FF90EF90DF90CF901D
:1027C00008952F923F924F925F926F927F928F92D5
:1027D0009F92AF92BF92CF92DF92EF92FF920F93B0
:1027E0001F93CF93DF93CDB7DEB75C016DB67EB696
:1027F00077FD50C0FC0182859385681779070CF03E
:1028000049C0FA0101900020E9F73197CF01841BFC
:10281000950B660F771F1501260E371EF101848474
:1028200095846DB77EB7681979090FB6F8947EBFA5
:102830000FBE6DBFEDB7FEB731962F01CC24CA9401
:10284000DC2CE22E8F019401BC01C5010E947E1395
:102850006DB77EB7681979090FB6F8947EBF0FBEC1
:102860006DBF8DB79EB701967C010FEF1FEF9C01E6
:10287000A201B401C5010E941F13F101648D758D81
:102880009701A401C5010E94EF120FB6F8947EBE15
:102890000FBE6DBE0FB6F8947EBE0FBE6DBEDF914B
:1028A000CF911F910F91FF90EF90DF90CF90BF904D
:1028B000AF909F908F907F906F905F904F903F90E0
:1028C0002F900895242FAB0160E070E00C94E11389
:1028D0002F923F924F925F926F927F928F929F9230
:1028E000AF92BF92CF92DF92EF92FF920F931F931E
:1028F000CF93DF9300D01F92CDB7DEB75C016B01A1
:102900003A0129838DB79EB79B838A8377FD42C0A6
:10291000F5018285938568177907E4F52DB63EB6F3
:1029200000E010E0B801C3010E948F1F98012F5FE3
:102930003F4F882311F08901F5CF8DB79EB7821BD9
:10294000930B0FB6F8949EBF0FBE8DBFEDB7FEB7C9
:1029500031962F014F01E12CF12C0E151F0559F076
:10296000B701C3010E948F1FF40181934F01FFEF54
:10297000EF1AFF0AF2CFF201E00FF11F1082298156
:10298000A201B601C5010E94E1130FB6F8943EBE44
:102990000FBE2DBE8A819B810FB6F8949EBF0FBEDD
:1029A0008DBF0F900F900F90DF91CF911F910F91DE
:1029B000FF90EF90DF90CF90BF90AF909F908F905F
:1029C0007F906F905F904F903F902F900895242FAD
:1029D000AB0160E070E00C94681477FD1BC0DC0173
:1029E0001A96ED91FC911B976E177F079CF457FD8B
:1029F00011C0660F771FFC01E60FF71F6485758510
:102A0000461757073CF4648D758D640F751F422F70
:102A10000C940C130895242FAB0160E070E00C942B
:102A2000ED14CF92DF92EF92FF920F931F93CF930B
:102A3000DF93EC016A017B010E94791608851985F4
:102A4000012E000C220B330BC01AD10AE20AF30A42
:102A5000C60ED71EE81EF91E0E947916C616D706A6
:102A6000E806F90620F0CE010E943E12F5CFCE0115
:102A7000DF91CF911F910F91FF90EF90DF90CF905A
:102A80000C947F12CF92DF92EF92FF920F93CF932D
:102A9000DF93EC0169017A01402F0E946214B701B3
:102AA000A601CE01DF91CF910F91FF90EF90DF90C3
:102AB000CF900C941115CF92DF92EF92FF920F936B
:102AC000CF93DF93EC0169017A01402F0E94E71454
:102AD000B701A601CE01DF91CF910F91FF90EF904A
:102AE000DF90CF900C9411150895833060F5E82F96
:102AF000F0E0EE0FFF1FEA5FFE4F718360838130CD
:102B000051F08230A1F0809169008C7F482B409376
:102B10006900E89A089580916900837F440F551FEA
:102B2000440F551F482B40936900E99A08958091FE
:102B300069008F7C94E0440F551F9A95E1F7482B6C
:102B400040936900EA9A0895833098F4813021F027
:102B5000823021F0E89803C0E99801C0EA98E82F94
:102B6000F0E0EE0FFF1FEA5FFE4F84E795E19183EF
:102B7000808308951F920F920FB60F9211242F9306
:102B80003F934F935F936F937F938F939F93AF93F5
:102B9000BF93EF93FF93E0910601F0910701099530
:102BA000FF91EF91BF91AF919F918F917F916F9125
:102BB0005F914F913F912F910F900FBE0F901F90FB
:102BC00018951F920F920FB60F9211242F933F93D7
:102BD0004F935F936F937F938F939F93AF93BF9325
:102BE000EF93FF93E0910801F09109010995FF919E
:102BF000EF91BF91AF919F918F917F916F915F9175
:102C00004F913F912F910F900FBE0F901F901895ED
:102C10001F920F920FB60F9211242F933F934F9351
:102C20005F936F937F938F939F93AF93BF93EF9334
:102C3000FF93E0910A01F0910B010995FF91EF914B
:102C4000BF91AF919F918F917F916F915F914F91C4
:102C50003F912F910F900FBE0F901F9018951F92CC
:102C60000F920FB60F9211242F933F938F939F9340
:102C7000AF93BF938091D4039091D503A091D603D5
:102C8000B091D7033091D30326E0230F2D3720F4E2
:102C90000296A11DB11D05C029E8230F0396A11DB1
:102CA000B11D2093D3038093D4039093D503A093B5
:102CB000D603B093D7038091D8039091D903A09104
:102CC000DA03B091DB030196A11DB11D8093D803F7
:102CD0009093D903A093DA03B093DB03BF91AF9134
:102CE0009F918F913F912F910F900FBE0F901F904A
:102CF00018952FB7F8946091D4037091D503809103
:102D0000D6039091D7032FBF08953FB7F8948091D1
:102D1000D8039091D903A091DA03B091DB0326B5D3
:102D2000A89B05C02F3F19F00196A11DB11D3FBF03
:102D3000BA2FA92F982F8827820F911DA11DB11D91
:102D4000BC01CD0143E0660F771F881F991F4A958C
:102D5000D1F708958F929F92AF92BF92CF92DF9258
:102D6000EF92FF926B017C010E9485164B015C0182
:102D7000C114D104E104F10401F10E94D31F0E94A7
:102D80008516DC01CB0188199909AA09BB09883E7F
:102D90009340A105B10560F321E0C21AD108E10812
:102DA000F10888EE880E83E0981EA11CB11CC114A6
:102DB000D104E104F10419F7DBCFFF90EF90DF902D
:102DC000CF90BF90AF909F908F900895789484B5E6
:102DD000826084BD84B5816084BD85B5826085BD17
:102DE00085B5816085BDEEE6F0E0808181608083FD
:102DF000E1E8F0E0108280818260808380818160E0
:102E00008083E0E8F0E0808181608083E1EBF0E0A6
:102E1000808184608083E0EBF0E08081816080834A
:102E2000EAE7F0E080818460808380818260808333
:102E300080818E7F80838081806880831092C10032
:102E4000089580930C010895883028F0883110F09F
:102E5000885101C08FEF20910C0190E4299F9001CF
:102E600011248770822B80937C0080917A0080648B
:102E700080937A0080917A0086FDFCCF8091780063
:102E80002091790090E0922B0895843081F028F40D
:102E9000823099F08330A1F008958830A9F089300C
:102EA000B9F08530D1F4809180008F7D03C080918E
:102EB00080008F7780938000089584B58F7702C05B
:102EC00084B58F7D84BD08958091B0008F7703C055
:102ED0008091B0008F7D8093B0000895CF93DF93F1
:102EE00090E0FC01EF51FE4F2491FC01EF5FFD4F9C
:102EF0008491882361F190E0880F991FFC01EB5CBD
:102F0000FD4FC591D491FC01E55DFD4FA591B491B4
:102F1000611109C09FB7F894888120958223888326
:102F2000EC912E230BC0623061F49FB7F894888136
:102F3000322F309583238883EC912E2B2C939FBFC7
:102F400006C08FB7F894E8812E2B28838FBFDF91BE
:102F5000CF9108951F93CF93DF93282F30E0F9018D
:102F6000EF53FE4F8491F901EF51FE4FD491F901D7
:102F7000EF5FFD4FC491CC23C1F0162F81110E9449
:102F80004517EC2FF0E0EE0FFF1FE55DFD4FA5911B
:102F9000B4919FB7F894111104C08C91D095D823A7
:102FA00002C0EC91DE2BDC939FBFDF91CF911F918C
:102FB0000895CF93DF93282F30E0F901EF53FE4FB0
:102FC0008491F901EF51FE4FD491F901EF5FFD4F6C
:102FD000C491CC2391F081110E944517EC2FF0E0B1
:102FE000EE0FFF1FEF5DFD4FA591B491EC91ED2326
:102FF00081E090E021F480E002C080E090E0DF9189
:10300000CF910895BF92CF92DF92EF92FF920F93EC
:103010001F93CF93DF93C82ED62EB42EC7E0D0E0F7
:10302000022F10E087E0E82EF12CB11005C0C70197
:103030008C1B9D0BB80102C0B8018C2F02C0759586
:1030400067958A95E2F761708C2D0E94AA1761E05E
:103050008D2D0E94AA1760E08D2D0E94AA1721973E
:1030600020F7DF91CF911F910F91FF90EF90DF90AC
:10307000CF90BF900895FC01918D228D892F90E013
:10308000805C9F4F821B91098F7399270895FC01E3
:10309000918D828D981731F0828DE80FF11D858D0D
:1030A00090E008958FEF9FEF0895FC01918D828D40
:1030B000981761F0828DDF01A80FB11D5D968C918C
:1030C000928D9F5F9F73928F90E008958FEF9FEF97
:1030D00008958AEC99E1892B41F080E090E0892BFA
:1030E00021F00E94CA1981110DC080E090E0892B67
:1030F00071F080E090E0892B51F00E940000811176
:1031000004C008950E940000F0CF0C9400000895C0
:10311000FC01848DDF01A80FB11DA35ABF4F2C9174
:10312000848D90E001968F739927848FA689B78943
:103130002C93A089B1898C9180648C93938D848D1C
:10314000981306C00288F389E02D80818F7D8083EB
:103150000895EF92FF920F931F93CF93DF93EC01AB
:1031600081E0888F9B8D8C8D981305C0E889F98943
:10317000808185FD24C0F62E0B8D10E00F5F1F4F60
:103180000F731127E02E8C8DE8120CC00FB607FCD0
:10319000FACFE889F989808185FFF5CFCE010E94B9
:1031A0008818F1CF8B8DFE01E80FF11DE35AFF4F18
:1031B000F0820B8FEA89FB898081806207C0EE89EB
:1031C000FF896083E889F98980818064808381E058
:1031D00090E0DF91CF911F910F91FF90EF900895B4
:1031E000CF93DF93EC01888D8823C9F0EA89FB89AE
:1031F000808185FD05C0A889B9898C9186FD0FC0A5
:103200000FB607FCF5CF808185FFF2CFA889B98979
:103210008C9185FFEDCFCE010E948818E7CFDF911A
:10322000CF910895CF92DF92EF92FF921F93CF93A9
:10323000DF93EC016A017B01122F60E874E88EE1F4
:1032400090E0A70196010E944221DA01C90101978D
:10325000A109B109B695A795979587959C01E8892D
:10326000F98982E08083211580E13807A8F0E88998
:10327000F989108260E472E48FE090E0A701960182
:103280000E944221DA01C9010197A109B109B6954D
:10329000A795979587959C01EC85FD853083EE85F4
:1032A000FF852083188EEC89FD891083EA89FB89CC
:1032B000808180618083EA89FB8980818860808346
:1032C000EA89FB89808180688083EA89FB89808123
:1032D0008F7D8083DF91CF911F91FF90EF90DF90E2
:1032E000CF9008951F920F920FB60F9211242F9333
:1032F0008F939F93EF93FF93E091EC03F091ED0395
:103300008081E091F203F091F30382FD12C090817D
:103310008091F5038F5F8F732091F603821751F030
:10332000E091F503F0E0E452FC4F958F8093F503B4
:1033300001C08081FF91EF919F918F912F910F900C
:103340000FBE0F901F9018951F920F920FB60F92FD
:1033500011242F933F934F935F936F937F938F939A
:103360009F93AF93BF93EF93FF938CED93E00E94F5
:103370008818FF91EF91BF91AF919F918F917F91AD
:103380006F915F914F913F912F910F900FBE0F90D2
:103390001F9018958CED93E00E943B1821E0892B3B
:1033A00009F420E0822F0895ECEDF3E013821282FD
:1033B00088EE93E0A0E0B0E084839583A683B78392
:1033C00082E992E09183808385EC90E09587848701
:1033D00084EC90E09787868780EC90E0918B808BDF
:1033E00081EC90E0938B828B82EC90E0958B848BC8
:1033F00086EC90E0978B868B118E128E138E148E36
:10340000089508950E94E6160E94011A0E94F3078B
:10341000C9E6D8E10E94010A2097E1F30E946918E9
:10342000F9CFCF92DF92EF92FF920F931F93CF933A
:10343000DF936C017A018B01C0E0D0E0CE15DF058F
:1034400081F0D8016D918D01D601ED91FC91019033
:10345000F081E02DC6010995892B11F02196EECF60
:103460007E01C701DF91CF911F910F91FF90EF90E7
:10347000DF90CF9008956115710579F0FB010190FF
:103480000020E9F73197AF01461B570BDC01ED91A6
:10349000FC910280F381E02D099480E090E0089592
:1034A000EF92FF920F931F93CF93DF938C017B01D9
:1034B000C0E0D0E0F701EC0FFD1F6491662361F0DE
:1034C000D801ED91FC910190F081E02DC8010995A2
:1034D000892B11F02196EECFCE01DF91CF911F9174
:1034E0000F91FF90EF9008950C943B1ADC01ED9141
:1034F000FC910190F081E02D09946EE972E00C944A
:103500003B1A0F931F93CF93DF93EC010E94501A45
:103510008C01CE010E947D1A800F911FDF91CF9107
:103520001F910F9108950F931F93CF93DF93EC0199
:103530000E943B1A8C01CE010E947D1A800F911FC0
:10354000DF91CF911F910F9108958F929F92AF922B
:10355000BF92EF92FF920F931F93CF93DF93CDB75C
:10356000DEB7A1970FB6F894DEBF0FBECDBF7C01CA
:10357000FA01CB0119A2223008F42AE08E010F5D76
:103580001F4F822E912CA12CB12CBF01A5019401BB
:103590000E944221F901CA01015011096A3014F454
:1035A000605D01C0695CD8016C93232B242B252B13
:1035B00061F7B801C7010E943B1AA1960FB6F894B3
:1035C000DEBF0FBECDBFDF91CF911F910F91FF9056
:1035D000EF90BF90AF909F908F9008952115310587
:1035E00041F4DC01ED91FC910190F081E02D642F1C
:1035F00009940C94A51A9A01462F50E060E070E0FF
:103600000C94EE1A0F931F93CF93DF93EC010E945B
:10361000FB1A8C01CE010E947D1A800F911FDF9151
:10362000CF911F910F910895CF92DF92EF92FF9269
:103630000F931F93CF93DF932115310581F4DC01A4
:10364000ED91FC910190F081E02D642FDF91CF91FD
:103650001F910F91FF90EF90DF90CF9009942A3047
:10366000310501F577FF1DC06A017B01EC016DE2B8
:103670000E94761A8C0144275527BA014C195D091E
:103680006E097F092AE0CE010E94A51A800F911FC2
:10369000DF91CF911F910F91FF90EF90DF90CF902E
:1036A00008952AE0DF91CF911F910F91FF90EF9045
:1036B000DF90CF900C94A51A9A01AB01770F660B9F
:1036C000770B0C94141B0F931F93CF93DF93EC0194
:1036D0000E945C1B8C01CE010E947D1A800F911FFD
:1036E000DF91CF911F910F9108954F925F926F924A
:1036F0007F928F929F92AF92BF92CF92DF92EF9282
:10370000FF920F931F93CF93DF9300D000D01F92AF
:10371000CDB7DEB78B0129013A0190910D018917D0
:1037200021F09F3F09F038C205C0EFE3F2E0249199
:103730002D8384C080930D01EFE3F2E094919D838B
:103740009F3F09F429C2913009F44DC058F19230DD
:1037500009F074C01092B0001092B1009091B000C6
:1037600092609093B0009091B10091609093B100FD
:10377000282F30E0F901EF5FFD4FE491F0E0EE0F0C
:10378000FF1FE55DFD4F4591549150937B0440939D
:103790007A04F901EF51FE4FE491E093790492E04D
:1037A0009D83F6C114BC15BC94B5926094BD95B5CB
:1037B000916095BD282F30E0F901EF5FFD4FE49156
:1037C000F0E0EE0FFF1FE55DFD4F459154915093E2
:1037D000890440938804F901EF51FE4FE491E0938E
:1037E00087041D82D5C110928000109281009091B3
:1037F00081009860909381009091810091609093F6
:103800008100282F30E0F901EF5FFD4FE491F0E0F7
:10381000EE0FFF1FE55DFD4F4591549150938204DB
:1038200040938104F901EF51FE4FE491E09380044D
:1038300061E00E946E1721E02D83A5C02D8127FD38
:10384000ABC161E00E946E178D818D7F09F09BC036
:103850004801A12CB12C60E079E08DE390E0A50156
:1038600094010E94642129833A834B835C8369011C
:103870007A0181E0C81AD108E108F1089FEFC91662
:10388000D104E104F10409F008F461C060E271EAD6
:1038900087E090E0A50194010E94642169017A010A
:1038A00081E0C81AD108E108F1089D81923009F041
:1038B000F4C02FEFC216D104E104F10409F008F4BA
:1038C00058C068E478EE81E090E0A50194010E9480
:1038D000642169017A0181E0C81AD108E108F10880
:1038E0009FEFC916D104E104F10409F008F44EC1B8
:1038F00064E274EF80E090E0A50194010E946421ED
:1039000069017A0181E0C81AD108E108F1089FEF46
:10391000C916D104E104F10471F168F162E17AE7BA
:1039200080E090E0A50194010E94642169017A0180
:1039300081E0C81AD108E108F1089FEFC916D10447
:10394000E104F10411F008F0C9C085E015C081E080
:103950009D81911111C095B5987F892B85BD41142A
:1039600051046104710409F04FC02FEF3FEFA9012A
:1039700063C082E001C084E09091B100987F892B00
:103980008093B1003CC04801A12CB12C60E079E0EB
:103990008DE390E0A50194010E94642169017A0100
:1039A00081E0C81AD108E108F108C114D10491E0FE
:1039B000E906F10488F064E274EF80E090E0A5018C
:1039C00094010E94642169017A0181E0C81AD1083A
:1039D000E108F10883E001C081E09D81913079F434
:1039E00090918100987F892B80938100411451042C
:1039F0006104710449F42FEF3FEFA9012CC0411479
:103A000051046104710471F0D801AA0FBB1FA30116
:103A100092010E94982128EE33E040E050E00E949D
:103A2000422103C02FEF3FEFA9018D81813099F032
:103A3000823019F18111B0C0C7BC20938A04309341
:103A40008B0440938C0450938D0480916E008260AF
:103A500080936E00A1C0D0928900C092880020930C
:103A600083043093840440938504509386048091AA
:103A70006F00826080936F008FC0C092B30020936C
:103A80007C0430937D0440937E0450937F048091A6
:103A900070008260809370007FC08FEFC816D104E1
:103AA000E104F104C9F0C0F064E274EF80E090E05A
:103AB000A50194010E94642169017A0191E0C91A6B
:103AC000D108E108F1082FEFC216D104E104F10496
:103AD00009F080F583E03CCF82E03ACF69E07DE3F6
:103AE00080E090E0A50194010E94642169017A01BF
:103AF00081E0C81AD108E108F1089FEFC916D10486
:103B0000E104F104A9F0A0F089819A81AB81BC8124
:103B10002AE0B595A795979587952A95D1F76C01D9
:103B20007D0121E0C21AD108E108F10887E024CF25
:103B300086E022CF69E07DE380E090E0A50194017A
:103B40000E94642169017A0181E0C81AD108E10864
:103B5000F1089FEFC916D104E104F104A9F0A0F027
:103B600089819A81AB81BC814AE0B595A7959795EB
:103B700087954A95D1F76C017D0121E0C21AD108E1
:103B8000E108F10885E0E4CE84E0E2CE83E0F4CE03
:103B900061E00E946E175CCE0F900F900F900F9017
:103BA0000F90DF91CF911F910F91FF90EF90DF90D9
:103BB000CF90BF90AF909F908F907F906F905F90CD
:103BC0004F900895813039F018F0823051F0089507
:103BD00010926E00089580916F008D7F80936F002A
:103BE0000895809170008D7F8093700081E08093B4
:103BF000B0008091B100887F84608093B100109202
:103C0000B3000895CF93C82F80910D01C81307C04A
:103C1000EFE3F2E084919FEF90930D0101C08FEFED
:103C20000E94E21D60E08C2FCF910C94AA171F9286
:103C30000F920FB60F9211242F933F934F935F93E0
:103C40006F937F938F939F93AF93BF93EF93FF9364
:103C500080917C0490917D04A0917E04B0917F04BA
:103C6000892B8A2B8B2B51F190917904E0917A0466
:103C7000F0917B0480818927808380917C049091DE
:103C80007D04A0917E04B0917F04181619061A06CF
:103C90001B06C4F480917C0490917D04A0917E0465
:103CA000B0917F040197A109B10980937C0490939E
:103CB0007D04A0937E04B0937F0404C080910D0125
:103CC0000E94021EFF91EF91BF91AF919F918F9142
:103CD0007F916F915F914F913F912F910F900FBE08
:103CE0000F901F9018954F925F926F927F92AF92B4
:103CF000BF92CF92DF92EF92FF920F931F93CF93D9
:103D0000DF93CDB7DEB729013A019B01AC0124193D
:103D100035094609570989899A89AB89BC89BC014B
:103D2000CD016A197B098C099D090E94FE20A8011A
:103D3000970124193509460957090E946421CA01CF
:103D4000B9016A0D7B1D8C1D9D1DDF91CF911F91C7
:103D50000F91FF90EF90DF90CF90BF90AF907F904A
:103D60006F905F904F900895FC01808191810C9439
:103D70003B22CF93DF93EC0188819981009711F06A
:103D80000E943B22198218821D821C821B821A8289
:103D9000DF91CF9108950F931F93CF93DF93EC01A1
:103DA0008B016F5F7F4F888199810E94C4220097A9
:103DB00031F0998388831B830A8381E001C080E00E
:103DC000DF91CF911F910F910895CF93DF93EC0175
:103DD00088819981892B29F08A819B818617970791
:103DE00060F4CE010E94CB1E882341F08C819D811E
:103DF000892B19F4E881F981108281E0DF91CF915C
:103E00000895EF92FF920F931F93CF93DF93EC01EE
:103E10007B018A01BA010E94E51E811104C0CE0116
:103E20000E94B91E07C01D830C83B7018881998148
:103E30000E949A23CE01DF91CF911F910F91FF90A5
:103E4000EF900895FC011182108213821282158274
:103E500014826115710551F0FB0101900020E9F712
:103E60003197AF01461B570B0C94011F0895CF9358
:103E7000DF93EC01FB018617970761F06081718188
:103E80006115710529F0448155810E94011F02C00E
:103E90000E94B91ECE01DF91CF910895EF92FF925B
:103EA0000F931F93CF93DF936115710511F480E099
:103EB0001CC041155105C1F07B01EC018C819D8135
:103EC0008A01080F191FB801CE010E94E51E882340
:103ED00071F3288139818C819D81B701820F931FF5
:103EE0000E949A231D830C8381E0DF91CF911F9163
:103EF0000F91FF90EF900895CF93DF93EC01FB01BA
:103F000044815581608171810E944E1F811103C0DF
:103F1000CE010E94B91ECE01DF91CF910895FC0120
:103F2000248135816217730748F48081918100975D
:103F300029F0FC01E60FF71F8081089580E00895C5
:103F4000CF93DF93DC011496ED91FC9115976E17DA
:103F50007F0730F54115510519F1DF01A61BB70B9D
:103F60009A01A417B50708F49D01DB01EC018881D3
:103F70009981E21BF30BFD83EC83AF01461B570BCA
:103F8000260F371FBC01620F731F8A0F9B1F0E94F1
:103F9000A123E881F9818C819D81E80FF91F1082AE
:103FA000DF91CF91089508950E94702088F09F5767
:103FB00098F0B92F9927B751B0F0E1F0660F771F4D
:103FC000881F991F1AF0BA95C9F714C0B13091F043
:103FD0000E948A20B1E008950C948A20672F782FE0
:103FE0008827B85F39F0B93FCCF386957795679508
:103FF000B395D9F73EF490958095709561957F4F74
:104000008F4F9F4F0895E89409C097FB3EF4909519
:104010008095709561957F4F8F4F9F4F9923A9F0A1
:10402000F92F96E9BB279395F69587957795679530
:10403000B795F111F8CFFAF4BB0F11F460FF1BC074
:104040006F5F7F4F8F4F9F4F16C0882311F096E907
:1040500011C0772321F09EE8872F762F05C06623B5
:1040600071F096E8862F70E060E02AF09A95660F6E
:10407000771F881FDAF7880F9695879597F9089527
:1040800097F99F6780E870E060E008959FEF80EC0B
:10409000089500240A9416161706180609060895AE
:1040A00000240A9412161306140605060895092E14
:1040B0000394000C11F4882352F0BB0F40F4BF2B83
:1040C00011F460FF04C06F5F7F4F8F4F9F4F0895C3
:1040D00057FD9058440F551F59F05F3F71F04795B9
:1040E000880F97FB991F61F09F3F79F0879508959E
:1040F000121613061406551FF2CF4695F1DF08C0BD
:10410000161617061806991FF1CF869571056105D9
:1041100008940895E894BB2766277727CB0197F981
:1041200008950E94A4200C9457200E94492038F042
:104130000E94502020F0952311F00C9440200C9404
:10414000462011240C948B200E94682070F3959FC8
:10415000C1F3950F50E0551F629FF001729FBB277E
:10416000F00DB11D639FAA27F00DB11DAA1F649F1A
:104170006627B00DA11D661F829F2227B00DA11DCD
:10418000621F739FB00DA11D621F839FA00D611D53
:10419000221F749F3327A00D611D231F849F600D74
:1041A000211D822F762F6A2F11249F5750409AF09D
:1041B000F1F088234AF0EE0FFF1FBB1F661F771F29
:1041C000881F91505040A9F79E3F510580F00C94F4
:1041D00040200C948B205F3FE4F3983ED4F3869507
:1041E00077956795B795F795E7959F5FC1F7FE2B94
:1041F000880F911D9695879597F90895DB018F9308
:104200009F930E949821BF91AF91A29F800D911D15
:10421000A39F900DB29F900D11240895991B79E0F2
:1042200004C0991F961708F0961B881F7A95C9F746
:1042300080950895AA1BBB1B51E107C0AA1FBB1F95
:10424000A617B70710F0A61BB70B881F991F5A9522
:10425000A9F780959095BC01CD01089597FB072E95
:1042600016F4009407D077FD09D00E941A2107FCAC
:1042700005D03EF4909581959F4F08957095619576
:104280007F4F0895A1E21A2EAA1BBB1BFD010DC092
:10429000AA1FBB1FEE1FFF1FA217B307E407F507F6
:1042A00020F0A21BB30BE40BF50B661F771F881FD2
:1042B000991F1A9469F760957095809590959B0168
:1042C000AC01BD01CF010895052E97FB1EF40094AB
:1042D0000E947B2157FD07D00E94422107FC03D09A
:1042E0004EF40C947B2150954095309521953F4F8D
:1042F0004F4F5F4F089590958095709561957F4FD2
:104300008F4F9F4F0895EE0FFF1F0590F491E02D02
:104310000994A29FB001B39FC001A39F700D811D9E
:104320001124911DB29F700D811D1124911D0895BE
:104330000E948921A59F900DB49F900DA49F800D90
:10434000911D112408950F931F93CF93DF93823013
:10435000910510F482E090E0E0919004F0919104D6
:1043600020E030E0A0E0B0E0309719F140815181C9
:104370000281138148175907C8F08417950769F41B
:10438000109731F012960C93129713961C9327C036
:10439000009390041093910422C02115310519F067
:1043A0004217530718F49A01BD01EF01DF01F8012C
:1043B000DBCF21153105F9F0281B390B24303105ED
:1043C00080F48A819B816115710521F0FB01938343
:1043D000828304C09093910480939004FE013296EE
:1043E00044C0FE01E20FF31F8193919322503109E3
:1043F000398328833AC020918E0430918F04232B77
:1044000041F4209102013091030130938F042093F5
:104410008E0420910001309101012115310541F4F4
:104420002DB73EB74091040150910501241B350B77
:10443000E0918E04F0918F04E217F307A0F42E1B95
:104440003F0B2817390778F0AC014E5F5F4F2417F8
:10445000350748F04E0F5F1F50938F0440938E0432
:104460008193919302C0E0E0F0E0CF01DF91CF9122
:104470001F910F910895CF93DF93009709F481C0A6
:10448000FC01329713821282A0919004B0919104A2
:10449000109781F420813181820F931F20918E0427
:1044A00030918F042817390751F5F0938F04E0936A
:1044B0008E0467C0ED0120E030E0CE17DF0740F446
:1044C0004A815B819E0141155105F1F0EA01F5CF6A
:1044D000D383C28340815181840F951FC817D907A8
:1044E00059F488819981840F951F02969183808366
:1044F0008A819B81938382832115310529F4F0936E
:104500009104E09390043DC0E901FB83EA83499163
:104510005991C40FD51FEC17FD0761F4808191817B
:10452000840F951F0296E901998388838281938184
:104530009B838A83E0E0F0E012968D919C91139723
:10454000009719F0FD01DC01F7CF8D919C91119737
:104550009D012E5F3F4F820F931F20918E0430915B
:104560008F042817390769F4309729F410929104C1
:104570001092900402C013821282B0938F04A09311
:104580008E04DF91CF910895A0E0B0E0EAECF2E272
:104590000C946726EC01009721F4CB010E94A32123
:1045A000B4C0FC01E60FF71F9C0122503109E2174D
:1045B000F30708F4A8C0D9010D911C9111970617B3
:1045C0001707B0F00530110508F49BC0C801049727
:1045D0008617970708F495C002501109061B170BA0
:1045E000019311936D937C93CF010E943B2289C06C
:1045F0005B01A01AB10A4C01800E911EA09190049B
:10460000B0919104612C712CE12CF12C109709F4DC
:1046100046C08D919C911197A815B905B1F56C0113
:1046200042E0C40ED11CCA14DB0478F14C018A1894
:104630009B08640142E0C40ED11C1296BC901297F4
:104640001396AC91B5E0CB16D10440F0B282A383AF
:1046500091828082D9016D937C9309C00E5F1F4FB8
:10466000800F911FF90191838083EB2DFA2FE114C4
:10467000F10431F0D7011396FC93EE93129741C0E9
:10468000F0939104E09390043CC06816790608F416
:104690003C017D0112960D90BC91A02DB7CF809169
:1046A0008E0490918F0488169906E1F466167706B9
:1046B000C8F48091000190910101009741F48DB7F9
:1046C0009EB74091040150910501841B950BE8179A
:1046D000F907C8F4F0938F04E0938E04F901718315
:1046E00060830FC0CB010E94A3217C01009759F089
:1046F000A801BE010E948A23CE010E943B22C7016D
:1047000004C0CE0102C080E090E0CDB7DEB7EEE09D
:104710000C948326FB01DC0102C001900D924150F4
:104720005040D8F70895DC0101C06D9341505040CE
:10473000E0F70895FB01DC0101900D920020E1F704
:104740000895FB01DC014150504048F001900D926A
:104750000020C9F701C01D9241505040E0F7089574
:10476000AEE0B0E0E6EBF3E20C9471260D891E8911
:1047700086E08C831A8309838FEF9FE79E838D8366
:10478000AE01475E5F4F6F89788DCE0101960E9422
:10479000D223EF81F885E00FF11F10822E96E4E01E
:1047A0000C948D26ABE0B0E0E8EDF3E20C946326C8
:1047B0006C017B018A01FC0117821682838181FFD3
:1047C000CCC1CE0101963C01F6019381F70193FD26
:1047D000859193FF81917F01882309F4BAC18532C5
:1047E00039F493FD859193FF81917F01853229F4FE
:1047F000B60190E00E94C925E7CF912C212C312CE5
:10480000FFE1F315D8F08B3279F038F4803279F08B
:104810008332A1F4232D20611DC08D3261F08033DD
:1048200069F4232D216016C0832D8260382EE32D7C
:10483000E4603E2E2AC0F32DF8601DC037FC2DC069
:1048400020ED280F2A3040F08E32B9F436FC81C1B9
:10485000232D2064322E19C036FE06C08AE0989EB1
:10486000200D1124922E11C0EAE02E9E200D11245D
:10487000222EF32DF0623F2E08C08C3621F4832DBA
:104880008068382E02C0883641F4F70193FD859187
:1048900093FF81917F018111B3CF982F9F7D955414
:1048A000933028F40C5F1F4F9FE399830DC083362C
:1048B00031F0833771F0833509F059C021C0F80118
:1048C000808189830E5F1F4F88248394912C53012C
:1048D00013C02801F2E04F0E511CF801A080B180F6
:1048E00036FE03C0692D70E002C06FEF7FEFC50197
:1048F0000E94BE254C018201F32DFF773F2E16C08A
:10490000280122E0420E511CF801A080B18036FE41
:1049100003C0692D70E002C06FEF7FEFC5010E94F8
:10492000B3254C01F32DF0683F2E820133FC1BC0F0
:10493000822D90E088169906B0F4B60180E290E0EE
:104940000E94C9252A94F4CFF50137FC859137FEE2
:1049500081915F01B60190E00E94C92521102A943F
:1049600021E0821A91088114910471F7E8C084361D
:1049700011F0893641F5F80137FE07C06081718179
:10498000828193810C5F1F4F08C060817181072E67
:10499000000C880B990B0E5F1F4FF32DFF763F2EF7
:1049A00097FF09C090958095709561957F4F8F4FC7
:1049B0009F4FF0683F2E2AE030E0A3010E940526B9
:1049C000882E861845C0853731F4232D2F7EB22ED0
:1049D0002AE030E025C0932D997FB92E8F36C1F0A3
:1049E00018F4883579F0B5C0803719F0883721F090
:1049F000B0C0E92FE061BE2EB4FE0DC0FB2DF46007
:104A0000BF2E09C034FE0AC0292F2660B22E06C070
:104A100028E030E005C020E130E002C020E132E0D3
:104A2000F801B7FE07C060817181828193810C5FBC
:104A30001F4F06C06081718180E090E00E5F1F4FC4
:104A4000A3010E940526882E8618FB2DFF773F2E96
:104A500036FE0DC0232D2E7FA22E891458F434FE6D
:104A60000BC032FC09C0832D8E7EA82E05C0B82C49
:104A7000A32C03C0B82C01C0B92CA4FE0FC0FE01AA
:104A8000E80DF11D8081803321F49A2D997EA92EA5
:104A900009C0A2FE06C0B394B39404C08A2D8678E0
:104AA00009F0B394A3FC11C0A0FE06C0B21488F4B0
:104AB000280C922C9B180EC0B21460F4B60180E250
:104AC00090E00E94C925B394F7CFB21418F42B18C4
:104AD00002C0982C212CA4FE10C0B60180E390E007
:104AE0000E94C925A2FE17C0A1FC03C088E790E080
:104AF00002C088E590E0B6010CC08A2D867859F096
:104B0000A1FE02C08BE201C080E2A7FC8DE2B601EB
:104B100090E00E94C925891438F4B60180E390E042
:104B20000E94C9259A94F7CF8A94F301E80DF11DEC
:104B30008081B60190E00E94C9258110F5CF222026
:104B400009F442CEB60180E290E00E94C9252A9481
:104B5000F6CFF6018681978102C08FEF9FEF2B96EB
:104B6000E2E10C947F26FC01059061507040011039
:104B7000D8F7809590958E0F9F1F0895FC01615086
:104B8000704001900110D8F7809590958E0F9F1F6F
:104B900008950F931F93CF93DF93FB01238121FD92
:104BA00003C08FEF9FEF2CC022FF16C046815781B4
:104BB000248135814217530744F4A081B1819D01BE
:104BC0002F5F3F4F318320838C93268137812F5F66
:104BD0003F4F3783268314C08B01EC01FB01008417
:104BE000F185E02D0995892BE1F6D80116968D9176
:104BF0009C911797019617969C938E931697CE01CA
:104C0000DF91CF911F910F910895FA01AA272830C3
:104C100051F1203181F1E8946F936E7F6E5F7F4F89
:104C20008F4F9F4FAF4FB1E03ED0B4E03CD0670F05
:104C3000781F891F9A1FA11D680F791F8A1F911D58
:104C4000A11D6A0F711D811D911DA11D20D009F4A8
:104C500068943F912AE0269F11243019305D3193EA
:104C6000DEF6CF010895462F4770405D4193B3E0D3
:104C70000FD0C9F7F6CF462F4F70405D4A3318F07A
:104C8000495D31FD4052419302D0A9F7EACFB4E02B
:104C9000A6959795879577956795BA95C9F70097E3
:104CA0006105710508959B01AC010A2E0694579584
:104CB000479537952795BA95C9F7620F731F841FDB
:104CC000951FA01D08952F923F924F925F926F9271
:104CD0007F928F929F92AF92BF92CF92DF92EF928C
:104CE000FF920F931F93CF93DF93CDB7DEB7CA1B0D
:104CF000DB0B0FB6F894DEBF0FBECDBF09942A8838
:104D0000398848885F846E847D848C849B84AA84DF
:104D1000B984C884DF80EE80FD800C811B81AA816C
:104D2000B981CE0FD11D0FB6F894DEBF0FBECDBF37
:084D3000ED010895F894FFCF96
:104D380000009204800074150000000001FF253077
:104D480032753D25303275206425317500253032A5
:104D58007520253032752064253175004C4F41444B
:104D6800002020202020202020004F4F4F4F4F4F61
:104D7800004F4E004F4646002534752D25303275BC
:104D88002D2530327520253032753A253032753A66
:104D980025303275202E002B2B20253032752D25FD
:104DA80030327520003D2B20253032752D253032CC
:104DB8007520005F2B20253032752D253032752067
:104DC80000202B20253032752D253032752000200B
:104DD8003D20253032752D253032752000205F208A
:104DE800253032752D253032752000253032752357
:104DF80025317543002532752325317520253275F7
:104E0800480025303275202530327520253032751E
:104E180000202534752D253032752D25303275202A
:104E28006425317520253032753D253032752025B1
:104E38003275435F2532754820502532752000426F
:104E480041545445525F56414C3A3D0042415454F6
:104E580045525F56414C2825293A3D000000000084
:104E6800060BD90AAD0AB50AC90AD80A203A203071
:104E780078000600000000000000000000000000AC
:104E8800000005000000000000000400000003000E
:104E98000201804020100804020111C1638561717C
:104EA8004391F38751E313D5C531197349E1C7839A
:104EB80081938925039F250D9949411F01190000F8
:104EC8000000A918111A3B1855184718F0180D0AB0
:0E4ED800006E616E00696E66006F7666000007
:00000001FF
