:100000000C941C010C9425130C944C130C94731336
:100010000C9444010C9444010C9444010C9444014C
:100020000C9444010C94381B0C9444010C9444012E
:100030000C9444010C9444010C9444010C9444012C
:100040000C9444010C9444010C949A130C944401B4
:100050000C94B9160C94EB160C9444010C944401C6
:100060000C9444010C9444010C94040A0C94440133
:100070000C9444010C9444010C944401B20BCB0B3E
:10008000CB0BC90BCB0BB00BCB0BCB0BCB0BA30B05
:10009000CB0BCB0BBB0BC70BC50BCB0BCB0BCB0BCA
:1000A000C30B536574205375636365737366756C16
:1000B0000068683A6D6D206D6F646500456E74650B
:1000C0007220616C61726D2074696D6520666F725B
:1000D0006D617420286D6F64652069732031207410
:1000E0006F20362C20342069732070657220646183
:1000F000792900536574205375636365737366755E
:100100006C006D6D6D2D64642D7979797920686846
:100110002D6D6D2D73732073616D706C6520696E2C
:100120007075743A2044656320323620323030399D
:100130002031323A33343A353600456E74657220D8
:100140006461746520666F726D61740052657065DC
:100150006174204D6F6465205365743A20002D2D25
:100160002D2D2D2D2D2D2D2D2D2D2D2D2D2D2D2DBF
:100170002D0043686F6F73652061206D656E75207B
:100180006974656D3A004120736574205B415D6C54
:1001900061726D2074696D65005420736574205B15
:1001A000545D696D65001F1C1F1E1F1E1F1F1E1F33
:1001B0001E1F0000000203000000000000000504F4
:1001C000090800000000000000000000000000001E
:1001D00000000102040810204080010204081020E1
:1001E0004080010204081020408001020408102011
:1001F0004080020202020202020204040404040417
:1002000004040303030303030303010101010101C8
:100210000101000020002300260029000000220028
:10022000250028002B0000002100240027002A00C0
:100230000200E90239091B1711241FBECFEFD0E1DC
:10024000DEBFCDBF12E0A0E0B1E0E6EEF6E402C012
:1002500005900D92A433B107D9F724E0A4E3B2E0EE
:1002600001C01D92A131B207E1F711E0CCE1D1E06C
:1002700004C02197FE010E945A1EC931D107C9F757
:100280000E9449170C9471230C94000081E0809324
:100290005C0283B78E7F83BF0895DC01ED91FC91F2
:1002A0000190F081E02D09946AE470E082E992E027
:1002B0000E94B80861E070E082E992E00E944D017E
:1002C00061E370E082E992E00E944D0182E992E0F0
:1002D0000C9436091F93CF93DF9300D000D000D049
:1002E000CDB7DEB7CE0101960E94900C1D81CE01E4
:1002F00001960E94E50B1F921F931F928F938C8192
:100300001F928F938FE091E09F938F938BE392E006
:100310009F938F930E9487204CE46BE372E08DE5FE
:1003200092E00E94C31141E060E070E08DE592E050
:100330000E946C1241E061E070E08DE592E00E9465
:100340006C1241E062E070E08DE592E00E946C1278
:1003500041E063E070E08DE592E00E946C1241E0C4
:1003600064E070E08DE592E00E946C1241E065E08F
:1003700070E08DE592E00E946C1244EF51E060E085
:1003800070E08DE592E00E947C1240E060E070E059
:100390008DE592E00E946C1240E061E070E08DE536
:1003A00092E00E946C1240E062E070E08DE592E025
:1003B0000E946C1240E063E070E08DE592E00E94E4
:1003C0006C1240E064E070E08DE592E00E946C12F7
:1003D00040E065E070E08DE592E00E946C1244EF31
:1003E00051E060E070E08DE592E00E947C120FB673
:1003F000F894DEBF0FBECDBF26960FB6F894DEBFD1
:100400000FBECDBFDF91CF911F910895CF93DF93A2
:1004100000D000D000D0CDB7DEB7CE0101960E944B
:10042000900CCE0101960E94E50B1F928F938B8159
:100430001F928F938A811F928F938FE191E09F93F8
:100440008F938BE392E09F938F930E9487204CE4DD
:100450006BE372E08DE592E00E94C31140ED57E03E
:1004600060E070E08DE592E00E947C120FB6F89497
:10047000DEBF0FBECDBF26960FB6F894DEBF0FBE0F
:10048000CDBFDF91CF910895CF93DF9300D000D0FF
:1004900000D0CDB7DEB7CE0101960E94900C8E81C0
:1004A0001F928F938D811F928F938C811F928F93B8
:1004B0008B811F928F938A811F928F93898190E005
:1004C0008053984F9F938F938FE291E09F938F93E8
:1004D0008BE392E09F938F930E9487206BE372E0FF
:1004E0008BE593E00E94DA170FB6F894DEBF0FBEDB
:1004F000CDBF26960FB6F894DEBF0FBECDBFDF91FD
:10050000CF910895CF93DF93C9E0D0E061E080E020
:100510000E94F1146CE271E080E090E00E941514FA
:1005200060E080E00E94F1146CE271E080E090E015
:100530000E941514219751F7DF91CF910895CF9321
:10054000DF93EB0120E030E0A901BC018CE00E94C8
:100550009618609106017091070188EE93E00E9461
:10056000051E2FE0269FC001279F900D11248C9F10
:10057000B0018D9F700D9C9F700D1124072E000CF3
:10058000880B990BDF91CF910C941514CF93DF93C7
:10059000EC018CE00E94231B609106017091070121
:1005A00088EE93E00E94051E2FE0269FC001279F42
:1005B000900D11248C9FB0018D9F700D9C9F700D2C
:1005C0001124072E000C880B990BDF91CF910C940E
:1005D000151448E050E060E070E08DE592E00C9486
:1005E0004D10CF92DF92EF92FF920F931F93CF9314
:1005F000DF93CDB7DEB72C970FB6F894DEBF0FBEF2
:10060000CDBFCE0107960E94900CF884D9846CEB84
:1006100070E08BE593E00E94C81761EB70E08BE51A
:1006200093E00E94C8178BE593E00E94821508971B
:10063000D4F38BE593E00E949C15082F8BE593E0A3
:100640000E949C15000F0056902F990F990F090FCB
:100650008053080F8BE593E00E949C158BE593E097
:100660000E949C15E82E8BE593E00E949C159E2D20
:10067000990F9056E92EEE0CEE0CE90E8053E80E21
:100680008BE593E00E949C158BE593E00E949C15FE
:10069000182F6AE070E080E090E00E9415148BE56E
:1006A00093E00E943716C12C2D2D4F2D63EE77E07D
:1006B000CE0101960E94700BCE0101960E943E0F62
:1006C0001053612F70E081E992E00E944F0D62EAC1
:1006D00070E08BE593E00E94C8172C960FB6F89453
:1006E000DEBF0FBECDBFDF91CF911F910F91FF9065
:1006F000EF90DF90CF900895AF92BF92CF92DF92AC
:10070000EF92FF920F931F93CF93DF93CDB7DEB796
:1007100069970FB6F894DEBF0FBECDBF6AE371E0F4
:100720008BE593E00E94C81762E071E08BE593E0EF
:100730000E94C8178BE593E00E9482154497D4F37A
:100740008E010F5F1F4F7E018CE0E80EF11C5801F7
:100750008BE593E00E949C15F80181938F01EE15C3
:10076000FF05B1F78BE593E00E949C1567018E01B0
:100770000C5E1F4F8BE593E00E949C15F601819360
:100780006F010E171F07B1F76AE070E080E090E09C
:100790000E9415148BE593E00E943716A701B5015E
:1007A000C8010E94840BC8010E94A00E6AE070E09C
:1007B00080E090E00E941514B5018BE593E00E9463
:1007C000DA17C8010E94900CC8010E94E50B182F8F
:1007D00068E670E082E992E00E94B80864E070E0A8
:1007E00082E992E00E944D01612F82E992E00E942D
:1007F0006F0882E992E00E94360963EF70E08BE5B2
:1008000093E00E94C81769960FB6F894DEBF0FBE3A
:10081000CDBFDF91CF911F910F91FF90EF90DF90AF
:10082000CF90BF90AF900895CF93DF93EC0160E538
:1008300070E082E992E00E94B8086D2F70E082E9D2
:1008400092E00E944D01BE01772782E992E00E946A
:100850004D0160E082E992E00E94BA0842E050E077
:1008600060E570E082E992E00E94310982E992E05D
:100870000E941E08C82F82E992E00E941E08982F4D
:1008800088278C0F911DDF91CF910895CF93DF932F
:10089000C0E0D0E0CE010E94140462E070E00E944B
:1008A0009F022296C039D105A9F782E090E00E940C
:1008B000C6028CE0DF91CF910C94231B82E00E9452
:1008C0002015892BF9F46AE070E080E090E00E9446
:1008D000151482E00E94201581E992E00E943A0EF0
:1008E000892B39F00E94460410925B0210925A0242
:1008F000089580915A0290915B02019690935B0259
:1009000080935A020895CF92DF92EF92FF920F9355
:100910001F93CF93DF93CDB7DEB762970FB6F894EE
:10092000DEBF0FBECDBF6AE470E082E992E00E94B4
:10093000B80861E070E082E992E00E944D0182E92E
:1009400092E00E94360941E050E06AE470E082E9FA
:1009500092E00E94310982E992E00E941E08082F6D
:100960006AE470E082E992E00E94B80861E070E019
:1009700082E992E00E944D01602F606482E992E07A
:100980000E946F0882E992E00E94360960E471E0FB
:1009900080E090E00E9415146AE470E082E992E041
:1009A0000E94B80860E070E082E992E00E944D0188
:1009B00082E992E00E94360942E050E06AE470E089
:1009C00082E992E00E94310982E992E00E941608D1
:1009D000029751F482E992E00E941E08182F82E9E2
:1009E00092E00E941E08F82E612F70E0762F662795
:1009F0006F0D711D8B0194E0159507959A95E1F7A0
:100A0000CE010D960E94900C44E650E060E070E04C
:100A10008DE592E00E947C12CA88D988E888CE01D0
:100A20000D960E94E50BF82EB8016F707727072E00
:100A3000000C880B990B0E94EC1C20E030E040E297
:100A40005FE30E94781D0E94B41C7F936F93B801EE
:100A5000110F880B990B0E94EC1C20E030E040E85D
:100A60005DE30E94781D0E94B41C7F936F931F92D8
:100A7000CF921F92DF921F92EF921F92FF928F856B
:100A80001F928F938E851F928F938D8590E0805358
:100A9000984F9F938F9387E691E09F938F938BE37B
:100AA00092E09F938F930E9487206BE372E0CE01C8
:100AB00007960E94021C6EE571E0CE0101960E942D
:100AC000021CBE01695F7F4FCE0101960E945C1C33
:100AD000BC01CE0107960E94171CCE0101960E9410
:100AE000941B0FB6F894DEBF0FBECDBF8B859C85DF
:100AF000892BA9F00CE42AE832E040E050E0BE0186
:100B0000695F7F4F8DE592E00E94C61241E050E0A0
:100B100060E070E0CE0107960E94801CE7CFCE0116
:100B200007960E94941B62960FB6F894DEBF0FBE24
:100B3000CDBFDF91CF911F910F91FF90EF90DF908C
:100B4000CF90089560E082E00E94B51461E08CE0EF
:100B50000E94B51461E080E00E94B51410925C021E
:100B600026E040E056E960E070E08BE593E00E940B
:100B700059160E941C0C81E992E00E943A0E0E94D4
:100B8000540183B7817F846083BF0E94440266E280
:100B900072E08BE593E00E94DA1769E971E08BE57A
:100BA00093E00E94C81766E871E08BE593E00E942D
:100BB000C81766E272E08BE593E00E94DA1762E7FD
:100BC00071E08BE593E00E94C8176EE571E08BE55C
:100BD00093E00E94C8170E9482028BE593E00E9476
:100BE00082151816190614F58BE593E00E949C15E2
:100BF00099278435910559F024F48134910551F0F9
:100C00000BC08136910531F08437910529F40E949B
:100C10007C0302C00E94F1026AE070E080E090E094
:100C20000E9415148BE593E00E9437166CE471E086
:100C30008BE593E00E94971781E992E00E94ED0D09
:100C40004AE050E0BC018BE593E00E94841861E02B
:100C500081E992E00E94120D0E945B0E0E948304C3
:100C600010925B0210925A021092350210923402D6
:100C70000895FF920F931F93CF93DF9300D000D07E
:100C800000D0CDB7DEB76AE470E082E992E00E945E
:100C9000B80861E070E082E992E00E944D0182E9CB
:100CA00092E00E94360941E050E06AE470E082E997
:100CB00092E00E94310982E992E00E941E08082F0A
:100CC0006AE470E082E992E00E94B80861E070E0B6
:100CD00082E992E00E944D01602F606482E992E017
:100CE0000E946F0882E992E00E94360960E471E098
:100CF00080E090E00E9415146AE470E082E992E0DE
:100D00000E94B80860E070E082E992E00E944D0124
:100D100082E992E00E94360942E050E06AE470E025
:100D200082E992E00E94310982E992E00E9416086D
:100D3000029751F482E992E00E941E08182F82E97E
:100D400092E00E941E08F82E612F70E0762F662731
:100D50006F0D711D8B0194E0159507959A95E1F73C
:100D6000B8016F707727072E000C880B990B0E9433
:100D7000EC1C20E030E040E25FE30E94781D0E941E
:100D8000B41C7F936F93B801110F880B990B0E94CD
:100D9000EC1C20E030E040E85DE30E94781D0E94FA
:100DA000B41C7F936F9388E991E09F938F9386E3C0
:100DB00092E09F938F930E94872003E428EB3BE00F
:100DC00040E050E066E372E08DE592E00E94AD12F3
:100DD0006EE571E0CE0101960E94021C4CE4BE015A
:100DE0006F5F7F4F8DE592E00E9448128DE592E0A3
:100DF0000E947212CE0101960E94941B0FB6F894C5
:100E0000DEBF0FBECDBF26960FB6F894DEBF0FBE75
:100E1000CDBFDF91CF911F910F91FF900895CF9398
:100E2000DF9300D000D000D0CDB7DEB7CE01019661
:100E30000E94900C8E811F928F938D811F928F93B1
:100E40008C811F928F9383EA91E09F938F938BE322
:100E500092E09F938F930E9487204CE46BE372E0B3
:100E60008DE592E00E94C31141E060E070E08DE505
:100E700092E00E946C1241E061E070E08DE592E04A
:100E80000E946C1241E062E070E08DE592E00E9409
:100E90006C1241E063E070E08DE592E00E946C121C
:100EA00041E064E070E08DE592E00E946C1241E068
:100EB00065E070E08DE592E00E946C1244EF51E035
:100EC00060E070E08DE592E00E947C1240E060E01E
:100ED00070E08DE592E00E946C1240E061E070E00D
:100EE0008DE592E00E946C1240E062E070E08DE5DA
:100EF00092E00E946C1240E063E070E08DE592E0C9
:100F00000E946C1240E064E070E08DE592E00E9487
:100F10006C1240E065E070E08DE592E00E946C129A
:100F200044EF51E060E070E08DE592E00E947C12B9
:100F30008091340290913502019664E270E00E9443
:100F4000051E0FB6F894DEBF0FBECDBF892B11F47E
:100F50000E94390626960FB6F894DEBF0FBECDBFAD
:100F6000DF91CF91089580915C02882379F082E02F
:100F70000E940F130E94830410925B0210925A0287
:100F8000109235021092340210925C0280915A0243
:100F900090915B028230910599F03CF4009769F0E2
:100FA0000197A1F40E946A0115C08330910559F0A0
:100FB000049761F40E94830409C00E940F070AC0CD
:100FC0000E94060207C00E94390604C010925B020C
:100FD00010925A02809134029091350284389340E5
:100FE000D1F40E948304109235021092340242E040
:100FF00050E066E471E082E00E94E0126AE070E096
:1010000080E090E00E94151483B7816083BF8895CB
:1010100083B78E7F83BF8091340290913502019611
:1010200090933502809334020C945E048091C20246
:1010300090E02091C302821B910908959091C30210
:101040008091C202981750F4E92FF0E0EC53FD4F65
:10105000208130E09F5F9093C30202C02FEF3FEFEB
:10106000C9010895E091C3028091C202E81730F4EB
:10107000F0E0EC53FD4F808190E008958FEF9FEFFB
:1010800008950895CF92DF92EF92FF920F931F93EE
:10109000CF93DF937C01CB018A0120919E02222312
:1010A00089F0EB016B01C40ED51ECC15DD0569F08E
:1010B0006991D701ED91FC910190F081E02DC7017C
:1010C0000995F3CF642F0E94DB09C801DF91CF910E
:1010D0001F910F91FF90EF90DF90CF900895CF93E5
:1010E000DF931F92CDB7DEB7698320919E02222342
:1010F000D1F020919F02203240F021E030E0FC014D
:101100003383228380E090E015C08091A002E82F15
:10111000F0E0EF55FD4F998190838F5F8093A0029F
:1011200080939F0205C061E0CE0101960E94DB0919
:1011300081E090E00F90DF91CF910895FC01138240
:10114000128288EE93E0A0E0B0E084839583A683CA
:10115000B78386EB91E091838083089581E080934B
:101160009E026093C1021092A00210929F02089505
:101170000C94AE080F93062F21E040919F0261EA84
:1011800072E08091C1020E9485091092A002109223
:101190009F0210929E020F9108954F925F926F925C
:1011A0007F92AF92BF92CF92EF92FF920F931F93D5
:1011B000CF93DF935C01F62ED42F28013901EE2066
:1011C00021F10E94AE08CE2DC43008F0C3E0C1501A
:1011D000C0F028E0C29FC0011124A301920104C005
:1011E00056954795379527958A95D2F7CA01B90143
:1011F000D501ED91FC910190F081E02DC50109959B
:10120000E6CF60E0C5010E94BA084D2FD13208F048
:1012100040E22C2D64EC72E08F2D0E943D0910926B
:10122000C3028093C202DF91CF911F910F91FF9073
:10123000EF90CF90BF90AF907F906F905F904F9066
:101240000895CF92EF920F931F93C22EE12C00E0EE
:1012500010E098010E94CD081F910F91EF90CF9060
:10126000089521E00C9421090C94210961E00C946B
:10127000BA0882E992E00C949E08413208F043C01B
:10128000909151039111FCCF91E0909351032093E1
:101290004F032FEF2093E40210922903240F209391
:1012A00028039093500390915003880F892B8093CB
:1012B000500380914E03813061F410924E0380916F
:1012C00050038093BB008091BC0083FDF8CF85EC78
:1012D00001C085EE8093BC00809151038130E1F321
:1012E00080912903841710F440912903AAE2B3E006
:1012F000962FFB018E2F891B841718F48D918193F3
:10130000F9CF842F089580E008950F93413208F0BB
:101310004AC0909151039111FCCF32E030935103B8
:1013200000934F033FEF3093E40210922903409360
:101330002803562FAAE2B3E0FB013E2F351B3417DA
:1013400018F431913D93F9CF10925003309150032E
:10135000880F832B8093500380914E03813061F47A
:1013600010924E03809150038093BB008091BC008B
:1013700083FDF8CF85EC01C085EE8093BC0022236D
:1013800021F0809151038230D1F38091E4028F3FAC
:1013900079F08091E402803241F08091E402803360
:1013A00031F094E005C091E003C092E001C093E009
:1013B000892F0F910895613298F4209151032430C0
:1013C00089F460930603282FA8E0B3E0FC018E2F78
:1013D000821B861718F481918D93F9CF80E00895D0
:1013E00081E0089582E0089585ED8093BC008091AE
:1013F000BC0084FDFCCF10925103089585EC8093CE
:10140000BC001092510308951F920F920FB60F92D5
:1014100011242F933F934F935F936F937F938F93F9
:101420009F93AF93BF93EF93FF938091B900887F11
:10143000803609F49EC078F5883209F45DC090F4D6
:10144000803109F456C038F4882309F4F5C0883097
:1014500009F44FC0F5C0883109F44EC0803209F458
:101460005FC0EEC0803409F46AC058F4803309F4D8
:1014700057C0883309F0E4C08093E4020E94FE095B
:10148000DFC0803509F44FC0883509F45DC0883469
:1014900009F0D6C0D3C0883909F4C4C0A8F488378D
:1014A00009F467C038F4883609F463C0803709F45A
:1014B00060C0C6C0883809F4B5C0803909F45FC07F
:1014C000803809F0BDC05BC0803B09F483C038F4AC
:1014D000803A09F466C0883A09F47CC0B1C0803C07
:1014E00009F4A4C0883C09F4A1C0883B09F487C072
:1014F000A7C08091500310C09091290380912803C8
:10150000981770F5E091290381E08E0F80932903ED
:10151000F0E0E65DFC4F80818093BB0085EC83C0EA
:101520008093E4028BC0E091290381E08E0F8093C9
:1015300029038091BB00F0E0E65DFC4F8083909131
:101540002903809128036BC0E091290381E08E0F6D
:10155000809329038091BB00F0E0E65DFC4F80831F
:1015600080914F0381116AC081E080934E0384EA29
:101570005EC083E0809351031092E502CFCF80914B
:10158000E502803208F04EC0E091E50281E08E0F66
:101590008093E5028091BB00F0E0EA51FD4F80832B
:1015A000BDCF0E94FE098091E502803230F4E091C7
:1015B000E502F0E0EA51FD4F10826091E50270E033
:1015C000E0914A03F0914B0386EE92E00995109268
:1015D000E50236C084E08093510310920703109215
:1015E0000603E0914C03F0914D03099580910603A9
:1015F000811105C081E08093060310920803E091F9
:10160000070381E08E0F80930703F0E0E85FFC4F53
:1016100080818093BB009091070380910603981707
:1016200008F47CCF85E88093BC000AC085EC8093E9
:10163000BC001092510304C01092E4020E94F4090D
:10164000FF91EF91BF91AF919F918F917F916F919A
:101650005F914F913F912F910F900FBE0F901F9070
:101660001895803D27E0920710F0805D974050E08C
:10167000E6EAF1E021E0261730F43491430F511DE2
:101680002F5F3196F8CF633038F09C0123703327F9
:10169000232B11F44F5F5F4FBC016D5F7F4F769539
:1016A000679576956795EDE6F1E08E9F90018F9FA7
:1016B000300D9E9F300D1124C9010197860F971F91
:1016C000840F951F0895FC01908190539A3008F083
:1016D00090E0818180532AE0929F800D112408952B
:1016E000CF92EF920F93FC01603D87E0780710F0F6
:1016F000605D77406083418322830383E482C582F7
:101700000F91EF90CF900895EF92FF920F931F9358
:10171000CF93DF93EC018B017A01CB0109960E94F4
:10172000630B8883D801EC918E2FEE0F990BAA0BD7
:10173000BB0BFC01E154F109E331F10560F5E25C1A
:10174000FF4F0C945A1EF8018181813629F0828165
:101750008E3621F087E01EC081E01CC086E01AC0F2
:1017600082E018C0D80112968C91823711F088E07F
:1017700011C084E00FC0F8018281823711F085E04A
:1017800009C083E007C089E005C08AE003C08BE0A0
:1017900001C08CE08983C80104960E94630B8A8390
:1017A000C7010E94630B8B83C70103960E94630BE2
:1017B0008C83C70106960E94630B8D83DF91CF91C6
:1017C0001F910F91FF90EF900895FC01808142815D
:1017D000618190E00E94310B069667E070E00E9404
:1017E000F11D089568E670E082E992E00E94B80871
:1017F00060E070E082E992E00E944D0182E992E0AF
:101800000C9436090F931F93CF93DF93082FC8E0F2
:10181000D0E010E8802F812311F061E301C060E384
:101820008BE593E00E94BD171695219799F7DF91FC
:10183000CF911F910F910895CF93DF9368E670E0E9
:1018400082E992E00E94B80868E070E082E992E0E4
:101850000E944D0182E992E00E94360941E050E089
:1018600068E670E082E992E00E94310982E992E044
:101870000E941E08EC0187FF16C068E670E082E94E
:1018800092E00E94B80868E070E082E992E00E946D
:101890004D01BE01606882E992E00E944D0182E93B
:1018A00092E00E9436096AE070E080E090E00E94D9
:1018B000151468E670E082E992E00E94B8086AE0D8
:1018C00070E082E992E00E944D0182E992E00E947C
:1018D000360941E050E068E670E082E992E00E945B
:1018E000310982E992E00E941E08EC0168E670E08E
:1018F00082E992E00E94B8086AE070E082E992E032
:101900000E944D01BE016F7982E992E00E944D0173
:1019100082E992E00E94360981E0DF91CF9108953B
:10192000CF92DF92EF92FF920F931F93CF93DF93AB
:10193000EC0168E670E082E992E00E94B80861E09C
:1019400070E082E992E00E944D0182E992E00E94FB
:10195000360921E030E047E050E068E670E082E9D7
:1019600092E00E94340982E992E00E941E088F777B
:10197000982F92959F701AEF082F919F000D1124B8
:1019800082E992E00E941E088F77982F92959F70AF
:10199000C82E919FC00C112482E992E00E941E087B
:1019A0008F73982F92959F70D82E919FD00C1124F1
:1019B00082E992E00E941E0882E992E00E941E08DD
:1019C0008F73982F92959F70F82E919FF00C112491
:1019D00082E992E00E941E088F71982F92959F7065
:1019E000E82E919FE00C112482E992E00E941E08EB
:1019F0009C01332794E0359527959A95E1F7129F3E
:101A0000800D11248883E982FA82DB82CC820D83E7
:101A1000CE01DF91CF911F910F91FF90EF90DF905A
:101A2000CF900895CF93DF93C62F68E670E082E9E8
:101A300092E00E94B8086AE070E082E992E00E94B9
:101A40004D0182E992E00E94360941E050E068E6EB
:101A500070E082E992E00E94310982E992E00E94FE
:101A60001E08CC2319F0EC01C06802C0EC01CF774E
:101A700068E670E082E992E00E94B8086AE070E0EF
:101A800082E992E00E944D01BE0182E992E00E944B
:101A90004D0182E992E0DF91CF910C943609AF922B
:101AA000BF92CF92DF92EF92FF920F931F93CF934B
:101AB000DF935B0168E670E082E992E00E94B8087B
:101AC0006BE070E082E992E00E944D0182E992E0D1
:101AD0000E94360944E050E068E670E082E992E056
:101AE0000E94310982E992E00E941E08EC0182E91D
:101AF00092E00E941E086C0182E992E00E941E089A
:101B00007C0182E992E00E941E088C0183E0A81605
:101B1000B10411F154F481E0A816B104B1F082E0EF
:101B2000A816B10451F50F7711C085E0A816B104CD
:101B3000E9F0B4F086E0A816B104F9F40F77E89460
:101B4000E7F8E894C7F8CF7318C000686894E7F81E
:101B50006894C7F8C06C11C00F77E894E7F8F8CF25
:101B60000F77E894E7F8E894C7F8F4CF0F77E89494
:101B7000E7F8E894C7F8CF77C06468E670E082E9D8
:101B800092E00E94B8086BE070E082E992E00E9467
:101B90004D01BE0182E992E00E944D01B60182E949
:101BA00092E00E944D01B70182E992E00E944D014E
:101BB000B80182E992E00E944D0182E992E00E9420
:101BC0003609DF91CF911F910F91FF90EF90DF9039
:101BD000CF90BF90AF900C94F20BFF920F931F9396
:101BE000CF93DF9368E670E082E992E00E94B80844
:101BF0006BE070E082E992E00E944D0182E992E0A0
:101C00000E94360944E050E068E670E082E992E024
:101C10000E94310982E992E00E941E08182F82E991
:101C200092E00E941E08082F82E992E00E941E089E
:101C3000F82E82E992E00E941E0887FB882780F92F
:101C4000C82F80E0D82FF7FCC26007FDC46017FDE5
:101C5000C86016FDC061C853DE4FC8810C2E000C51
:101C6000DD0B0E94F20BCE01DF91CF911F910F91FE
:101C7000FF90089568E670E082E992E00E94B8085B
:101C80006FE070E082E992E00E944D0182E992E00B
:101C90000E94360941E050E068E670E082E992E097
:101CA0000E94310982E992E00E941E0886FB882783
:101CB00080F990E00895CF93DF9368E670E082E9C1
:101CC00092E00E94B80860E070E082E992E00E9431
:101CD0004D0182E992E00E94360940E150E068E659
:101CE00070E082E992E00E943109C0E0D0E082E930
:101CF00092E00E941E080E94020C62EC71E08BE5EB
:101D000093E00E94BB1740E150E0BE018BE593E0F9
:101D10000E9484182196C031D10549F768E670E029
:101D200082E992E00E94B80860E070E082E992E007
:101D30000E944D0182E992E0DF91CF910C94360927
:101D4000EF92FF920F931F93CF938C0168E670E0A0
:101D500082E992E00E94B80864E070E082E992E0D3
:101D60000E944D0182E992E00E94360941E050E074
:101D700068E670E082E992E00E94310982E992E02F
:101D80000E941E087C0168E670E082E992E00E94F1
:101D9000B80861E070E082E992E00E944D01F8012C
:101DA0002581CAE0822F6C2F0E94E51D682F660FE7
:101DB000860F880F682F620F82E992E00E946F08F9
:101DC000F8012481822F6C2F0E94E51D682F660F79
:101DD000860F880F682F620F82E992E00E946F08D9
:101DE000F8012381822F6C2F0E94E51D682F660F5A
:101DF000860F880F682F620F82E992E00E946F08B9
:101E0000B70182E992E00E944D01F8012281822F00
:101E10006C2F0E94E51D682F660F860F880F682FB4
:101E2000620F82E992E00E946F08F8012181822FFF
:101E30006C2F0E94E51D682F660F860F880F682F94
:101E4000620F82E992E00E946F08F8012081822FE0
:101E50006C2F0E94E51D682F660F860F880F682F74
:101E6000620F82E992E00E946F0882E992E0CF91CE
:101E70001F910F91FF90EF900C9436091F93CF9311
:101E8000DF93EC0168E670E082E992E00E94B80816
:101E90006AE070E082E992E00E944D0129811AE037
:101EA000822F612F0E94E51D682F660F860F880F15
:101EB000682F620F82E992E00E946F082A81822FC8
:101EC000612F0E94E51D682F660F860F880F682F0F
:101ED000620F82E992E00E946F082B81822F612FAE
:101EE0000E94E51D682F660F860F880F682F620F0E
:101EF00082E992E00E946F082C81822F612F0E945C
:101F0000E51D682F660F860F880F682F620F82E924
:101F100092E00E946F082D81822F612F0E94E51DA3
:101F2000682F660F860F880F682F620F82E992E094
:101F30000E946F0860E070E082E992E00E944D012B
:101F400082E992E0DF91CF911F910C943609EF92D4
:101F5000FF920F931F93CF93DF93EC017C018CE2F0
:101F6000E80EF11C08EE11E028853985C801885E6D
:101F70009140821793072CF560E088810E94F1144C
:101F80008E819F81F8012081892B09F0209540E006
:101F90006A818C810E944915F70121917F0140E0FF
:101FA0006A818C810E94491561E088810E94F11448
:101FB00061E070E080E090E00E9415140F5F1F4F19
:101FC000D3CFDF91CF911F910F91FF90EF900895A4
:101FD000CF93DF93EC0160E088810E94F11420E050
:101FE00041E06A818C810E94491520E041E06A81CC
:101FF0008C810E94491561E08881DF91CF910C941A
:10200000F114CF93DF93EC01862F688379835B8390
:102010004A833D832C8361E00E94B51461E08A818C
:102020000E94B51461E08C810E94B514CE01DF914D
:10203000CF910C94E80FEF92FF920F931F93CF93E1
:10204000DF93EC010E940110CE018C9661E0011536
:10205000110509F460E0619570E048E050E00E94ED
:102060006A2088E0E816F1041CF49E2D8F2D02C032
:1020700098E080E01F830E839887898721E030E015
:102080003B872A879C878D871D8E1C8EDF91CF9181
:102090001F910F91FF90EF900895EF92FF920F9391
:1020A0001F937A018B0125E030E047E050E066E0C5
:1020B00070E00E941B101F910F91FF90EF90089508
:1020C000CF93DF93EC01645D7F4FFC01E60FF71FB8
:1020D000D901CD01821B930B841795075CF48E8187
:1020E0009F81892B11F09C9102C09C9190959193B6
:1020F0001196EFCFDF91CF910895FC0126813781B2
:10210000E60FF71F442319F0232B31F402C0232BD1
:1021100019F084A5816002C084A58E7F84A70895EC
:102120000F931F93CF93DF93EA01D9018FEF97EFBE
:102130004FEE5DEFFD01E21BF30BE617F70784F5A9
:10214000E991F0EDFE0FFA3030F40E2E000CFF0B8B
:10215000E652FE4F09C0FFE9FE0FFA3140F40E2EA1
:10216000000CFF0BE157FE4FE081EC9317C0FFEB33
:10217000FE0FFA3130F40E2E000CFF0BE155FE4F2E
:10218000F3CFED3211F45C9309C0EF3511F44C93A9
:1021900005C0E33211F49C9301C08C931196CACF11
:1021A0000F3F8FEF180731F0F901E00FF11F808129
:1021B00081608083DF91CF911F910F910895CF921D
:1021C000DF92EF92FF920F931F93CF93DF93EE2D49
:1021D000D9011197EC3429F46150710980E090E045
:1021E00017C0C901861B970BE23511F4BD0108C069
:1021F00097FD019695958795680F791F6150710934
:10220000F801C0E27F01E01AF10AE816F90614F0BD
:10221000FA0106C0C193F6CF97FF06C0019631962A
:1022200068177907CCF709C0A817B907BCF3408134
:10223000E801C80FD91F4883F1CFFB013196E00FA9
:10224000F11F80E2AF01401B510B4217530714F4FA
:102250008193F8CF8FEFC816D80639F06C197D0935
:1022600077FD03C0A617B7071CF48FEF9FEF01C0DF
:10227000CB01DF91CF911F910F91FF90EF90DF90F5
:10228000CF9008952F923F924F925F926F927F92DC
:102290008F929F92AF92BF92CF92DF92EF92FF9276
:1022A0000F931F93CF93DF93CDB7DEB75C016DB66D
:1022B0007EB677FD50C0FC0182859385681779074B
:1022C0000CF049C0FA0101900020E9F73197CF01E5
:1022D000841B950B660F771F1501260E371EF10123
:1022E000848495846DB77EB7681979090FB6F89420
:1022F0007EBF0FBE6DBFEDB7FEB731962F01CC2468
:10230000CA94DC2CE22E8F019401BC01C5010E940D
:10231000DF106DB77EB7681979090FB6F8947EBFE4
:102320000FBE6DBF8DB79EB701967C010FEF1FEFFB
:102330009C01A201B401C5010E949010F101648DBD
:10234000758D9701A401C5010E9460100FB6F89425
:102350007EBE0FBE6DBE0FB6F8947EBE0FBE6DBEC4
:10236000DF91CF911F910F91FF90EF90DF90CF9071
:10237000BF90AF909F908F907F906F905F904F90A5
:102380003F902F900895242FAB0160E070E00C94F3
:1023900042112F923F924F925F926F927F928F9253
:1023A0009F92AF92BF92CF92DF92EF92FF920F93E4
:1023B0001F93CF93DF9300D01F92CDB7DEB75C01A0
:1023C0006B013A0129838DB79EB79B838A8377FD82
:1023D00042C0F5018285938568177907E4F52DB62B
:1023E0003EB600E010E0B801C3010E946F1C9801E6
:1023F0002F5F3F4F882311F08901F5CF8DB79EB72E
:10240000821B930B0FB6F8949EBF0FBE8DBFEDB726
:10241000FEB731962F014F01E12CF12C0E151F054F
:1024200059F0B701C3010E946F1CF40181934F0161
:10243000FFEFEF1AFF0AF2CFF201E00FF11F108257
:102440002981A201B601C5010E9442110FB6F8947C
:102450003EBE0FBE2DBE8A819B810FB6F8949EBFF3
:102460000FBE8DBF0F900F900F90DF91CF911F91F6
:102470000F91FF90EF90DF90CF90BF90AF909F9023
:102480008F907F906F905F904F903F902F90089526
:10249000242FAB0160E070E00C94C91177FD1BC0E4
:1024A000DC011A96ED91FC911B976E177F079CF447
:1024B00057FD11C0660F771FFC01E60FF71F6485FB
:1024C0007585461757073CF4648D758D640F751F2D
:1024D000422F0C947D100895242FAB0160E070E032
:1024E0000C944E12CF93DF93EC010E94A70FCE0104
:1024F000DF91CF910C94E80FCF92DF92EF92FF9291
:102500000F931F93CF93DF93EC016A017B010E942D
:10251000E41308851985012E000C220B330BC01A19
:10252000D10AE20AF30AC60ED71EE81EF91E0E945F
:10253000E413C616D706E806F90620F0CE010E947D
:10254000A70FF5CFCE01DF91CF911F910F91FF9093
:10255000EF90DF90CF900C94E80FCF92DF92EF9244
:10256000FF920F93CF93DF93EC0169017A01402F23
:102570000E94C311B701A601CE01DF91CF910F9147
:10258000FF90EF90DF90CF900C947C12CF92DF926F
:10259000EF92FF920F93CF93DF93EC0169017A01E1
:1025A000402F0E944812B701A601CE01DF91CF91C2
:1025B0000F91FF90EF90DF90CF900C947C120895D4
:1025C000833060F5E82FF0E0EE0FFF1FE85FFE4F6D
:1025D00071836083813051F08230A1F08091690075
:1025E0008C7F482B40936900E89A08958091690098
:1025F000837F440F551F440F551F482B409369009C
:10260000E99A0895809169008F7C94E0440F551FEA
:102610009A95E1F7482B40936900EA9A0895833030
:1026200098F4813021F0823021F0E89803C0E998D5
:1026300001C0EA98E82FF0E0EE0FFF1FE85FFE4FC1
:102640008FED92E19183808308951F920F920FB6D0
:102650000F9211242F933F934F935F936F937F9328
:102660008F939F93AF93BF93EF93FF93E0910801F4
:10267000F09109010995FF91EF91BF91AF919F9161
:102680008F917F916F915F914F913F912F910F901B
:102690000FBE0F901F9018951F920F920FB60F92BA
:1026A00011242F933F934F935F936F937F938F9357
:1026B0009F93AF93BF93EF93FF93E0910A01F09143
:1026C0000B010995FF91EF91BF91AF919F918F9170
:1026D0007F916F915F914F913F912F910F900FBE1E
:1026E0000F901F9018951F920F920FB60F92112402
:1026F0002F933F934F935F936F937F938F939F930A
:10270000AF93BF93EF93FF93E0910C01F0910D0114
:102710000995FF91EF91BF91AF919F918F917F911B
:102720006F915F914F913F912F910F900FBE0F903E
:102730001F9018951F920F920FB60F9211242F938E
:102740003F938F939F93AF93BF9380915303909147
:102750005403A0915503B09156033091520326E0E3
:10276000230F2D3720F40296A11DB11D05C029E8C5
:10277000230F0396A11DB11D209352038093530391
:1027800090935403A0935503B0935603809157033D
:1027900090915803A0915903B0915A030196A11D3D
:1027A000B11D8093570390935803A0935903B0939E
:1027B0005A03BF91AF919F918F913F912F910F90AD
:1027C0000FBE0F901F9018952FB7F8946091530388
:1027D0007091540380915503909156032FBF089533
:1027E0003FB7F8948091570390915803A0915903F3
:1027F000B0915A0326B5A89B05C02F3F19F001964A
:10280000A11DB11D3FBFBA2FA92F982F8827820F76
:10281000911DA11DB11DBC01CD0143E0660F771FC5
:10282000881F991F4A95D1F708958F929F92AF9272
:10283000BF92CF92DF92EF92FF926B017C010E94D8
:10284000F0134B015C01C114D104E104F10401F166
:102850000E94B31C0E94F013DC01CB018819990976
:10286000AA09BB09883E9340A105B10560F321E0A8
:10287000C21AD108E108F10888EE880E83E0981E9C
:10288000A11CB11CC114D104E104F10419F7DBCF80
:10289000FF90EF90DF90CF90BF90AF909F908F9080
:1028A0000895789484B5826084BD84B5816084BDC8
:1028B00085B5826085BD85B5816085BDEEE6F0E0B9
:1028C000808181608083E1E8F0E010828081826015
:1028D0008083808181608083E0E8F0E08081816096
:1028E0008083E1EBF0E0808184608083E0EBF0E0C6
:1028F000808181608083EAE7F0E08081846080836A
:1029000080818260808380818E7F808380818068E7
:1029100080831092C1000895843081F028F48230C1
:1029200099F08330A1F008958830A9F08930B9F08A
:102930008530D1F4809180008F7D03C0809180002C
:102940008F7780938000089584B58F7702C084B517
:102950008F7D84BD08958091B0008F7703C08091F2
:10296000B0008F7D8093B0000895CF93DF9390E007
:10297000FC01EE52FE4F2491FC01EE50FE4F84917B
:10298000882361F190E0880F991FFC01EA5DFD4FFB
:10299000C591D491FC01E45EFD4FA591B491611104
:1029A00009C09FB7F8948881209582238883EC9191
:1029B0002E230BC0623061F49FB7F8948881322FC8
:1029C000309583238883EC912E2B2C939FBF06C0D8
:1029D0008FB7F894E8812E2B28838FBFDF91CF919A
:1029E00008951F93CF93DF93282F30E0F901EE5421
:1029F000FE4F8491F901EE52FE4FD491F901EE5051
:102A0000FE4FC491CC23C1F0162F81110E948C146B
:102A1000EC2FF0E0EE0FFF1FE45EFD4FA591B491A7
:102A20009FB7F894111104C08C91D095D82302C09F
:102A3000EC91DE2BDC939FBFDF91CF911F91089526
:102A4000CF93DF93282F30E0F901EE54FE4F8491AD
:102A5000F901EE52FE4FD491F901EE50FE4FC491B0
:102A6000CC2391F081110E948C14EC2FF0E0EE0F3A
:102A7000FF1FEE5EFD4FA591B491EC91ED2381E037
:102A800090E021F480E002C080E090E0DF91CF91FF
:102A90000895BF92CF92DF92EF92FF920F931F9310
:102AA000CF93DF93C82ED62EB42EC7E0D0E0022FEE
:102AB00010E087E0E82EF12CB11005C0C7018C1B97
:102AC0009D0BB80102C0B8018C2F02C075956795A7
:102AD0008A95E2F761708C2D0E94F11461E08D2DD2
:102AE0000E94F11460E08D2D0E94F114219720F7CF
:102AF000DF91CF911F910F91FF90EF90DF90CF90DA
:102B0000BF900895FC01918D228D892F90E0805C0B
:102B10009F4F821B91098F7399270895FC01918D16
:102B2000828D981731F0828DE80FF11D858D90E030
:102B300008958FEF9FEF0895FC01918D828D981776
:102B400061F0828DDF01A80FB11D5D968C91928D91
:102B50009F5F9F73928F90E008958FEF9FEF08958E
:102B600081E197E1892B41F080E090E0892B21F011
:102B70000E94111781110DC080E090E0892B71F047
:102B800080E090E0892B51F00E940000811104C088
:102B900008950E940000F0CF0C9400000895FC01FD
:102BA000848DDF01A80FB11DA35ABF4F2C91848DD6
:102BB00090E001968F739927848FA689B7892C930B
:102BC000A089B1898C9180648C93938D848D9813A6
:102BD00006C00288F389E02D80818F7D808308956F
:102BE000EF92FF920F931F93CF93DF93EC0181E05D
:102BF000888F9B8D8C8D981305C0E889F989808119
:102C000085FD24C0F62E0B8D10E00F5F1F4F0F7354
:102C10001127E02E8C8DE8120CC00FB607FCFACFFE
:102C2000E889F989808185FFF5CFCE010E94CF1513
:102C3000F1CF8B8DFE01E80FF11DE35AFF4FF082BB
:102C40000B8FEA89FB898081806207C0EE89FF894A
:102C50006083E889F98980818064808381E090E0E5
:102C6000DF91CF911F910F91FF90EF900895CF9337
:102C7000DF93EC01888D8823C9F0EA89FB89808184
:102C800085FD05C0A889B9898C9186FD0FC00FB656
:102C900007FCF5CF808185FFF2CFA889B9898C9197
:102CA00085FFEDCFCE010E94CF15E7CFDF91CF9109
:102CB0000895CF92DF92EF92FF921F93CF93DF930D
:102CC000EC016A017B01122F60E874E88EE190E06C
:102CD000A70196010E94191EDA01C9010197A109F5
:102CE000B109B695A795979587959C01E889F989CB
:102CF00082E08083211580E13807A8F0E889F9890E
:102D0000108260E472E48FE090E0A70196010E94D7
:102D1000191EDA01C9010197A109B109B695A79554
:102D2000979587959C01EC85FD853083EE85FF8521
:102D30002083188EEC89FD891083EA89FB898081C4
:102D400080618083EA89FB89808188608083EA8949
:102D5000FB89808180688083EA89FB8980818F7DFF
:102D60008083DF91CF911F91FF90EF90DF90CF9004
:102D700008951F920F920FB60F9211242F938F93E5
:102D80009F93EF93FF93E0916B03F0916C0380812D
:102D9000E0917103F091720382FD12C090818091E5
:102DA00074038F5F8F7320917503821751F0E09148
:102DB0007403F0E0E55AFC4F958F8093740301C0D3
:102DC0008081FF91EF919F918F912F910F900FBE76
:102DD0000F901F9018951F920F920FB60F9211240B
:102DE0002F933F934F935F936F937F938F939F9313
:102DF000AF93BF93EF93FF938BE593E00E94CF15C2
:102E0000FF91EF91BF91AF919F918F917F916F91C2
:102E10005F914F913F912F910F900FBE0F901F9098
:102E200018958BE593E00E94821521E0892B09F427
:102E300020E0822F0895EBE5F3E01382128288EE02
:102E400093E0A0E0B0E084839583A683B78388E114
:102E500092E09183808385EC90E09587848784EC71
:102E600090E09787868780EC90E0918B808B81EC57
:102E700090E0938B828B82EC90E0958B848B86EC38
:102E800090E0978B868B118E128E138E148E089580
:102E900008950E9451140E9448170E94A205C0EB99
:102EA000D5E10E94B3072097E1F30E94B015F9CF56
:102EB000CF92DF92EF92FF920F931F93CF93DF9306
:102EC0006C017A018B01C0E0D0E0CE15DF0581F006
:102ED000D8016D918D01D601ED91FC910190F081A9
:102EE000E02DC6010995892B11F02196EECF7E01C8
:102EF000C701DF91CF911F910F91FF90EF90DF906D
:102F0000CF9008956115710579F0FB0101900020C3
:102F1000E9F73197AF01461B570BDC01ED91FC91AE
:102F20000280F381E02D099480E090E00895EF9213
:102F3000FF920F931F93CF93DF938C017B01C0E02F
:102F4000D0E0F701EC0FFD1F6491662361F0D8011A
:102F5000ED91FC910190F081E02DC8010995892B3C
:102F600011F02196EECFCE01DF91CF911F910F91FD
:102F7000FF90EF9008950C948217DC01ED91FC9185
:102F80000190F081E02D099464E272E00C948217C4
:102F90000F931F93CF93DF93EC010E9497178C013F
:102FA000CE010E94C417800F911FDF91CF911F9116
:102FB0000F9108950F931F93CF93DF93EC010E941D
:102FC00082178C01CE010E94C417800F911FDF91E0
:102FD000CF911F910F9108958F929F92AF92BF92C0
:102FE000EF92FF920F931F93CF93DF93CDB7DEB78E
:102FF000A1970FB6F894DEBF0FBECDBF7C01FA01DA
:10300000CB0119A2223008F42AE08E010F5D1F4F78
:10301000822E912CA12CB12CBF01A50194010E94FC
:10302000191EF901CA01015011096A3014F4605DDA
:1030300001C0695CD8016C93232B242B252B61F7ED
:10304000B801C7010E948217A1960FB6F894DEBF9F
:103050000FBECDBFDF91CF911F910F91FF90EF90E9
:10306000BF90AF909F908F900895CF92DF92EF9294
:10307000FF920F931F93CF93DF932115310581F4B6
:10308000DC01ED91FC910190F081E02D642FDF9146
:10309000CF911F910F91FF90EF90DF90CF90099407
:1030A0002A30310501F577FF1DC06A017B01EC0173
:1030B0006DE20E94BD178C0144275527BA014C19B7
:1030C0005D096E097F092AE0CE010E94EC17800F8E
:1030D000911FDF91CF911F910F91FF90EF90DF90A3
:1030E000CF9008952AE0DF91CF911F910F91FF902B
:1030F000EF90DF90CF900C94EC179A01AB01770F13
:10310000660B770B0C9435180F931F93CF93DF93B7
:10311000EC010E947D188C01CE010E94C417800F23
:10312000911FDF91CF911F910F9108954F925F9260
:103130006F927F928F929F92AF92BF92CF92DF92C7
:10314000EF92FF920F931F93CF93DF9300D000D0A5
:103150001F92CDB7DEB78B0129013A0190910E0184
:10316000891721F09F3F09F038C205C0E0E3F2E083
:1031700024912D8384C080930E01E0E3F2E09491CA
:103180009D839F3F09F429C2913009F44DC058F145
:10319000923009F074C01092B0001092B10090917A
:1031A000B00092609093B0009091B10091609093C4
:1031B000B100282F30E0F901EE50FE4FE491F0E02D
:1031C000EE0FFF1FE45EFD4F459154915093FA03BB
:1031D0004093F903F901EE52FE4FE491E093F803B6
:1031E00092E09D83F6C114BC15BC94B5926094BD69
:1031F00095B5916095BD282F30E0F901EE50FE4F56
:10320000E491F0E0EE0FFF1FE45EFD4F4591549115
:103210005093080440930704F901EE52FE4FE491E5
:10322000E09306041D82D5C11092800010928100A7
:1032300090918100986090938100909181009160BD
:1032400090938100282F30E0F901EE50FE4FE49179
:10325000F0E0EE0FFF1FE45EFD4F45915491509357
:10326000010440930004F901EE52FE4FE491E09313
:10327000FF0361E00E94B51421E02D83A5C02D81DC
:1032800027FDABC161E00E94B5148D818D7F09F0EF
:103290009BC04801A12CB12C60E079E08DE390E067
:1032A000A50194010E943B1E29833A834B835C83D2
:1032B00069017A0181E0C81AD108E108F1089FEF9D
:1032C000C916D104E104F10409F008F461C060E218
:1032D00071EA87E090E0A50194010E943B1E69011C
:1032E0007A0181E0C81AD108E108F1089D81923085
:1032F00009F0F4C02FEFC216D104E104F10409F083
:1033000008F458C068E478EE81E090E0A5019401EB
:103310000E943B1E69017A0181E0C81AD108E108C8
:10332000F1089FEFC916D104E104F10409F008F493
:103330004EC164E274EF80E090E0A50194010E9428
:103340003B1E69017A0181E0C81AD108E108F10841
:103350009FEFC916D104E104F10471F168F162E153
:103360007AE780E090E0A50194010E943B1E69018C
:103370007A0181E0C81AD108E108F1089FEFC91667
:10338000D104E104F10411F008F0C9C085E015C0D2
:1033900081E09D81911111C095B5987F892B85BDE4
:1033A000411451046104710409F04FC02FEF3FEF45
:1033B000A90163C082E001C084E09091B100987FD0
:1033C000892B8093B1003CC04801A12CB12C60E056
:1033D00079E08DE390E0A50194010E943B1E690114
:1033E0007A0181E0C81AD108E108F108C114D104BA
:1033F00091E0E906F10488F064E274EF80E090E087
:10340000A50194010E943B1E69017A0181E0C81A5E
:10341000D108E108F10883E001C081E09D8191308D
:1034200079F490918100987F892B809381004114D9
:1034300051046104710449F42FEF3FEFA9012CC03E
:10344000411451046104710471F0D801AA0FBB1F2B
:10345000A30192010E946F1E28EE33E040E050E08D
:103460000E94191E03C02FEF3FEFA9018D8181300B
:1034700099F0823019F18111B0C0C7BC20930904C2
:1034800030930A0440930B0450930C0480916E0017
:10349000826080936E00A1C0D0928900C0928800A3
:1034A00020930204309303044093040450930504D2
:1034B00080916F00826080936F008FC0C092B300D4
:1034C0002093FB033093FC034093FD035093FE03D2
:1034D000809170008260809370007FC08FEFC8166B
:1034E000D104E104F104C9F0C0F064E274EF80E0BB
:1034F00090E0A50194010E943B1E69017A0191E0D0
:10350000C91AD108E108F1082FEFC216D104E1046D
:10351000F10409F080F583E03CCF82E03ACF69E026
:103520007DE380E090E0A50194010E943B1E6901CB
:103530007A0181E0C81AD108E108F1089FEFC916A5
:10354000D104E104F104A9F0A0F089819A81AB8152
:10355000BC812AE0B595A795979587952A95D1F7CF
:103560006C017D0121E0C21AD108E108F10887E071
:1035700024CF86E022CF69E07DE380E090E0A501E2
:1035800094010E943B1E69017A0181E0C81AD108AA
:10359000E108F1089FEFC916D104E104F104A9F094
:1035A000A0F089819A81AB81BC814AE0B595A7954D
:1035B000979587954A95D1F76C017D0121E0C21A54
:1035C000D108E108F10885E0E4CE84E0E2CE83E0B2
:1035D000F4CE61E00E94B5145CCE0F900F900F9076
:1035E0000F900F90DF91CF911F910F91FF90EF906F
:1035F000DF90CF90BF90AF909F908F907F906F9013
:103600005F904F900895813039F018F0823051F07A
:10361000089510926E00089580916F008D7F8093C1
:103620006F000895809170008D7F8093700081E01D
:103630008093B0008091B100887F84608093B10056
:103640001092B3000895CF93C82F80910E01C81334
:1036500007C0E0E3F2E084919FEF90930E0101C078
:103660008FEF0E94031B60E08C2FCF910C94F1141C
:103670001F920F920FB60F9211242F933F934F93E7
:103680005F936F937F938F939F93AF93BF93EF93CA
:10369000FF938091FB039091FC03A091FD03B091F7
:1036A000FE03892B8A2B8B2B51F19091F803E0912B
:1036B000F903F091FA038081892780838091FB03CD
:1036C0009091FC03A091FD03B091FE03181619061A
:1036D0001A061B06C4F48091FB039091FC03A09191
:1036E000FD03B091FE030197A109B1098093FB038B
:1036F0009093FC03A093FD03B093FE0304C080915C
:103700000E010E94231BFF91EF91BF91AF919F91FA
:103710008F917F916F915F914F913F912F910F907A
:103720000FBE0F901F901895FC01808191810C9421
:10373000121FCF93DF93EC0188819981009711F0DC
:103740000E94121F198218821D821C821B821A82FB
:10375000DF91CF9108950F931F93CF93DF93EC01E7
:103760008B016F5F7F4F888199810E949B1F00971B
:1037700031F0998388831B830A8381E001C080E054
:10378000DF91CF911F910F910895CF93DF93EC01BB
:1037900088819981892B29F08A819B8186179707D7
:1037A00060F4CE010E94AB1B882341F08C819D8187
:1037B000892B19F4E881F981108281E0DF91CF91A2
:1037C0000895EF92FF920F931F93CF93DF93EC0135
:1037D0007B018A01BA010E94C51B811104C0CE0180
:1037E0000E94991B07C01D830C83B70188819981B2
:1037F0000E947120CE01DF91CF911F910F91FF9018
:10380000EF900895FC0111821082138212821582BA
:1038100014826115710551F0FB0101900020E9F758
:103820003197AF01461B570B0C94E11B0895CF93C2
:10383000DF93EC01FB018617970761F060817181CE
:103840006115710529F0448155810E94E11B02C078
:103850000E94991BCE01DF91CF910895EF92FF92C4
:103860000F931F93CF93DF936115710511F480E0DF
:103870001CC041155105C1F07B01EC018C819D817B
:103880008A01080F191FB801CE010E94C51B8823A9
:1038900071F3288139818C819D81B701820F931F3B
:1038A0000E9471201D830C8381E0DF91CF911F91D5
:1038B0000F91FF90EF900895CF93DF93EC01FB0100
:1038C00044815581608171810E942E1C811103C049
:1038D000CE010E94991BCE01DF91CF910895FC018A
:1038E000248135816217730748F4808191810097A4
:1038F00029F0FC01E60FF71F8081089580E008950C
:10390000CF93DF93DC011496ED91FC9115976E1720
:103910007F0730F54115510519F1DF01A61BB70BE3
:103920009A01A417B50708F49D01DB01EC01888119
:103930009981E21BF30BFD83EC83AF01461B570B10
:10394000260F371FBC01620F731F8A0F9B1F0E9437
:103950007820E881F9818C819D81E80FF91F108220
:10396000DF91CF91089508950E94BB1C6894B11116
:103970000C94721D08950E94571D88F09F5798F06F
:10398000B92F9927B751B0F0E1F0660F771F881F64
:10399000991F1AF0BA95C9F714C0B13091F00E947E
:1039A000711DB1E008950C94711D672F782F882741
:1039B000B85F39F0B93FCCF3869577956795B395A5
:1039C000D9F73EF490958095709561957F4F8F4F14
:1039D0009F4F0895E89409C097FB3EF49095809519
:1039E000709561957F4F8F4F9F4F9923A9F0F92FC5
:1039F00096E9BB279395F695879577956795B79543
:103A0000F111F8CFFAF4BB0F11F460FF1BC06F5F28
:103A10007F4F8F4F9F4F16C0882311F096E911C03A
:103A2000772321F09EE8872F762F05C0662371F05B
:103A300096E8862F70E060E02AF09A95660F771F6F
:103A4000881FDAF7880F9695879597F9089597F963
:103A50009F6780E870E060E008959FEF80EC089534
:103A600000240A941616170618060906089500245D
:103A70000A9412161306140605060895092E0394D7
:103A8000000C11F4882352F0BB0F40F4BF2B11F44B
:103A900060FF04C06F5F7F4F8F4F9F4F089557FDAA
:103AA0009058440F551F59F05F3F71F04795880FAC
:103AB00097FB991F61F09F3F79F087950895121643
:103AC00013061406551FF2CF4695F1DF08C01616EF
:103AD00017061806991FF1CF8695710561050894A0
:103AE0000895E894BB2766277727CB0197F90895B7
:103AF0000E948B1D0C943E1D0E94301D38F00E94C8
:103B0000371D20F0952311F00C94271D0C942D1DCA
:103B100011240C94721D0E944F1D70F3959FC1F3E8
:103B2000950F50E0551F629FF001729FBB27F00D6B
:103B3000B11D639FAA27F00DB11DAA1F649F6627C0
:103B4000B00DA11D661F829F2227B00DA11D621F0F
:103B5000739FB00DA11D621F839FA00D611D221FC9
:103B6000749F3327A00D611D231F849F600D211DAD
:103B7000822F762F6A2F11249F5750409AF0F1F030
:103B800088234AF0EE0FFF1FBB1F661F771F881F99
:103B900091505040A9F79E3F510580F00C94271D8D
:103BA0000C94721D5F3FE4F3983ED4F386957795AD
:103BB0006795B795F795E7959F5FC1F7FE2B880F3F
:103BC000911D9695879597F90895991B79E004C002
:103BD000991F961708F0961B881F7A95C9F780954C
:103BE0000895AA1BBB1B51E107C0AA1FBB1FA61744
:103BF000B70710F0A61BB70B881F991F5A95A9F796
:103C000080959095BC01CD01089597FB072E16F481
:103C1000009407D077FD09D00E94F11D07FC05D064
:103C20003EF4909581959F4F0895709561957F4FD3
:103C30000895A1E21A2EAA1BBB1BFD010DC0AA1FED
:103C4000BB1FEE1FFF1FA217B307E407F50720F005
:103C5000A21BB30BE40BF50B661F771F881F991F80
:103C60001A9469F760957095809590959B01AC01C9
:103C7000BD01CF010895052E97FB1EF400940E940C
:103C8000521E57FD07D00E94191E07FC03D04EF4A8
:103C90000C94521E50954095309521953F4F4F4FB3
:103CA0005F4F089590958095709561957F4F8F4FE8
:103CB0009F4F0895EE0FFF1F0590F491E02D09949A
:103CC000A29FB001B39FC001A39F700D811D11245D
:103CD000911DB29F700D811D1124911D08950E94A8
:103CE000601EA59F900DB49F900DA49F800D911D07
:103CF000112408950F931F93CF93DF938230910582
:103D000010F482E090E0E0910F04F091100420E0C4
:103D100030E0A0E0B0E0309719F14081518102819C
:103D2000138148175907C8F08417950769F410974D
:103D300031F012960C93129713961C9327C00093A0
:103D40000F041093100422C02115310519F04217F9
:103D5000530718F49A01BD01EF01DF01F801DBCF31
:103D600021153105F9F0281B390B2430310580F479
:103D70008A819B816115710521F0FB019383828308
:103D800004C09093100480930F04FE01329644C047
:103D9000FE01E20FF31F8193919322503109398381
:103DA00028833AC020910D0430910E04232B41F456
:103DB000209102013091030130930E0420930D04F1
:103DC00020910001309101012115310541F42DB7F9
:103DD0003EB74091040150910501241B350BE09141
:103DE0000D04F0910E04E217F307A0F42E1B3F0B15
:103DF0002817390778F0AC014E5F5F4F241735075D
:103E000048F04E0F5F1F50930E0440930D048193B2
:103E1000919302C0E0E0F0E0CF01DF91CF911F91DC
:103E20000F910895CF93DF93009709F481C0FC01AF
:103E3000329713821282A0910F04B0911004109750
:103E400081F420813181820F931F20910D043091E4
:103E50000E042817390751F5F0930E04E0930D0472
:103E600067C0ED0120E030E0CE17DF0740F44A8163
:103E70005B819E0141155105F1F0EA01F5CFD38335
:103E8000C28340815181840F951FC817D90759F407
:103E900088819981840F951F0296918380838A81FE
:103EA0009B81938382832115310529F4F0931004BB
:103EB000E0930F043DC0E901FB83EA8349915991E6
:103EC000C40FD51FEC17FD0761F480819181840F29
:103ED000951F0296E90199838883828193819B8350
:103EE0008A83E0E0F0E012968D919C911397009701
:103EF00019F0FD01DC01F7CF8D919C9111979D0187
:103F00002E5F3F4F820F931F20910D0430910E04BE
:103F10002817390769F4309729F410921004109289
:103F20000F0402C013821282B0930E04A0930D04FA
:103F3000DF91CF910895A0E0B0E0E1EAFFE10C94B9
:103F40003E23EC01009721F4CB010E947A1EB4C0FD
:103F5000FC01E60FF71F9C0122503109E217F3071D
:103F600008F4A8C0D9010D911C91119706171707E5
:103F7000B0F00530110508F49BC0C80104978617FE
:103F8000970708F495C002501109061B170B0193FF
:103F900011936D937C93CF010E94121F89C05B0126
:103FA000A01AB10A4C01800E911EA0910F04B0918D
:103FB0001004612C712CE12CF12C109709F446C0EF
:103FC0008D919C911197A815B905B1F56C0142E04E
:103FD000C40ED11CCA14DB0478F14C018A189B086A
:103FE000640142E0C40ED11C1296BC901297139645
:103FF000AC91B5E0CB16D10440F0B282A38391829C
:104000008082D9016D937C9309C00E5F1F4F800F92
:10401000911FF90191838083EB2DFA2FE114F104B4
:1040200031F0D7011396FC93EE93129741C0F093B1
:104030001004E0930F043CC06816790608F43C01B4
:104040007D0112960D90BC91A02DB7CF80910D04EB
:1040500090910E0488169906E1F466167706C8F466
:104060008091000190910101009741F48DB79EB7B6
:104070004091040150910501841B950BE817F90745
:10408000C8F4F0930E04E0930D04F901718360838A
:104090000FC0CB010E947A1E7C01009759F0A80145
:1040A000BE010E946120CE010E94121FC70104C000
:1040B000CE0102C080E090E0CDB7DEB7EEE00C9418
:1040C0005A23FB01DC0102C001900D924150504087
:1040D000D8F70895DC0101C06D9341505040E0F7DE
:1040E0000895FB01DC0101900D920020E1F7089595
:1040F000FB01DC014150504048F001900D9200203E
:10410000C9F701C01D9241505040E0F70895AEE05C
:10411000B0E0EDE8F0E20C9448230D891E8986E0BA
:104120008C831A8309838FEF9FE79E838D83AE0173
:10413000475E5F4F6F89788DCE0101960E94A9205E
:10414000EF81F885E00FF11F10822E96E4E00C94C9
:104150006423ABE0B0E0EFEAF0E20C943A236C01A8
:104160007B018A01FC0117821682838181FFCCC109
:10417000CE0101963C01F6019381F70193FD8591F3
:1041800093FF81917F01882309F4BAC1853239F404
:1041900093FD859193FF81917F01853229F4B601CA
:1041A00090E00E94A022E7CF912C212C312CFFE13E
:1041B000F315D8F08B3279F038F4803279F083320D
:1041C000A1F4232D20611DC08D3261F0803369F48C
:1041D000232D216016C0832D8260382EE32DE460EC
:1041E0003E2E2AC0F32DF8601DC037FC2DC020EDF7
:1041F000280F2A3040F08E32B9F436FC81C1232DCD
:104200002064322E19C036FE06C08AE0989E200D2A
:104210001124922E11C0EAE02E9E200D1124222E90
:10422000F32DF0623F2E08C08C3621F4832D806878
:10423000382E02C0883641F4F70193FD859193FF33
:1042400081917F018111B3CF982F9F7D9554933039
:1042500028F40C5F1F4F9FE399830DC0833631F024
:10426000833771F0833509F059C021C0F80180818E
:1042700089830E5F1F4F88248394912C530113C0B0
:104280002801F2E04F0E511CF801A080B18036FEEB
:1042900003C0692D70E002C06FEF7FEFC5010E947F
:1042A00095224C018201F32DFF773F2E16C0280185
:1042B00022E0420E511CF801A080B18036FE03C0FE
:1042C000692D70E002C06FEF7FEFC5010E948A2266
:1042D0004C01F32DF0683F2E820133FC1BC0822D70
:1042E00090E088169906B0F4B60180E290E00E9452
:1042F000A0222A94F4CFF50137FC859137FE8191F5
:104300005F01B60190E00E94A02221102A9421E0D2
:10431000821A91088114910471F7E8C0843611F073
:10432000893641F5F80137FE07C0608171818281CD
:1043300093810C5F1F4F08C060817181072E000CB4
:10434000880B990B0E5F1F4FF32DFF763F2E97FFC3
:1043500009C090958095709561957F4F8F4F9F4FC5
:10436000F0683F2E2AE030E0A3010E94DC22882E74
:10437000861845C0853731F4232D2F7EB22E2AE0D2
:1043800030E025C0932D997FB92E8F36C1F018F4F7
:10439000883579F0B5C0803719F0883721F0B0C082
:1043A000E92FE061BE2EB4FE0DC0FB2DF460BF2EE0
:1043B00009C034FE0AC0292F2660B22E06C028E0AC
:1043C00030E005C020E130E002C020E132E0F80139
:1043D000B7FE07C060817181828193810C5F1F4F9E
:1043E00006C06081718180E090E00E5F1F4FA301E5
:1043F0000E94DC22882E8618FB2DFF773F2E36FE8A
:104400000DC0232D2E7FA22E891458F434FE0BC02C
:1044100032FC09C0832D8E7EA82E05C0B82CA32C9B
:1044200003C0B82C01C0B92CA4FE0FC0FE01E80DDA
:10443000F11D8081803321F49A2D997EA92E09C027
:10444000A2FE06C0B394B39404C08A2D867809F006
:10445000B394A3FC11C0A0FE06C0B21488F4280CCB
:10446000922C9B180EC0B21460F4B60180E290E06A
:104470000E94A022B394F7CFB21418F42B1802C0F4
:10448000982C212CA4FE10C0B60180E390E00E947D
:10449000A022A2FE17C0A1FC03C088E790E002C0E2
:1044A00088E590E0B6010CC08A2D867859F0A1FE0F
:1044B00002C08BE201C080E2A7FC8DE2B60190E071
:1044C0000E94A022891438F4B60180E390E00E9493
:1044D000A0229A94F7CF8A94F301E80DF11D808110
:1044E000B60190E00E94A0228110F5CF222009F4AD
:1044F00042CEB60180E290E00E94A0222A94F6CF3C
:10450000F6018681978102C08FEF9FEF2B96E2E143
:104510000C945623FC010590615070400110D8F7AF
:10452000809590958E0F9F1F0895FC0161507040FB
:1045300001900110D8F7809590958E0F9F1F0895D8
:104540000F931F93CF93DF93FB01238121FD03C0C2
:104550008FEF9FEF2CC022FF16C046815781248128
:1045600035814217530744F4A081B1819D012F5F2B
:104570003F4F318320838C93268137812F5F3F4FBC
:104580003783268314C08B01EC01FB010084F18585
:10459000E02D0995892BE1F6D80116968D919C9115
:1045A0001797019617969C938E931697CE01DF91DD
:1045B000CF911F910F910895FA01AA27283051F148
:1045C000203181F1E8946F936E7F6E5F7F4F8F4F44
:1045D0009F4FAF4FB1E03ED0B4E03CD0670F781FA3
:1045E000891F9A1FA11D680F791F8A1F911DA11D88
:1045F0006A0F711D811D911DA11D20D009F46894C1
:104600003F912AE0269F11243019305D3193DEF668
:10461000CF010895462F4770405D4193B3E00FD01E
:10462000C9F7F6CF462F4F70405D4A3318F0495D09
:1046300031FD4052419302D0A9F7EACFB4E0A695EC
:104640009795879577956795BA95C9F7009761050E
:10465000710508959B01AC010A2E06945795479564
:1046600037952795BA95C9F7620F731F841F951F59
:10467000A01D08952F923F924F925F926F927F926A
:104680008F929F92AF92BF92CF92DF92EF92FF9262
:104690000F931F93CF93DF93CDB7DEB7CA1BDB0B0E
:1046A0000FB6F894DEBF0FBECDBF09942A883988B3
:1046B00048885F846E847D848C849B84AA84B984BA
:1046C000C884DF80EE80FD800C811B81AA81B981C6
:1046D000CE0FD11D0FB6F894DEBF0FBECDBFED01DA
:0646E0000895F894FFCFDD
:1046E6000000110480007800DF1200000000FF25A2
:1046F600303275206425303175202530327500251D
:104706003032752D253032752064253031750025FF
:1047160034752D253032752D2530327520253032F1
:10472600753A253032753A25303275202E0020250F
:1047360034752D253032752D253032752000202018
:1047460020202020202000202534752D253032758C
:104756002D2530327520642531752020253032759F
:104766002D253032752D25303275202025303275B5
:10477600232530317543200025303275232530310D
:1047860075430025303275202530327520253032AC
:104796007500000000006F08420816081E0832085F
:1047A6004108203A20307800060000000000000092
:1047B60000000000000000000500000000000000EE
:1047C60004000000030002018040201008040201DA
:1047D60011C1638561714391F38751E313D5C531E7
:1047E600197349E1C78381938925039F250D99494B
:1047F600411F011900000000F015581782159C157D
:104806008E1537160D0A006E616E00696E66006FB2
:0448160076660000C2
:00000001FF
