:100000000C9423010C9452150C9479150C94A015A2
:100010000C944B010C944B010C944B010C944B0130
:100020000C944B010C94AF1D0C944B010C944B01A0
:100030000C944B010C944B010C944B010C944B0110
:100040000C944B010C944B010C94C7150C944B0170
:100050000C940A190C943C190C944B010C944B0110
:100060000C944B010C944B010C94430C0C944B01DD
:100070000C944B010C944B010C944B01F10D0A0EA6
:100080000A0E080E0A0EEF0D0A0E0A0E0A0EE20DF7
:100090000A0E0A0EFA0D060E040E0A0E0A0E0A0EBB
:1000A000020E536574205375636365737366756CD4
:1000B0000068683A6D6D206D6F646500456E74650B
:1000C0007220616C61726D2074696D6520666F725B
:1000D0006D617420286D6F64652069732031207410
:1000E0006F20362C20342069732070657220646183
:1000F000792900536574205375636365737366755E
:100100006C006D6D6D2D64642D7979797920686846
:100110002D6D6D2D73732073616D706C6520696E2C
:100120007075743A2044656320323620323030399D
:100130002031323A33343A353600456E74657220D8
:100140006461746520666F726D6174006B457874CC
:10015000506F77657250696E3A3D00526570656107
:1001600074204D6F6465205365743A20002D2D2D49
:100170002D2D2D2D2D2D2D2D2D2D2D2D2D2D2D2DAF
:100180000043686F6F73652061206D656E7520692F
:1001900074656D3A004120736574205B415D6C614C
:1001A000726D2074696D65005420736574205B5412
:1001B0005D696D65001F1C1F1E1F1E1F1F1E1F1E59
:1001C0001F000000020300000000000000050409F9
:1001D0000800000000000000000000000000000017
:1001E0000001020408102040800102040810204091
:1001F0008001020408102040800102040810204001
:100200008002020202020202020404040404040442
:1002100004030303030303030301010101010101BB
:1002200001000020002300260029000000220025F4
:100230000028002B0000002100240027002A0002D3
:10024000D203780B6C1911241FBECFEFD0E1DEBFB3
:10025000CDBF12E0A0E0B1E0E8E6FCE402C005900A
:100260000D92AA35B107D9F724E0AAE5B2E001C0A2
:100270001D92AF33B207E1F711E0C3E2D1E004C051
:100280002197FE010E941B21C032D107C9F70E94AD
:100290009A190C9432260C94000081E080938A0213
:1002A0000895DC01ED91FC910190F081E02D09941D
:1002B0006AE470E080EC92E00E94F70A61E070E08E
:1002C00080EC92E00E94510161E370E080EC92E0EA
:1002D0000E94510180EC92E00E94750B6AE070E090
:1002E00080E090E00E94421660E470E080EC92E0D2
:1002F0000E94F70A62E070E080EC92E00E945101F7
:1003000060E070E080EC92E00E94510160E070E0FB
:1003100080EC92E00E94510180EC92E00C94750B0D
:10032000CF93DF9300D000D000D0CDB7DEB7CE01A1
:1003300001960E94CF0ECE0101960E94240E1F92BC
:100340008F938D811F928F938C811F928F938EE05C
:1003500091E09F938F9383E692E09F938F930E9407
:1003600048234CE463E672E08BE892E00E94FA13C3
:1003700041E060E070E08BE892E00E94A31441E06D
:1003800061E070E08BE892E00E94A31441E062E03B
:1003900070E08BE892E00E94A31441E063E070E01B
:1003A0008BE892E00E94A31441E064E070E08BE8E7
:1003B00092E00E94A31441E065E070E08BE892E0D7
:1003C0000E94A31444EF51E060E070E08BE892E0FB
:1003D0000E94A91440E060E070E08BE892E00E9487
:1003E000A31440E061E070E08BE892E00E94A31467
:1003F00040E062E070E08BE892E00E94A31440E0ED
:1004000063E070E08BE892E00E94A31440E064E0B7
:1004100070E08BE892E00E94A31440E065E070E099
:100420008BE892E00E94A31444EF51E060E070E09A
:100430008BE892E00E94A9140FB6F894DEBF0FBEBD
:10044000CDBF26960FB6F894DEBF0FBECDBFDF91AD
:10045000CF9108950F931F93CF93DF9300D000D0D7
:1004600000D0CDB7DEB7CE0101960E94CF0E0B8132
:100470001A81CE0101960E94240E1F920F931F92A3
:100480001F931F928F938DE191E09F938F9383E64B
:1004900092E09F938F930E9448234CE463E672E0BE
:1004A0008BE892E00E94FA1340ED57E060E070E0C4
:1004B0008BE892E00E94A9140FB6F894DEBF0FBE3D
:1004C000CDBF26960FB6F894DEBF0FBECDBFDF912D
:1004D000CF911F910F910895EF92FF920F93CF93B9
:1004E000DF9300D000D000D0CDB7DEB785E0E82E96
:1004F000F12C6DE271E08EE592E00E94322303E47C
:1005000024EF31E040E050E06EE572E08BE892E0ED
:100510000E94DA1462E371E0CE0101960E94BA1ED5
:100520004CE4BE016F5F7F4F8BE892E00E947F1426
:1005300048E552E060E070E08BE892E00E94A91488
:10054000CE0101960E944C1E81E0E81AF10889F65E
:1005500026960FB6F894DEBF0FBECDBFDF91CF91C8
:100560000F91FF90EF900895EF92FF920F93CF932A
:10057000DF9300D000D000D0CDB7DEB785E0E82E05
:10058000F12C6BE371E08EE592E00E94322303E4EC
:100590002CE231E040E050E06EE572E08BE892E062
:1005A0000E94DA1462E371E0CE0101960E94BA1E45
:1005B0004CE4BE016F5F7F4F8BE892E00E947F1496
:1005C0004CE251E060E070E08BE892E00E94A914F8
:1005D000CE0101960E944C1E81E0E81AF10889F6CE
:1005E00026960FB6F894DEBF0FBECDBFDF91CF9138
:1005F0000F91FF90EF9008950F9303E428EB3BE0F9
:1006000040E050E062E471E08BE892E00E94DA148E
:100610000F9108950F9303E428EB3BE040E050E096
:1006200065E471E08BE892E00E94DA140F9108957E
:10063000CF93DF9300D000D000D0CDB7DEB7CE018E
:1006400001960E94CF0E8E811F928F938D811F92F3
:100650008F938C811F928F938B811F928F938A81AE
:100660001F928F93898190E08053984F9F938F932F
:1006700089E491E09F938F9383E692E09F938F9319
:100680000E94482363E672E089E893E00E942B1AF7
:100690000FB6F894DEBF0FBECDBF26960FB6F89406
:1006A000DEBF0FBECDBFDF91CF9108950F931F9393
:1006B000CF93DF9303E010E0C0E0D0E08FE10E9431
:1006C000BC16C80FD91F01501109C1F7CE0163E054
:1006D00070E00E94C620CB01DF91CF911F910F9156
:1006E0000895CF93DF93EB0120E030E0A901BC0136
:1006F0008CE00E940D1B88E78C9FB0018D9F700DD0
:100700001124072E000C880B990BDF91CF910C94CC
:100710004216CF93DF93EC018CE00E949A1D88E78C
:100720008C9FB0018D9F700D1124072E000C880B3B
:10073000990BDF91CF910C94421690917A009F779C
:1007400090937A008A30A9F083FD02C098E001C03E
:1007500098E28770892B98E10FB6F894A89590934A
:1007600060000FBE80936000809160008064809381
:10077000600083B7817F846083BFF89483B7816012
:1007800083BF85B7806685BF8F7D85BF7894889548
:1007900083B78E7F83BF789480917A00806880933E
:1007A0007A000895EF92FF920F931F9388E0E82E4E
:1007B000F12C00E010E02DE030E04FE050E06EE082
:1007C00070E08BE892E00E948C121F910F91FF90D5
:1007D000EF900895AF92BF92CF92DF92EF92FF9287
:1007E0000F931F93CF93DF93CDB7DEB769970FB603
:1007F000F894DEBF0FBECDBF6AE371E089E893E0F5
:100800000E94191A62E071E089E893E00E94191AC7
:1008100089E893E00E94D3174497D4F38E010F5FC9
:100820001F4F7E018CE0E80EF11C580189E893E02F
:100830000E94ED17F80181938F01EE15FF05B1F7C6
:1008400089E893E00E94ED1767018E010C5E1F4F4F
:1008500089E893E00E94ED17F60181936F010E176E
:100860001F07B1F76AE070E080E090E00E94421656
:1008700089E893E00E948818A701B501C8010E9489
:10088000C30DC8010E94DF106AE070E080E090E0D4
:100890000E944216B50189E893E00E942B1AC80114
:1008A0000E94CF0EC8010E94240E182F68E670E047
:1008B00080EC92E00E94F70A64E070E080EC92E045
:1008C0000E945101612F80EC92E00E94AE0A80EC00
:1008D00092E00E94750B63EF70E089E893E00E945C
:1008E000191A69960FB6F894DEBF0FBECDBFDF911F
:1008F000CF911F910F91FF90EF90DF90CF90BF901D
:10090000AF900895BF92CF92DF92EF92FF920F9334
:100910001F93CF93DF93CDB7DEB72C970FB6F89424
:10092000DEBF0FBECDBFCE0107960E94CF0ED8848A
:10093000B9846CEB70E089E893E00E94191A61EBCE
:1009400070E089E893E00E94191A89E893E00E9418
:10095000D3170897D4F389E893E00E94ED17182F76
:10096000682F89E893E00E94411889E893E00E948B
:10097000ED17082F682F89E893E00E944118110FA6
:100980001056812F880F880F180F0053010F89E828
:1009900093E00E94ED17682F89E893E00E944118C8
:1009A00089E893E00E94ED17182F682F89E893E0FB
:1009B0000E94411889E893E00E94ED17F82E682FF5
:1009C00089E893E00E944118110F1056E12EEE0CB9
:1009D000EE0C1E0D80ED8F0DE12EE80E89E893E000
:1009E0000E94ED17682F89E893E00E94411889E87A
:1009F00093E00E94ED17182F682F89E893E00E947A
:100A0000411869E371E089E893E00E942B1A6AE0DB
:100A100070E080E090E00E94421689E893E00E9436
:100A20008818C12C2B2D4D2D63EE77E0CE01019659
:100A30000E94AF0DCE0101960E947D1160ED610F05
:100A400070E08FEB92E00E948E0F62EA70E089E81E
:100A500093E00E94191A2C960FB6F894DEBF0FBED1
:100A6000CDBFDF91CF911F910F91FF90EF90DF905D
:100A7000CF90BF9008951F93CF93DF936AE470E007
:100A800080EC92E00E94F70A61E070E080EC92E076
:100A90000E94510180EC92E00E94750B65E070E0CD
:100AA00080E090E00E94421641E050E06AE470E08D
:100AB00080EC92E00E94700B80EC92E00E945D0A54
:100AC000182F6AE470E080EC92E00E94F70A61E07F
:100AD00070E080EC92E00E945101612F606480EC34
:100AE00092E00E94AE0A80EC92E00E94750B6AE4EC
:100AF00071E080E090E00E9442166AE470E080ECD1
:100B000092E00E94F70A60E070E080EC92E00E94C0
:100B1000510180EC92E00E94750B42E050E06AE4E3
:100B200070E080EC92E00E94700B80EC92E00E94FA
:100B30005D0A182F80EC92E00E945D0AD12F20E020
:100B4000C22F9E01282BC90124E0959587952A95EF
:100B5000E1F7DF91CF911F9108951F93CF93DF931A
:100B600060E470E080EC92E00E94F70A61E070E0DF
:100B700080EC92E00E94510180EC92E00E94750BA3
:100B80006AE070E080E090E00E94421642E050E0AF
:100B900060E470E080EC92E00E94700B80EC92E0E8
:100BA0000E945D0A182F80EC92E00E945D0AD12F0E
:100BB00090E0C92FBE01682B80E090E00E949B1F4F
:100BC00020E030E040E857E30E94292020E030E0B8
:100BD00048EC52E40E942920DF91CF911F910895A3
:100BE0000F931F93CF93DF930E943B05EC010E946C
:100BF0003B058C010E94AD050E946C1F1F926F93F4
:100C0000BE016F707727072E000C880B990B0E948E
:100C10009D1F20E030E040E25FE30E9429200E9417
:100C20006C1F1F926F93B801110F880B990B0E94D4
:100C30009D1F20E030E040E85DE30E9429200E94F3
:100C40006C1F1F926F9382E791E09F938F9383E6CF
:100C500092E09F938F930E9448234CE463E672E0F6
:100C60008BE892E00E94FA138DB79EB70A960FB6F2
:100C7000F8949EBF0FBE8DBF4CEA5DE060E070E06F
:100C80008BE892E0DF91CF911F910F910C94A91402
:100C9000CF93DF9300D000D000D0CDB7DEB7CE0128
:100CA00001960E94CF0ECE0101960E94240E86303E
:100CB00011F0811103C01092890203C081E080937A
:100CC00089028E811F928F938D811F928F938C81C9
:100CD0001F928F938FE791E09F938F9383E692E02B
:100CE0009F938F930E9448234CE463E672E08BE865
:100CF00092E00E94FA1341E060E070E08BE892E03D
:100D00000E94A31441E061E070E08BE892E00E9451
:100D1000A31441E062E070E08BE892E00E94A3142B
:100D200041E063E070E08BE892E00E94A31441E0B0
:100D300064E070E08BE892E00E94A31441E065E07B
:100D400070E08BE892E00E94A31444EF51E060E071
:100D500070E08BE892E00E94A91440E060E070E04F
:100D60008BE892E00E94A31440E061E070E08BE821
:100D700092E00E94A31440E062E070E08BE892E011
:100D80000E94A31440E063E070E08BE892E00E94D0
:100D9000A31440E064E070E08BE892E00E94A314AA
:100DA00040E065E070E08BE892E00E94A31444EF1D
:100DB00051E060E070E08BE892E00E94A91480911D
:100DC0005C0290915D02019664E270E00E94C62090
:100DD0000FB6F894DEBF0FBECDBF892B11F40E9471
:100DE000F00526960FB6F894DEBF0FBECDBFDF919B
:100DF000CF9108954F925F926F927F928F929F92C0
:100E0000AF92BF92CF92DF92EF92FF920F931F9318
:100E1000CF93DF93CDB7DEB762970FB6F894DEBFFE
:100E20000FBECDBF0E943B054C010E94AD052B01BA
:100E30003C010E945603BC01990F880B990B1F922D
:100E40001F921F9224E62F93A12CB12C650114ED63
:100E5000E12E13E0F12E00E010E02EEE32E040E053
:100E600050E00E940B1EE62ED72ECE010D960E945A
:100E7000CF0EF9880889CE010D960E94240E182FF6
:100E8000DF92EF92C301B2010E946C1F1F926F9319
:100E9000B401990C880B990B0E949D1F20E030E053
:100EA00040E85DE30E9429200E946C1F1F926F930F
:100EB0001F92FF921F920F931F921F938F851F9275
:100EC0008F938E851F928F938D8590E08053984FDE
:100ED0009F938F938EE891E09F938F9383E692E0A8
:100EE0009F938F930E94482363E672E0CE0107969A
:100EF0000E94BA1E62E371E0CE0101960E94BA1E02
:100F0000BE01695F7F4FCE0101960E94141FBC0194
:100F1000CE0107960E94CF1ECE0101960E944C1E64
:100F20000FB6F894DEBF0FBECDBF8B859C85892B95
:100F3000A9F00CE426E232E040E050E0BE01695F37
:100F40007F4F8BE892E00E94F31441E050E060E0B4
:100F500070E0CE0107960E94381FE7CFCE010796BA
:100F60000E944C1E62960FB6F894DEBF0FBECDBF36
:100F7000DF91CF911F910F91FF90EF90DF90CF9075
:100F8000BF90AF909F908F907F906F905F904F90A9
:100F90000895AF92BF92CF92DF92EF92FF920F939C
:100FA0001F93CF93DF9360E082E00E94061760E01A
:100FB00081E00E94061761E08CE00E94061761E064
:100FC00080E00E94061761E080E00E94421782E004
:100FD0000E94B91610928A0281E080938902809360
:100FE000880226E040E056E960E070E089E893E09E
:100FF0000E94AA180E945B0E8FEB92E00E9479106B
:101000000E9458010E9418036DE472E089E893E0A1
:101010000E942B1A68EA71E089E893E00E94191A8D
:1010200065E971E089E893E00E94191A6DE472E0C5
:1010300089E893E00E942B1A61E871E089E893E067
:101040000E94191A6DE671E089E893E00E94191A6E
:101050000E946C020E945603EC016CEB71E089E87F
:1010600093E00E940C1A4AE050E0BE0189E893E048
:101070000E94FB1ABE01DD0F880B990B1F921F9275
:101080001F9224E62F93A12CB12C650114EDE12EC3
:1010900013E0F12E00E010E02EEE32E040E050E0F0
:1010A0000E940B1E6B017C0169EC71E089E893E002
:1010B0000E940C1A4AE050E0B60189E893E00E94D1
:1010C000FB1A89E893E00E94D3170F900F900F90BE
:1010D0000F901816190614F589E893E00E94ED1791
:1010E00099278435910559F024F48134910551F004
:1010F0000BC08136910531F08437910529F40E94A7
:10110000EA0302C00E9482046AE070E080E090E09E
:101110000E94421689E893E00E9488186BE571E00E
:1011200089E893E00E94E8198FEB92E00E942C106E
:101130004AE050E0BC0189E893E00E94FB1A61E0BC
:101140008FEB92E00E94510F0E949A100E94FA06C3
:1011500080918802882319F00E94FC0202C00E943C
:101160000A03109287021092860210925D0210927A
:101170005C0210925B0210925A0281E00E94711789
:10118000C82F6CE471E089E893E00E94E8194AE016
:1011900050E06C2F89E893E0DF91CF911F910F9180
:1011A000FF90EF90DF90CF90BF90AF900C949A1A81
:1011B000CF93DF93EC0160E570E080EC92E00E9459
:1011C000F70A6D2F70E080EC92E00E945101BE01A1
:1011D000772780EC92E00E94510160E080EC92E081
:1011E0000E94F90A42E050E060E570E080EC92E095
:1011F0000E94700B80EC92E00E945D0AC82F80EC88
:1012000092E00E945D0A982F88278C0F911DDF9134
:10121000CF910895CF93DF93C0E0D0E0CE010E943C
:10122000D80862E070E00E9471032296C039D105AF
:10123000A9F782E090E00E948903CCEDD0E08CE039
:101240000E949A1D64E670E080E090E00E944216E1
:1012500020E030E0A90162E078E08CE00E940D1B04
:101260006AE570E080E090E00E944216219739F72D
:101270008CE0DF91CF910C949A1D82E00E9471174F
:10128000892B21F565E070E080E090E00E94421635
:1012900082E00E9471178FEB92E00E947910892BF7
:1012A00009F451C080918902882309F44CC08091CF
:1012B0008802882309F447C00E940A091092870215
:1012C0001092860210925D0210925C0281E00E94F0
:1012D0007117892B31F080915C0290915D02C39768
:1012E000E4F50E9456038E3F924024F560E080E0D2
:1012F0000E94421780915C0290915D02019668E71E
:1013000070E00E94C620892BA9F40E94B40242E03A
:1013100050E06DE471E082E00E940D156AE070E03B
:1013200080E090E00E9442168AE00E949D0382E0E5
:101330000E943C150E945603883093409CF061E067
:1013400080E00C944217809186029091870201966A
:101350009093870280938602B5CF10925D0210921F
:101360005C02BFCF089580918A028823E1F082E079
:101370000E943C1510928A0280918802882319F0FD
:101380000E94FC0202C00E940A030E94FA06109208
:1013900087021092860210925D0210925C021092F7
:1013A0005B0210925A0280918602909187028230ED
:1013B000910511F144F40097E1F0019709F040C064
:1013C0000E94900125C08430910539F1FCF0059709
:1013D000B9F50E94B40242E050E06DE471E082E0B1
:1013E0000E940D158AE00E949D0382E00E943C1538
:1013F00027C00E94480632C00E942A0280915A02E9
:1014000090915B0284309105ACF010C00E94F00511
:1014100010925B0210925A0221C00E94FA0680913B
:101420005A0290915B021816190624F41092870252
:1014300010928602019690935B0280935A020EC02E
:10144000109287021092860280918802882319F0F8
:101450001092880203C081E08093880280915C0230
:1014600090915D0288359240A9F40E94B40242E056
:1014700050E06DE471E082E00E940D156AE070E0DA
:1014800080E090E00E9442168AE00E949D0382E084
:101490000E943C1580915C0290915D0201969093B0
:1014A0005D0280935C020C943D098091F00290E013
:1014B0002091F102821B910908959091F10280918F
:1014C000F002981750F4E92FF0E0EE50FD4F208124
:1014D00030E09F5F9093F10202C02FEF3FEFC90110
:1014E0000895E091F1028091F002E81730F4F0E005
:1014F000EE50FD4F808190E008958FEF9FEF0895AB
:101500000895CF92DF92EF92FF920F931F93CF93A4
:10151000DF937C01CB018A012091CC02222389F048
:10152000EB016B01C40ED51ECC15DD0569F0699188
:10153000D701ED91FC910190F081E02DC701099553
:10154000F3CF642F0E941A0CC801DF91CF911F9135
:101550000F91FF90EF90DF90CF900895CF93DF939E
:101560001F92CDB7DEB769832091CC022223D1F040
:101570002091CD02203240F021E030E0FC013383A5
:10158000228380E090E015C08091CE02E82FF0E049
:10159000E153FD4F998190838F5F8093CE028093BA
:1015A000CD0205C061E0CE0101960E941A0C81E0D7
:1015B00090E00F90DF91CF910895FC011382128289
:1015C00088EE93E0A0E0B0E084839583A683B783A0
:1015D0008DED91E091838083089581E08093CC022A
:1015E0006093EF021092CE021092CD0208950C94F7
:1015F000ED0A0F93062F21E04091CD026FEC72E0CF
:101600008091EF020E94C40B1092CE021092CD0284
:101610001092CC020F9108954F925F926F927F9239
:10162000AF92BF92CF92EF92FF920F931F93CF93FF
:10163000DF935C01F62ED42F28013901EE2021F131
:101640000E94ED0ACE2DC43008F0C3E0C150C0F0B6
:1016500028E0C29FC0011124A301920104C0569545
:101660004795379527958A95D2F7CA01B901D501D3
:10167000ED91FC910190F081E02DC5010995E6CF37
:1016800060E0C5010E94F90A4D2FD13208F040E216
:101690002C2D62EF72E08F2D0E947C0B1092F102D4
:1016A0008093F002DF91CF911F910F91FF90EF9007
:1016B000CF90BF90AF907F906F905F904F900895C4
:1016C000CF92EF920F931F93C22EE12C00E010E017
:1016D00098010E940C0B1F910F91EF90CF900895ED
:1016E00021E00C94600B0C94600B61E00C94F90AFF
:1016F00080EC92E00C94DD0A413208F043C09091F6
:101700007F039111FCCF91E090937F0320937D03A1
:101710002FEF2093120310925703240F20935603A8
:1017200090937E0390917E03880F892B80937E0394
:1017300080917C03813061F410927C0380917E0360
:101740008093BB008091BC0083FDF8CF85EC01C085
:1017500085EE8093BC0080917F038130E1F380911E
:101760005703841710F440915703A8E5B3E0962F70
:10177000FB018E2F891B841718F48D918193F9CF6B
:10178000842F089580E008950F93413208F04AC0F5
:1017900090917F039111FCCF32E030937F0300934F
:1017A0007D033FEF3093120310925703409356038B
:1017B000562FA8E5B3E0FB013E2F351B341718F474
:1017C00031913D93F9CF10927E0330917E03880FC3
:1017D000832B80937E0380917C03813061F410928F
:1017E0007C0380917E038093BB008091BC0083FDCD
:1017F000F8CF85EC01C085EE8093BC00222321F058
:1018000080917F038230D1F3809112038F3F79F072
:1018100080911203803241F080911203803331F0C5
:1018200094E005C091E003C092E001C093E0892FED
:101830000F910895613298F420917F03243089F448
:1018400060933403282FA6E3B3E0FC018E2F821BA4
:10185000861718F481918D93F9CF80E0089581E087
:10186000089582E0089585ED8093BC008091BC00CE
:1018700084FDFCCF10927F03089585EC8093BC001B
:1018800010927F0308951F920F920FB60F921124AA
:101890002F933F934F935F936F937F938F939F9378
:1018A000AF93BF93EF93FF938091B900887F803609
:1018B00009F49EC078F5883209F45DC090F4803157
:1018C00009F456C038F4882309F4F5C0883009F4C7
:1018D0004FC0F5C0883109F44EC0803209F45FC0B2
:1018E000EEC0803409F46AC058F4803309F457C05C
:1018F000883309F0E4C0809312030E943D0CDFC0DE
:10190000803509F44FC0883509F45DC0883409F08A
:10191000D6C0D3C0883909F4C4C0A8F4883709F404
:1019200067C038F4883609F463C0803709F460C0B2
:10193000C6C0883809F4B5C0803909F45FC0803862
:1019400009F0BDC05BC0803B09F483C038F4803A25
:1019500009F466C0883A09F47CC0B1C0803C09F43F
:10196000A4C0883C09F4A1C0883B09F487C0A7C083
:1019700080917E0310C09091570380915603981771
:1019800070F5E091570381E08E0F80935703F0E0EC
:10199000E85AFC4F80818093BB0085EC83C0809324
:1019A00012038BC0E091570381E08E0F80935703A1
:1019B0008091BB00F0E0E85AFC4F80839091570380
:1019C000809156036BC0E091570381E08E0F8093A6
:1019D00057038091BB00F0E0E85AFC4F8083809170
:1019E0007D0381116AC081E080937C0384EA5EC03C
:1019F00083E080937F0310921303CFCF8091130372
:101A0000803208F04EC0E091130381E08E0F809386
:101A100013038091BB00F0E0EC5EFC4F8083BDCFF0
:101A20000E943D0C80911303803230F4E091130347
:101A3000F0E0EC5EFC4F10826091130370E0E091E7
:101A40007803F091790384E193E0099510921303F0
:101A500036C084E080937F031092350310923403E4
:101A6000E0917A03F0917B03099580913403811111
:101A700005C081E08093340310923603E091350372
:101A800081E08E0F80933503F0E0EA5CFC4F8081AB
:101A90008093BB009091350380913403981708F42C
:101AA0007CCF85E88093BC000AC085EC8093BC00A5
:101AB00010927F0304C0109212030E94330CFF9116
:101AC000EF91BF91AF919F918F917F916F915F91B6
:101AD0004F913F912F910F900FBE0F901F9018952F
:101AE000803D27E0920710F0805D974050E0E5EBE5
:101AF000F1E021E0261730F43491430F511D2F5FA0
:101B00003196F8CF633038F09C0123703327232BB4
:101B100011F44F5F5F4FBC016D5F7F4F7695679506
:101B200076956795EDE6F1E08E9F90018F9F300DE1
:101B30009E9F300D1124C9010197860F971F840FB6
:101B4000951F0895FC01908190539A3008F090E021
:101B5000818180532AE0929F800D11240895CF92B5
:101B6000EF920F93FC01603D87E0780710F0605D15
:101B700077406083418322830383E482C5820F918F
:101B8000EF90CF900895EF92FF920F931F93CF9312
:101B9000DF93EC018B017A01CB0109960E94A20D23
:101BA0008883D801EC918E2FEE0F990BAA0BBB0BFB
:101BB000FC01E154F109E331F10560F5E25CFF4F0E
:101BC0000C941B21F8018181813629F082818E36A7
:101BD00021F087E01EC081E01CC086E01AC082E0D0
:101BE00018C0D80112968C91823711F088E011C08C
:101BF00084E00FC0F8018281823711F085E009C0CE
:101C000083E007C089E005C08AE003C08BE001C023
:101C10008CE08983C80104960E94A20D8A83C701C3
:101C20000E94A20D8B83C70103960E94A20D8C8394
:101C3000C70106960E94A20D8D83DF91CF911F915F
:101C40000F91FF90EF900895FC01808142816181A6
:101C500090E00E94700D069667E070E00E94B2204E
:101C6000089568E670E080EC92E00E94F70A60E078
:101C700070E080EC92E00E94510180EC92E00C94C4
:101C8000750B0F931F93CF93DF93082FC8E0D0E01D
:101C900010E8802F812311F061E301C060E389E83F
:101CA00093E00E940E1A1695219799F7DF91CF9134
:101CB0001F910F910895CF93DF9368E670E080EC59
:101CC00092E00E94F70A68E070E080EC92E00E94E7
:101CD000510180EC92E00E94750B41E050E068E613
:101CE00070E080EC92E00E94700B80EC92E00E9429
:101CF0005D0AEC0187FF16C068E670E080EC92E0B8
:101D00000E94F70A68E070E080EC92E00E945101C6
:101D1000BE01606880EC92E00E94510180EC92E08C
:101D20000E94750B6AE070E080E090E00E9442162D
:101D300068E670E080EC92E00E94F70A6AE070E0EA
:101D400080EC92E00E94510180EC92E00E94750BC1
:101D500041E050E068E670E080EC92E00E94700B99
:101D600080EC92E00E945D0AEC0168E670E080EC95
:101D700092E00E94F70A6AE070E080EC92E00E9434
:101D80005101BE016F7980EC92E00E94510180EC1C
:101D900092E00E94750B81E0DF91CF910895CF9280
:101DA000DF92EF92FF920F931F93CF93DF93EC019B
:101DB00068E670E080EC92E00E94F70A61E070E073
:101DC00080EC92E00E94510180EC92E00E94750B41
:101DD00021E030E047E050E068E670E080EC92E01F
:101DE0000E94730B80EC92E00E945D0A8F77982F1F
:101DF00092959F701AEF082F919F000D112480EC8F
:101E000092E00E945D0A8F77982F92959F70C82E5E
:101E1000919FC00C112480EC92E00E945D0A8F73A8
:101E2000982F92959F70D82E919FD00C112480EC02
:101E300092E00E945D0A80EC92E00E945D0A8F733E
:101E4000982F92959F70F82E919FF00C112480ECA2
:101E500092E00E945D0A8F71982F92959F70E82EF4
:101E6000919FE00C112480EC92E00E945D0A9C019D
:101E7000332794E0359527959A95E1F7129F800DC9
:101E800011248883E982FA82DB82CC820D83CE0121
:101E9000DF91CF911F910F91FF90EF90DF90CF9046
:101EA0000895CF93DF93C62F68E670E080EC92E050
:101EB0000E94F70A6AE070E080EC92E00E94510113
:101EC00080EC92E00E94750B41E050E068E670E023
:101ED00080EC92E00E94700B80EC92E00E945D0A20
:101EE000CC2319F0EC01C06802C0EC01CF7768E6A2
:101EF00070E080EC92E00E94F70A6AE070E080EC0B
:101F000092E00E945101BE0180EC92E00E945101DA
:101F100080EC92E0DF91CF910C94750BAF92BF9261
:101F2000CF92DF92EF92FF920F931F93CF93DF93A5
:101F30005B0168E670E080EC92E00E94F70A6BE0DB
:101F400070E080EC92E00E94510180EC92E00E94EF
:101F5000750B44E050E068E670E080EC92E00E948F
:101F6000700B80EC92E00E945D0AEC0180EC92E044
:101F70000E945D0A6C0180EC92E00E945D0A7C0187
:101F800080EC92E00E945D0A8C0183E0A816B10407
:101F900011F154F481E0A816B104B1F082E0A81662
:101FA000B10451F50F7711C085E0A816B104E9F02E
:101FB000B4F086E0A816B104F9F40F77E894E7F8D6
:101FC000E894C7F8CF7318C000686894E7F868947D
:101FD000C7F8C06C11C00F77E894E7F8F8CF0F7717
:101FE000E894E7F8E894C7F8F4CF0F77E894E7F8B7
:101FF000E894C7F8CF77C06468E670E080EC92E0C0
:102000000E94F70A6BE070E080EC92E00E945101C0
:10201000BE0180EC92E00E945101B60180EC92E09A
:102020000E945101B70180EC92E00E945101B80179
:1020300080EC92E00E94510180EC92E00E94750BCE
:10204000DF91CF911F910F91FF90EF90DF90CF9094
:10205000BF90AF900C94310EFF920F931F93CF93CC
:10206000DF9368E670E080EC92E00E94F70A6BE094
:1020700070E080EC92E00E94510180EC92E00E94BE
:10208000750B44E050E068E670E080EC92E00E945E
:10209000700B80EC92E00E945D0A182F80EC92E0B9
:1020A0000E945D0A082F80EC92E00E945D0AF82EE3
:1020B00080EC92E00E945D0A87FB882780F9C82F98
:1020C00080E0D82FF7FCC26007FDC46017FDC86030
:1020D00016FDC061C151DE4FC8810C2E000CDD0B16
:1020E0000E94310ECE01DF91CF911F910F91FF9091
:1020F000089568E670E080EC92E00E94F70A6FE0D5
:1021000070E080EC92E00E94510180EC92E00E942D
:10211000750B41E050E068E670E080EC92E00E94D0
:10212000700B80EC92E00E945D0A86FB882780F9A4
:1021300090E00895CF93DF9368E670E080EC92E042
:102140000E94F70A60E070E080EC92E00E9451018A
:1021500080EC92E00E94750B40E150E068E670E090
:1021600080EC92E00E94700BC0E0D0E080EC92E046
:102170000E945D0A0E94410E69EE71E089E893E0D9
:102180000E940C1A40E150E0BE0189E893E00E94F1
:10219000FB1A2196C031D10549F768E670E080EC62
:1021A00092E00E94F70A60E070E080EC92E00E940A
:1021B000510180EC92E0DF91CF910C94750BEF927E
:1021C000FF920F931F93CF938C0168E670E080EC31
:1021D00092E00E94F70A64E070E080EC92E00E94D6
:1021E000510180EC92E00E94750B41E050E068E6FE
:1021F00070E080EC92E00E94700B80EC92E00E9414
:102200005D0A7C0168E670E080EC92E00E94F70ACB
:1022100061E070E080EC92E00E945101F8012581BC
:10222000CAE0822F6C2F0E94A620682F660F860FAF
:10223000880F682F620F80EC92E00E94AE0AF801CE
:102240002481822F6C2F0E94A620682F660F860F94
:10225000880F682F620F80EC92E00E94AE0AF801AE
:102260002381822F6C2F0E94A620682F660F860F75
:10227000880F682F620F80EC92E00E94AE0AB701CF
:1022800080EC92E00E945101F8012281822F6C2F94
:102290000E94A620682F660F860F880F682F620F96
:1022A00080EC92E00E94AE0AF8012181822F6C2F0F
:1022B0000E94A620682F660F860F880F682F620F76
:1022C00080EC92E00E94AE0AF8012081822F6C2FF0
:1022D0000E94A620682F660F860F880F682F620F56
:1022E00080EC92E00E94AE0A80EC92E0CF911F91C8
:1022F0000F91FF90EF900C94750B1F93CF93DF938A
:10230000EC0168E670E080EC92E00E94F70A6AE077
:1023100070E080EC92E00E94510129811AE0822F46
:10232000612F0E94A620682F660F860F880F682FE6
:10233000620F80EC92E00E94AE0A2A81822F612F08
:102340000E94A620682F660F860F880F682F620FE5
:1023500080EC92E00E94AE0A2B81822F612F0E94B6
:10236000A620682F660F860F880F682F620F80ECFB
:1023700092E00E94AE0A2C81822F612F0E94A6203B
:10238000682F660F860F880F682F620F80EC92E02F
:102390000E94AE0A2D81822F612F0E94A620682FF5
:1023A000660F860F880F682F620F80EC92E00E9404
:1023B000AE0A60E070E080EC92E00E94510180EC97
:1023C00092E0DF91CF911F910C94750BEF92FF92E9
:1023D0000F931F93CF93DF93EC017C018CE2E80E07
:1023E000F11C0FE012E028853985C8018F5092401A
:1023F000821793072CF560E088810E9442178E8136
:102400009F81F8012081892B09F0209540E06A81A5
:102410008C810E949A17F70121917F0140E06A8127
:102420008C810E949A1761E088810E94421761E0C6
:1024300070E080E090E00E9442160F5F1F4FD3CF04
:10244000DF91CF911F910F91FF90EF900895CF935F
:10245000DF93EC0160E088810E94421720E041E0B8
:102460006A818C810E949A1720E041E06A818C8108
:102470000E949A1761E08881DF91CF910C944217F6
:10248000CF93DF93EC01862F688379835B834A8344
:102490003D832C8361E00E94061761E08A810E94DF
:1024A000061761E08C810E940617CE01DF91CF9163
:1024B0000C942712EF92FF920F931F93CF93DF9309
:1024C000EC010E944012CE018C9661E001151105CD
:1024D00009F460E0619570E048E050E00E942B2331
:1024E00088E0E816F1041CF49E2D8F2D02C098E0C0
:1024F00080E01F830E839887898721E030E03B8747
:102500002A879C878D871D8E1C8EDF91CF911F910E
:102510000F91FF90EF900895EF92FF920F931F930A
:102520000E945A121F910F91FF90EF900895CF9340
:10253000DF93EC01645D7F4FFC01E60FF71FD901CB
:10254000CD01821B930B841795075CF48E819F81CC
:10255000892B11F09C9102C09C91909591931196BA
:10256000EFCFDF91CF910895FC0126813781E60FEF
:10257000F71F442319F0232B31F402C0232B19F049
:1025800084A5816002C084A58E7F84A708950F93DF
:102590001F93CF93DF93EA01D9018FEF97EF4FEEAF
:1025A0005DEFFD01E21BF30BE617F70784F5E991F8
:1025B000F0EDFE0FFA3030F40E2E000CFF0BEF5F43
:1025C000FD4F09C0FFE9FE0FFA3140F40E2E000C5A
:1025D000FF0BEA54FE4FE081EC9317C0FFEBFE0FB8
:1025E000FA3130F40E2E000CFF0BEA52FE4FF3CFFF
:1025F000ED3211F45C9309C0EF3511F44C9305C032
:10260000E33211F49C9301C08C931196CACF0F3F13
:102610008FEF180731F0F901E00FF11F8081816021
:102620008083DF91CF911F910F910895CF92DF9218
:10263000EF92FF920F931F93CF93DF93EE2DD9016B
:102640001197EC3429F46150710980E090E017C0D3
:10265000C901861B970BE23511F4BD0108C097FD37
:10266000019695958795680F791F61507109F8015A
:10267000C0E27F01E01AF10AE816F90614F0FA0147
:1026800006C0C193F6CF97FF06C001963196681732
:102690007907CCF709C0A817B907BCF34081E80156
:1026A000C80FD91F4883F1CFFB013196E00FF11F0E
:1026B00080E2AF01401B510B4217530714F4819382
:1026C000F8CF8FEFC816D80639F06C197D0977FD61
:1026D00003C0A617B7071CF48FEF9FEF01C0CB0113
:1026E000DF91CF911F910F91FF90EF90DF90CF90EE
:1026F00008952F923F924F925F926F927F928F92A6
:102700009F92AF92BF92CF92DF92EF92FF920F9380
:102710001F93CF93DF93CDB7DEB75C016DB67EB666
:1027200077FD50C0FC0182859385681779070CF00E
:1027300049C0FA0101900020E9F73197CF01841BCD
:10274000950B660F771F1501260E371EF101848445
:1027500095846DB77EB7681979090FB6F8947EBF76
:102760000FBE6DBFEDB7FEB731962F01CC24CA94D2
:10277000DC2CE22E8F019401BC01C5010E941613CE
:102780006DB77EB7681979090FB6F8947EBF0FBE92
:102790006DBF8DB79EB701967C010FEF1FEF9C01B7
:1027A000A201B401C5010E94C712F101648D758DAB
:1027B0009701A401C5010E9497120FB6F8947EBE3E
:1027C0000FBE6DBE0FB6F8947EBE0FBE6DBEDF911C
:1027D000CF911F910F91FF90EF90DF90CF90BF901E
:1027E000AF909F908F907F906F905F904F903F90B1
:1027F0002F900895242FAB0160E070E00C947913C2
:102800002F923F924F925F926F927F928F929F9200
:10281000AF92BF92CF92DF92EF92FF920F931F93EE
:10282000CF93DF9300D01F92CDB7DEB75C016B0171
:102830003A0129838DB79EB79B838A8377FD42C077
:10284000F5018285938568177907E4F52DB63EB6C4
:1028500000E010E0B801C3010E94271F98012F5F1C
:102860003F4F882311F08901F5CF8DB79EB7821BAA
:10287000930B0FB6F8949EBF0FBE8DBFEDB7FEB79A
:1028800031962F014F01E12CF12C0E151F0559F047
:10289000B701C3010E94271FF40181934F01FFEF8D
:1028A000EF1AFF0AF2CFF201E00FF11F1082298127
:1028B000A201B601C5010E9479130FB6F8943EBE7D
:1028C0000FBE2DBE8A819B810FB6F8949EBF0FBEAE
:1028D0008DBF0F900F900F90DF91CF911F910F91AF
:1028E000FF90EF90DF90CF90BF90AF909F908F9030
:1028F0007F906F905F904F903F902F900895242F7E
:10290000AB0160E070E00C94001477FD1BC0DC01AB
:102910001A96ED91FC911B976E177F079CF457FD5B
:1029200011C0660F771FFC01E60FF71F64857585E0
:10293000461757073CF4648D758D640F751F422F41
:102940000C94B4120895242FAB0160E070E00C9455
:102950008514CF92DF92EF92FF920F931F93CF9344
:10296000DF93EC016A017B010E941116088519852D
:10297000012E000C220B330BC01AD10AE20AF30A13
:10298000C60ED71EE81EF91E0E941116C616D706DF
:10299000E806F90620F0CE010E94E611F5CFCE013F
:1029A000DF91CF911F910F91FF90EF90DF90CF902B
:1029B0000C942712CF92DF92EF92FF920F93CF9356
:1029C000DF93EC0169017A01402F0E94FA13B701ED
:1029D000A601CE01DF91CF910F91FF90EF90DF9094
:1029E000CF900C94A914CF92DF92EF92FF920F93A5
:1029F000CF93DF93EC0169017A01402F0E947F148D
:102A0000B701A601CE01DF91CF910F91FF90EF901A
:102A1000DF90CF900C94A9140895833060F5E82FCF
:102A2000F0E0EE0FFF1FEA5FFE4F7183608381309D
:102A300051F08230A1F0809169008C7F482B409347
:102A40006900E89A089580916900837F440F551FBB
:102A5000440F551F482B40936900E99A08958091CF
:102A600069008F7C94E0440F551F9A95E1F7482B3D
:102A700040936900EA9A0895833098F4813021F0F8
:102A8000823021F0E89803C0E99801C0EA98E82F65
:102A9000F0E0EE0FFF1FEA5FFE4F8CE095E19183BF
:102AA000808308951F920F920FB60F9211242F93D7
:102AB0003F934F935F936F937F938F939F93AF93C6
:102AC000BF93EF93FF93E0910601F0910701099501
:102AD000FF91EF91BF91AF919F918F917F916F91F6
:102AE0005F914F913F912F910F900FBE0F901F90CC
:102AF00018951F920F920FB60F9211242F933F93A8
:102B00004F935F936F937F938F939F93AF93BF93F5
:102B1000EF93FF93E0910801F09109010995FF916E
:102B2000EF91BF91AF919F918F917F916F915F9145
:102B30004F913F912F910F900FBE0F901F901895BE
:102B40001F920F920FB60F9211242F933F934F9322
:102B50005F936F937F938F939F93AF93BF93EF9305
:102B6000FF93E0910A01F0910B010995FF91EF911C
:102B7000BF91AF919F918F917F916F915F914F9195
:102B80003F912F910F900FBE0F901F9018951F929D
:102B90000F920FB60F9211242F933F938F939F9311
:102BA000AF93BF938091810390918203A09183039F
:102BB000B09184033091800326E0230F2D3720F459
:102BC0000296A11DB11D05C029E8230F0396A11D82
:102BD000B11D209380038093810390938203A0937F
:102BE0008303B09384038091850390918603A09121
:102BF0008703B09188030196A11DB11D80938503C1
:102C000090938603A0938703B0938803BF91AF91FD
:102C10009F918F913F912F910F900FBE0F901F901A
:102C200018952FB7F8946091810370918203809179
:102C30008303909184032FBF08953FB7F894809148
:102C4000850390918603A0918703B091880326B5F0
:102C5000A89B05C02F3F19F00196A11DB11D3FBFD4
:102C6000BA2FA92F982F8827820F911DA11DB11D62
:102C7000BC01CD0143E0660F771F881F991F4A955D
:102C8000D1F708958F929F92AF92BF92CF92DF9229
:102C9000EF92FF926B017C010E941D164B015C01BB
:102CA000C114D104E104F10401F10E946B1F0E94E0
:102CB0001D16DC01CB0188199909AA09BB09883EB8
:102CC0009340A105B10560F321E0C21AD108E108E3
:102CD000F10888EE880E83E0981EA11CB11CC11477
:102CE000D104E104F10419F7DBCFFF90EF90DF90FE
:102CF000CF90BF90AF909F908F900895789484B5B7
:102D0000826084BD84B5816084BD85B5826085BDE7
:102D100085B5816085BDEEE6F0E0808181608083CD
:102D2000E1E8F0E0108280818260808380818160B0
:102D30008083E0E8F0E0808181608083E1EBF0E077
:102D4000808184608083E0EBF0E08081816080831B
:102D5000EAE7F0E080818460808380818260808304
:102D600080818E7F80838081806880831092C10003
:102D7000089580930C010895883028F0883110F070
:102D8000885101C08FEF20910C0190E4299F9001A0
:102D900011248770822B80937C0080917A0080645C
:102DA00080937A0080917A0086FDFCCF8091780034
:102DB0002091790090E0922B0895843081F028F4DE
:102DC000823099F08330A1F008958830A9F08930DD
:102DD000B9F08530D1F4809180008F7D03C080915F
:102DE00080008F7780938000089584B58F7702C02C
:102DF00084B58F7D84BD08958091B0008F7703C026
:102E00008091B0008F7D8093B0000895CF93DF93C1
:102E100090E0FC01EF51FE4F2491FC01EF5FFD4F6C
:102E20008491882361F190E0880F991FFC01EB5C8D
:102E3000FD4FC591D491FC01E55DFD4FA591B49185
:102E4000611109C09FB7F8948881209582238883F7
:102E5000EC912E230BC0623061F49FB7F894888107
:102E6000322F309583238883EC912E2B2C939FBF98
:102E700006C08FB7F894E8812E2B28838FBFDF918F
:102E8000CF9108951F93CF93DF93282F30E0F9015E
:102E9000EF53FE4F8491F901EF51FE4FD491F901A8
:102EA000EF5FFD4FC491CC23C1F0162F81110E941A
:102EB000DD16EC2FF0E0EE0FFF1FE55DFD4FA59155
:102EC000B4919FB7F894111104C08C91D095D82378
:102ED00002C0EC91DE2BDC939FBFDF91CF911F915D
:102EE0000895CF93DF93282F30E0F901EF53FE4F81
:102EF0008491F901EF51FE4FD491F901EF5FFD4F3D
:102F0000C491CC2391F081110E94DD16EC2FF0E0EA
:102F1000EE0FFF1FEF5DFD4FA591B491EC91ED23F6
:102F200081E090E021F480E002C080E090E0DF9159
:102F3000CF910895BF92CF92DF92EF92FF920F93BD
:102F40001F93CF93DF93C82ED62EB42EC7E0D0E0C8
:102F5000022F10E087E0E82EF12CB11005C0C70168
:102F60008C1B9D0BB80102C0B8018C2F02C0759557
:102F700067958A95E2F761708C2D0E94421761E097
:102F80008D2D0E94421760E08D2D0E9442172197DF
:102F900020F7DF91CF911F910F91FF90EF90DF907D
:102FA000CF90BF900895FC01918D228D892F90E0E4
:102FB000805C9F4F821B91098F7399270895FC01B4
:102FC000918D828D981731F0828DE80FF11D858DDE
:102FD00090E008958FEF9FEF0895FC01918D828D11
:102FE000981761F0828DDF01A80FB11D5D968C915D
:102FF000928D9F5F9F73928F90E008958FEF9FEF68
:10300000089582E699E1892B41F080E090E0892BD8
:1030100021F00E94621981110DC080E090E0892B9F
:1030200071F080E090E0892B51F00E940000811146
:1030300004C008950E940000F0CF0C940000089591
:10304000FC01848DDF01A80FB11DA35ABF4F2C9145
:10305000848D90E001968F739927848FA689B78914
:103060002C93A089B1898C9180648C93938D848DED
:10307000981306C00288F389E02D80818F7D8083BC
:103080000895EF92FF920F931F93CF93DF93EC017C
:1030900081E0888F9B8D8C8D981305C0E889F98914
:1030A000808185FD24C0F62E0B8D10E00F5F1F4F31
:1030B0000F731127E02E8C8DE8120CC00FB607FCA1
:1030C000FACFE889F989808185FFF5CFCE010E948A
:1030D0002018F1CF8B8DFE01E80FF11DE35AFF4F51
:1030E000F0820B8FEA89FB898081806207C0EE89BC
:1030F000FF896083E889F98980818064808381E029
:1031000090E0DF91CF911F910F91FF90EF90089584
:10311000CF93DF93EC01888D8823C9F0EA89FB897E
:10312000808185FD05C0A889B9898C9186FD0FC075
:103130000FB607FCF5CF808185FFF2CFA889B9894A
:103140008C9185FFEDCFCE010E942018E7CFDF9153
:10315000CF910895CF92DF92EF92FF921F93CF937A
:10316000DF93EC016A017B01122F60E874E88EE1C5
:1031700090E0A70196010E94DA20DA01C9010197C7
:10318000A109B109B695A795979587959C01E889FE
:10319000F98982E08083211580E13807A8F0E88969
:1031A000F989108260E472E48FE090E0A701960153
:1031B0000E94DA20DA01C9010197A109B109B69587
:1031C000A795979587959C01EC85FD853083EE85C5
:1031D000FF852083188EEC89FD891083EA89FB899D
:1031E000808180618083EA89FB8980818860808317
:1031F000EA89FB89808180688083EA89FB898081F4
:103200008F7D8083DF91CF911F91FF90EF90DF90B2
:10321000CF9008951F920F920FB60F9211242F9303
:103220008F939F93EF93FF93E0919903F0919A030B
:103230008081E0919F03F091A00382FD12C09081F4
:103240008091A2038F5F8F732091A303821751F0A7
:10325000E091A203F0E0E757FC4F958F8093A20323
:1032600001C08081FF91EF919F918F912F910F90DD
:103270000FBE0F901F9018951F920F920FB60F92CE
:1032800011242F933F934F935F936F937F938F936B
:103290009F93AF93BF93EF93FF9389E893E00E94CE
:1032A0002018FF91EF91BF91AF919F918F917F91E6
:1032B0006F915F914F913F912F910F900FBE0F90A3
:1032C0001F90189589E893E00E94D31721E0892B7D
:1032D00009F420E0822F0895E9E8F3E013821282D6
:1032E00088EE93E0A0E0B0E084839583A683B78363
:1032F0008FE392E09183808385EC90E095878487CB
:1033000084EC90E09787868780EC90E0918B808BAF
:1033100081EC90E0938B828B82EC90E0958B848B98
:1033200086EC90E0978B868B118E128E138E148E06
:10333000089508950E947E160E9499190E94C90757
:10334000C1E0D8E10E94B3092097E1F30E9401187F
:10335000F9CFCF92DF92EF92FF920F931F93CF930B
:10336000DF936C017A018B01C0E0D0E0CE15DF0560
:1033700081F0D8016D918D01D601ED91FC91019004
:10338000F081E02DC6010995892B11F02196EECF31
:103390007E01C701DF91CF911F910F91FF90EF90B8
:1033A000DF90CF9008956115710579F0FB010190D0
:1033B0000020E9F73197AF01461B570BDC01ED9177
:1033C000FC910280F381E02D099480E090E0089563
:1033D000EF92FF920F931F93CF93DF938C017B01AA
:1033E000C0E0D0E0F701EC0FFD1F6491662361F0AF
:1033F000D801ED91FC910190F081E02DC801099573
:10340000892B11F02196EECFCE01DF91CF911F9144
:103410000F91FF90EF9008950C94D319DC01ED917A
:10342000FC910190F081E02D09946BE472E00C9422
:10343000D3190F931F93CF93DF93EC010E94E819E8
:103440008C01CE010E94151A800F911FDF91CF9140
:103450001F910F9108950F931F93CF93DF93EC016A
:103460000E94D3198C01CE010E94151A800F911F62
:10347000DF91CF911F910F9108958F929F92AF92FC
:10348000BF92EF92FF920F931F93CF93DF93CDB72D
:10349000DEB7A1970FB6F894DEBF0FBECDBF7C019B
:1034A000FA01CB0119A2223008F42AE08E010F5D47
:1034B0001F4F822E912CA12CB12CBF01A50194018C
:1034C0000E94DA20F901CA01015011096A3014F48E
:1034D000605D01C0695CD8016C93232B242B252BE4
:1034E00061F7B801C7010E94D319A1960FB6F894ED
:1034F000DEBF0FBECDBFDF91CF911F910F91FF9027
:10350000EF90BF90AF909F908F9008952115310557
:1035100041F4DC01ED91FC910190F081E02D642FEC
:1035200009940C943D1A9A01462F50E060E070E037
:103530000C94861A0F931F93CF93DF93EC010E9494
:10354000931A8C01CE010E94151A800F911FDF91F2
:10355000CF911F910F910895CF92DF92EF92FF923A
:103560000F931F93CF93DF932115310581F4DC0175
:10357000ED91FC910190F081E02D642FDF91CF91CE
:103580001F910F91FF90EF90DF90CF9009942A3018
:10359000310501F577FF1DC06A017B01EC016DE289
:1035A0000E940E1A8C0144275527BA014C195D0957
:1035B0006E097F092AE0CE010E943D1A800F911FFB
:1035C000DF91CF911F910F91FF90EF90DF90CF90FF
:1035D00008952AE0DF91CF911F910F91FF90EF9016
:1035E000DF90CF900C943D1A9A01AB01770F660BD8
:1035F000770B0C94AC1A0F931F93CF93DF93EC01CE
:103600000E94F41A8C01CE010E94151A800F911F9E
:10361000DF91CF911F910F9108954F925F926F921A
:103620007F928F929F92AF92BF92CF92DF92EF9252
:10363000FF920F931F93CF93DF9300D000D01F9280
:10364000CDB7DEB78B0129013A0190910D018917A1
:1036500021F09F3F09F038C205C0EFE3F2E024916A
:103660002D8384C080930D01EFE3F2E094919D835C
:103670009F3F09F429C2913009F44DC058F19230AE
:1036800009F074C01092B0001092B1009091B00097
:1036900092609093B0009091B10091609093B100CE
:1036A000282F30E0F901EF5FFD4FE491F0E0EE0FDD
:1036B000FF1FE55DFD4F45915491509328044093C1
:1036C0002704F901EF51FE4FE491E093260492E0C4
:1036D0009D83F6C114BC15BC94B5926094BD95B59C
:1036E000916095BD282F30E0F901EF5FFD4FE49127
:1036F000F0E0EE0FFF1FE55DFD4F459154915093B3
:10370000360440933504F901EF51FE4FE491E09304
:1037100034041D82D5C110928000109281009091D6
:1037200081009860909381009091810091609093C6
:103730008100282F30E0F901EF5FFD4FE491F0E0C8
:10374000EE0FFF1FE55DFD4F4591549150932F04FF
:1037500040932E04F901EF51FE4FE491E0932D04C4
:1037600061E00E94061721E02D83A5C02D8127FD71
:10377000ABC161E00E9406178D818D7F09F09BC06F
:103780004801A12CB12C60E079E08DE390E0A50127
:1037900094010E94FC2029833A834B835C83690156
:1037A0007A0181E0C81AD108E108F1089FEFC91633
:1037B000D104E104F10409F008F461C060E271EAA7
:1037C00087E090E0A50194010E94FC2069017A0144
:1037D00081E0C81AD108E108F1089D81923009F012
:1037E000F4C02FEFC216D104E104F10409F008F48B
:1037F00058C068E478EE81E090E0A50194010E9451
:10380000FC2069017A0181E0C81AD108E108F108B9
:103810009FEFC916D104E104F10409F008F44EC188
:1038200064E274EF80E090E0A50194010E94FC2026
:1038300069017A0181E0C81AD108E108F1089FEF17
:10384000C916D104E104F10471F168F162E17AE78B
:1038500080E090E0A50194010E94FC2069017A01BA
:1038600081E0C81AD108E108F1089FEFC916D10418
:10387000E104F10411F008F0C9C085E015C081E051
:103880009D81911111C095B5987F892B85BD4114FB
:1038900051046104710409F04FC02FEF3FEFA901FB
:1038A00063C082E001C084E09091B100987F892BD1
:1038B0008093B1003CC04801A12CB12C60E079E0BC
:1038C0008DE390E0A50194010E94FC2069017A013A
:1038D00081E0C81AD108E108F108C114D10491E0CF
:1038E000E906F10488F064E274EF80E090E0A5015D
:1038F00094010E94FC2069017A0181E0C81AD10874
:10390000E108F10883E001C081E09D81913079F404
:1039100090918100987F892B8093810041145104FC
:103920006104710449F42FEF3FEFA9012CC0411449
:1039300051046104710471F0D801AA0FBB1FA301E7
:1039400092010E94302128EE33E040E050E00E94D6
:10395000DA2003C02FEF3FEFA9018D81813099F06C
:10396000823019F18111B0C0C7BC20933704309365
:1039700038044093390450933A0480916E00826079
:1039800080936E00A1C0D0928900C09288002093DD
:1039900030043093310440933204509333048091C7
:1039A0006F00826080936F008FC0C092B30020933D
:1039B000290430932A0440932B0450932C048091C3
:1039C00070008260809370007FC08FEFC816D104B2
:1039D000E104F104C9F0C0F064E274EF80E090E02B
:1039E000A50194010E94FC2069017A0191E0C91AA5
:1039F000D108E108F1082FEFC216D104E104F10467
:103A000009F080F583E03CCF82E03ACF69E07DE3C6
:103A100080E090E0A50194010E94FC2069017A01F8
:103A200081E0C81AD108E108F1089FEFC916D10456
:103A3000E104F104A9F0A0F089819A81AB81BC81F5
:103A40002AE0B595A795979587952A95D1F76C01AA
:103A50007D0121E0C21AD108E108F10887E024CFF6
:103A600086E022CF69E07DE380E090E0A50194014B
:103A70000E94FC2069017A0181E0C81AD108E1089E
:103A8000F1089FEFC916D104E104F104A9F0A0F0F8
:103A900089819A81AB81BC814AE0B595A7959795BC
:103AA00087954A95D1F76C017D0121E0C21AD108B2
:103AB000E108F10885E0E4CE84E0E2CE83E0F4CED4
:103AC00061E00E9406175CCE0F900F900F900F9050
:103AD0000F90DF91CF911F910F91FF90EF90DF90AA
:103AE000CF90BF90AF909F908F907F906F905F909E
:103AF0004F900895813039F018F0823051F00895D8
:103B000010926E00089580916F008D7F80936F00FA
:103B10000895809170008D7F8093700081E0809384
:103B2000B0008091B100887F84608093B1001092D2
:103B3000B3000895CF93C82F80910D01C81307C01B
:103B4000EFE3F2E084919FEF90930D0101C08FEFBE
:103B50000E947A1D60E08C2FCF910C9442171F9227
:103B60000F920FB60F9211242F933F934F935F93B1
:103B70006F937F938F939F93AF93BF93EF93FF9335
:103B80008091290490912A04A0912B04B0912C04D7
:103B9000892B8A2B8B2B51F190912604E0912704DD
:103BA000F091280480818927808380912904909155
:103BB0002A04A0912B04B0912C04181619061A0699
:103BC0001B06C4F48091290490912A04A0912B042F
:103BD000B0912C040197A109B10980932904909315
:103BE0002A04A0932B04B0932C0404C080910D01EF
:103BF0000E949A1DFF91EF91BF91AF919F918F917C
:103C00007F916F915F914F913F912F910F900FBED8
:103C10000F901F9018954F925F926F927F92AF9284
:103C2000BF92CF92DF92EF92FF920F931F93CF93A9
:103C3000DF93CDB7DEB729013A019B01AC0124190E
:103C400035094609570989899A89AB89BC89BC011C
:103C5000CD016A197B098C099D090E949620A80153
:103C6000970124193509460957090E94FC20CA0109
:103C7000B9016A0D7B1D8C1D9D1DDF91CF911F9198
:103C80000F91FF90EF90DF90CF90BF90AF907F901B
:103C90006F905F904F900895FC01808191810C940A
:103CA000D321CF93DF93EC0188819981009711F0A4
:103CB0000E94D321198218821D821C821B821A82C3
:103CC000DF91CF9108950F931F93CF93DF93EC0172
:103CD0008B016F5F7F4F888199810E945C220097E2
:103CE00031F0998388831B830A8381E001C080E0DF
:103CF000DF91CF911F910F910895CF93DF93EC0146
:103D000088819981892B29F08A819B818617970761
:103D100060F4CE010E94631E882341F08C819D8156
:103D2000892B19F4E881F981108281E0DF91CF912C
:103D30000895EF92FF920F931F93CF93DF93EC01BF
:103D40007B018A01BA010E947D1E811104C0CE014F
:103D50000E94511E07C01D830C83B7018881998181
:103D60000E943223CE01DF91CF911F910F91FF90DE
:103D7000EF900895FC011182108213821282158245
:103D800014826115710551F0FB0101900020E9F7E3
:103D90003197AF01461B570B0C94991E0895CF9392
:103DA000DF93EC01FB018617970761F06081718159
:103DB0006115710529F0448155810E94991E02C048
:103DC0000E94511ECE01DF91CF910895EF92FF9294
:103DD0000F931F93CF93DF936115710511F480E06A
:103DE0001CC041155105C1F07B01EC018C819D8106
:103DF0008A01080F191FB801CE010E947D1E882379
:103E000071F3288139818C819D81B701820F931FC5
:103E10000E9432231D830C8381E0DF91CF911F919B
:103E20000F91FF90EF900895CF93DF93EC01FB018A
:103E300044815581608171810E94E61E811103C019
:103E4000CE010E94511ECE01DF91CF910895FC0159
:103E5000248135816217730748F48081918100972E
:103E600029F0FC01E60FF71F8081089580E0089596
:103E7000CF93DF93DC011496ED91FC9115976E17AB
:103E80007F0730F54115510519F1DF01A61BB70B6E
:103E90009A01A417B50708F49D01DB01EC018881A4
:103EA0009981E21BF30BFD83EC83AF01461B570B9B
:103EB000260F371FBC01620F731F8A0F9B1F0E94C2
:103EC0003923E881F9818C819D81E80FF91F1082E7
:103ED000DF91CF91089508950E94082088F09F57A0
:103EE00098F0B92F9927B751B0F0E1F0660F771F1E
:103EF000881F991F1AF0BA95C9F714C0B13091F014
:103F00000E942220B1E008950C942220672F782F80
:103F10008827B85F39F0B93FCCF3869577956795D8
:103F2000B395D9F73EF490958095709561957F4F44
:103F30008F4F9F4F0895E89409C097FB3EF49095EA
:103F40008095709561957F4F8F4F9F4F9923A9F072
:103F5000F92F96E9BB279395F69587957795679501
:103F6000B795F111F8CFFAF4BB0F11F460FF1BC045
:103F70006F5F7F4F8F4F9F4F16C0882311F096E9D8
:103F800011C0772321F09EE8872F762F05C0662386
:103F900071F096E8862F70E060E02AF09A95660F3F
:103FA000771F881FDAF7880F9695879597F90895F8
:103FB00097F99F6780E870E060E008959FEF80ECDC
:103FC000089500240A94161617061806090608957F
:103FD00000240A9412161306140605060895092EE5
:103FE0000394000C11F4882352F0BB0F40F4BF2B54
:103FF00011F460FF04C06F5F7F4F8F4F9F4F089594
:1040000057FD9058440F551F59F05F3F71F0479589
:10401000880F97FB991F61F09F3F79F0879508956E
:10402000121613061406551FF2CF4695F1DF08C08D
:10403000161617061806991FF1CF869571056105AA
:1040400008940895E894BB2766277727CB0197F952
:1040500008950E943C200C94EF1F0E94E11F38F04D
:104060000E94E81F20F0952311F00C94D81F0C94A7
:10407000DE1F11240C9423200E94002070F3959FD2
:10408000C1F3950F50E0551F629FF001729FBB274F
:10409000F00DB11D639FAA27F00DB11DAA1F649FEB
:1040A0006627B00DA11D661F829F2227B00DA11D9E
:1040B000621F739FB00DA11D621F839FA00D611D24
:1040C000221F749F3327A00D611D231F849F600D45
:1040D000211D822F762F6A2F11249F5750409AF06E
:1040E000F1F088234AF0EE0FFF1FBB1F661F771FFA
:1040F000881F91505040A9F79E3F510580F00C94C5
:10410000D81F0C9423205F3FE4F3983ED4F38695A8
:1041100077956795B795F795E7959F5FC1F7FE2B64
:10412000880F911D9695879597F90895DB018F93D8
:104130009F930E943021BF91AF91A29F800D911D4E
:10414000A39F900DB29F900D11240895991B79E0C3
:1041500004C0991F961708F0961B881F7A95C9F717
:1041600080950895AA1BBB1B51E107C0AA1FBB1F66
:10417000A617B70710F0A61BB70B881F991F5A95F3
:10418000A9F780959095BC01CD01089597FB072E66
:1041900016F4009407D077FD09D00E94B22007FCE6
:1041A00005D03EF4909581959F4F08957095619547
:1041B0007F4F0895A1E21A2EAA1BBB1BFD010DC063
:1041C000AA1FBB1FEE1FFF1FA217B307E407F507C7
:1041D00020F0A21BB30BE40BF50B661F771F881FA3
:1041E000991F1A9469F760957095809590959B0139
:1041F000AC01BD01CF010895052E97FB1EF400947C
:104200000E94132157FD07D00E94DA2007FC03D03B
:104210004EF40C94132150954095309521953F4FC5
:104220004F4F5F4F089590958095709561957F4FA2
:104230008F4F9F4F0895EE0FFF1F0590F491E02DD3
:104240000994A29FB001B39FC001A39F700D811D6F
:104250001124911DB29F700D811D1124911D08958F
:104260000E942121A59F900DB49F900DA49F800DC9
:10427000911D112408950F931F93CF93DF938230E4
:10428000910510F482E090E0E0913D04F0913E044D
:1042900020E030E0A0E0B0E0309719F1408151819A
:1042A0000281138148175907C8F08417950769F4EC
:1042B000109731F012960C93129713961C9327C007
:1042C00000933D0410933E0422C02115310519F0DE
:1042D0004217530718F49A01BD01EF01DF01F801FD
:1042E000DBCF21153105F9F0281B390B24303105BE
:1042F00080F48A819B816115710521F0FB01938314
:10430000828304C090933E0480933D04FE01329664
:1043100044C0FE01E20FF31F8193919322503109B3
:10432000398328833AC020913B0430913C04232BED
:1043300041F4209102013091030130933C04209319
:104340003B0420910001309101012115310541F418
:104350002DB73EB74091040150910501241B350B48
:10436000E0913B04F0913C04E217F307A0F42E1B0C
:104370003F0B2817390778F0AC014E5F5F4F2417C9
:10438000350748F04E0F5F1F50933C0440933B04A9
:104390008193919302C0E0E0F0E0CF01DF91CF91F3
:1043A0001F910F910895CF93DF93009709F481C077
:1043B000FC01329713821282A0913D04B0913E0419
:1043C000109781F420813181820F931F20913B044B
:1043D00030913C042817390751F5F0933C04E093E1
:1043E0003B0467C0ED0120E030E0CE17DF0740F46A
:1043F0004A815B819E0141155105F1F0EA01F5CF3B
:10440000D383C28340815181840F951FC817D90778
:1044100059F488819981840F951F02969183808336
:104420008A819B81938382832115310529F4F0933E
:104430003E04E0933D043DC0E901FB83EA834991DA
:104440005991C40FD51FEC17FD0761F4808191814C
:10445000840F951F0296E901998388838281938155
:104460009B838A83E0E0F0E012968D919C911397F4
:10447000009719F0FD01DC01F7CF8D919C91119708
:104480009D012E5F3F4F820F931F20913B0430917F
:104490003C042817390769F4309729F410923E0438
:1044A00010923D0402C013821282B0933C04A09388
:1044B0003B04DF91CF910895A0E0B0E0E2E6F2E2A4
:1044C0000C94FF25EC01009721F4CB010E943B21C5
:1044D000B4C0FC01E60FF71F9C0122503109E2171E
:1044E000F30708F4A8C0D9010D911C911197061784
:1044F0001707B0F00530110508F49BC0C8010497F8
:104500008617970708F495C002501109061B170B70
:10451000019311936D937C93CF010E94D32189C0A5
:104520005B01A01AB10A4C01800E911EA0913D04BE
:10453000B0913E04612C712CE12CF12C109709F400
:1045400046C08D919C911197A815B905B1F56C01E4
:1045500042E0C40ED11CCA14DB0478F14C018A1865
:104560009B08640142E0C40ED11C1296BC901297C5
:104570001396AC91B5E0CB16D10440F0B282A38380
:1045800091828082D9016D937C9309C00E5F1F4F89
:10459000800F911FF90191838083EB2DFA2FE11495
:1045A000F10431F0D7011396FC93EE93129741C0BA
:1045B000F0933E04E0933D043CC06816790608F48D
:1045C0003C017D0112960D90BC91A02DB7CF80913A
:1045D0003B0490913C0488169906E1F46616770630
:1045E000C8F48091000190910101009741F48DB7CA
:1045F0009EB74091040150910501841B950BE8176B
:10460000F907C8F4F0933C04E0933B04F90171838B
:1046100060830FC0CB010E943B217C01009759F0C1
:10462000A801BE010E942223CE010E94D321C7010E
:1046300004C0CE0102C080E090E0CDB7DEB7EEE06E
:104640000C941B26FB01DC0102C001900D9241502D
:104650005040D8F70895DC0101C06D93415050409F
:10466000E0F70895FB01DC0101900D920020E1F7D5
:104670000895FB01DC014150504048F001900D923B
:104680000020C9F701C01D9241505040E0F7089545
:10469000AEE0B0E0EEE4F3E20C9409260D891E8949
:1046A00086E08C831A8309838FEF9FE79E838D8337
:1046B000AE01475E5F4F6F89788DCE0101960E94F3
:1046C0006A23EF81F885E00FF11F10822E96E4E057
:1046D0000C942526ABE0B0E0E0E7F3E20C94FB2578
:1046E0006C017B018A01FC0117821682838181FFA4
:1046F000CCC1CE0101963C01F6019381F70193FDF7
:10470000859193FF81917F01882309F4BAC1853295
:1047100039F493FD859193FF81917F01853229F4CE
:10472000B60190E00E946125E7CF912C212C312C1D
:10473000FFE1F315D8F08B3279F038F4803279F05C
:104740008332A1F4232D20611DC08D3261F08033AE
:1047500069F4232D216016C0832D8260382EE32D4D
:10476000E4603E2E2AC0F32DF8601DC037FC2DC03A
:1047700020ED280F2A3040F08E32B9F436FC81C18A
:10478000232D2064322E19C036FE06C08AE0989E82
:10479000200D1124922E11C0EAE02E9E200D11242E
:1047A000222EF32DF0623F2E08C08C3621F4832D8B
:1047B0008068382E02C0883641F4F70193FD859158
:1047C00093FF81917F018111B3CF982F9F7D9554E5
:1047D000933028F40C5F1F4F9FE399830DC08336FD
:1047E00031F0833771F0833509F059C021C0F801E9
:1047F000808189830E5F1F4F88248394912C5301FD
:1048000013C02801F2E04F0E511CF801A080B180C6
:1048100036FE03C0692D70E002C06FEF7FEFC50167
:104820000E9456254C018201F32DFF773F2E16C0C2
:10483000280122E0420E511CF801A080B18036FE12
:1048400003C0692D70E002C06FEF7FEFC5010E94C9
:104850004B254C01F32DF0683F2E820133FC1BC029
:10486000822D90E088169906B0F4B60180E290E0BF
:104870000E9461252A94F4CFF50137FC859137FE1B
:1048800081915F01B60190E00E94612521102A9478
:1048900021E0821A91088114910471F7E8C08436EE
:1048A00011F0893641F5F80137FE07C0608171814A
:1048B000828193810C5F1F4F08C060817181072E38
:1048C000000C880B990B0E5F1F4FF32DFF763F2EC8
:1048D00097FF09C090958095709561957F4F8F4F98
:1048E0009F4FF0683F2E2AE030E0A3010E949D25F3
:1048F000882E861845C0853731F4232D2F7EB22EA1
:104900002AE030E025C0932D997FB92E8F36C1F073
:1049100018F4883579F0B5C0803719F0883721F060
:10492000B0C0E92FE061BE2EB4FE0DC0FB2DF460D7
:10493000BF2E09C034FE0AC0292F2660B22E06C041
:1049400028E030E005C020E130E002C020E132E0A4
:10495000F801B7FE07C060817181828193810C5F8D
:104960001F4F06C06081718180E090E00E5F1F4F95
:10497000A3010E949D25882E8618FB2DFF773F2ED0
:1049800036FE0DC0232D2E7FA22E891458F434FE3E
:104990000BC032FC09C0832D8E7EA82E05C0B82C1A
:1049A000A32C03C0B82C01C0B92CA4FE0FC0FE017B
:1049B000E80DF11D8081803321F49A2D997EA92E76
:1049C00009C0A2FE06C0B394B39404C08A2D8678B1
:1049D00009F0B394A3FC11C0A0FE06C0B21488F481
:1049E000280C922C9B180EC0B21460F4B60180E221
:1049F00090E00E946125B394F7CFB21418F42B18FD
:104A000002C0982C212CA4FE10C0B60180E390E0D7
:104A10000E946125A2FE17C0A1FC03C088E790E0B8
:104A200002C088E590E0B6010CC08A2D867859F066
:104A3000A1FE02C08BE201C080E2A7FC8DE2B601BC
:104A400090E00E946125891438F4B60180E390E07B
:104A50000E9461259A94F7CF8A94F301E80DF11D25
:104A60008081B60190E00E9461258110F5CF22205F
:104A700009F442CEB60180E290E00E9461252A94BA
:104A8000F6CFF6018681978102C08FEF9FEF2B96BC
:104A9000E2E10C941726FC01059061507040011072
:104AA000D8F7809590958E0F9F1F0895FC01615057
:104AB000704001900110D8F7809590958E0F9F1F40
:104AC00008950F931F93CF93DF93FB01238121FD63
:104AD00003C08FEF9FEF2CC022FF16C04681578185
:104AE000248135814217530744F4A081B1819D018F
:104AF0002F5F3F4F318320838C93268137812F5F37
:104B00003F4F3783268314C08B01EC01FB010084E7
:104B1000F185E02D0995892BE1F6D80116968D9146
:104B20009C911797019617969C938E931697CE019A
:104B3000DF91CF911F910F910895FA01AA27283094
:104B400051F1203181F1E8946F936E7F6E5F7F4F5A
:104B50008F4F9F4FAF4FB1E03ED0B4E03CD0670FD6
:104B6000781F891F9A1FA11D680F791F8A1F911D29
:104B7000A11D6A0F711D811D911DA11D20D009F479
:104B800068943F912AE0269F11243019305D3193BB
:104B9000DEF6CF010895462F4770405D4193B3E0A4
:104BA0000FD0C9F7F6CF462F4F70405D4A3318F04B
:104BB000495D31FD4052419302D0A9F7EACFB4E0FC
:104BC000A6959795879577956795BA95C9F70097B4
:104BD0006105710508959B01AC010A2E0694579555
:104BE000479537952795BA95C9F7620F731F841FAC
:104BF000951FA01D08952F923F924F925F926F9242
:104C00007F928F929F92AF92BF92CF92DF92EF925C
:104C1000FF920F931F93CF93DF93CDB7DEB7CA1BDD
:104C2000DB0B0FB6F894DEBF0FBECDBF09942A8808
:104C3000398848885F846E847D848C849B84AA84B0
:104C4000B984C884DF80EE80FD800C811B81AA813D
:104C5000B981CE0FD11D0FB6F894DEBF0FBECDBF08
:084C6000ED010895F894FFCF67
:104C680000003F0480000C150000000001FF253003
:104C78003275253032752020642531750064253160
:104C88007520253032752D2530327520004C4F4166
:104C980044002020202020202020004F4F4F4F4F3D
:104CA8004F004F4E004F4646002534752D253032B3
:104CB800752D2530327520253032753A25303275FC
:104CC8003A25303275202E0025303275232531756E
:104CD8004300253275232531752025327548002576
:104CE8003032752025303275202530327500202568
:104CF80034752D253032752D2530327520642531D7
:104D08007520253032752D253032752025327543B2
:104D18005F25327548205025327520004241545491
:104D280045525F56414C3A3D004241545445525F0A
:104D380056414C2825293A3D0000000000AE0A8162
:104D48000A550A5D0A710A800A203A20307800065E
:104D58000000000000000000000000000000000546
:104D680000000000000000040000000300020180B1
:104D78004020100804020111C1638561714391F359
:104D88008751E313D5C531197349E1C783819389E5
:104D980025039F250D9949411F0119000000004175
:104DA80018A919D317ED17DF1788180D0A006E61B7
:0A4DB8006E00696E66006F766600FB
:00000001FF
