:100000000C9423010C94DA140C9401150C9428150B
:100010000C944B010C944B010C944B010C944B0130
:100020000C944B010C944F1D0C944B010C944B0100
:100030000C944B010C944B010C944B010C944B0110
:100040000C944B010C944B010C944F150C944B01E8
:100050000C9492180C94C4180C944B010C944B0102
:100060000C944B010C944B010C94C10B0C944B0160
:100070000C944B010C944B010C944B016F0D880DAB
:10008000880D860D880D6D0D880D880D880D600D0D
:10009000880D880D780D840D820D880D880D880DD2
:1000A000800D536574205375636365737366756C57
:1000B0000068683A6D6D206D6F646500456E74650B
:1000C0007220616C61726D2074696D6520666F725B
:1000D0006D617420286D6F64652069732031207410
:1000E0006F20362C20342069732070657220646183
:1000F000792900536574205375636365737366755E
:100100006C006D6D6D2D64642D7979797920686846
:100110002D6D6D2D73732073616D706C6520696E2C
:100120007075743A2044656320323620323030399D
:100130002031323A33343A353600456E74657220D8
:100140006461746520666F726D6174006B457874CC
:10015000506F77657250696E3A3D00526570656107
:1001600074204D6F6465205365743A20002D2D2D49
:100170002D2D2D2D2D2D2D2D2D2D2D2D2D2D2D2DAF
:100180000043686F6F73652061206D656E7520692F
:1001900074656D3A004120736574205B415D6C614C
:1001A000726D2074696D65005420736574205B5412
:1001B0005D696D65001F1C1F1E1F1E1F1F1E1F1E59
:1001C0001F000000020300000000000000050409F9
:1001D0000800000000000000000000000000000017
:1001E0000001020408102040800102040810204091
:1001F0008001020408102040800102040810204001
:100200008002020202020202020404040404040442
:1002100004030303030303030301010101010101BB
:1002200001000020002300260029000000220025F4
:100230000028002B0000002100240027002A0002D3
:100240005903F60AF41811241FBECFEFD0E1DEBF28
:10025000CDBF12E0A0E0B1E0E6EBFBE402C0059008
:100260000D92A835B107D9F724E0A8E5B2E001C0A6
:100270001D92A733B207E1F711E0C3E2D1E004C059
:100280002197FE010E94C220C032D107C9F70E9407
:1002900022190C94D9250C94000081E080938202ED
:1002A00083B78E7F83BF0895DC01ED91FC910190AF
:1002B000F081E02D09946AE470E088EB92E00E94FE
:1002C000750A61E070E088EB92E00E94540161E3FE
:1002D00070E088EB92E00E94540188EB92E00E946B
:1002E000F30A6AE070E080E090E00E94CA1560E4E2
:1002F00070E088EB92E00E94750A62E070E088EBA3
:1003000092E00E94540160E070E088EB92E00E946D
:10031000540160E070E088EB92E00E94540188EBA9
:1003200092E00C94F30A1F93CF93DF9300D000D098
:1003300000D0CDB7DEB7CE0101960E944D0E1D81D3
:10034000CE0101960E94A20D1F921F931F928F93C0
:100350008C811F928F938EE091E09F938F9381E623
:1003600092E09F938F930E94EF224CE461E672E04B
:1003700083E892E00E94781341E060E070E083E857
:1003800092E00E94211441E061E070E083E892E095
:100390000E94211441E062E070E083E892E00E9454
:1003A000211441E063E070E083E892E00E942114B0
:1003B00041E064E070E083E892E00E94211441E0B3
:1003C00065E070E083E892E00E94211444EF51E080
:1003D00060E070E083E892E00E94311440E060E069
:1003E00070E083E892E00E94211440E061E070E058
:1003F00083E892E00E94211440E062E070E083E82C
:1004000092E00E94211440E063E070E083E892E013
:100410000E94211440E064E070E083E892E00E94D2
:10042000211440E065E070E083E892E00E9421142E
:1004300044EF51E060E070E083E892E00E94311404
:1004400081E00E94F9160FB6F894DEBF0FBECDBF53
:10045000892B21F010925B0210925A0226960FB659
:10046000F894DEBF0FBECDBFDF91CF911F910895ED
:10047000CF93DF9300D000D000D0CDB7DEB7CE0150
:1004800001960E944D0ECE0101960E94A20D1F9270
:100490008F938B811F928F938A811F928F938EE10E
:1004A00091E09F938F9381E692E09F938F930E94B8
:1004B000EF224CE461E672E083E892E00E94781358
:1004C00040ED57E060E070E083E892E00E94311474
:1004D00081E00E94F9160FB6F894DEBF0FBECDBFC3
:1004E000892B21F010925B0210925A0226960FB6C9
:1004F000F894DEBF0FBECDBFDF91CF910895EF928C
:10050000FF920F93CF93DF9300D000D000D0CDB7F0
:10051000DEB785E0E82EF12C6DE271E08CE592E02B
:100520000E94D92203E424EF31E040E050E06CE582
:1005300072E083E892E00E94621462E371E0CE010F
:1005400001960E945A1E4CE4BE016F5F7F4F83E804
:1005500092E00E94FD1348E552E060E070E083E81D
:1005600092E00E943114CE0101960E94EC1D81E0C0
:10057000E81AF10889F626960FB6F894DEBF0FBE8A
:10058000CDBFDF91CF910F91FF90EF900895CF9362
:10059000DF9300D000D000D0CDB7DEB7CE010196FA
:1005A0000E944D0E8E811F928F938D811F928F938B
:1005B0008C811F928F938B811F928F938A811F92C0
:1005C0008F93898190E08053984F9F938F938BE313
:1005D00091E09F938F9381E692E09F938F930E9487
:1005E000EF2261E672E081E893E00E94B3190FB652
:1005F000F894DEBF0FBECDBF26960FB6F894DEBFCF
:100600000FBECDBFDF91CF9108950F931F93CF936E
:10061000DF9305E010E0C0E0D0E08FE10E944416D7
:10062000C80FD91F6AE571E081E893E00E94941930
:100630004AE050E0BE0181E893E00E949B1A01501D
:10064000110959F7CE0165E070E00E946D20CB01E1
:10065000DF91CF911F910F910895CF93DF93EB011D
:1006600020E030E0A901BC018CE00E94AD1A88E7CF
:100670008C9FB0018D9F700D1124072E000C880BEC
:10068000990BDF91CF910C94CA15CF93DF93EC01B6
:100690008CE00E943A1D88E78C9FB0018D9F700D01
:1006A0001124072E000C880B990BDF91CF910C942D
:1006B000CA15EF92FF920F931F9388E0E82EF12C5A
:1006C00000E010E02DE030E04FE050E06EE070E040
:1006D00083E892E00E940A121F910F91FF90EF9021
:1006E0000895AF92BF92CF92DF92EF92FF920F9355
:1006F0001F93CF93DF93CDB7DEB769970FB6F8940A
:10070000DEBF0FBECDBF6AE371E081E893E00E94D7
:10071000A11962E071E081E893E00E94A11981E8EB
:1007200093E00E945B174497D4F38E010F5F1F4F35
:100730007E018CE0E80EF11C580181E893E00E94F4
:100740007517F80181938F01EE15FF05B1F781E868
:1007500093E00E94751767018E010C5E1F4F81E8C0
:1007600093E00E947517F60181936F010E171F0722
:10077000B1F76AE070E080E090E00E94CA1581E87D
:1007800093E00E941018A701B501C8010E94410D15
:10079000C8010E945D106AE070E080E090E00E9475
:1007A000CA15B50181E893E00E94B319C8010E94FF
:1007B0004D0EC8010E94A20D182F68E670E088EB6C
:1007C00092E00E94750A64E070E088EB92E00E947B
:1007D0005401612F88EB92E00E942C0A88EB92E092
:1007E0000E94F30A63EF70E081E893E00E94A11990
:1007F00069960FB6F894DEBF0FBECDBFDF91CF91E3
:100800001F910F91FF90EF90DF90CF90BF90AF902E
:100810000895BF92CF92DF92EF92FF920F931F93B2
:10082000CF93DF93CDB7DEB72C970FB6F894DEBF2A
:100830000FBECDBFCE0107960E944D0ED884B9845D
:100840006CEB70E081E893E00E94A11961EB70E02D
:1008500081E893E00E94A11981E893E00E945B1770
:100860000897D4F381E893E00E947517182F682F3A
:1008700081E893E00E94C91781E893E00E94751710
:10088000082F682F81E893E00E94C917110F1056B6
:10089000812F880F880F180F0053010F81E893E014
:1008A0000E947517682F81E893E00E94C91781E8BC
:1008B00093E00E947517182F682F81E893E00E943B
:1008C000C91781E893E00E947517F82E682F81E818
:1008D00093E00E94C917110F1056E12EEE0CEE0C9A
:1008E0001E0D80ED8F0DE12EE80E81E893E00E9451
:1008F0007517682F81E893E00E94C91781E893E09B
:100900000E947517182F682F81E893E00E94C9177D
:1009100069E371E081E893E00E94B3196AE070E056
:1009200080E090E00E94CA1581E893E00E941018D0
:10093000C12C2B2D4D2D63EE77E0CE0101960E9448
:100940002D0DCE0101960E94FB1060ED610F70E04D
:1009500087EB92E00E940C0F62EA70E081E893E07E
:100960000E94A1192C960FB6F894DEBF0FBECDBF22
:10097000DF91CF911F910F91FF90EF90DF90CF907B
:10098000BF9008951F93CF93DF936AE470E088EBE4
:1009900092E00E94750A61E070E088EB92E00E94AC
:1009A000540188EB92E00E94F30A65E070E080E079
:1009B00090E00E94CA1541E050E06AE470E088EBE4
:1009C00092E00E94EE0A88EB92E00E94DB09182F69
:1009D0006AE470E088EB92E00E94750A61E070E0E2
:1009E00088EB92E00E945401612F606488EB92E0F2
:1009F0000E942C0A88EB92E00E94F30A6AE471E0FC
:100A000080E090E00E94CA156AE470E088EB92E012
:100A10000E94750A60E070E088EB92E00E94540149
:100A200088EB92E00E94F30A42E050E06AE470E052
:100A300088EB92E00E94EE0A88EB92E00E94DB09CC
:100A4000182F88EB92E00E94DB09D12F20E0C22F03
:100A50009E01282BC90124E0959587952A95E1F7F9
:100A6000DF91CF911F910895EF92FF920F931F9303
:100A7000CF93DF9300D000D000D0CDB7DEB70E9477
:100A8000C2048C010E94C2047C01B8016F707727F8
:100A9000072E000C880B990B0E94441F20E030E0C9
:100AA00040E25FE30E94D01F0E940C1F7F936F9370
:100AB000B701FF0C880B990B0E94441F20E030E027
:100AC00040E85DE30E94D01F0E940C1F7F936F934C
:100AD00080E691E09F938F938CE592E09F938F93B4
:100AE0000E94EF2203E428EB3BE040E050E06CE59D
:100AF00072E083E892E00E94621462E371E0CE014A
:100B000001960E945A1E4CE4BE016F5F7F4F83E83E
:100B100092E00E94FD1383E892E00E94271481E096
:100B20000E94F9160FB6F894DEBF0FBECDBF892B19
:100B300021F010925B0210925A02CE0101960E949F
:100B4000EC1D26960FB6F894DEBF0FBECDBFDF9129
:100B5000CF911F910F91FF90EF900895CF93DF9366
:100B600000D000D000D0CDB7DEB7CE0101960E94F4
:100B70004D0E8E811F928F938D811F928F938C814A
:100B80001F928F938AE691E09F938F9381E692E084
:100B90009F938F930E94EF224CE461E672E083E81A
:100BA00092E00E94781341E060E070E083E892E018
:100BB0000E94211441E061E070E083E892E00E942D
:100BC000211441E062E070E083E892E00E94211489
:100BD00041E063E070E083E892E00E94211441E08C
:100BE00064E070E083E892E00E94211441E065E057
:100BF00070E083E892E00E94211444EF51E060E04D
:100C000070E083E892E00E94311440E060E070E020
:100C100083E892E00E94211440E061E070E083E804
:100C200092E00E94211440E062E070E083E892E0EC
:100C30000E94211440E063E070E083E892E00E94AB
:100C4000211440E064E070E083E892E00E94211407
:100C500040E065E070E083E892E00E94211444EFF8
:100C600051E060E070E083E892E00E9431148091EE
:100C70005A0290915B02019664E270E00E946D203E
:100C80000FB6F894DEBF0FBECDBF892B59F40E947A
:100C9000340581E00E94F916892B21F010925B0245
:100CA00010925A0226960FB6F894DEBF0FBECDBF43
:100CB000DF91CF9108951F93CF93DF9360E470E0AD
:100CC00088EB92E00E94750A61E070E088EB92E0A8
:100CD0000E94540188EB92E00E94F30A6AE070E0FF
:100CE00080E090E00E94CA1542E050E060E470E0CD
:100CF00088EB92E00E94EE0A88EB92E00E94DB090A
:100D0000182F88EB92E00E94DB09D12F90E0C92FC9
:100D1000C82B69E771E081E893E00E9494194AE0EA
:100D200050E0BE0181E893E00E943A1ABE0180E0E3
:100D300090E00E94421F20E030E040E857E30E942C
:100D4000D01F20E030E048EC52E40E94D01FDF9139
:100D5000CF911F9108950F931F93CF93DF930E941C
:100D6000C204EC010E94C2048C010E945B060E9436
:100D7000131F1F926F93BE016F707727072E000C11
:100D8000880B990B0E94441F20E030E040E25FE3B3
:100D90000E94D01F0E94131F1F926F93B801110F62
:100DA000880B990B0E94441F20E030E040E85DE38F
:100DB0000E94D01F0E94131F1F926F938FE791E034
:100DC0009F938F9381E692E09F938F930E94EF22EF
:100DD0004CE461E672E083E892E00E94781348EB0D
:100DE0005BE060E070E083E892E00E94311481E013
:100DF0000E94F9162DB73EB7265F3F4F0FB6F89405
:100E00003EBF0FBE2DBF892B21F010925B021092C6
:100E10005A02DF91CF911F910F9108954F925F92E7
:100E20006F927F928F929F92AF92BF92CF92DF92FA
:100E3000EF92FF920F931F93CF93DF93CDB7DEB75F
:100E400062970FB6F894DEBF0FBECDBF0E94C204FA
:100E50004C010E945B062B013C010E94050390930C
:100E60005902809358026091580270915902072EDE
:100E7000000C880B990B1F921F921F9224E62F9350
:100E800022E0A22EB12CC12CD12C12EDE12E13E0C8
:100E9000F12E00E010E024EF32E040E050E00E944C
:100EA000AB1D7093590260935802CE010D960E94BB
:100EB0004D0E0091580210915902D988E888CE0150
:100EC0000D960E94A20DF82E1F930F93C301B2013D
:100ED0000E94131F1F926F93B401990C880B990BFA
:100EE0000E94441F20E030E040E85DE30E94D01FF4
:100EF0000E94131F1F926F931F92DF921F92EF9217
:100F00001F92FF928F851F928F938E851F928F93D2
:100F10008D8590E08053984F9F938F938CE891E05C
:100F20009F938F9381E692E09F938F930E94EF228D
:100F300061E672E0CE0107960E945A1E62E371E0FC
:100F4000CE0101960E945A1EBE01695F7F4FCE01FD
:100F500001960E94B41EBC01CE0107960E946F1E2E
:100F6000CE0101960E94EC1D0FB6F894DEBF0FBEB5
:100F7000CDBF8B859C85892BA9F00CE42AE832E053
:100F800040E050E0BE01695F7F4F83E892E00E943D
:100F90007B1441E050E060E070E0CE0107960E94D3
:100FA000D81EE7CFCE0107960E94EC1D62960FB6C1
:100FB000F894DEBF0FBECDBFDF91CF911F910F918F
:100FC000FF90EF90DF90CF90BF90AF909F908F9069
:100FD0007F906F905F904F900895AF92BF92CF92A5
:100FE000DF92EF92FF920F931F93CF9360E082E026
:100FF0000E948E1660E081E00E948E1661E08CE017
:101000000E948E1661E080E00E948E1682E00E94AF
:1010100041161092820226E040E056E960E070E05E
:1010200081E893E00E9432180E94D90D87EB92E08C
:101030000E94F70F0E945B0183B7817F846083BFAA
:101040000E94C7026BE472E081E893E00E94B3194A
:1010500068EA71E081E893E00E94A11965E971E016
:1010600081E893E00E94A1196BE472E081E893E0CB
:101070000E94B31961E871E081E893E00E94A11930
:101080006DE671E081E893E00E94A1190E947F0261
:101090000E94050390935902809358020E94050311
:1010A00090935902809358026AEB71E081E893E0D3
:1010B0000E94941960915802709159024AE050E0E0
:1010C00081E893E00E949B1A609158027091590246
:1010D000072E000C880B990B1F921F921F9224E67B
:1010E0002F93A12CB12C650114EDE12E13E0F12E0C
:1010F00000E010E02EEE32E040E050E00E94AB1D38
:10110000709359026093580267EC71E081E893E0B4
:101110000E94941960915802709159024AE050E07F
:1011200081E893E00E949B1A81E893E00E945B179C
:101130000F900F900F900F901816190614F581E874
:1011400093E00E94751799278435910559F024F48E
:101150008134910551F00BC08136910531F084370F
:10116000910529F40E94710302C00E9409046AE0FB
:1011700070E080E090E00E94CA1581E893E00E9450
:1011800010186BE571E081E893E00E94701987EB1D
:1011900092E00E94AA0F4AE050E0BC0181E893E08F
:1011A0000E949B1A61E087EB92E00E94CF0E0E94A2
:1011B00018100E940E071092810210928002109265
:1011C0005B0210925A0281E00E94F916C82F6CE46B
:1011D00071E081E893E00E9470194AE050E06C2FC2
:1011E00081E893E0CF911F910F91FF90EF90DF90F6
:1011F000CF90BF90AF900C94221ACF93DF93EC0165
:1012000060E570E088EB92E00E94750A6D2F70E057
:1012100088EB92E00E945401BE01772788EB92E0B0
:101220000E94540160E088EB92E00E94770A42E05D
:1012300050E060E570E088EB92E00E94EE0A88EBF7
:1012400092E00E94DB09C82F88EB92E00E94DB0944
:10125000982F88278C0F911DDF91CF910895CF9300
:10126000DF93C0E0D0E0CE010E94FD0862E070E0B4
:101270000E942D032296C039D105A9F782E090E0A3
:101280000E9445038CE0DF91CF910C943A1D82E0DF
:101290000E94F916892B19F565E070E080E090E076
:1012A0000E94CA1582E00E94F91687EB92E00E9424
:1012B000F70F892B39F00E942F09109281021092AA
:1012C000800209C0809180029091810201969093E2
:1012D00081028093800210925B0210925A0208955C
:1012E00080918202882379F082E00E94C4140E94D7
:1012F0000E07109281021092800210925B021092EF
:101300005A02109282028091800290918102823072
:10131000910599F03CF4009769F00197A1F40E94BF
:10132000930115C08330910559F0049761F40E9430
:101330000E0709C00E94AE050AC00E94380207C00D
:101340000E94AB0604C0109281021092800280912C
:101350005A0290915B0288359240D1F40E940E07A8
:1013600010925B0210925A0242E050E06DE471E08C
:1013700082E00E9495146AE070E080E090E00E94B4
:10138000CA1583B7816083BF889583B78E7F83BF7B
:1013900080915A0290915B02019690935B02809338
:1013A0005A020C9447098091E80290E02091E902EA
:1013B000821B910908959091E9028091E8029817A3
:1013C00050F4E92FF0E0E651FD4F208130E09F5FBF
:1013D0009093E90202C02FEF3FEFC9010895E09119
:1013E000E9028091E802E81730F4F0E0E651FD4FA1
:1013F000808190E008958FEF9FEF08950895CF9238
:10140000DF92EF92FF920F931F93CF93DF937C01B4
:10141000CB018A012091C402222389F0EB016B01E8
:10142000C40ED51ECC15DD0569F06991D701ED918B
:10143000FC910190F081E02DC7010995F3CF642F55
:101440000E94980BC801DF91CF911F910F91FF90DF
:10145000EF90DF90CF900895CF93DF931F92CDB799
:10146000DEB769832091C4022223D1F02091C50206
:10147000203240F021E030E0FC013383228380E021
:1014800090E015C08091C602E82FF0E0E953FD4FCF
:10149000998190838F5F8093C6028093C50205C0B7
:1014A00061E0CE0101960E94980B81E090E00F90E0
:1014B000DF91CF910895FC011382128288EE93E0B0
:1014C000A0E0B0E084839583A683B7838BED91E0A1
:1014D00091838083089581E08093C4026093E70242
:1014E0001092C6021092C50208950C946B0A0F93D5
:1014F000062F21E04091C50267EC72E08091E7027F
:101500000E94420B1092C6021092C5021092C402B1
:101510000F9108954F925F926F927F92AF92BF9218
:10152000CF92EF92FF920F931F93CF93DF935C01C3
:10153000F62ED42F28013901EE2021F10E946B0AEA
:10154000CE2DC43008F0C3E0C150C0F028E0C29FE7
:10155000C0011124A301920104C056954795379507
:1015600027958A95D2F7CA01B901D501ED91FC9171
:101570000190F081E02DC5010995E6CF60E0C5013D
:101580000E94770A4D2FD13208F040E22C2D6AEEEE
:1015900072E08F2D0E94FA0A1092E9028093E8020D
:1015A000DF91CF911F910F91FF90EF90CF90BF905F
:1015B000AF907F906F905F904F900895CF92EF9291
:1015C0000F931F93C22EE12C00E010E098010E94BF
:1015D0008A0A1F910F91EF90CF90089521E00C940B
:1015E000DE0A0C94DE0A61E00C94770A88EB92E044
:1015F0000C945B0A413208F043C09091770391113B
:10160000FCCF91E090937703209375032FEF209305
:101610000A0310924F03240F20934E0390937603F6
:1016200090917603880F892B8093760380917403C1
:10163000813061F410927403809176038093BB0033
:101640008091BC0083FDF8CF85EC01C085EE8093CE
:10165000BC00809177038130E1F380914F038417C0
:1016600010F440914F03A0E5B3E0962FFB018E2FBD
:10167000891B841718F48D918193F9CF842F0895D5
:1016800080E008950F93413208F04AC090917703AB
:101690009111FCCF32E030937703009375033FEF55
:1016A00030930A0310924F0340934E03562FA0E548
:1016B000B3E0FB013E2F351B341718F431913D93F5
:1016C000F9CF1092760330917603880F832B8093A5
:1016D000760380917403813061F4109274038091D9
:1016E00076038093BB008091BC0083FDF8CF85EC2E
:1016F00001C085EE8093BC00222321F08091770306
:101700008230D1F380910A038F3F79F080910A03F0
:10171000803241F080910A03803331F094E005C0BB
:1017200091E003C092E001C093E0892F0F910895EA
:10173000613298F420917703243089F460932C036C
:10174000282FAEE2B3E0FC018E2F821B861718F41F
:1017500081918D93F9CF80E0089581E0089582E032
:10176000089585ED8093BC008091BC0084FDFCCF82
:1017700010927703089585EC8093BC001092770354
:1017800008951F920F920FB60F9211242F933F933B
:101790004F935F936F937F938F939F93AF93BF9379
:1017A000EF93FF938091B900887F803609F49EC043
:1017B00078F5883209F45DC090F4803109F456C0A0
:1017C00038F4882309F4F5C0883009F44FC0F5C017
:1017D000883109F44EC0803209F45FC0EEC0803415
:1017E00009F46AC058F4803309F457C0883309F00B
:1017F000E4C080930A030E94BB0BDFC0803509F46C
:101800004FC0883509F45DC0883409F0D6C0D3C014
:10181000883909F4C4C0A8F4883709F467C038F4DB
:10182000883609F463C0803709F460C0C6C08838C0
:1018300009F4B5C0803909F45FC0803809F0BDC033
:101840005BC0803B09F483C038F4803A09F466C079
:10185000883A09F47CC0B1C0803C09F4A4C0883C3B
:1018600009F4A1C0883B09F487C0A7C08091760322
:1018700010C090914F0380914E03981770F5E0913E
:101880004F0381E08E0F80934F03F0E0E05BFC4F4D
:1018900080818093BB0085EC83C080930A038BC05A
:1018A000E0914F0381E08E0F80934F038091BB0046
:1018B000F0E0E05BFC4F808390914F0380914E03FA
:1018C0006BC0E0914F0381E08E0F80934F038091B6
:1018D000BB00F0E0E05BFC4F8083809175038111D9
:1018E0006AC081E08093740384EA5EC083E08093E1
:1018F000770310920B03CFCF80910B03803208F057
:101900004EC0E0910B0381E08E0F80930B0380911A
:10191000BB00F0E0E45FFC4F8083BDCF0E94BB0BB7
:1019200080910B03803230F4E0910B03F0E0E45F30
:10193000FC4F108260910B0370E0E0917003F09116
:1019400071038CE093E0099510920B0336C084E09C
:101950008093770310922D0310922C03E091720371
:10196000F0917303099580912C03811105C081E0EA
:1019700080932C0310922E03E0912D0381E08E0FB3
:1019800080932D03F0E0E25DFC4F80818093BB00EB
:1019900090912D0380912C03981708F47CCF85E853
:1019A0008093BC000AC085EC8093BC001092770342
:1019B00004C010920A030E94B10BFF91EF91BF91F6
:1019C000AF919F918F917F916F915F914F913F91D7
:1019D0002F910F900FBE0F901F901895803D27E01C
:1019E000920710F0805D974050E0E5EBF1E021E0D8
:1019F000261730F43491430F511D2F5F3196F8CFE5
:101A0000633038F09C0123703327232B11F44F5F90
:101A10005F4FBC016D5F7F4F7695679576956795B3
:101A2000EDE6F1E08E9F90018F9F300D9E9F300D6F
:101A30001124C9010197860F971F840F951F0895E0
:101A4000FC01908190539A3008F090E0818180539E
:101A50002AE0929F800D11240895CF92EF920F9368
:101A6000FC01603D87E0780710F0605D774060839F
:101A7000418322830383E482C5820F91EF90CF904C
:101A80000895EF92FF920F931F93CF93DF93EC0192
:101A90008B017A01CB0109960E94200D8883D80121
:101AA000EC918E2FEE0F990BAA0BBB0BFC01E154AE
:101AB000F109E331F10560F5E25CFF4F0C94C220BF
:101AC000F8018181813629F082818E3621F087E00C
:101AD0001EC081E01CC086E01AC082E018C0D80198
:101AE00012968C91823711F088E011C084E00FC00B
:101AF000F8018281823711F085E009C083E007C0D8
:101B000089E005C08AE003C08BE001C08CE08983D6
:101B1000C80104960E94200D8A83C7010E94200DEF
:101B20008B83C70103960E94200D8C83C701069604
:101B30000E94200D8D83DF91CF911F910F91FF9017
:101B4000EF900895FC0180814281618190E00E94C4
:101B5000EE0C069667E070E00E945920089568E652
:101B600070E088EB92E00E94750A60E070E088EB1C
:101B700092E00E94540188EB92E00C94F30A0F93D8
:101B80001F93CF93DF93082FC8E0D0E010E8802F99
:101B9000812311F061E301C060E381E893E00E94DA
:101BA00096191695219799F7DF91CF911F910F9173
:101BB0000895CF93DF9368E670E088EB92E00E948F
:101BC000750A68E070E088EB92E00E94540188EBAF
:101BD00092E00E94F30A41E050E068E670E088EB92
:101BE00092E00E94EE0A88EB92E00E94DB09EC0191
:101BF00087FF16C068E670E088EB92E00E94750AE5
:101C000068E070E088EB92E00E945401BE016068D9
:101C100088EB92E00E94540188EB92E00E94F30A64
:101C20006AE070E080E090E00E94CA1568E670E02B
:101C300088EB92E00E94750A6AE070E088EB92E01F
:101C40000E94540188EB92E00E94F30A41E050E0C8
:101C500068E670E088EB92E00E94EE0A88EB92E082
:101C60000E94DB09EC0168E670E088EB92E00E94DC
:101C7000750A6AE070E088EB92E00E945401BE01B0
:101C80006F7988EB92E00E94540188EB92E00E9409
:101C9000F30A81E0DF91CF910895CF92DF92EF9226
:101CA000FF920F931F93CF93DF93EC0168E670E0F0
:101CB00088EB92E00E94750A61E070E088EB92E0A8
:101CC0000E94540188EB92E00E94F30A21E030E088
:101CD00047E050E068E670E088EB92E00E94F10A8D
:101CE00088EB92E00E94DB098F77982F92959F7086
:101CF0001AEF082F919F000D112488EB92E00E94AB
:101D0000DB098F77982F92959F70C82E919FC00CFA
:101D1000112488EB92E00E94DB098F73982F929533
:101D20009F70D82E919FD00C112488EB92E00E94D6
:101D3000DB0988EB92E00E94DB098F73982F929564
:101D40009F70F82E919FF00C112488EB92E00E9476
:101D5000DB098F71982F92959F70E82E919FE00C70
:101D6000112488EB92E00E94DB099C01332794E068
:101D7000359527959A95E1F7129F800D1124888358
:101D8000E982FA82DB82CC820D83CE01DF91CF9192
:101D90001F910F91FF90EF90DF90CF900895CF9318
:101DA000DF93C62F68E670E088EB92E00E94750A28
:101DB0006AE070E088EB92E00E94540188EB92E0C8
:101DC0000E94F30A41E050E068E670E088EB92E0A0
:101DD0000E94EE0A88EB92E00E94DB09CC2319F006
:101DE000EC01C06802C0EC01CF7768E670E088EBD8
:101DF00092E00E94750A6AE070E088EB92E00E942F
:101E00005401BE0188EB92E00E94540188EB92E0FD
:101E1000DF91CF910C94F30AAF92BF92CF92DF92F1
:101E2000EF92FF920F931F93CF93DF935B0168E6CE
:101E300070E088EB92E00E94750A6BE070E088EB3E
:101E400092E00E94540188EB92E00E94F30A44E081
:101E500050E068E670E088EB92E00E94EE0A88EBC2
:101E600092E00E94DB09EC0188EB92E00E94DB0922
:101E70006C0188EB92E00E94DB097C0188EB92E028
:101E80000E94DB098C0183E0A816B10411F154F41F
:101E900081E0A816B104B1F082E0A816B10451F5B2
:101EA0000F7711C085E0A816B104E9F0B4F086E020
:101EB000A816B104F9F40F77E894E7F8E894C7F8A6
:101EC000CF7318C000686894E7F86894C7F8C06CCE
:101ED00011C00F77E894E7F8F8CF0F77E894E7F8A8
:101EE000E894C7F8F4CF0F77E894E7F8E894C7F8D8
:101EF000CF77C06468E670E088EB92E00E94750AD4
:101F00006BE070E088EB92E00E945401BE0188EB28
:101F100092E00E945401B60188EB92E00E945401C5
:101F2000B70188EB92E00E945401B80188EB92E07F
:101F30000E94540188EB92E00E94F30ADF91CF9156
:101F40001F910F91FF90EF90DF90CF90BF90AF90D7
:101F50000C94AF0DFF920F931F93CF93DF9368E61E
:101F600070E088EB92E00E94750A6BE070E088EB0D
:101F700092E00E94540188EB92E00E94F30A44E050
:101F800050E068E670E088EB92E00E94EE0A88EB91
:101F900092E00E94DB09182F88EB92E00E94DB0997
:101FA000082F88EB92E00E94DB09F82E88EB92E084
:101FB0000E94DB0987FB882780F9C82F80E0D82F93
:101FC000F7FCC26007FDC46017FDC86016FDC06164
:101FD000C351DE4FC8810C2E000CDD0B0E94AF0DEB
:101FE000CE01DF91CF911F910F91FF90089568E688
:101FF00070E088EB92E00E94750A6FE070E088EB79
:1020000092E00E94540188EB92E00E94F30A41E0C2
:1020100050E068E670E088EB92E00E94EE0A88EB00
:1020200092E00E94DB0986FB882780F990E0089502
:10203000CF93DF9368E670E088EB92E00E94750A28
:1020400060E070E088EB92E00E94540188EB92E03F
:102050000E94F30A40E150E068E670E088EB92E00D
:102060000E94EE0AC0E0D0E088EB92E00E94DB091B
:102070000E94BF0D67EE71E081E893E00E94941921
:1020800040E150E0BE0181E893E00E949B1A219656
:10209000C031D10549F768E670E088EB92E00E9414
:1020A000750A60E070E088EB92E00E94540188EBD2
:1020B00092E0DF91CF910C94F30AEF92FF920F938D
:1020C0001F93CF938C0168E670E088EB92E00E944A
:1020D000750A64E070E088EB92E00E94540188EB9E
:1020E00092E00E94F30A41E050E068E670E088EB7D
:1020F00092E00E94EE0A88EB92E00E94DB097C01EC
:1021000068E670E088EB92E00E94750A61E070E09A
:1021100088EB92E00E945401F8012581CAE0822FE9
:102120006C2F0E944D20682F660F860F880F682F36
:10213000620F88EB92E00E942C0AF8012481822F22
:102140006C2F0E944D20682F660F860F880F682F16
:10215000620F88EB92E00E942C0AF8012381822F03
:102160006C2F0E944D20682F660F860F880F682FF6
:10217000620F88EB92E00E942C0AB70188EB92E094
:102180000E945401F8012281822F6C2F0E944D2061
:10219000682F660F860F880F682F620F88EB92E01A
:1021A0000E942C0AF8012181822F6C2F0E944D2061
:1021B000682F660F860F880F682F620F88EB92E0FA
:1021C0000E942C0AF8012081822F6C2F0E944D2042
:1021D000682F660F860F880F682F620F88EB92E0DA
:1021E0000E942C0A88EB92E0CF911F910F91FF90F3
:1021F000EF900C94F30A1F93CF93DF93EC0168E602
:1022000070E088EB92E00E94750A6AE070E088EB6B
:1022100092E00E94540129811AE0822F612F0E94CE
:102220004D20682F660F860F880F682F620F88EB8E
:1022300092E00E942C0A2A81822F612F0E944D2059
:10224000682F660F860F880F682F620F88EB92E069
:102250000E942C0A2B81822F612F0E944D20682F13
:10226000660F860F880F682F620F88EB92E00E943E
:102270002C0A2C81822F612F0E944D20682F660F1F
:10228000860F880F682F620F88EB92E00E942C0A5D
:102290002D81822F612F0E944D20682F660F860F9F
:1022A000880F682F620F88EB92E00E942C0A60E092
:1022B00070E088EB92E00E94540188EB92E0DF919D
:1022C000CF911F910C94F30AEF92FF920F931F93FB
:1022D000CF93DF93EC017C018CE2E80EF11C0DE062
:1022E00012E028853985C8018D50924082179307E6
:1022F0002CF560E088810E94CA168E819F81F801CA
:102300002081892B09F0209540E06A818C810E9410
:102310002217F70121917F0140E06A818C810E94A0
:10232000221761E088810E94CA1661E070E080E0B7
:1023300090E00E94CA150F5F1F4FD3CFDF91CF915E
:102340001F910F91FF90EF900895CF93DF93EC01D1
:1023500060E088810E94CA1620E041E06A818C8199
:102360000E94221720E041E06A818C810E9422179E
:1023700061E08881DF91CF910C94CA16CF93DF93EF
:10238000EC01862F688379835B834A833D832C83AA
:1023900061E00E948E1661E08A810E948E1661E0E3
:1023A0008C810E948E16CE01DF91CF910C94A511E5
:1023B000EF92FF920F931F93CF93DF93EC010E9454
:1023C000BE11CE018C9661E00115110509F460E0A3
:1023D000619570E048E050E00E94D22288E0E81663
:1023E000F1041CF49E2D8F2D02C098E080E01F8325
:1023F0000E839887898721E030E03B872A879C8776
:102400008D871D8E1C8EDF91CF911F910F91FF90B4
:10241000EF900895EF92FF920F931F930E94D811AF
:102420001F910F91FF90EF900895CF93DF93EC01F0
:10243000645D7F4FFC01E60FF71FD901CD01821BC0
:10244000930B841795075CF48E819F81892B11F083
:102450009C9102C09C91909591931196EFCFDF9142
:10246000CF910895FC0126813781E60FF71F4423A1
:1024700019F0232B31F402C0232B19F084A58160BD
:1024800002C084A58E7F84A708950F931F93CF93D6
:10249000DF93EA01D9018FEF97EF4FEE5DEFFD017A
:1024A000E21BF30BE617F70784F5E991F0EDFE0F59
:1024B000FA3030F40E2E000CFF0BE150FE4F09C035
:1024C000FFE9FE0FFA3140F40E2E000CFF0BEC5426
:1024D000FE4FE081EC9317C0FFEBFE0FFA3130F4B2
:1024E0000E2E000CFF0BEC52FE4FF3CFED3211F429
:1024F0005C9309C0EF3511F44C9305C0E33211F43D
:102500009C9301C08C931196CACF0F3F8FEF180791
:1025100031F0F901E00FF11F808181608083DF914C
:10252000CF911F910F910895CF92DF92EF92FF927A
:102530000F931F93CF93DF93EE2DD9011197EC34B6
:1025400029F46150710980E090E017C0C901861B31
:10255000970BE23511F4BD0108C097FD01969595E2
:102560008795680F791F61507109F801C0E27F01FA
:10257000E01AF10AE816F90614F0FA0106C0C19350
:10258000F6CF97FF06C00196319668177907CCF70A
:1025900009C0A817B907BCF34081E801C80FD91FCB
:1025A0004883F1CFFB013196E00FF11F80E2AF01CC
:1025B000401B510B4217530714F48193F8CF8FEF50
:1025C000C816D80639F06C197D0977FD03C0A61727
:1025D000B7071CF48FEF9FEF01C0CB01DF91CF91C4
:1025E0001F910F91FF90EF90DF90CF9008952F9261
:1025F0003F924F925F926F927F928F929F92AF9293
:10260000BF92CF92DF92EF92FF920F931F93CF93DF
:10261000DF93CDB7DEB75C016DB67EB677FD50C0F7
:10262000FC0182859385681779070CF049C0FA018F
:1026300001900020E9F73197CF01841B950B660FBD
:10264000771F1501260E371EF101848495846DB71E
:102650007EB7681979090FB6F8947EBF0FBE6DBFBB
:10266000EDB7FEB731962F01CC24CA94DC2CE22EB4
:102670008F019401BC01C5010E9494126DB77EB711
:10268000681979090FB6F8947EBF0FBE6DBF8DB77C
:102690009EB701967C010FEF1FEF9C01A201B401D0
:1026A000C5010E944512F101648D758D9701A40149
:1026B000C5010E9415120FB6F8947EBE0FBE6DBE06
:1026C0000FB6F8947EBE0FBE6DBEDF91CF911F9105
:1026D0000F91FF90EF90DF90CF90BF90AF909F90C1
:1026E0008F907F906F905F904F903F902F900895C4
:1026F000242FAB0160E070E00C94F7122F923F9210
:102700004F925F926F927F928F929F92AF92BF9201
:10271000CF92DF92EF92FF920F931F93CF93DF93AD
:1027200000D01F92CDB7DEB75C016B013A0129835F
:102730008DB79EB79B838A8377FD42C0F501828562
:10274000938568177907E4F52DB63EB600E010E0F2
:10275000B801C3010E94C71E98012F5F3F4F882315
:1027600011F08901F5CF8DB79EB7821B930B0FB681
:10277000F8949EBF0FBE8DBFEDB7FEB731962F0107
:102780004F01E12CF12C0E151F0559F0B701C301C3
:102790000E94C71EF40181934F01FFEFEF1AFF0A59
:1027A000F2CFF201E00FF11F10822981A201B601E0
:1027B000C5010E94F7120FB6F8943EBE0FBE2DBEA3
:1027C0008A819B810FB6F8949EBF0FBE8DBF0F907C
:1027D0000F900F90DF91CF911F910F91FF90EF908D
:1027E000DF90CF90BF90AF909F908F907F906F9031
:1027F0005F904F903F902F900895242FAB0160E0A1
:1028000070E00C947E1377FD1BC0DC011A96ED91ED
:10281000FC911B976E177F079CF457FD11C0660F44
:10282000771FFC01E60FF71F64857585461757076C
:102830003CF4648D758D640F751F422F0C94321219
:102840000895242FAB0160E070E00C940314CF9343
:10285000DF93EC010E946411CE01DF91CF910C94C3
:10286000A511CF92DF92EF92FF920F931F93CF9318
:10287000DF93EC016A017B010E9499150885198597
:10288000012E000C220B330BC01AD10AE20AF30A04
:10289000C60ED71EE81EF91E0E949915C616D70649
:1028A000E806F90620F0CE010E946411F5CFCE01B2
:1028B000DF91CF911F910F91FF90EF90DF90CF901C
:1028C0000C94A511CF92DF92EF92FF920F93CF93CA
:1028D000DF93EC0169017A01402F0E947813B70160
:1028E000A601CE01DF91CF910F91FF90EF90DF9085
:1028F000CF900C943114CF92DF92EF92FF920F930E
:10290000CF93DF93EC0169017A01402F0E94FD1300
:10291000B701A601CE01DF91CF910F91FF90EF900B
:10292000DF90CF900C9431140895833060F5E82F38
:10293000F0E0EE0FFF1FEA5FFE4F7183608381308E
:1029400051F08230A1F0809169008C7F482B409338
:102950006900E89A089580916900837F440F551FAC
:10296000440F551F482B40936900E99A08958091C0
:1029700069008F7C94E0440F551F9A95E1F7482B2E
:1029800040936900EA9A0895833098F4813021F0E9
:10299000823021F0E89803C0E99801C0EA98E82F56
:1029A000F0E0EE0FFF1FEA5FFE4F84E994E19183B0
:1029B000808308951F920F920FB60F9211242F93C8
:1029C0003F934F935F936F937F938F939F93AF93B7
:1029D000BF93EF93FF93E0910601F09107010995F2
:1029E000FF91EF91BF91AF919F918F917F916F91E7
:1029F0005F914F913F912F910F900FBE0F901F90BD
:102A000018951F920F920FB60F9211242F933F9398
:102A10004F935F936F937F938F939F93AF93BF93E6
:102A2000EF93FF93E0910801F09109010995FF915F
:102A3000EF91BF91AF919F918F917F916F915F9136
:102A40004F913F912F910F900FBE0F901F901895AF
:102A50001F920F920FB60F9211242F933F934F9313
:102A60005F936F937F938F939F93AF93BF93EF93F6
:102A7000FF93E0910A01F0910B010995FF91EF910D
:102A8000BF91AF919F918F917F916F915F914F9186
:102A90003F912F910F900FBE0F901F9018951F928E
:102AA0000F920FB60F9211242F933F938F939F9302
:102AB000AF93BF938091790390917A03A0917B03A8
:102AC000B0917C033091780326E0230F2D3720F45A
:102AD0000296A11DB11D05C029E8230F0396A11D73
:102AE000B11D209378038093790390937A03A09388
:102AF0007B03B0937C0380917D0390917E03A09132
:102B00007F03B09180030196A11DB11D80937D03C9
:102B100090937E03A0937F03B0938003BF91AF9106
:102B20009F918F913F912F910F900FBE0F901F900B
:102B300018952FB7F8946091790370917A0380917A
:102B40007B0390917C032FBF08953FB7F894809149
:102B50007D0390917E03A0917F03B091800326B501
:102B6000A89B05C02F3F19F00196A11DB11D3FBFC5
:102B7000BA2FA92F982F8827820F911DA11DB11D53
:102B8000BC01CD0143E0660F771F881F991F4A954E
:102B9000D1F708958F929F92AF92BF92CF92DF921A
:102BA000EF92FF926B017C010E94A5154B015C0125
:102BB000C114D104E104F10401F10E940B1F0E9431
:102BC000A515DC01CB0188199909AA09BB09883E22
:102BD0009340A105B10560F321E0C21AD108E108D4
:102BE000F10888EE880E83E0981EA11CB11CC11468
:102BF000D104E104F10419F7DBCFFF90EF90DF90EF
:102C0000CF90BF90AF909F908F900895789484B5A7
:102C1000826084BD84B5816084BD85B5826085BDD8
:102C200085B5816085BDEEE6F0E0808181608083BE
:102C3000E1E8F0E0108280818260808380818160A1
:102C40008083E0E8F0E0808181608083E1EBF0E068
:102C5000808184608083E0EBF0E08081816080830C
:102C6000EAE7F0E0808184608083808182608083F5
:102C700080818E7F80838081806880831092C100F4
:102C8000089580930C010895883028F0883110F061
:102C9000885101C08FEF20910C0190E4299F900191
:102CA00011248770822B80937C0080917A0080644D
:102CB00080937A0080917A0086FDFCCF8091780025
:102CC0002091790090E0922B0895843081F028F4CF
:102CD000823099F08330A1F008958830A9F08930CE
:102CE000B9F08530D1F4809180008F7D03C0809150
:102CF00080008F7780938000089584B58F7702C01D
:102D000084B58F7D84BD08958091B0008F7703C016
:102D10008091B0008F7D8093B0000895CF93DF93B2
:102D200090E0FC01EF51FE4F2491FC01EF5FFD4F5D
:102D30008491882361F190E0880F991FFC01EB5C7E
:102D4000FD4FC591D491FC01E55DFD4FA591B49176
:102D5000611109C09FB7F8948881209582238883E8
:102D6000EC912E230BC0623061F49FB7F8948881F8
:102D7000322F309583238883EC912E2B2C939FBF89
:102D800006C08FB7F894E8812E2B28838FBFDF9180
:102D9000CF9108951F93CF93DF93282F30E0F9014F
:102DA000EF53FE4F8491F901EF51FE4FD491F90199
:102DB000EF5FFD4FC491CC23C1F0162F81110E940B
:102DC0006516EC2FF0E0EE0FFF1FE55DFD4FA591BE
:102DD000B4919FB7F894111104C08C91D095D82369
:102DE00002C0EC91DE2BDC939FBFDF91CF911F914E
:102DF0000895CF93DF93282F30E0F901EF53FE4F72
:102E00008491F901EF51FE4FD491F901EF5FFD4F2D
:102E1000C491CC2391F081110E946516EC2FF0E053
:102E2000EE0FFF1FEF5DFD4FA591B491EC91ED23E7
:102E300081E090E021F480E002C080E090E0DF914A
:102E4000CF910895BF92CF92DF92EF92FF920F93AE
:102E50001F93CF93DF93C82ED62EB42EC7E0D0E0B9
:102E6000022F10E087E0E82EF12CB11005C0C70159
:102E70008C1B9D0BB80102C0B8018C2F02C0759548
:102E800067958A95E2F761708C2D0E94CA1661E001
:102E90008D2D0E94CA1660E08D2D0E94CA162197C2
:102EA00020F7DF91CF911F910F91FF90EF90DF906E
:102EB000CF90BF900895FC01918D228D892F90E0D5
:102EC000805C9F4F821B91098F7399270895FC01A5
:102ED000918D828D981731F0828DE80FF11D858DCF
:102EE00090E008958FEF9FEF0895FC01918D828D02
:102EF000981761F0828DDF01A80FB11D5D968C914E
:102F0000928D9F5F9F73928F90E008958FEF9FEF58
:102F100008958AEE98E1892B41F080E090E0892BBA
:102F200021F00E94EA1881110DC080E090E0892B09
:102F300071F080E090E0892B51F00E940000811137
:102F400004C008950E940000F0CF0C940000089582
:102F5000FC01848DDF01A80FB11DA35ABF4F2C9136
:102F6000848D90E001968F739927848FA689B78905
:102F70002C93A089B1898C9180648C93938D848DDE
:102F8000981306C00288F389E02D80818F7D8083AD
:102F90000895EF92FF920F931F93CF93DF93EC016D
:102FA00081E0888F9B8D8C8D981305C0E889F98905
:102FB000808185FD24C0F62E0B8D10E00F5F1F4F22
:102FC0000F731127E02E8C8DE8120CC00FB607FC92
:102FD000FACFE889F989808185FFF5CFCE010E947B
:102FE000A817F1CF8B8DFE01E80FF11DE35AFF4FBB
:102FF000F0820B8FEA89FB898081806207C0EE89AD
:10300000FF896083E889F98980818064808381E019
:1030100090E0DF91CF911F910F91FF90EF90089575
:10302000CF93DF93EC01888D8823C9F0EA89FB896F
:10303000808185FD05C0A889B9898C9186FD0FC066
:103040000FB607FCF5CF808185FFF2CFA889B9893B
:103050008C9185FFEDCFCE010E94A817E7CFDF91BD
:10306000CF910895CF92DF92EF92FF921F93CF936B
:10307000DF93EC016A017B01122F60E874E88EE1B6
:1030800090E0A70196010E948120DA01C901019711
:10309000A109B109B695A795979587959C01E889EF
:1030A000F98982E08083211580E13807A8F0E8895A
:1030B000F989108260E472E48FE090E0A701960144
:1030C0000E948120DA01C9010197A109B109B695D1
:1030D000A795979587959C01EC85FD853083EE85B6
:1030E000FF852083188EEC89FD891083EA89FB898E
:1030F000808180618083EA89FB8980818860808308
:10310000EA89FB89808180688083EA89FB898081E4
:103110008F7D8083DF91CF911F91FF90EF90DF90A3
:10312000CF9008951F920F920FB60F9211242F93F4
:103130008F939F93EF93FF93E0919103F09192030C
:103140008081E0919703F091980382FD12C09081F5
:1031500080919A038F5F8F7320919B03821751F0A8
:10316000E0919A03F0E0EF57FC4F958F80939A031C
:1031700001C08081FF91EF919F918F912F910F90CE
:103180000FBE0F901F9018951F920F920FB60F92BF
:1031900011242F933F934F935F936F937F938F935C
:1031A0009F93AF93BF93EF93FF9381E893E00E94C7
:1031B000A817FF91EF91BF91AF919F918F917F9150
:1031C0006F915F914F913F912F910F900FBE0F9094
:1031D0001F90189581E893E00E945B1721E0892BEE
:1031E00009F420E0822F0895E1E8F3E013821282CF
:1031F00088EE93E0A0E0B0E084839583A683B78354
:103200008DE392E09183808385EC90E095878487BD
:1032100084EC90E09787868780EC90E0918B808BA0
:1032200081EC90E0938B828B82EC90E0958B848B89
:1032300086EC90E0978B868B118E128E138E148EF7
:10324000089508950E9406160E9421190E94ED0714
:10325000C9E8D7E10E9470092097E1F30E9489171D
:10326000F9CFCF92DF92EF92FF920F931F93CF93FC
:10327000DF936C017A018B01C0E0D0E0CE15DF0551
:1032800081F0D8016D918D01D601ED91FC910190F5
:10329000F081E02DC6010995892B11F02196EECF22
:1032A0007E01C701DF91CF911F910F91FF90EF90A9
:1032B000DF90CF9008956115710579F0FB010190C1
:1032C0000020E9F73197AF01461B570BDC01ED9168
:1032D000FC910280F381E02D099480E090E0089554
:1032E000EF92FF920F931F93CF93DF938C017B019B
:1032F000C0E0D0E0F701EC0FFD1F6491662361F0A0
:10330000D801ED91FC910190F081E02DC801099563
:10331000892B11F02196EECFCE01DF91CF911F9135
:103320000F91FF90EF9008950C945B19DC01ED91E3
:10333000FC910190F081E02D099469E472E00C9415
:103340005B190F931F93CF93DF93EC010E947019C9
:103350008C01CE010E949D19800F911FDF91CF91AA
:103360001F910F9108950F931F93CF93DF93EC015B
:103370000E945B198C01CE010E949D19800F911F44
:10338000DF91CF911F910F9108958F929F92AF92ED
:10339000BF92EF92FF920F931F93CF93DF93CDB71E
:1033A000DEB7A1970FB6F894DEBF0FBECDBF7C018C
:1033B000FA01CB0119A2223008F42AE08E010F5D38
:1033C0001F4F822E912CA12CB12CBF01A50194017D
:1033D0000E948120F901CA01015011096A3014F4D8
:1033E000605D01C0695CD8016C93232B242B252BD5
:1033F00061F7B801C7010E945B19A1960FB6F89456
:10340000DEBF0FBECDBFDF91CF911F910F91FF9017
:10341000EF90BF90AF909F908F9008952115310548
:1034200041F4DC01ED91FC910190F081E02D642FDD
:1034300009940C94C5199A01462F50E060E070E0A1
:103440000C940E1A0F931F93CF93DF93EC010E94FD
:103450001B1A8C01CE010E949D19800F911FDF91D4
:10346000CF911F910F9108959A01AB0160E070E038
:103470000C940E1A0F931F93CF93DF93EC010E94CD
:10348000341A8C01CE010E949D19800F911FDF918B
:10349000CF911F910F910895CF92DF92EF92FF92FB
:1034A0000F931F93CF93DF932115310581F4DC0136
:1034B000ED91FC910190F081E02D642FDF91CF918F
:1034C0001F910F91FF90EF90DF90CF9009942A30D9
:1034D000310501F577FF1DC06A017B01EC016DE24A
:1034E0000E9496198C0144275527BA014C195D0991
:1034F0006E097F092AE0CE010E94C519800F911F35
:10350000DF91CF911F910F91FF90EF90DF90CF90BF
:1035100008952AE0DF91CF911F910F91FF90EF90D6
:10352000DF90CF900C94C5199A01AB01770F660B11
:10353000770B0C944C1A0F931F93CF93DF93EC01EE
:103540000E94941A8C01CE010E949D19800F911F38
:10355000DF91CF911F910F9108954F925F926F92DB
:103560007F928F929F92AF92BF92CF92DF92EF9213
:10357000FF920F931F93CF93DF9300D000D01F9241
:10358000CDB7DEB78B0129013A0190910D01891762
:1035900021F09F3F09F038C205C0EFE3F2E024912B
:1035A0002D8384C080930D01EFE3F2E094919D831D
:1035B0009F3F09F429C2913009F44DC058F192306F
:1035C00009F074C01092B0001092B1009091B00058
:1035D00092609093B0009091B10091609093B1008F
:1035E000282F30E0F901EF5FFD4FE491F0E0EE0F9E
:1035F000FF1FE55DFD4F459154915093200440938A
:103600001F04F901EF51FE4FE491E0931E0492E094
:103610009D83F6C114BC15BC94B5926094BD95B55C
:10362000916095BD282F30E0F901EF5FFD4FE491E7
:10363000F0E0EE0FFF1FE55DFD4F45915491509373
:103640002E0440932D04F901EF51FE4FE491E093D5
:103650002C041D82D5C1109280001092810090919F
:103660008100986090938100909181009160909387
:103670008100282F30E0F901EF5FFD4FE491F0E089
:10368000EE0FFF1FE55DFD4F4591549150932704C8
:1036900040932604F901EF51FE4FE491E093250495
:1036A00061E00E948E1621E02D83A5C02D8127FDAB
:1036B000ABC161E00E948E168D818D7F09F09BC0A9
:1036C0004801A12CB12C60E079E08DE390E0A501E8
:1036D00094010E94A32029833A834B835C83690170
:1036E0007A0181E0C81AD108E108F1089FEFC916F4
:1036F000D104E104F10409F008F461C060E271EA68
:1037000087E090E0A50194010E94A32069017A015D
:1037100081E0C81AD108E108F1089D81923009F0D2
:10372000F4C02FEFC216D104E104F10409F008F44B
:1037300058C068E478EE81E090E0A50194010E9411
:10374000A32069017A0181E0C81AD108E108F108D3
:103750009FEFC916D104E104F10409F008F44EC149
:1037600064E274EF80E090E0A50194010E94A32040
:1037700069017A0181E0C81AD108E108F1089FEFD8
:10378000C916D104E104F10471F168F162E17AE74C
:1037900080E090E0A50194010E94A32069017A01D4
:1037A00081E0C81AD108E108F1089FEFC916D104D9
:1037B000E104F10411F008F0C9C085E015C081E012
:1037C0009D81911111C095B5987F892B85BD4114BC
:1037D00051046104710409F04FC02FEF3FEFA901BC
:1037E00063C082E001C084E09091B100987F892B92
:1037F0008093B1003CC04801A12CB12C60E079E07D
:103800008DE390E0A50194010E94A32069017A0153
:1038100081E0C81AD108E108F108C114D10491E08F
:10382000E906F10488F064E274EF80E090E0A5011D
:1038300094010E94A32069017A0181E0C81AD1088D
:10384000E108F10883E001C081E09D81913079F4C5
:1038500090918100987F892B8093810041145104BD
:103860006104710449F42FEF3FEFA9012CC041140A
:1038700051046104710471F0D801AA0FBB1FA301A8
:1038800092010E94D72028EE33E040E050E00E94F1
:10389000812003C02FEF3FEFA9018D81813099F086
:1038A000823019F18111B0C0C7BC20932F0430932E
:1038B0003004409331045093320480916E00826052
:1038C00080936E00A1C0D0928900C092880020939E
:1038D00028043093290440932A0450932B048091A8
:1038E0006F00826080936F008FC0C092B3002093FE
:1038F00021043093220440932304509324048091A4
:1039000070008260809370007FC08FEFC816D10472
:10391000E104F104C9F0C0F064E274EF80E090E0EB
:10392000A50194010E94A32069017A0191E0C91ABE
:10393000D108E108F1082FEFC216D104E104F10427
:1039400009F080F583E03CCF82E03ACF69E07DE387
:1039500080E090E0A50194010E94A32069017A0112
:1039600081E0C81AD108E108F1089FEFC916D10417
:10397000E104F104A9F0A0F089819A81AB81BC81B6
:103980002AE0B595A795979587952A95D1F76C016B
:103990007D0121E0C21AD108E108F10887E024CFB7
:1039A00086E022CF69E07DE380E090E0A50194010C
:1039B0000E94A32069017A0181E0C81AD108E108B8
:1039C000F1089FEFC916D104E104F104A9F0A0F0B9
:1039D00089819A81AB81BC814AE0B595A79597957D
:1039E00087954A95D1F76C017D0121E0C21AD10873
:1039F000E108F10885E0E4CE84E0E2CE83E0F4CE95
:103A000061E00E948E165CCE0F900F900F900F9089
:103A10000F90DF91CF911F910F91FF90EF90DF906A
:103A2000CF90BF90AF909F908F907F906F905F905E
:103A30004F900895813039F018F0823051F0089598
:103A400010926E00089580916F008D7F80936F00BB
:103A50000895809170008D7F8093700081E0809345
:103A6000B0008091B100887F84608093B100109293
:103A7000B3000895CF93C82F80910D01C81307C0DC
:103A8000EFE3F2E084919FEF90930D0101C08FEF7F
:103A90000E941A1D60E08C2FCF910C94CA161F92C1
:103AA0000F920FB60F9211242F933F934F935F9372
:103AB0006F937F938F939F93AF93BF93EF93FF93F6
:103AC0008091210490912204A0912304B0912404B8
:103AD000892B8A2B8B2B51F190911E04E0911F04AE
:103AE000F091200480818927808380912104909126
:103AF0002204A0912304B0912404181619061A0672
:103B00001B06C4F48091210490912204A091230407
:103B1000B09124040197A109B109809321049093E5
:103B20002204A0932304B093240404C080910D01C7
:103B30000E943A1DFF91EF91BF91AF919F918F919C
:103B40007F916F915F914F913F912F910F900FBE99
:103B50000F901F9018954F925F926F927F92AF9245
:103B6000BF92CF92DF92EF92FF920F931F93CF936A
:103B7000DF93CDB7DEB729013A019B01AC012419CF
:103B800035094609570989899A89AB89BC89BC01DD
:103B9000CD016A197B098C099D090E943D20A8016D
:103BA000970124193509460957090E94A320CA0123
:103BB000B9016A0D7B1D8C1D9D1DDF91CF911F9159
:103BC0000F91FF90EF90DF90CF90BF90AF907F90DC
:103BD0006F905F904F900895FC01808191810C94CB
:103BE0007A21CF93DF93EC0188819981009711F0BE
:103BF0000E947A21198218821D821C821B821A82DD
:103C0000DF91CF9108950F931F93CF93DF93EC0132
:103C10008B016F5F7F4F888199810E9403220097FB
:103C200031F0998388831B830A8381E001C080E09F
:103C3000DF91CF911F910F910895CF93DF93EC0106
:103C400088819981892B29F08A819B818617970722
:103C500060F4CE010E94031E882341F08C819D8177
:103C6000892B19F4E881F981108281E0DF91CF91ED
:103C70000895EF92FF920F931F93CF93DF93EC0180
:103C80007B018A01BA010E941D1E811104C0CE0170
:103C90000E94F11D07C01D830C83B70188819981A3
:103CA0000E94D922CE01DF91CF911F910F91FF90F9
:103CB000EF900895FC011182108213821282158206
:103CC00014826115710551F0FB0101900020E9F7A4
:103CD0003197AF01461B570B0C94391E0895CF93B3
:103CE000DF93EC01FB018617970761F0608171811A
:103CF0006115710529F0448155810E94391E02C069
:103D00000E94F11DCE01DF91CF910895EF92FF92B5
:103D10000F931F93CF93DF936115710511F480E02A
:103D20001CC041155105C1F07B01EC018C819D81C6
:103D30008A01080F191FB801CE010E941D1E882399
:103D400071F3288139818C819D81B701820F931F86
:103D50000E94D9221D830C8381E0DF91CF911F91B6
:103D60000F91FF90EF900895CF93DF93EC01FB014B
:103D700044815581608171810E94861E811103C03A
:103D8000CE010E94F11DCE01DF91CF910895FC017B
:103D9000248135816217730748F4808191810097EF
:103DA00029F0FC01E60FF71F8081089580E0089557
:103DB000CF93DF93DC011496ED91FC9115976E176C
:103DC0007F0730F54115510519F1DF01A61BB70B2F
:103DD0009A01A417B50708F49D01DB01EC01888165
:103DE0009981E21BF30BFD83EC83AF01461B570B5C
:103DF000260F371FBC01620F731F8A0F9B1F0E9483
:103E0000E022E881F9818C819D81E80FF91F108201
:103E1000DF91CF91089508950E94131F6894B11106
:103E20000C94CA1F08950E94AF1F88F09F5798F006
:103E3000B92F9927B751B0F0E1F0660F771F881FAF
:103E4000991F1AF0BA95C9F714C0B13091F00E94C9
:103E5000C91FB1E008950C94C91F672F782F8827D8
:103E6000B85F39F0B93FCCF3869577956795B395F0
:103E7000D9F73EF490958095709561957F4F8F4F5F
:103E80009F4F0895E89409C097FB3EF49095809564
:103E9000709561957F4F8F4F9F4F9923A9F0F92F10
:103EA00096E9BB279395F695879577956795B7958E
:103EB000F111F8CFFAF4BB0F11F460FF1BC06F5F74
:103EC0007F4F8F4F9F4F16C0882311F096E911C086
:103ED000772321F09EE8872F762F05C0662371F0A7
:103EE00096E8862F70E060E02AF09A95660F771FBB
:103EF000881FDAF7880F9695879597F9089597F9AF
:103F00009F6780E870E060E008959FEF80EC08957F
:103F100000240A94161617061806090608950024A8
:103F20000A9412161306140605060895092E039422
:103F3000000C11F4882352F0BB0F40F4BF2B11F496
:103F400060FF04C06F5F7F4F8F4F9F4F089557FDF5
:103F50009058440F551F59F05F3F71F04795880FF7
:103F600097FB991F61F09F3F79F08795089512168E
:103F700013061406551FF2CF4695F1DF08C016163A
:103F800017061806991FF1CF8695710561050894EB
:103F90000895E894BB2766277727CB0197F9089502
:103FA0000E94E31F0C94961F0E94881F38F00E9405
:103FB0008F1F20F0952311F00C947F1F0C94851F08
:103FC00011240C94CA1F0E94A71F70F3959FC1F380
:103FD000950F50E0551F629FF001729FBB27F00DB7
:103FE000B11D639FAA27F00DB11DAA1F649F66270C
:103FF000B00DA11D661F829F2227B00DA11D621F5B
:10400000739FB00DA11D621F839FA00D611D221F14
:10401000749F3327A00D611D231F849F600D211DF8
:10402000822F762F6A2F11249F5750409AF0F1F07B
:1040300088234AF0EE0FFF1FBB1F661F771F881FE4
:1040400091505040A9F79E3F510580F00C947F1F7E
:104050000C94CA1F5F3FE4F3983ED4F3869577959E
:104060006795B795F795E7959F5FC1F7FE2B880F8A
:10407000911D9695879597F90895DB018F939F93EE
:104080000E94D720BF91AF91A29F800D911DA39F49
:10409000900DB29F900D11240895991B79E004C0F2
:1040A000991F961708F0961B881F7A95C9F7809577
:1040B0000895AA1BBB1B51E107C0AA1FBB1FA6176F
:1040C000B70710F0A61BB70B881F991F5A95A9F7C1
:1040D00080959095BC01CD01089597FB072E16F4AD
:1040E000009407D077FD09D00E94592007FC05D025
:1040F0003EF4909581959F4F0895709561957F4FFF
:104100000895A1E21A2EAA1BBB1BFD010DC0AA1F18
:10411000BB1FEE1FFF1FA217B307E407F50720F030
:10412000A21BB30BE40BF50B661F771F881F991FAB
:104130001A9469F760957095809590959B01AC01F4
:10414000BD01CF010895052E97FB1EF400940E9437
:10415000BA2057FD07D00E94812007FC03D04EF4FF
:104160000C94BA2050954095309521953F4F4F4F74
:104170005F4F089590958095709561957F4F8F4F13
:104180009F4F0895EE0FFF1F0590F491E02D0994C5
:10419000A29FB001B39FC001A39F700D811D112488
:1041A000911DB29F700D811D1124911D08950E94D3
:1041B000C820A59F900DB49F900DA49F800D911DC8
:1041C000112408950F931F93CF93DF9382309105AD
:1041D00010F482E090E0E0913504F091360420E0A4
:1041E00030E0A0E0B0E0309719F1408151810281C8
:1041F000138148175907C8F08417950769F4109779
:1042000031F012960C93129713961C9327C00093CB
:1042100035041093360422C02115310519F04217D8
:10422000530718F49A01BD01EF01DF01F801DBCF5C
:1042300021153105F9F0281B390B2430310580F4A4
:104240008A819B816115710521F0FB019383828333
:1042500004C09093360480933504FE01329644C026
:10426000FE01E20FF31F81939193225031093983AC
:1042700028833AC02091330430913404232B41F435
:1042800020910201309103013093340420933304D0
:1042900020910001309101012115310541F42DB724
:1042A0003EB74091040150910501241B350BE0916C
:1042B0003304F0913404E217F307A0F42E1B3F0BF4
:1042C0002817390778F0AC014E5F5F4F2417350788
:1042D00048F04E0F5F1F5093340440933304819392
:1042E000919302C0E0E0F0E0CF01DF91CF911F9108
:1042F0000F910895CF93DF93009709F481C0FC01DB
:10430000329713821282A0913504B091360410972F
:1043100081F420813181820F931F209133043091E9
:1043200034042817390751F5F0933404E09333042B
:1043300067C0ED0120E030E0CE17DF0740F44A818E
:104340005B819E0141155105F1F0EA01F5CFD38360
:10435000C28340815181840F951FC817D90759F432
:1043600088819981840F951F0296918380838A8129
:104370009B81938382832115310529F4F0933604C0
:10438000E09335043DC0E901FB83EA8349915991EB
:10439000C40FD51FEC17FD0761F480819181840F54
:1043A000951F0296E90199838883828193819B837B
:1043B0008A83E0E0F0E012968D919C91139700972C
:1043C00019F0FD01DC01F7CF8D919C9111979D01B2
:1043D0002E5F3F4F820F931F20913304309134049E
:1043E0002817390769F4309729F41092360410928F
:1043F000350402C013821282B0933404A0933304B4
:10440000DF91CF910895A0E0B0E0E9E0F2E20C94F2
:10441000A625EC01009721F4CB010E94E220B4C054
:10442000FC01E60FF71F9C0122503109E217F30748
:1044300008F4A8C0D9010D911C9111970617170710
:10444000B0F00530110508F49BC0C8010497861729
:10445000970708F495C002501109061B170B01932A
:1044600011936D937C93CF010E947A2189C05B01E7
:10447000A01AB10A4C01800E911EA0913504B09192
:104480003604612C712CE12CF12C109709F446C0F4
:104490008D919C911197A815B905B1F56C0142E079
:1044A000C40ED11CCA14DB0478F14C018A189B0895
:1044B000640142E0C40ED11C1296BC901297139670
:1044C000AC91B5E0CB16D10440F0B282A3839182C7
:1044D0008082D9016D937C9309C00E5F1F4F800FBE
:1044E000911FF90191838083EB2DFA2FE114F104E0
:1044F00031F0D7011396FC93EE93129741C0F093DD
:104500003604E09335043CC06816790608F43C0193
:104510007D0112960D90BC91A02DB7CF80913304F0
:104520009091340488169906E1F466167706C8F46B
:104530008091000190910101009741F48DB79EB7E1
:104540004091040150910501841B950BE817F90770
:10455000C8F4F0933404E0933304F9017183608369
:104560000FC0CB010E94E2207C01009759F0A80106
:10457000BE010E94C922CE010E947A21C70104C057
:10458000CE0102C080E090E0CDB7DEB7EEE00C9443
:10459000C225FB01DC0102C001900D924150504048
:1045A000D8F70895DC0101C06D9341505040E0F709
:1045B0000895FB01DC0101900D920020E1F70895C0
:1045C000FB01DC014150504048F001900D92002069
:1045D000C9F701C01D9241505040E0F70895AEE088
:1045E000B0E0E5EFF2E20C94B0250D891E8986E07B
:1045F0008C831A8309838FEF9FE79E838D83AE019F
:10460000475E5F4F6F89788DCE0101960E9411231E
:10461000EF81F885E00FF11F10822E96E4E00C94F4
:10462000CC25ABE0B0E0E7E1F3E20C94A2256C010D
:104630007B018A01FC0117821682838181FFCCC134
:10464000CE0101963C01F6019381F70193FD85911E
:1046500093FF81917F01882309F4BAC1853239F42F
:1046600093FD859193FF81917F01853229F4B601F5
:1046700090E00E940825E7CF912C212C312CFFE1FE
:10468000F315D8F08B3279F038F4803279F0833238
:10469000A1F4232D20611DC08D3261F0803369F4B7
:1046A000232D216016C0832D8260382EE32DE46017
:1046B0003E2E2AC0F32DF8601DC037FC2DC020ED22
:1046C000280F2A3040F08E32B9F436FC81C1232DF8
:1046D0002064322E19C036FE06C08AE0989E200D56
:1046E0001124922E11C0EAE02E9E200D1124222EBC
:1046F000F32DF0623F2E08C08C3621F4832D8068A4
:10470000382E02C0883641F4F70193FD859193FF5E
:1047100081917F018111B3CF982F9F7D9554933064
:1047200028F40C5F1F4F9FE399830DC0833631F04F
:10473000833771F0833509F059C021C0F8018081B9
:1047400089830E5F1F4F88248394912C530113C0DB
:104750002801F2E04F0E511CF801A080B18036FE16
:1047600003C0692D70E002C06FEF7FEFC5010E94AA
:10477000FD244C018201F32DFF773F2E16C0280146
:1047800022E0420E511CF801A080B18036FE03C029
:10479000692D70E002C06FEF7FEFC5010E94F22427
:1047A0004C01F32DF0683F2E820133FC1BC0822D9B
:1047B00090E088169906B0F4B60180E290E00E947D
:1047C00008252A94F4CFF50137FC859137FE8191B5
:1047D0005F01B60190E00E94082521102A9421E093
:1047E000821A91088114910471F7E8C0843611F09F
:1047F000893641F5F80137FE07C0608171818281F9
:1048000093810C5F1F4F08C060817181072E000CDF
:10481000880B990B0E5F1F4FF32DFF763F2E97FFEE
:1048200009C090958095709561957F4F8F4F9F4FF0
:10483000F0683F2E2AE030E0A3010E944425882E34
:10484000861845C0853731F4232D2F7EB22E2AE0FD
:1048500030E025C0932D997FB92E8F36C1F018F422
:10486000883579F0B5C0803719F0883721F0B0C0AD
:10487000E92FE061BE2EB4FE0DC0FB2DF460BF2E0B
:1048800009C034FE0AC0292F2660B22E06C028E0D7
:1048900030E005C020E130E002C020E132E0F80164
:1048A000B7FE07C060817181828193810C5F1F4FC9
:1048B00006C06081718180E090E00E5F1F4FA30110
:1048C0000E944425882E8618FB2DFF773F2E36FE4A
:1048D0000DC0232D2E7FA22E891458F434FE0BC058
:1048E00032FC09C0832D8E7EA82E05C0B82CA32CC7
:1048F00003C0B82C01C0B92CA4FE0FC0FE01E80D06
:10490000F11D8081803321F49A2D997EA92E09C052
:10491000A2FE06C0B394B39404C08A2D867809F031
:10492000B394A3FC11C0A0FE06C0B21488F4280CF6
:10493000922C9B180EC0B21460F4B60180E290E095
:104940000E940825B394F7CFB21418F42B1802C0B4
:10495000982C212CA4FE10C0B60180E390E00E94A8
:104960000825A2FE17C0A1FC03C088E790E002C0A2
:1049700088E590E0B6010CC08A2D867859F0A1FE3A
:1049800002C08BE201C080E2A7FC8DE2B60190E09C
:104990000E940825891438F4B60180E390E00E9453
:1049A00008259A94F7CF8A94F301E80DF11D8081D0
:1049B000B60190E00E9408258110F5CF222009F46D
:1049C00042CEB60180E290E00E9408252A94F6CFFC
:1049D000F6018681978102C08FEF9FEF2B96E2E16F
:1049E0000C94BE25FC010590615070400110D8F771
:1049F000809590958E0F9F1F0895FC016150704027
:104A000001900110D8F7809590958E0F9F1F089503
:104A10000F931F93CF93DF93FB01238121FD03C0ED
:104A20008FEF9FEF2CC022FF16C046815781248153
:104A300035814217530744F4A081B1819D012F5F56
:104A40003F4F318320838C93268137812F5F3F4FE7
:104A50003783268314C08B01EC01FB010084F185B0
:104A6000E02D0995892BE1F6D80116968D919C9140
:104A70001797019617969C938E931697CE01DF9108
:104A8000CF911F910F910895FA01AA27283051F173
:104A9000203181F1E8946F936E7F6E5F7F4F8F4F6F
:104AA0009F4FAF4FB1E03ED0B4E03CD0670F781FCE
:104AB000891F9A1FA11D680F791F8A1F911DA11DB3
:104AC0006A0F711D811D911DA11D20D009F46894EC
:104AD0003F912AE0269F11243019305D3193DEF694
:104AE000CF010895462F4770405D4193B3E00FD04A
:104AF000C9F7F6CF462F4F70405D4A3318F0495D35
:104B000031FD4052419302D0A9F7EACFB4E0A69517
:104B10009795879577956795BA95C9F70097610539
:104B2000710508959B01AC010A2E0694579547958F
:104B300037952795BA95C9F7620F731F841F951F84
:104B4000A01D08952F923F924F925F926F927F9295
:104B50008F929F92AF92BF92CF92DF92EF92FF928D
:104B60000F931F93CF93DF93CDB7DEB7CA1BDB0B39
:104B70000FB6F894DEBF0FBECDBF09942A883988DE
:104B800048885F846E847D848C849B84AA84B984E5
:104B9000C884DF80EE80FD800C811B81AA81B981F1
:104BA000CE0FD11D0FB6F894DEBF0FBECDBFED0105
:064BB0000895F894FFCF08
:104BB60000003704800094140000000001FF253037
:104BC6003275206425303175202530327500253048
:104BD60032752D253032752064253175004C4F41D4
:104BE60044002020202020202020002534752D255B
:104BF6003032752D2530327520253032753A253004
:104C060032753A25303275202E0053756D3A3D00C7
:104C16002530327523253175430025303275202520
:104C260030327520253032750048756D3A3D0025C5
:104C360032752325317520253275480020253475B7
:104C46002D253032752D253032752064253175209D
:104C5600253032752D2530327520253275435F2576
:104C66003275482050253275200042415454455231
:104C76005F56414C3A3D004241545445525F5641BD
:104C86004C2825293A3D00000000002C0AFF09D3D4
:104C960009DB09EF09FE09203A20307800060000FA
:104CA60000000000000000000000000000050000F9
:104CB6000000000000040000000300020180402004
:104CC600100804020111C1638561714391F3875194
:104CD600E313D5C531197349E1C783819389250348
:104CE6009F250D9949411F011900000000C9173180
:104CF600195B177517671710180D0A006E616E009D
:084D0600696E66006F7666001D
:00000001FF
