:100000000C941C010C948C140C94B3140C94DA14FE
:100010000C9444010C9444010C9444010C9444014C
:100020000C9444010C949F1C0C9444010C944401C6
:100030000C9444010C9444010C9444010C9444012C
:100040000C9444010C9444010C9401150C9444014B
:100050000C9420180C9452180C9444010C944401F4
:100060000C9444010C9444010C946B0B0C944401CB
:100070000C9444010C9444010C944401190D320D6C
:10008000320D300D320D170D320D320D320D0A0DBD
:10009000320D320D220D2E0D2C0D320D320D320D82
:1000A0002A0D536574205375636365737366756CAD
:1000B0000068683A6D6D206D6F646500456E74650B
:1000C0007220616C61726D2074696D6520666F725B
:1000D0006D617420286D6F64652069732031207410
:1000E0006F20362C20342069732070657220646183
:1000F000792900536574205375636365737366755E
:100100006C006D6D6D2D64642D7979797920686846
:100110002D6D6D2D73732073616D706C6520696E2C
:100120007075743A2044656320323620323030399D
:100130002031323A33343A353600456E74657220D8
:100140006461746520666F726D61740052657065DC
:100150006174204D6F6465205365743A20002D2D25
:100160002D2D2D2D2D2D2D2D2D2D2D2D2D2D2D2DBF
:100170002D0043686F6F73652061206D656E75207B
:100180006974656D3A004120736574205B415D6C54
:1001900061726D2074696D65005420736574205B15
:1001A000545D696D65001F1C1F1E1F1E1F1F1E1F33
:1001B0001E1F0000000203000000000000000504F4
:1001C000090800000000000000000000000000001E
:1001D00000000102040810204080010204081020E1
:1001E0004080010204081020408001020408102011
:1001F0004080020202020202020204040404040417
:1002000004040303030303030303010101010101C8
:100210000101000020002300260029000000220028
:10022000250028002B0000002100240027002A00C0
:100230000200BF04A00A821811241FBECFEFD0E134
:10024000DEBFCDBF12E0A0E0B1E0E4EBF9E402C014
:1002500005900D92AE35B107D9F724E0AEE5B2E0D6
:1002600001C01D92AB33B207E1F711E0CCE1D1E060
:1002700004C02197FE010E94C11FC931D107C9F7EF
:100280000E94B0180C94D8240C94000081E0809354
:10029000860283B78E7F83BF0895DC01ED91FC91C8
:1002A0000190F081E02D09946AE470E08CEB92E01B
:1002B0000E941F0A61E070E08CEB92E00E944D0109
:1002C00061E370E08CEB92E00E944D018CEB92E0D8
:1002D0000C949D0A1F93CF93DF9300D000D000D0E1
:1002E000CDB7DEB7CE0101960E94F70D1D81CE017C
:1002F00001960E944C0D1F921F931F928F938C8129
:100300001F928F938FE091E09F938F9385E692E009
:100310009F938F930E94EE214CE465E672E087E89C
:1003200092E00E942A1341E060E070E087E892E0EA
:100330000E94D31341E061E070E087E892E00E9400
:10034000D31341E062E070E087E892E00E94D313AB
:1003500041E063E070E087E892E00E94D31341E05F
:1003600064E070E087E892E00E94D31341E065E02A
:1003700070E087E892E00E94D31344EF51E060E020
:1003800070E087E892E00E94E31340E060E070E0F4
:1003900087E892E00E94D31340E061E070E087E8D4
:1003A00092E00E94D31340E062E070E087E892E0C0
:1003B0000E94D31340E063E070E087E892E00E947F
:1003C000D31340E064E070E087E892E00E94D3132A
:1003D00040E065E070E087E892E00E94D31344EFCC
:1003E00051E060E070E087E892E00E94E3130FB60E
:1003F000F894DEBF0FBECDBF26960FB6F894DEBFD1
:100400000FBECDBFDF91CF911F910895CF93DF93A2
:1004100000D000D000D0CDB7DEB7CE0101960E944B
:10042000F70DCE0101960E944C0D1F928F938B8188
:100430001F928F938A811F928F938FE191E09F93F8
:100440008F9385E692E09F938F930E94EE214CE478
:1004500065E672E087E892E00E942A1340ED57E0DB
:1004600060E070E087E892E00E94E3130FB6F89432
:10047000DEBF0FBECDBF26960FB6F894DEBF0FBE0F
:10048000CDBFDF91CF910895CF93DF9300D000D0FF
:1004900000D0CDB7DEB7CE0101960E94F70D8E8158
:1004A0001F928F938D811F928F938C811F928F93B8
:1004B0008B811F928F938A811F928F93898190E005
:1004C0008053984F9F938F938FE291E09F938F93E8
:1004D00085E692E09F938F930E94EE2165E672E09D
:1004E00085E893E00E9441190FB6F894DEBF0FBE75
:1004F000CDBF26960FB6F894DEBF0FBECDBFDF91FD
:10050000CF910895CF93DF93C9E0D0E061E080E020
:100510000E9458166CE271E080E090E00E947C1529
:1005200060E080E00E9458166CE271E080E090E0AC
:100530000E947C15219751F7DF91CF910895CF93B9
:10054000DF93EB0120E030E0A901BC018CE00E94C8
:10055000FD19609106017091070188EE93E00E94F9
:100560006C1F2FE0269FC001279F900D11248C9FA8
:10057000B0018D9F700D9C9F700D1124072E000CF3
:10058000880B990BDF91CF910C947C15CF93DF935F
:10059000EC018CE00E948A1C6091060170910701B9
:1005A00088EE93E00E946C1F2FE0269FC001279FDA
:1005B000900D11248C9FB0018D9F700D9C9F700D2C
:1005C0001124072E000C880B990BDF91CF910C940E
:1005D0007C1562E070E087E295E00E949F0262E095
:1005E00070E08DED94E00E949F0262E070E087E28F
:1005F00095E00E949F0262E070E08DED94E00E9421
:100600009F0262E070E087E295E00E949F0262E054
:1006100070E08CED93E00E949F0262E070E087E959
:1006200094E00E949F0262E070E087E194E00E9403
:100630009F0262E070E08CED90E00E949F0262E019
:1006400070E08AE491E00E949F0262E070E088EB33
:1006500091E00E949F0262E070E08BE092E00E94D5
:100660009F0262E070E083E992E00E949F0262E0F4
:1006700070E080E793E00E949F0262E070E085EA0C
:1006800090E00E949F0262E070E08AE491E00E94A4
:100690009F0262E070E08FE991E00E949F0262E0B9
:1006A00070E083E992E00E949F0262E070E08FE3D5
:1006B00093E00E949F0262E070E08CED93E00E9464
:1006C0009F0262E070E08CED90E00E949F0262E089
:1006D00070E08AE491E00E949F0262E070E088EBA3
:1006E00091E00E949F0262E070E083E992E00E9444
:1006F0009F0262E070E087E295E00E949F0262E064
:1007000070E08DED94E00E949F0262E070E087E26D
:1007100095E00E949F0262E070E08DED94E00E94FF
:100720009F0262E070E087E295E00E949F0262E033
:1007300070E08CED93E00E949F0262E070E087E938
:1007400094E00E949F0262E070E087E194E00E94E2
:100750009F0262E070E08CED90E00E949F0262E0F8
:1007600070E08AE491E00E949F0262E070E088EB12
:1007700091E00E949F0262E070E08BE092E00E94B4
:100780009F0262E070E083E992E00E949F0262E0D3
:1007900070E080E793E00E949F0262E070E085EAEB
:1007A00090E00E949F0262E070E08AE491E00E9483
:1007B0009F0262E070E08FE991E00E949F0262E098
:1007C00070E083E992E00E949F0262E070E08FE3B4
:1007D00093E00E949F0262E070E08CED93E00E9443
:1007E0009F0262E070E08CED90E00E949F0262E068
:1007F00070E08AE491E00E949F0262E070E088EB82
:1008000091E00E949F0262E070E083E992E00E9422
:100810009F0262E070E087E194E00E949F0262E044
:1008200070E087E994E00E949F0262E070E086E059
:1008300091E00E949F0262E070E088E891E00E94EF
:100840009F0262E070E08BE092E00E949F0262E013
:1008500070E080E193E00E949F0262E070E085E733
:1008600095E00E949F0262E070E087E295E00E94BE
:100870009F0262E070E084EC90E00E949F0262E0E0
:1008800070E088E891E00E949F0262E070E08EEEE6
:1008900091E00E949F0262E070E08AEB92E00E9489
:1008A0009F0262E070E087E295E00E949F0262E0B2
:1008B00070E087E994E00E949F0262E070E08CEDB6
:1008C00090E00E949F0262E070E08AE491E00E9462
:1008D0009F0262E070E088EB91E00E949F0262E07C
:1008E00070E083E992E00E949F0262E070E087E995
:1008F00094E00E949F0262E070E087E194E00E9431
:100900009F0262E070E085EA90E00E949F0262E050
:1009100070E08AE491E00E949F0262E070E080E76C
:1009200093E00E949F0282E090E00E94C6028CE069
:100930000C948A1C82E00E948716892BF9F46AE0E5
:1009400070E080E090E00E947C1582E00E948716B3
:100950008BEB92E00E94A10F892B39F00E94E902F3
:1009600010928502109284020895809184029091E1
:10097000850201969093850280938402089548E051
:1009800050E060E070E087E892E00C94B411CF9200
:10099000DF92EF92FF920F931F93CF93DF93CDB728
:1009A000DEB72C970FB6F894DEBF0FBECDBFCE01D9
:1009B00007960E94F70DF884D9846CEB70E085E807
:1009C00093E00E942F1961EB70E085E893E00E94AC
:1009D0002F1985E893E00E94E9160897D4F385E87B
:1009E00093E00E940317082F85E893E00E94031705
:1009F000000F0056902F990F990F090F8053080F81
:100A000085E893E00E94031785E893E00E940317AE
:100A1000E82E85E893E00E9403179E2D990F9056CB
:100A2000E92EEE0CEE0CE90E8053E80E85E893E01B
:100A30000E94031785E893E00E940317182F6AE0CD
:100A400070E080E090E00E947C1585E893E00E94D1
:100A50009E17C12C2D2D4F2D63EE77E0CE01019610
:100A60000E94D70CCE0101960E94A5101053612F51
:100A700070E08BEB92E00E94B60E62EA70E085E8CF
:100A800093E00E942F192C960FB6F894DEBF0FBE8C
:100A9000CDBFDF91CF911F910F91FF90EF90DF902D
:100AA000CF900895AF92BF92CF92DF92EF92FF92D4
:100AB0000F931F93CF93DF93CDB7DEB769970FB630
:100AC000F894DEBF0FBECDBF6AE371E085E893E026
:100AD0000E942F1962E071E085E893E00E942F19CF
:100AE00085E893E00E94E9164497D4F38E010F5FE6
:100AF0001F4F7E018CE0E80EF11C580185E893E061
:100B00000E940317F80181938F01EE15FF05B1F7DD
:100B100085E893E00E94031767018E010C5E1F4F6A
:100B200085E893E00E940317F60181936F010E1789
:100B30001F07B1F76AE070E080E090E00E947C154A
:100B400085E893E00E949E17A701B501C8010E94A5
:100B5000EB0CC8010E9407106AE070E080E090E0B2
:100B60000E947C15B50185E893E00E944119C801F7
:100B70000E94F70DC8010E944C0D182F68E670E026
:100B80008CEB92E00E941F0A64E070E08CEB92E034
:100B90000E944D01612F8CEB92E00E94D6098CEBF4
:100BA00092E00E949D0A63EF70E085E893E00E9466
:100BB0002F1969960FB6F894DEBF0FBECDBFDF9137
:100BC000CF911F910F91FF90EF90DF90CF90BF904A
:100BD000AF900895CF92DF92EF92FF920F931F9301
:100BE000CF93DF93CDB7DEB762970FB6F894DEBF31
:100BF0000FBECDBF6AE470E08CEB92E00E941F0A4A
:100C000061E070E08CEB92E00E944D018CEB92E091
:100C10000E949D0A41E050E06AE470E08CEB92E0B3
:100C20000E94980A8CEB92E00E948509082F6AE4E2
:100C300070E08CEB92E00E941F0A61E070E08CEBA8
:100C400092E00E944D01602F60648CEB92E00E9464
:100C5000D6098CEB92E00E949D0A60E471E080E08E
:100C600090E00E947C156AE470E08CEB92E00E94B8
:100C70001F0A60E070E08CEB92E00E944D018CEB6B
:100C800092E00E949D0A42E050E06AE470E08CEB42
:100C900092E00E94980A8CEB92E00E947D090297F4
:100CA00051F48CEB92E00E948509182F8CEB92E0B6
:100CB0000E948509F82E612F70E0762F66276F0D50
:100CC000711D8B0194E0159507959A95E1F7CE017A
:100CD0000D960E94F70D44E650E060E070E087E872
:100CE00092E00E94E313CA88D988E888CE010D9665
:100CF0000E944C0DF82EB8016F707727072E000C5C
:100D0000880B990B0E94531E20E030E040E25FE325
:100D10000E94DF1E0E941B1E7F936F93B801110F6C
:100D2000880B990B0E94531E20E030E040E85DE301
:100D30000E94DF1E0E941B1E7F936F931F92CF9213
:100D40001F92DF921F92EF921F92FF928F851F9248
:100D50008F938E851F928F938D8590E08053984F4F
:100D60009F938F9381E991E09F938F9385E692E023
:100D70009F938F930E94EE2165E672E0CE01079665
:100D80000E94691D6EE571E0CE0101960E94691D09
:100D9000BE01695F7F4FCE0101960E94C31DBC0159
:100DA000CE0107960E947E1DCE0101960E94FB1C7B
:100DB0000FB6F894DEBF0FBECDBF8B859C85892B07
:100DC000A9F00CE42AE832E040E050E0BE01695F9F
:100DD0007F4F87E892E00E942D1441E050E060E0F0
:100DE00070E0CE0107960E94E71DE7CFCE0107967F
:100DF0000E94FB1C62960FB6F894DEBF0FBECDBFFB
:100E0000DF91CF911F910F91FF90EF90DF90CF90E6
:100E1000089560E082E00E941C1661E08CE00E9470
:100E20001C1661E080E00E941C161092860226E0EB
:100E300040E056E960E070E085E893E00E94C0176A
:100E40000E94830D8BEB92E00E94A10F0E9454013F
:100E500083B7817F846083BF0E94440260E572E0B3
:100E600085E893E00E94411969E971E085E893E023
:100E70000E942F1966E871E085E893E00E942F191F
:100E800060E572E085E893E00E94411962E771E055
:100E900085E893E00E942F196EE571E085E893E004
:100EA0000E942F190E94820285E893E00E94E916B1
:100EB0001816190614F585E893E00E940317992780
:100EC0008435910559F024F48134910551F00BC01B
:100ED0008136910531F08437910529F40E9452053D
:100EE00002C00E94C7046AE070E080E090E00E94C7
:100EF0007C1585E893E00E949E176CE471E085E81C
:100F000093E00E94FE188BEB92E00E94540F4AE09F
:100F100050E0BC0185E893E00E94EB1961E08BEBA7
:100F200092E00E94790E0E94C20F0E94EA05109280
:100F300085021092840210925F0210925E02089560
:100F4000FF920F931F93CF93DF9300D000D000D078
:100F5000CDB7DEB76AE470E08CEB92E00E941F0A26
:100F600061E070E08CEB92E00E944D018CEB92E02E
:100F70000E949D0A41E050E06AE470E08CEB92E050
:100F80000E94980A8CEB92E00E948509082F6AE47F
:100F900070E08CEB92E00E941F0A61E070E08CEB45
:100FA00092E00E944D01602F60648CEB92E00E9401
:100FB000D6098CEB92E00E949D0A60E471E080E02B
:100FC00090E00E947C156AE470E08CEB92E00E9455
:100FD0001F0A60E070E08CEB92E00E944D018CEB08
:100FE00092E00E949D0A42E050E06AE470E08CEBDF
:100FF00092E00E94980A8CEB92E00E947D09029791
:1010000051F48CEB92E00E948509182F8CEB92E052
:101010000E948509F82E612F70E0762F66276F0DEC
:10102000711D8B0194E0159507959A95E1F7B8012C
:101030006F707727072E000C880B990B0E94531EA8
:1010400020E030E040E25FE30E94DF1E0E941B1EB2
:101050007F936F93B801110F880B990B0E94531E59
:1010600020E030E040E85DE30E94DF1E0E941B1E8E
:101070007F936F9382EC91E09F938F9380E692E051
:101080009F938F930E94EE2103E428EB3BE040E026
:1010900050E060E672E087E892E00E9414146EE58A
:1010A00071E0CE0101960E94691D4CE4BE016F5FA4
:1010B0007F4F87E892E00E94AF1387E892E00E949A
:1010C000D913CE0101960E94FB1C0FB6F894DEBF27
:1010D0000FBECDBF26960FB6F894DEBF0FBECDBFB4
:1010E000DF91CF911F910F91FF900895CF93DF93E0
:1010F00000D000D000D0CDB7DEB7CE0101960E945F
:10110000F70D8E811F928F938D811F928F938C810B
:101110001F928F938DEC91E09F938F9385E692E0E1
:101120009F938F930E94EE214CE465E672E087E87E
:1011300092E00E942A1341E060E070E087E892E0CC
:101140000E94D31341E061E070E087E892E00E94E2
:10115000D31341E062E070E087E892E00E94D3138D
:1011600041E063E070E087E892E00E94D31341E041
:1011700064E070E087E892E00E94D31341E065E00C
:1011800070E087E892E00E94D31344EF51E060E002
:1011900070E087E892E00E94E31340E060E070E0D6
:1011A00087E892E00E94D31340E061E070E087E8B6
:1011B00092E00E94D31340E062E070E087E892E0A2
:1011C0000E94D31340E063E070E087E892E00E9461
:1011D000D31340E064E070E087E892E00E94D3130C
:1011E00040E065E070E087E892E00E94D31344EFAE
:1011F00051E060E070E087E892E00E94E3138091A4
:101200005E0290915F02019664E270E00E946C1FA2
:101210000FB6F894DEBF0FBECDBF892B11F40E942C
:10122000A00726960FB6F894DEBF0FBECDBFDF91A4
:10123000CF91089580918602882379F082E00E9400
:1012400076140E94EA051092850210928402109290
:101250005F0210925E021092860280918402909149
:1012600085028230910599F03CF4009769F001976E
:10127000A1F40E946A0115C08330910559F00497CA
:1012800061F40E94EA0509C00E9476080AC00E9423
:10129000060207C00E94A00704C0109285021092A7
:1012A000840280915E0290915F0284389340D1F471
:1012B0000E94EA0510925F0210925E0242E050E046
:1012C00066E471E082E00E9447146AE070E080E02A
:1012D00090E00E947C1583B7816083BF889583B7B7
:1012E0008E7F83BF80915E0290915F020196909302
:1012F0005F0280935E020C949A048091EC0290E06D
:101300002091ED02821B910908959091ED02809148
:10131000EC02981750F4E92FF0E0E251FD4F2081E4
:1013200030E09F5F9093ED0202C02FEF3FEFC901C5
:101330000895E091ED028091EC02E81730F4F0E0BE
:10134000E251FD4F808190E008958FEF9FEF089567
:101350000895CF92DF92EF92FF920F931F93CF9356
:10136000DF937C01CB018A012091C802222389F0FE
:10137000EB016B01C40ED51ECC15DD0569F069913A
:10138000D701ED91FC910190F081E02DC701099505
:10139000F3CF642F0E94420BC801DF91CF911F91C0
:1013A0000F91FF90EF90DF90CF900895CF93DF9350
:1013B0001F92CDB7DEB769832091C8022223D1F0F6
:1013C0002091C902203240F021E030E0FC0133835B
:1013D000228380E090E015C08091CA02E82FF0E0FF
:1013E000E553FD4F998190838F5F8093CA0280936C
:1013F000C90205C061E0CE0101960E94420B81E066
:1014000090E00F90DF91CF910895FC01138212823A
:1014100088EE93E0A0E0B0E084839583A683B78351
:1014200080EE91E091838083089581E08093C802EB
:101430006093EB021092CA021092C90208950C94B4
:10144000150A0F93062F21E04091C9026BEC72E060
:101450008091EB020E94EC0A1092CA021092C9021B
:101460001092C8020F9108954F925F926F927F92EF
:10147000AF92BF92CF92EF92FF920F931F93CF93B1
:10148000DF935C01F62ED42F28013901EE2021F1E3
:101490000E94150ACE2DC43008F0C3E0C150C0F040
:1014A00028E0C29FC0011124A301920104C05695F7
:1014B0004795379527958A95D2F7CA01B901D50185
:1014C000ED91FC910190F081E02DC5010995E6CFE9
:1014D00060E0C5010E94210A4D2FD13208F040E2A0
:1014E0002C2D6EEE72E08F2D0E94A40A1092ED0258
:1014F0008093EC02DF91CF911F910F91FF90EF90BD
:10150000CF90BF90AF907F906F905F904F90089575
:10151000CF92EF920F931F93C22EE12C00E010E0C8
:1015200098010E94340A1F910F91EF90CF90089577
:1015300021E00C94880A0C94880A61E00C94210A3A
:101540008CEB92E00C94050A413208F043C0909174
:101550007B039111FCCF91E090937B03209379035F
:101560002FEF20930E0310925303240F2093520366
:1015700090937A0390917A03880F892B80937A0352
:1015800080917803813061F41092780380917A031E
:101590008093BB008091BC0083FDF8CF85EC01C037
:1015A00085EE8093BC0080917B038130E1F38091D4
:1015B0005303841710F440915303A4E5B3E0962F2E
:1015C000FB018E2F891B841718F48D918193F9CF1D
:1015D000842F089580E008950F93413208F04AC0A7
:1015E00090917B039111FCCF32E030937B03009309
:1015F00079033FEF30930E0310925303409352034D
:10160000562FA4E5B3E0FB013E2F351B341718F429
:1016100031913D93F9CF10927A0330917A03880F7C
:10162000832B80937A0380917803813061F4109248
:10163000780380917A038093BB008091BC0083FD86
:10164000F8CF85EC01C085EE8093BC00222321F009
:1016500080917B038230D1F380910E038F3F79F02C
:1016600080910E03803241F080910E03803331F07F
:1016700094E005C091E003C092E001C093E0892F9F
:101680000F910895613298F420917B03243089F4FE
:1016900060933003282FA2E3B3E0FC018E2F821B5E
:1016A000861718F481918D93F9CF80E0089581E039
:1016B000089582E0089585ED8093BC008091BC0080
:1016C00084FDFCCF10927B03089585EC8093BC00D1
:1016D00010927B0308951F920F920FB60F92112460
:1016E0002F933F934F935F936F937F938F939F932A
:1016F000AF93BF93EF93FF938091B900887F8036BB
:1017000009F49EC078F5883209F45DC090F4803108
:1017100009F456C038F4882309F4F5C0883009F478
:101720004FC0F5C0883109F44EC0803209F45FC063
:10173000EEC0803409F46AC058F4803309F457C00D
:10174000883309F0E4C080930E030E94650BDFC06C
:10175000803509F44FC0883509F45DC0883409F03C
:10176000D6C0D3C0883909F4C4C0A8F4883709F4B6
:1017700067C038F4883609F463C0803709F460C064
:10178000C6C0883809F4B5C0803909F45FC0803814
:1017900009F0BDC05BC0803B09F483C038F4803AD7
:1017A00009F466C0883A09F47CC0B1C0803C09F4F1
:1017B000A4C0883C09F4A1C0883B09F487C0A7C035
:1017C00080917A0310C0909153038091520398172F
:1017D00070F5E091530381E08E0F80935303F0E0A6
:1017E000EC5AFC4F80818093BB0085EC83C08093D2
:1017F0000E038BC0E091530381E08E0F809353035F
:101800008091BB00F0E0EC5AFC4F80839091530331
:10181000809152036BC0E091530381E08E0F80935F
:1018200053038091BB00F0E0EC5AFC4F8083809121
:10183000790381116AC081E08093780384EA5EC0F5
:1018400083E080937B0310920F03CFCF80910F032F
:10185000803208F04EC0E0910F0381E08E0F80933C
:101860000F038091BB00F0E0E05FFC4F8083BDCFB1
:101870000E94650B80910F03803230F4E0910F03DA
:10188000F0E0E05FFC4F108260910F0370E0E091A8
:101890007403F091750380E193E0099510920F03B2
:1018A00036C084E080937B031092310310923003A2
:1018B000E0917603F09177030995809130038111CF
:1018C00005C081E08093300310923203E091310330
:1018D00081E08E0F80933103F0E0EE5CFC4F80815D
:1018E0008093BB009091310380913003981708F4E6
:1018F0007CCF85E88093BC000AC085EC8093BC0057
:1019000010927B0304C010920E030E945B0BFF91A8
:10191000EF91BF91AF919F918F917F916F915F9167
:101920004F913F912F910F900FBE0F901F901895E0
:10193000803D27E0920710F0805D974050E0E6EA96
:10194000F1E021E0261730F43491430F511D2F5F51
:101950003196F8CF633038F09C0123703327232B66
:1019600011F44F5F5F4FBC016D5F7F4F76956795B8
:1019700076956795EDE6F1E08E9F90018F9F300D93
:101980009E9F300D1124C9010197860F971F840F68
:10199000951F0895FC01908190539A3008F090E0D3
:1019A000818180532AE0929F800D11240895CF9267
:1019B000EF920F93FC01603D87E0780710F0605DC7
:1019C00077406083418322830383E482C5820F9141
:1019D000EF90CF900895EF92FF920F931F93CF93C4
:1019E000DF93EC018B017A01CB0109960E94CA0CAE
:1019F0008883D801EC918E2FEE0F990BAA0BBB0BAD
:101A0000FC01E154F109E331F10560F5E25CFF4FBF
:101A10000C94C11FF8018181813629F082818E36B4
:101A200021F087E01EC081E01CC086E01AC082E081
:101A300018C0D80112968C91823711F088E011C03D
:101A400084E00FC0F8018281823711F085E009C07F
:101A500083E007C089E005C08AE003C08BE001C0D5
:101A60008CE08983C80104960E94CA0C8A83C7014E
:101A70000E94CA0C8B83C70103960E94CA0C8C83F8
:101A8000C70106960E94CA0C8D83DF91CF911F91EA
:101A90000F91FF90EF900895FC0180814281618158
:101AA00090E00E94980C069667E070E00E94581F34
:101AB000089568E670E08CEB92E00E941F0A60E0F7
:101AC00070E08CEB92E00E944D018CEB92E00C9464
:101AD0009D0A0F931F93CF93DF93082FC8E0D0E0A8
:101AE00010E8802F812311F061E301C060E385E8F5
:101AF00093E00E9424191695219799F7DF91CF91D1
:101B00001F910F910895CF93DF9368E670E08CEBFF
:101B100092E00E941F0A68E070E08CEB92E00E9465
:101B20004D018CEB92E00E949D0A41E050E068E696
:101B300070E08CEB92E00E94980A8CEB92E00E949D
:101B40008509EC0187FF16C068E670E08CEB92E037
:101B50000E941F0A68E070E08CEB92E00E944D0149
:101B6000BE0160688CEB92E00E944D018CEB92E02C
:101B70000E949D0A6AE070E080E090E00E947C157F
:101B800068E670E08CEB92E00E941F0A6AE070E069
:101B90008CEB92E00E944D018CEB92E00E949D0A3A
:101BA00041E050E068E670E08CEB92E00E94980A19
:101BB0008CEB92E00E948509EC0168E670E08CEB0A
:101BC00092E00E941F0A6AE070E08CEB92E00E94B3
:101BD0004D01BE016F798CEB92E00E944D018CEBC0
:101BE00092E00E949D0A81E0DF91CF910895CF920B
:101BF000DF92EF92FF920F931F93CF93DF93EC014D
:101C000068E670E08CEB92E00E941F0A61E070E0F1
:101C10008CEB92E00E944D018CEB92E00E949D0AB9
:101C200021E030E047E050E068E670E08CEB92E0C5
:101C30000E949B0A8CEB92E00E9485098F77982F77
:101C400092959F701AEF082F919F000D11248CEB35
:101C500092E00E9485098F77982F92959F70C82EE9
:101C6000919FC00C11248CEB92E00E9485098F7328
:101C7000982F92959F70D82E919FD00C11248CEBA9
:101C800092E00E9485098CEB92E00E9485098F7397
:101C9000982F92959F70F82E919FF00C11248CEB49
:101CA00092E00E9485098F71982F92959F70E82E7F
:101CB000919FE00C11248CEB92E00E9485099C011D
:101CC000332794E0359527959A95E1F7129F800D7B
:101CD00011248883E982FA82DB82CC820D83CE01D3
:101CE000DF91CF911F910F91FF90EF90DF90CF90F8
:101CF0000895CF93DF93C62F68E670E08CEB92E0F7
:101D00000E941F0A6AE070E08CEB92E00E944D0195
:101D10008CEB92E00E949D0A41E050E068E670E0A2
:101D20008CEB92E00E94980A8CEB92E00E9485096D
:101D3000CC2319F0EC01C06802C0EC01CF7768E653
:101D400070E08CEB92E00E941F0A6AE070E08CEB7E
:101D500092E00E944D01BE018CEB92E00E944D0189
:101D60008CEB92E0DF91CF910C949D0AAF92BF92E1
:101D7000CF92DF92EF92FF920F931F93CF93DF9357
:101D80005B0168E670E08CEB92E00E941F0A6BE05A
:101D900070E08CEB92E00E944D018CEB92E00E948F
:101DA0009D0A44E050E068E670E08CEB92E00E940F
:101DB000980A8CEB92E00E948509EC018CEB92E092
:101DC0000E9485096C018CEB92E00E9485097C01E0
:101DD0008CEB92E00E9485098C0183E0A816B10487
:101DE00011F154F481E0A816B104B1F082E0A81614
:101DF000B10451F50F7711C085E0A816B104E9F0E0
:101E0000B4F086E0A816B104F9F40F77E894E7F887
:101E1000E894C7F8CF7318C000686894E7F868942E
:101E2000C7F8C06C11C00F77E894E7F8F8CF0F77C8
:101E3000E894E7F8E894C7F8F4CF0F77E894E7F868
:101E4000E894C7F8CF77C06468E670E08CEB92E066
:101E50000E941F0A6BE070E08CEB92E00E944D0143
:101E6000BE018CEB92E00E944D01B6018CEB92E03A
:101E70000E944D01B7018CEB92E00E944D01B80128
:101E80008CEB92E00E944D018CEB92E00E949D0A47
:101E9000DF91CF911F910F91FF90EF90DF90CF9046
:101EA000BF90AF900C94590DFF920F931F93CF9357
:101EB000DF9368E670E08CEB92E00E941F0A6BE013
:101EC00070E08CEB92E00E944D018CEB92E00E945E
:101ED0009D0A44E050E068E670E08CEB92E00E94DE
:101EE000980A8CEB92E00E948509182F8CEB92E007
:101EF0000E948509082F8CEB92E00E948509F82E3C
:101F00008CEB92E00E94850987FB882780F9C82F17
:101F100080E0D82FF7FCC26007FDC46017FDC860E1
:101F200016FDC061CE50DE4FC8810C2E000CDD0BBB
:101F30000E94590DCE01DF91CF911F910F91FF901B
:101F4000089568E670E08CEB92E00E941F0A6FE053
:101F500070E08CEB92E00E944D018CEB92E00E94CD
:101F60009D0A41E050E068E670E08CEB92E00E9450
:101F7000980A8CEB92E00E94850986FB882780F9FD
:101F800090E00895CF93DF9368E670E08CEB92E0E9
:101F90000E941F0A60E070E08CEB92E00E944D010D
:101FA0008CEB92E00E949D0A40E150E068E670E010
:101FB0008CEB92E00E94980AC0E0D0E08CEB92E0BB
:101FC0000E9485090E94690D6CEE71E085E893E03E
:101FD0000E94221940E150E0BE0185E893E00E9492
:101FE000EB192196C031D10549F768E670E08CEB1A
:101FF00092E00E941F0A60E070E08CEB92E00E9489
:102000004D018CEB92E0DF91CF910C949D0AEF9201
:10201000FF920F931F93CF938C0168E670E08CEBD7
:1020200092E00E941F0A64E070E08CEB92E00E9454
:102030004D018CEB92E00E949D0A41E050E068E681
:1020400070E08CEB92E00E94980A8CEB92E00E9488
:1020500085097C0168E670E08CEB92E00E941F0A23
:1020600061E070E08CEB92E00E944D01F801258167
:10207000CAE0822F6C2F0E944C1F682F660F860FBC
:10208000880F682F620F8CEB92E00E94D609F8014E
:102090002481822F6C2F0E944C1F682F660F860FA1
:1020A000880F682F620F8CEB92E00E94D609F8012E
:1020B0002381822F6C2F0E944C1F682F660F860F82
:1020C000880F682F620F8CEB92E00E94D609B7014F
:1020D0008CEB92E00E944D01F8012281822F6C2F3F
:1020E0000E944C1F682F660F860F880F682F620FA3
:1020F0008CEB92E00E94D609F8012181822F6C2F8F
:102100000E944C1F682F660F860F880F682F620F82
:102110008CEB92E00E94D609F8012081822F6C2F6F
:102120000E944C1F682F660F860F880F682F620F62
:102130008CEB92E00E94D6098CEB92E0CF911F913C
:102140000F91FF90EF900C949D0A1F93CF93DF9314
:10215000EC0168E670E08CEB92E00E941F0A6AE0F6
:1021600070E08CEB92E00E944D0129811AE0822FF1
:10217000612F0E944C1F682F660F860F880F682FF3
:10218000620F8CEB92E00E94D6092A81822F612F88
:102190000E944C1F682F660F860F880F682F620FF2
:1021A0008CEB92E00E94D6092B81822F612F0E9436
:1021B0004C1F682F660F860F880F682F620F8CEBFD
:1021C00092E00E94D6092C81822F612F0E944C1F21
:1021D000682F660F860F880F682F620F8CEB92E0D6
:1021E0000E94D6092D81822F612F0E944C1F682FDB
:1021F000660F860F880F682F620F8CEB92E00E94AB
:10220000D60960E070E08CEB92E00E944D018CEB0F
:1022100092E0DF91CF911F910C949D0AEF92FF9273
:102220000F931F93CF93DF93EC017C018CE2E80EB8
:10223000F11C02E112E028853985C80182519240E3
:10224000821793072CF560E088810E9458168E81D2
:102250009F81F8012081892B09F0209540E06A8157
:102260008C810E94B016F70121917F0140E06A81C4
:102270008C810E94B01661E088810E94581661E04E
:1022800070E080E090E00E947C150F5F1F4FD3CF7D
:10229000DF91CF911F910F91FF90EF900895CF9311
:1022A000DF93EC0160E088810E94581620E041E055
:1022B0006A818C810E94B01620E041E06A818C81A5
:1022C0000E94B01661E08881DF91CF910C9458167E
:1022D000CF93DF93EC01862F688379835B834A83F6
:1022E0003D832C8361E00E941C1661E08A810E947C
:1022F0001C1661E08C810E941C16CE01DF91CF91EB
:102300000C944F11EF92FF920F931F93CF93DF9393
:10231000EC010E946811CE018C9661E00115110557
:1023200009F460E0619570E048E050E00E94D1213E
:1023300088E0E816F1041CF49E2D8F2D02C098E071
:1023400080E01F830E839887898721E030E03B87F8
:102350002A879C878D871D8E1C8EDF91CF911F91C0
:102360000F91FF90EF900895EF92FF920F931F93BC
:102370007A018B0125E030E047E050E066E070E054
:102380000E9482111F910F91FF90EF900895CF93BB
:10239000DF93EC01645D7F4FFC01E60FF71FD9016D
:1023A000CD01821B930B841795075CF48E819F816E
:1023B000892B11F09C9102C09C919095919311965C
:1023C000EFCFDF91CF910895FC0126813781E60F91
:1023D000F71F442319F0232B31F402C0232B19F0EB
:1023E00084A5816002C084A58E7F84A708950F9381
:1023F0001F93CF93DF93EA01D9018FEF97EF4FEE51
:102400005DEFFD01E21BF30BE617F70784F5E99199
:10241000F0EDFE0FFA3030F40E2E000CFF0BEC5FE7
:10242000FD4F09C0FFE9FE0FFA3140F40E2E000CFB
:10243000FF0BE754FE4FE081EC9317C0FFEBFE0F5C
:10244000FA3130F40E2E000CFF0BE752FE4FF3CFA3
:10245000ED3211F45C9309C0EF3511F44C9305C0D3
:10246000E33211F49C9301C08C931196CACF0F3FB5
:102470008FEF180731F0F901E00FF11F80818160C3
:102480008083DF91CF911F910F910895CF92DF92BA
:10249000EF92FF920F931F93CF93DF93EE2DD9010D
:1024A0001197EC3429F46150710980E090E017C075
:1024B000C901861B970BE23511F4BD0108C097FDD9
:1024C000019695958795680F791F61507109F801FC
:1024D000C0E27F01E01AF10AE816F90614F0FA01E9
:1024E00006C0C193F6CF97FF06C0019631966817D4
:1024F0007907CCF709C0A817B907BCF34081E801F8
:10250000C80FD91F4883F1CFFB013196E00FF11FAF
:1025100080E2AF01401B510B4217530714F4819323
:10252000F8CF8FEFC816D80639F06C197D0977FD02
:1025300003C0A617B7071CF48FEF9FEF01C0CB01B4
:10254000DF91CF911F910F91FF90EF90DF90CF908F
:1025500008952F923F924F925F926F927F928F9247
:102560009F92AF92BF92CF92DF92EF92FF920F9322
:102570001F93CF93DF93CDB7DEB75C016DB67EB608
:1025800077FD50C0FC0182859385681779070CF0B0
:1025900049C0FA0101900020E9F73197CF01841B6F
:1025A000950B660F771F1501260E371EF1018484E7
:1025B00095846DB77EB7681979090FB6F8947EBF18
:1025C0000FBE6DBFEDB7FEB731962F01CC24CA9474
:1025D000DC2CE22E8F019401BC01C5010E94461241
:1025E0006DB77EB7681979090FB6F8947EBF0FBE34
:1025F0006DBF8DB79EB701967C010FEF1FEF9C0159
:10260000A201B401C5010E94F711F101648D758D1D
:102610009701A401C5010E94C7110FB6F8947EBEB0
:102620000FBE6DBE0FB6F8947EBE0FBE6DBEDF91BD
:10263000CF911F910F91FF90EF90DF90CF90BF90BF
:10264000AF909F908F907F906F905F904F903F9052
:102650002F900895242FAB0160E070E00C94A91234
:102660002F923F924F925F926F927F928F929F92A2
:10267000AF92BF92CF92DF92EF92FF920F931F9390
:10268000CF93DF9300D01F92CDB7DEB75C016B0113
:102690003A0129838DB79EB79B838A8377FD42C019
:1026A000F5018285938568177907E4F52DB63EB666
:1026B00000E010E0B801C3010E94D61D98012F5F11
:1026C0003F4F882311F08901F5CF8DB79EB7821B4C
:1026D000930B0FB6F8949EBF0FBE8DBFEDB7FEB73C
:1026E00031962F014F01E12CF12C0E151F0559F0E9
:1026F000B701C3010E94D61DF40181934F01FFEF82
:10270000EF1AFF0AF2CFF201E00FF11F10822981C8
:10271000A201B601C5010E94A9120FB6F8943EBEEF
:102720000FBE2DBE8A819B810FB6F8949EBF0FBE4F
:102730008DBF0F900F900F90DF91CF911F910F9150
:10274000FF90EF90DF90CF90BF90AF909F908F90D1
:102750007F906F905F904F903F902F900895242F1F
:10276000AB0160E070E00C94301377FD1BC0DC011E
:102770001A96ED91FC911B976E177F079CF457FDFD
:1027800011C0660F771FFC01E60FF71F6485758582
:10279000461757073CF4648D758D640F751F422FE3
:1027A0000C94E4110895242FAB0160E070E00C94C8
:1027B000B513CF93DF93EC010E940E11CE01DF9190
:1027C000CF910C944F11CF92DF92EF92FF920F9323
:1027D0001F93CF93DF93EC016A017B010E944B159D
:1027E00008851985012E000C220B330BC01AD10A63
:1027F000E20AF30AC60ED71EE81EF91E0E944B1508
:10280000C616D706E806F90620F0CE010E940E1182
:10281000F5CFCE01DF91CF911F910F91FF90EF90F7
:10282000DF90CF900C944F11CF92DF92EF92FF92F6
:102830000F93CF93DF93EC0169017A01402F0E943F
:102840002A13B701A601CE01DF91CF910F91FF901E
:10285000EF90DF90CF900C94E313CF92DF92EF9242
:10286000FF920F93CF93DF93EC0169017A01402F20
:102870000E94AF13B701A601CE01DF91CF910F9156
:10288000FF90EF90DF90CF900C94E3130895833086
:1028900060F5E82FF0E0EE0FFF1FE85FFE4F718359
:1028A0006083813051F08230A1F0809169008C7F8B
:1028B000482B40936900E89A089580916900837FCE
:1028C000440F551F440F551F482B40936900E99A48
:1028D0000895809169008F7C94E0440F551F9A956C
:1028E000E1F7482B40936900EA9A0895833098F401
:1028F000813021F0823021F0E89803C0E99801C0CE
:10290000EA98E82FF0E0EE0FFF1FE85FFE4F86E445
:1029100094E19183808308951F920F920FB60F92D6
:1029200011242F933F934F935F936F937F938F93D4
:102930009F93AF93BF93EF93FF93E0910801F091C2
:1029400009010995FF91EF91BF91AF919F918F91EF
:102950007F916F915F914F913F912F910F900FBE9B
:102960000F901F9018951F920F920FB60F9211247F
:102970002F933F934F935F936F937F938F939F9387
:10298000AF93BF93EF93FF93E0910A01F0910B0196
:102990000995FF91EF91BF91AF919F918F917F9199
:1029A0006F915F914F913F912F910F900FBE0F90BC
:1029B0001F9018951F920F920FB60F9211242F930C
:1029C0003F934F935F936F937F938F939F93AF93B7
:1029D000BF93EF93FF93E0910C01F0910D010995E6
:1029E000FF91EF91BF91AF919F918F917F916F91E7
:1029F0005F914F913F912F910F900FBE0F901F90BD
:102A000018951F920F920FB60F9211242F933F9398
:102A10008F939F93AF93BF9380917D0390917E039B
:102A2000A0917F03B091800330917C0326E0230FB7
:102A30002D3720F40296A11DB11D05C029E8230FF2
:102A40000396A11DB11D20937C0380937D03909379
:102A50007E03A0937F03B0938003809181039091C4
:102A60008203A0918303B09184030196A11DB11D3F
:102A70008093810390938203A0938303B093840394
:102A8000BF91AF919F918F913F912F910F900FBE6A
:102A90000F901F9018952FB7F89460917D03709157
:102AA0007E0380917F03909180032FBF08953FB7ED
:102AB000F8948091810390918203A0918303B09157
:102AC000840326B5A89B05C02F3F19F00196A11DD0
:102AD000B11D3FBFBA2FA92F982F8827820F911DB4
:102AE000A11DB11DBC01CD0143E0660F771F881FFA
:102AF000991F4A95D1F708958F929F92AF92BF92F6
:102B0000CF92DF92EF92FF926B017C010E945715EA
:102B10004B015C01C114D104E104F10401F10E94F4
:102B20001A1E0E945715DC01CB0188199909AA09C0
:102B3000BB09883E9340A105B10560F321E0C21AAC
:102B4000D108E108F10888EE880E83E0981EA11CE8
:102B5000B11CC114D104E104F10419F7DBCFFF90DB
:102B6000EF90DF90CF90BF90AF909F908F9008959F
:102B7000789484B5826084BD84B5816084BD85B558
:102B8000826085BD85B5816085BDEEE6F0E080811F
:102B900081608083E1E8F0E0108280818260808340
:102BA000808181608083E0E8F0E0808181608083C3
:102BB000E1EBF0E0808184608083E0EBF0E08081F5
:102BC00081608083EAE7F0E0808184608083808197
:102BD0008260808380818E7F808380818068808313
:102BE0001092C1000895843081F028F4823099F069
:102BF0008330A1F008958830A9F08930B9F085308C
:102C0000D1F4809180008F7D03C0809180008F7708
:102C100080938000089584B58F7702C084B58F7D3E
:102C200084BD08958091B0008F7703C08091B0007B
:102C30008F7D8093B0000895CF93DF9390E0FC01E7
:102C4000EE52FE4F2491FC01EE50FE4F84918823FA
:102C500061F190E0880F991FFC01EA5DFD4FC5917D
:102C6000D491FC01E45EFD4FA591B491611109C0BE
:102C70009FB7F8948881209582238883EC912E2336
:102C80000BC0623061F49FB7F8948881322F309581
:102C900083238883EC912E2B2C939FBF06C08FB784
:102CA000F894E8812E2B28838FBFDF91CF91089570
:102CB0001F93CF93DF93282F30E0F901EE54FE4F9E
:102CC0008491F901EE52FE4FD491F901EE50FE4F7E
:102CD000C491CC23C1F0162F81110E94F315EC2F63
:102CE000F0E0EE0FFF1FE45EFD4FA591B4919FB79A
:102CF000F894111104C08C91D095D82302C0EC91A6
:102D0000DE2BDC939FBFDF91CF911F910895CF936E
:102D1000DF93282F30E0F901EE54FE4F8491F90142
:102D2000EE52FE4FD491F901EE50FE4FC491CC23E8
:102D300091F081110E94F315EC2FF0E0EE0FFF1FD0
:102D4000EE5EFD4FA591B491EC91ED2381E090E012
:102D500021F480E002C080E090E0DF91CF910895FF
:102D6000BF92CF92DF92EF92FF920F931F93CF9378
:102D7000DF93C82ED62EB42EC7E0D0E0022F10E08D
:102D800087E0E82EF12CB11005C0C7018C1B9D0B0C
:102D9000B80102C0B8018C2F02C0759567958A955D
:102DA000E2F761708C2D0E94581661E08D2D0E9413
:102DB000581660E08D2D0E945816219720F7DF915C
:102DC000CF911F910F91FF90EF90DF90CF90BF9028
:102DD0000895FC01918D228D892F90E0805C9F4F9A
:102DE000821B91098F7399270895FC01918D828D23
:102DF000981731F0828DE80FF11D858D90E00895D0
:102E00008FEF9FEF0895FC01918D828D981761F0EF
:102E1000828DDF01A80FB11D5D968C91928D9F5F11
:102E20009F73928F90E008958FEF9FEF089588E74A
:102E300098E1892B41F080E090E0892B21F00E94FD
:102E4000781881110DC080E090E0892B71F080E04E
:102E500090E0892B51F00E940000811104C0089578
:102E60000E940000F0CF0C9400000895FC01848DB6
:102E7000DF01A80FB11DA35ABF4F2C91848D90E0A4
:102E800001968F739927848FA689B7892C93A0897F
:102E9000B1898C9180648C93938D848D981306C036
:102EA0000288F389E02D80818F7D80830895EF92E1
:102EB000FF920F931F93CF93DF93EC0181E0888FF4
:102EC0009B8D8C8D981305C0E889F989808185FDDB
:102ED00024C0F62E0B8D10E00F5F1F4F0F731127CC
:102EE000E02E8C8DE8120CC00FB607FCFACFE889F3
:102EF000F989808185FFF5CFCE010E943617F1CF89
:102F00008B8DFE01E80FF11DE35AFF4FF0820B8F0E
:102F1000EA89FB898081806207C0EE89FF8960832E
:102F2000E889F98980818064808381E090E0DF9185
:102F3000CF911F910F91FF90EF900895CF93DF9362
:102F4000EC01888D8823C9F0EA89FB89808185FDA1
:102F500005C0A889B9898C9186FD0FC00FB607FC02
:102F6000F5CF808185FFF2CFA889B9898C9185FF43
:102F7000EDCFCE010E943617E7CFDF91CF910895B4
:102F8000CF92DF92EF92FF921F93CF93DF93EC01EA
:102F90006A017B01122F60E874E88EE190E0A701DE
:102FA00096010E94801FDA01C9010197A109B109A8
:102FB000B695A795979587959C01E889F98982E050
:102FC0008083211580E13807A8F0E889F98910820B
:102FD00060E472E48FE090E0A70196010E94801FF8
:102FE000DA01C9010197A109B109B695A79597958D
:102FF00087959C01EC85FD853083EE85FF852083D8
:10300000188EEC89FD891083EA89FB8980818061B3
:103010008083EA89FB89808188608083EA89FB89D3
:10302000808180688083EA89FB8980818F7D8083AD
:10303000DF91CF911F91FF90EF90DF90CF90089597
:103040001F920F920FB60F9211242F938F939F937D
:10305000EF93FF93E0919503F09196038081E091C7
:103060009B03F0919C0382FD12C0908180919E038E
:103070008F5F8F7320919F03821751F0E0919E0321
:10308000F0E0EB57FC4F958F80939E0301C0808149
:10309000FF91EF919F918F912F910F900FBE0F9005
:1030A0001F9018951F920F920FB60F9211242F9315
:1030B0003F934F935F936F937F938F939F93AF93C0
:1030C000BF93EF93FF9385E893E00E943617FF913B
:1030D000EF91BF91AF919F918F917F916F915F9190
:1030E0004F913F912F910F900FBE0F901F90189509
:1030F00085E893E00E94E91621E0892B09F420E09D
:10310000822F0895E5E8F3E01382128288EE93E0BF
:10311000A0E0B0E084839583A683B78382E492E045
:103120009183808385EC90E09587848784EC90E0A0
:103130009787868780EC90E0918B808B81EC90E084
:10314000938B828B82EC90E0958B848B86EC90E065
:10315000978B868B118E128E138E148E0895089580
:103160000E94B8150E94AF180E940907C7E1D7E175
:103170000E941A092097E1F30E941717F9CFCF9206
:10318000DF92EF92FF920F931F93CF93DF936C0127
:103190007A018B01C0E0D0E0CE15DF0581F0D801C7
:1031A0006D918D01D601ED91FC910190F081E02DA2
:1031B000C6010995892B11F02196EECF7E01C7013A
:1031C000DF91CF911F910F91FF90EF90DF90CF9003
:1031D00008956115710579F0FB0101900020E9F770
:1031E0003197AF01461B570BDC01ED91FC9102803A
:1031F000F381E02D099480E090E00895EF92FF9232
:103200000F931F93CF93DF938C017B01C0E0D0E03D
:10321000F701EC0FFD1F6491662361F0D801ED9179
:10322000FC910190F081E02DC8010995892B11F0E6
:103230002196EECFCE01DF91CF911F910F91FF909C
:10324000EF9008950C94E918DC01ED91FC91019048
:10325000F081E02D09946EE472E00C94E9180F936C
:103260001F93CF93DF93EC010E94FE188C01CE01D7
:103270000E942B19800F911FDF91CF911F910F9109
:1032800008950F931F93CF93DF93EC010E94E918E9
:103290008C01CE010E942B19800F911FDF91CF91DD
:1032A0001F910F9108958F929F92AF92BF92EF92CC
:1032B000FF920F931F93CF93DF93CDB7DEB7A19704
:1032C0000FB6F894DEBF0FBECDBF7C01FA01CB0173
:1032D00019A2223008F42AE08E010F5D1F4F822EC2
:1032E000912CA12CB12CBF01A50194010E94801F3B
:1032F000F901CA01015011096A3014F4605D01C07E
:10330000695CD8016C93232B242B252B61F7B80122
:10331000C7010E94E918A1960FB6F894DEBF0FBE50
:10332000CDBFDF91CF911F910F91FF90EF90BF9094
:10333000AF909F908F900895CF92DF92EF92FF927F
:103340000F931F93CF93DF932115310581F4DC0197
:10335000ED91FC910190F081E02D642FDF91CF91F0
:103360001F910F91FF90EF90DF90CF9009942A303A
:10337000310501F577FF1DC06A017B01EC016DE2AB
:103380000E9424198C0144275527BA014C195D0964
:103390006E097F092AE0CE010E945319800F911F08
:1033A000DF91CF911F910F91FF90EF90DF90CF9021
:1033B00008952AE0DF91CF911F910F91FF90EF9038
:1033C000DF90CF900C9453199A01AB01770F660BE5
:1033D000770B0C949C190F931F93CF93DF93EC0101
:1033E0000E94E4198C01CE010E942B19800F911FBD
:1033F000DF91CF911F910F9108954F925F926F923D
:103400007F928F929F92AF92BF92CF92DF92EF9274
:10341000FF920F931F93CF93DF9300D000D01F92A2
:10342000CDB7DEB78B0129013A0190910E018917C2
:1034300021F09F3F09F038C205C0E0E3F2E024919B
:103440002D8384C080930E01E0E3F2E094919D838C
:103450009F3F09F429C2913009F44DC058F19230D0
:1034600009F074C01092B0001092B1009091B000B9
:1034700092609093B0009091B10091609093B100F0
:10348000282F30E0F901EE50FE4FE491F0E0EE0F0E
:10349000FF1FE45EFD4F45915491509324044093E7
:1034A0002304F901EE52FE4FE491E093220492E0EE
:1034B0009D83F6C114BC15BC94B5926094BD95B5BE
:1034C000916095BD282F30E0F901EE50FE4FE49158
:1034D000F0E0EE0FFF1FE45EFD4F459154915093D5
:1034E000320440933104F901EE52FE4FE491E0932F
:1034F00030041D82D5C110928000109281009091FD
:1035000081009860909381009091810091609093E8
:103510008100282F30E0F901EE50FE4FE491F0E0F9
:10352000EE0FFF1FE45EFD4F4591549150932B0425
:1035300040932A04F901EE52FE4FE491E0932904EE
:1035400061E00E941C1621E02D83A5C02D8127FD7E
:10355000ABC161E00E941C168D818D7F09F09BC07C
:103560004801A12CB12C60E079E08DE390E0A50149
:1035700094010E94A21F29833A834B835C836901D3
:103580007A0181E0C81AD108E108F1089FEFC91655
:10359000D104E104F10409F008F461C060E271EAC9
:1035A00087E090E0A50194010E94A21F69017A01C1
:1035B00081E0C81AD108E108F1089D81923009F034
:1035C000F4C02FEFC216D104E104F10409F008F4AD
:1035D00058C068E478EE81E090E0A50194010E9473
:1035E000A21F69017A0181E0C81AD108E108F10837
:1035F0009FEFC916D104E104F10409F008F44EC1AB
:1036000064E274EF80E090E0A50194010E94A21FA3
:1036100069017A0181E0C81AD108E108F1089FEF39
:10362000C916D104E104F10471F168F162E17AE7AD
:1036300080E090E0A50194010E94A21F69017A0137
:1036400081E0C81AD108E108F1089FEFC916D1043A
:10365000E104F10411F008F0C9C085E015C081E073
:103660009D81911111C095B5987F892B85BD41141D
:1036700051046104710409F04FC02FEF3FEFA9011D
:1036800063C082E001C084E09091B100987F892BF3
:103690008093B1003CC04801A12CB12C60E079E0DE
:1036A0008DE390E0A50194010E94A21F69017A01B7
:1036B00081E0C81AD108E108F108C114D10491E0F1
:1036C000E906F10488F064E274EF80E090E0A5017F
:1036D00094010E94A21F69017A0181E0C81AD108F1
:1036E000E108F10883E001C081E09D81913079F427
:1036F00090918100987F892B80938100411451041F
:103700006104710449F42FEF3FEFA9012CC041146B
:1037100051046104710471F0D801AA0FBB1FA30109
:1037200092010E94D61F28EE33E040E050E00E9454
:10373000801F03C02FEF3FEFA9018D81813099F0E9
:10374000823019F18111B0C0C7BC2093330430938B
:103750003404409335045093360480916E008260A7
:1037600080936E00A1C0D0928900C09288002093FF
:103770002C0430932D0440932E0450932F048091F9
:103780006F00826080936F008FC0C092B30020935F
:1037900025043093260440932704509328048091F5
:1037A00070008260809370007FC08FEFC816D104D4
:1037B000E104F104C9F0C0F064E274EF80E090E04D
:1037C000A50194010E94A21F69017A0191E0C91A22
:1037D000D108E108F1082FEFC216D104E104F10489
:1037E00009F080F583E03CCF82E03ACF69E07DE3E9
:1037F00080E090E0A50194010E94A21F69017A0176
:1038000081E0C81AD108E108F1089FEFC916D10478
:10381000E104F104A9F0A0F089819A81AB81BC8117
:103820002AE0B595A795979587952A95D1F76C01CC
:103830007D0121E0C21AD108E108F10887E024CF18
:1038400086E022CF69E07DE380E090E0A50194016D
:103850000E94A21F69017A0181E0C81AD108E1081B
:10386000F1089FEFC916D104E104F104A9F0A0F01A
:1038700089819A81AB81BC814AE0B595A7959795DE
:1038800087954A95D1F76C017D0121E0C21AD108D4
:10389000E108F10885E0E4CE84E0E2CE83E0F4CEF6
:1038A00061E00E941C165CCE0F900F900F900F905D
:1038B0000F90DF91CF911F910F91FF90EF90DF90CC
:1038C000CF90BF90AF909F908F907F906F905F90C0
:1038D0004F900895813039F018F0823051F00895FA
:1038E00010926E00089580916F008D7F80936F001D
:1038F0000895809170008D7F8093700081E08093A7
:10390000B0008091B100887F84608093B1001092F4
:10391000B3000895CF93C82F80910E01C81307C03C
:10392000E0E3F2E084919FEF90930E0101C08FEFEE
:103930000E946A1C60E08C2FCF910C9458161F9245
:103940000F920FB60F9211242F933F934F935F93D3
:103950006F937F938F939F93AF93BF93EF93FF9357
:103960008091250490912604A0912704B091280409
:10397000892B8A2B8B2B51F190912204E091230407
:10398000F09124048081892780838091250490917F
:103990002604A0912704B0912804181619061A06C7
:1039A0001B06C4F48091250490912604A09127045D
:1039B000B09128040197A109B1098093250490933F
:1039C0002604A0932704B093280404C080910E011C
:1039D0000E948A1CFF91EF91BF91AF919F918F91AF
:1039E0007F916F915F914F913F912F910F900FBEFB
:1039F0000F901F901895FC01808191810C94792083
:103A0000CF93DF93EC0188819981009711F00E9498
:103A10007920198218821D821C821B821A82DF91F2
:103A2000CF9108950F931F93CF93DF93EC018B01F8
:103A30006F5F7F4F888199810E940221009731F04A
:103A4000998388831B830A8381E001C080E0DF9132
:103A5000CF911F910F910895CF93DF93EC0188814F
:103A60009981892B29F08A819B818617970760F4B9
:103A7000CE010E94121D882341F08C819D81892BEB
:103A800019F4E881F981108281E0DF91CF910895E6
:103A9000EF92FF920F931F93CF93DF93EC017B0183
:103AA0008A01BA010E942C1D811104C0CE010E941E
:103AB000001D07C01D830C83B701888199810E9476
:103AC000D821CE01DF91CF911F910F91FF90EF9000
:103AD0000895FC01118210821382128215821482D1
:103AE0006115710551F0FB0101900020E9F7319754
:103AF000AF01461B570B0C94481D0895CF93DF93DD
:103B0000EC01FB018617970761F0608171816115F7
:103B1000710529F0448155810E94481D02C00E9410
:103B2000001DCE01DF91CF910895EF92FF920F9388
:103B30001F93CF93DF936115710511F480E01CC0D2
:103B400041155105C1F07B01EC018C819D818A01F9
:103B5000080F191FB801CE010E942C1D882371F394
:103B6000288139818C819D81B701820F931F0E942A
:103B7000D8211D830C8381E0DF91CF911F910F919C
:103B8000FF90EF900895CF93DF93EC01FB01448108
:103B90005581608171810E94951D811103C0CE0104
:103BA0000E94001DCE01DF91CF910895FC01248178
:103BB00035816217730748F480819181009729F05D
:103BC000FC01E60FF71F8081089580E00895CF93F0
:103BD000DF93DC011496ED91FC9115976E177F072A
:103BE00030F54115510519F1DF01A61BB70B9A01FC
:103BF000A417B50708F49D01DB01EC0188819981C8
:103C0000E21BF30BFD83EC83AF01461B570B260F22
:103C1000371FBC01620F731F8A0F9B1F0E94DF2199
:103C2000E881F9818C819D81E80FF91F1082DF9175
:103C3000CF91089508950E94221E6894B1110C94AA
:103C4000D91E08950E94BE1E88F09F5798F0B92F84
:103C50009927B751B0F0E1F0660F771F881F991FC1
:103C60001AF0BA95C9F714C0B13091F00E94D81E6D
:103C7000B1E008950C94D81E672F782F8827B85F7D
:103C800039F0B93FCCF3869577956795B395D9F719
:103C90003EF490958095709561957F4F8F4F9F4F23
:103CA0000895E89409C097FB3EF49095809570952F
:103CB00061957F4F8F4F9F4F9923A9F0F92F96E978
:103CC000BB279395F695879577956795B795F111ED
:103CD000F8CFFAF4BB0F11F460FF1BC06F5F7F4F8A
:103CE0008F4F9F4F16C0882311F096E911C077239C
:103CF00021F09EE8872F762F05C0662371F096E8A5
:103D0000862F70E060E02AF09A95660F771F881F73
:103D1000DAF7880F9695879597F9089597F99F6731
:103D200080E870E060E008959FEF80EC0895002443
:103D30000A941616170618060906089500240A9410
:103D400012161306140605060895092E0394000C96
:103D500011F4882352F0BB0F40F4BF2B11F460FF25
:103D600004C06F5F7F4F8F4F9F4F089557FD90584E
:103D7000440F551F59F05F3F71F04795880F97FB2F
:103D8000991F61F09F3F79F08795089512161306E9
:103D90001406551FF2CF4695F1DF08C01616170618
:103DA0001806991FF1CF869571056105089408954D
:103DB000E894BB2766277727CB0197F908950E94DF
:103DC000F21E0C94A51E0E94971E38F00E949E1EA3
:103DD00020F0952311F00C948E1E0C94941E112447
:103DE0000C94D91E0E94B61E70F3959FC1F3950FD7
:103DF00050E0551F629FF001729FBB27F00DB11D6F
:103E0000639FAA27F00DB11DAA1F649F6627B00DFE
:103E1000A11D661F829F2227B00DA11D621F739FE7
:103E2000B00DA11D621F839FA00D611D221F749FF5
:103E30003327A00D611D231F849F600D211D822F3C
:103E4000762F6A2F11249F5750409AF0F1F0882363
:103E50004AF0EE0FFF1FBB1F661F771F881F915090
:103E60005040A9F79E3F510580F00C948E1E0C9493
:103E7000D91E5F3FE4F3983ED4F386957795679516
:103E8000B795F795E7959F5FC1F7FE2B880F911DBA
:103E90009695879597F90895991B79E004C0991F25
:103EA000961708F0961B881F7A95C9F78095089594
:103EB000AA1BBB1B51E107C0AA1FBB1FA617B70750
:103EC00010F0A61BB70B881F991F5A95A9F780956C
:103ED0009095BC01CD01089597FB072E16F4009430
:103EE00007D077FD09D00E94581F07FC05D03EF48B
:103EF000909581959F4F0895709561957F4F089596
:103F0000A1E21A2EAA1BBB1BFD010DC0AA1FBB1FDD
:103F1000EE1FFF1FA217B307E407F50720F0A21B4F
:103F2000B30BE40BF50B661F771F881F991F1A94BC
:103F300069F760957095809590959B01AC01BD01E6
:103F4000CF010895052E97FB1EF400940E94B91F1F
:103F500057FD07D00E94801F07FC03D04EF40C943D
:103F6000B91F50954095309521953F4F4F4F5F4F6A
:103F7000089590958095709561957F4F8F4F9F4FD5
:103F80000895EE0FFF1F0590F491E02D0994A29F74
:103F9000B001B39FC001A39F700D811D1124911D1D
:103FA000B29F700D811D1124911D08950E94C71F9D
:103FB000A59F900DB49F900DA49F800D911D11247D
:103FC00008950F931F93CF93DF938230910510F4E0
:103FD00082E090E0E0913904F0913A0420E030E092
:103FE000A0E0B0E0309719F1408151810281138146
:103FF00048175907C8F08417950769F4109731F0EE
:1040000012960C93129713961C9327C000933904B1
:1040100010933A0422C02115310519F042175307B5
:1040200018F49A01BD01EF01DF01F801DBCF211582
:104030003105F9F0281B390B2430310580F48A81D1
:104040009B816115710521F0FB019383828304C07C
:1040500090933A0480933904FE01329644C0FE01E5
:10406000E20FF31F81939193225031093983288302
:104070003AC02091370430913804232B41F4209129
:1040800002013091030130933804209337042091CA
:104090000001309101012115310541F42DB73EB7E2
:1040A0004091040150910501241B350BE091370428
:1040B000F0913804E217F307A0F42E1B3F0B2817EA
:1040C000390778F0AC014E5F5F4F2417350748F091
:1040D0004E0F5F1F509338044093370481939193A0
:1040E00002C0E0E0F0E0CF01DF91CF911F910F918E
:1040F0000895CF93DF93009709F481C0FC013297B4
:1041000013821282A0913904B0913A04109781F47D
:1041100020813181820F931F209137043091380420
:104120002817390751F5F0933804E093370467C036
:10413000ED0120E030E0CE17DF0740F44A815B81DB
:104140009E0141155105F1F0EA01F5CFD383C283F9
:1041500040815181840F951FC817D90759F4888170
:104160009981840F951F0296918380838A819B8118
:10417000938382832115310529F4F0933A04E09367
:1041800039043DC0E901FB83EA8349915991C40F89
:10419000D51FEC17FD0761F480819181840F951F75
:1041A0000296E90199838883828193819B838A8324
:1041B000E0E0F0E012968D919C911397009719F032
:1041C000FD01DC01F7CF8D919C9111979D012E5F30
:1041D0003F4F820F931F20913704309138042817E6
:1041E000390769F4309729F410923A04109239048F
:1041F00002C013821282B0933804A0933704DF9177
:10420000CF910895A0E0B0E0E8E0F1E20C94A5249D
:10421000EC01009721F4CB010E94E11FB4C0FC0126
:10422000E60FF71F9C0122503109E217F30708F44B
:10423000A8C0D9010D911C91119706171707B0F06E
:104240000530110508F49BC0C8010497861797072D
:1042500008F495C002501109061B170B0193119326
:104260006D937C93CF010E94792089C05B01A01AD5
:10427000B10A4C01800E911EA0913904B0913A040C
:10428000612C712CE12CF12C109709F446C08D9112
:104290009C911197A815B905B1F56C0142E0C40EC7
:1042A000D11CCA14DB0478F14C018A189B08640104
:1042B00042E0C40ED11C1296BC9012971396AC919A
:1042C000B5E0CB16D10440F0B282A3839182808204
:1042D000D9016D937C9309C00E5F1F4F800F911F12
:1042E000F90191838083EB2DFA2FE114F10431F071
:1042F000D7011396FC93EE93129741C0F0933A04C2
:10430000E09339043CC06816790608F43C017D014D
:1043100012960D90BC91A02DB7CF8091370490914B
:10432000380488169906E1F466167706C8F4809179
:10433000000190910101009741F48DB79EB7409123
:10434000040150910501841B950BE817F907C8F487
:10435000F0933804E0933704F901718360830FC050
:10436000CB010E94E11F7C01009759F0A801BE011A
:104370000E94C821CE010E947920C70104C0CE014D
:1043800002C080E090E0CDB7DEB7EEE00C94C1242F
:10439000FB01DC0102C001900D9241505040D8F762
:1043A0000895DC0101C06D9341505040E0F708953D
:1043B000FB01DC0101900D920020E1F70895FB0163
:1043C000DC014150504048F001900D920020C9F7A7
:1043D00001C01D9241505040E0F70895AEE0B0E0BA
:1043E000E4EFF1E20C94AF240D891E8986E08C8302
:1043F0001A8309838FEF9FE79E838D83AE01475E0B
:104400005F4F6F89788DCE0101960E941022EF8157
:10441000F885E00FF11F10822E96E4E00C94CB2477
:10442000ABE0B0E0E6E1F2E20C94A1246C017B0188
:104430008A01FC0117821682838181FFCCC1CE01E3
:1044400001963C01F6019381F70193FD859193FF5D
:1044500081917F01882309F4BAC1853239F493FD33
:10446000859193FF81917F01853229F4B60190E017
:104470000E940724E7CF912C212C312CFFE1F3156A
:10448000D8F08B3279F038F4803279F08332A1F4AD
:10449000232D20611DC08D3261F0803369F4232DFE
:1044A000216016C0832D8260382EE32DE4603E2EFD
:1044B0002AC0F32DF8601DC037FC2DC020ED280F59
:1044C0002A3040F08E32B9F436FC81C1232D2064AD
:1044D000322E19C036FE06C08AE0989E200D1124A7
:1044E000922E11C0EAE02E9E200D1124222EF32DD3
:1044F000F0623F2E08C08C3621F4832D8068382E60
:1045000002C0883641F4F70193FD859193FF8191B4
:104510007F018111B3CF982F9F7D9554933028F45C
:104520000C5F1F4F9FE399830DC0833631F08337B3
:1045300071F0833509F059C021C0F8018081898369
:104540000E5F1F4F88248394912C530113C02801C0
:10455000F2E04F0E511CF801A080B18036FE03C07E
:10456000692D70E002C06FEF7FEFC5010E94FC2350
:104570004C018201F32DFF773F2E16C0280122E067
:10458000420E511CF801A080B18036FE03C0692D97
:1045900070E002C06FEF7FEFC5010E94F1234C0174
:1045A000F32DF0683F2E820133FC1BC0822D90E07A
:1045B00088169906B0F4B60180E290E00E940724C4
:1045C0002A94F4CFF50137FC859137FE81915F0184
:1045D000B60190E00E94072421102A9421E0821A5B
:1045E00091088114910471F7E8C0843611F089367E
:1045F00041F5F80137FE07C06081718182819381A6
:104600000C5F1F4F08C060817181072E000C880B62
:10461000990B0E5F1F4FF32DFF763F2E97FF09C0BA
:1046200090958095709561957F4F8F4F9F4FF06863
:104630003F2E2AE030E0A3010E944324882E8618F2
:1046400045C0853731F4232D2F7EB22E2AE030E08D
:1046500025C0932D997FB92E8F36C1F018F4883577
:1046600079F0B5C0803719F0883721F0B0C0E92F54
:10467000E061BE2EB4FE0DC0FB2DF460BF2E09C05C
:1046800034FE0AC0292F2660B22E06C028E030E092
:1046900005C020E130E002C020E132E0F801B7FEC1
:1046A00007C060817181828193810C5F1F4F06C0BA
:1046B0006081718180E090E00E5F1F4FA3010E9436
:1046C0004324882E8618FB2DFF773F2E36FE0DC023
:1046D000232D2E7FA22E891458F434FE0BC032FCF9
:1046E00009C0832D8E7EA82E05C0B82CA32C03C034
:1046F000B82C01C0B92CA4FE0FC0FE01E80DF11DBD
:104700008081803321F49A2D997EA92E09C0A2FEC2
:1047100006C0B394B39404C08A2D867809F0B3948C
:10472000A3FC11C0A0FE06C0B21488F4280C922C81
:104730009B180EC0B21460F4B60180E290E00E94B3
:104740000724B394F7CFB21418F42B1802C0982C96
:10475000212CA4FE10C0B60180E390E00E94072443
:10476000A2FE17C0A1FC03C088E790E002C088E564
:1047700090E0B6010CC08A2D867859F0A1FE02C0E7
:104780008BE201C080E2A7FC8DE2B60190E00E94BE
:104790000724891438F4B60180E390E00E940724CE
:1047A0009A94F7CF8A94F301E80DF11D8081B60148
:1047B00090E00E9407248110F5CF222009F442CE18
:1047C000B60180E290E00E9407242A94F6CFF60119
:1047D0008681978102C08FEF9FEF2B96E2E10C94C8
:1047E000BD24FC010590615070400110D8F7809500
:1047F00090958E0F9F1F0895FC01615070400190AD
:104800000110D8F7809590958E0F9F1F08950F93F4
:104810001F93CF93DF93FB01238121FD03C08FEF13
:104820009FEF2CC022FF16C046815781248135811D
:104830004217530744F4A081B1819D012F5F3F4F80
:10484000318320838C93268137812F5F3F4F3783BD
:10485000268314C08B01EC01FB010084F185E02D5F
:104860000995892BE1F6D80116968D919C911797A1
:10487000019617969C938E931697CE01DF91CF9158
:104880001F910F910895FA01AA27283051F1203184
:1048900081F1E8946F936E7F6E5F7F4F8F4F9F4FD4
:1048A000AF4FB1E03ED0B4E03CD0670F781F891F16
:1048B0009A1FA11D680F791F8A1F911DA11D6A0FE4
:1048C000711D811D911DA11D20D009F468943F9197
:1048D0002AE0269F11243019305D3193DEF6CF0196
:1048E0000895462F4770405D4193B3E00FD0C9F75C
:1048F000F6CF462F4F70405D4A3318F0495D31FDC9
:104900004052419302D0A9F7EACFB4E0A69597951B
:10491000879577956795BA95C9F7009761057105F1
:1049200008959B01AC010A2E06945795479537953B
:104930002795BA95C9F7620F731F841F951FA01D95
:1049400008952F923F924F925F926F927F928F9233
:104950009F92AF92BF92CF92DF92EF92FF920F930E
:104960001F93CF93DF93CDB7DEB7CA1BDB0B0FB618
:10497000F894DEBF0FBECDBF09942A8839884888D5
:104980005F846E847D848C849B84AA84B984C8846B
:10499000DF80EE80FD800C811B81AA81B981CE0F62
:1049A000D11D0FB6F894DEBF0FBECDBFED01089547
:0449B000F894FFCFA9
:1049B40000003B0480007800461400000000FF253E
:1049C400303275206425303175202530327500254C
:1049D4003032752D2530327520642530317500252F
:1049E40034752D253032752D253032752025303221
:1049F400753A253032753A25303275202E0020253F
:104A040034752D253032752D253032752000202047
:104A1400202020202020005061676520636F756E80
:104A2400742063616E6E6F74206265206D6F7265B1
:104A3400207468616E203132382062797465732184
:104A440000202534752D253032752D253032752002
:104A5400642531752020253032752D253032752D91
:104A640025303275202025303275232530317543A9
:104A7400200025303275232530317543002530322E
:104A84007520253032752025303275000000000075
:104A9400D609A9097D0985099909A809203A203070
:104AA4007800060000000000000000000000000084
:104AB40000000500000000000000040000000300E6
:104AC4000201804020100804020111C16385617154
:104AD4004391F38751E313D5C531197349E1C78372
:104AE40081938925039F250D9949411F01190000D0
:104AF40000005717BF18E9160317F5169E170D0A7D
:0E4B0400006E616E00696E66006F76660000DE
:00000001FF
