:100000000C9423010C941D140C9444140C946B1444
:100010000C944B010C944B010C944B010C944B0130
:100020000C944B010C94541C0C944B010C944B01FC
:100030000C944B010C944B010C944B010C944B0110
:100040000C944B010C944B010C9492140C944B01A6
:100050000C94D5170C9407180C944B010C944B017D
:100060000C944B010C944B010C94FC0A0C944B0126
:100070000C944B010C944B010C944B01AA0CC30C37
:10008000C30CC10CC30CA80CC30CC30CC30C9B0C3D
:10009000C30CC30CB30CBF0CBD0CC30CC30CC30C02
:1000A000BB0C536574205375636365737366756C1D
:1000B0000068683A6D6D206D6F646500456E74650B
:1000C0007220616C61726D2074696D6520666F725B
:1000D0006D617420286D6F64652069732031207410
:1000E0006F20362C20342069732070657220646183
:1000F000792900536574205375636365737366755E
:100100006C006D6D6D2D64642D7979797920686846
:100110002D6D6D2D73732073616D706C6520696E2C
:100120007075743A2044656320323620323030399D
:100130002031323A33343A353600456E74657220D8
:100140006461746520666F726D6174004558545027
:100150004F5745525F50494E3A3D005265706561B8
:1001600074204D6F6465205365743A20002D2D2D49
:100170002D2D2D2D2D2D2D2D2D2D2D2D2D2D2D2DAF
:100180000043686F6F73652061206D656E7520692F
:1001900074656D3A004120736574205B415D6C614C
:1001A000726D2074696D65005420736574205B5412
:1001B0005D696D65001F1C1F1E1F1E1F1F1E1F1E59
:1001C0001F000000020300000000000000050409F9
:1001D0000800000000000000000000000000000017
:1001E0000001020408102040800102040810204091
:1001F0008001020408102040800102040810204001
:100200008002020202020202020404040404040442
:1002100004030303030303030301010101010101BB
:1002200001000020002300260029000000220025F4
:100230000028002B0000002100240027002A0002D3
:100240001D03310A371811241FBECFEFD0E1DEBFE6
:10025000CDBF12E0A0E0B1E0E0ECF9E402C005900F
:100260000D92A234B107D9F724E0A2E4B2E001C0B4
:100270001D92A132B207E1F711E0C3E2D1E004C060
:100280002197FE010E94C71FC032D107C9F70E9403
:1002900065180C94DE240C94000081E080936C02BD
:1002A00083B78E7F83BF0895DC01ED91FC910190AF
:1002B000F081E02D09946AE470E082EA92E00E9405
:1002C000B00961E070E082EA92E00E94540161E3CB
:1002D00070E082EA92E00E94540182EA92E00C947B
:1002E0002E0A1F93CF93DF9300D000D000D0CDB75C
:1002F000DEB7CE0101960E94880D1D81CE010196C8
:100300000E94DD0C1F921F931F928F938C811F926E
:100310008F9380E191E09F938F938BE492E09F9382
:100320008F930E94F4214CE46BE472E08DE692E03E
:100330000E94BB1241E060E070E08DE692E00E9416
:10034000641341E061E070E08DE692E00E94641386
:1003500041E062E070E08DE692E00E94641341E0CB
:1003600063E070E08DE692E00E94641341E064E097
:1003700070E08DE692E00E94641341E065E070E079
:100380008DE692E00E94641344EF51E060E070E07B
:100390008DE692E00E94741340E060E070E08DE62C
:1003A00092E00E94641340E061E070E08DE692E02C
:1003B0000E94641340E062E070E08DE692E00E94EB
:1003C000641340E063E070E08DE692E00E94641305
:1003D00040E064E070E08DE692E00E94641340E04B
:1003E00065E070E08DE692E00E94641344EF51E016
:1003F00060E070E08DE692E00E94741384E00E9459
:100400003C160FB6F894DEBF0FBECDBF892B21F08E
:10041000109245021092440226960FB6F894DEBF61
:100420000FBECDBFDF91CF911F910895CF93DF9382
:1004300000D000D000D0CDB7DEB7CE0101960E942B
:10044000880DCE0101960E94DD0C1F928F938B8147
:100450001F928F938A811F928F9380E291E09F93E6
:100460008F938BE492E09F938F930E94F4214CE44E
:100470006BE472E08DE692E00E94BB1240ED57E023
:1004800060E070E08DE692E00E94741384E00E94C8
:100490003C160FB6F894DEBF0FBECDBF892B21F0FE
:1004A000109245021092440226960FB6F894DEBFD1
:1004B0000FBECDBFDF91CF910895CF93DF9300D0D2
:1004C00000D000D0CDB7DEB7CE0101960E94880DD6
:1004D0008E811F928F938D811F928F938C811F929B
:1004E0008F938B811F928F938A811F928F93898123
:1004F00090E08053984F9F938F9380E391E09F9378
:100500008F938BE492E09F938F930E94F4216BE48E
:1005100072E08BE693E00E94F6180FB6F894DEBF07
:100520000FBECDBF26960FB6F894DEBF0FBECDBF6F
:10053000DF91CF910895CF93DF93C9E0D0E061E0E0
:1005400080E00E940D166CE271E080E090E00E9475
:100550000D1560E080E00E940D166CE271E080E015
:1005600090E00E940D15219751F7DF91CF910895EA
:100570000F931F93CF93DF9305E010E0C0E0D0E02E
:1005800088E10E948715C80FD91F01501109C1F7D2
:10059000CE0165E070E00E94721FCB01DF91CF9128
:1005A0001F910F910895CF93DF93EB0120E030E08E
:1005B000A901BC018CE00E94B21960910601709102
:1005C000070188EE93E00E94721F2FE0269FC00172
:1005D000279F900D11248C9FB0018D9F700D9C9FC3
:1005E000700D1124072E000C880B990BDF91CF9111
:1005F0000C940D15CF93DF93EC018CE00E943F1C0F
:10060000609106017091070188EE93E00E94721FCD
:100610002FE0269FC001279F900D11248C9FB001D1
:100620008D9F700D9C9F700D1124072E000C880B60
:10063000990BDF91CF910C940D1548E050E060E0EC
:1006400070E08DE692E00C944511CF92DF92EF922C
:10065000FF920F931F93CF93DF93CDB7DEB72C9705
:100660000FB6F894DEBF0FBECDBFCE0107960E9435
:10067000880DF884D9846CEB70E08BE693E00E94DF
:10068000E41861EB70E08BE693E00E94E4188BE6DF
:1006900093E00E949E160897D4F38BE693E00E94A5
:1006A000B816082F8BE693E00E94B816000F00568C
:1006B000902F990F990F090F8053080F8BE693E045
:1006C0000E94B8168BE693E00E94B816E82E8BE6DF
:1006D00093E00E94B8169E2D990F9056E92EEE0CCD
:1006E000EE0CE90E8053E80E8BE693E00E94B816FC
:1006F0008BE693E00E94B816182F6AE070E080E065
:1007000090E00E940D158BE693E00E945317C12CD8
:100710002D2D4F2D63EE77E0CE0101960E94680CDF
:10072000CE0101960E9436101053612F70E081EACD
:1007300092E00E94470E62EA70E08BE693E00E942E
:10074000E4182C960FB6F894DEBF0FBECDBFDF9134
:10075000CF911F910F91FF90EF90DF90CF90089570
:10076000AF92BF92CF92DF92EF92FF920F931F93BF
:10077000CF93DF93CDB7DEB769970FB6F894DEBF9E
:100780000FBECDBF6AE371E08BE693E00E94E418F0
:1007900062E071E08BE693E00E94E4188BE693E060
:1007A0000E949E164497D4F38E010F5F1F4F7E0167
:1007B0008CE0E80EF11C58018BE693E00E94B8161D
:1007C000F80181938F01EE15FF05B1F78BE693E0F9
:1007D0000E94B81667018E010C5E1F4F8BE693E0F6
:1007E0000E94B816F60181936F010E171F07B1F72B
:1007F0006AE070E080E090E00E940D158BE693E0E7
:100800000E945317A701B501C8010E947C0CC801C2
:100810000E94980F6AE070E080E090E00E940D1561
:10082000B5018BE693E00E94F618C8010E94880D7E
:10083000C8010E94DD0C182F68E670E082EA92E0A1
:100840000E94B00964E070E082EA92E00E945401E4
:10085000612F82EA92E00E94670982EA92E00E9498
:100860002E0A63EF70E08BE693E00E94E41869962D
:100870000FB6F894DEBF0FBECDBFDF91CF911F91B1
:100880000F91FF90EF90DF90CF90BF90AF900895C1
:10089000CF93DF93EC0160E570E082EA92E00E9482
:1008A000B0096D2F70E082EA92E00E945401BE010F
:1008B000772782EA92E00E94540160E082EA92E0A7
:1008C0000E94B20942E050E060E570E082EA92E006
:1008D0000E94290A82EA92E00E941609C82F82EA41
:1008E00092E00E941609982F88278C0F911DDF91A6
:1008F000CF910895CF93DF93C0E0D0E0CE010E9466
:10090000480462E070E00E94D3022296C039D1050B
:10091000A9F782E090E00E94FA028CE0DF91CF918B
:100920000C943F1C82E00E943C16892B19F56AE06A
:1009300070E080E090E00E940D1582E00E943C167D
:1009400081EA92E00E94320F892B39F00E947A04EA
:1009500010926B0210926A0209C080916A02909113
:100960006B02019690936B0280936A02109245028B
:10097000109244020895FF920F931F93CF93DF9339
:1009800000D000D000D0CDB7DEB76AE470E082EAD4
:1009900092E00E94B00961E070E082EA92E00E9479
:1009A000540182EA92E00E942E0A41E050E06AE49B
:1009B00070E082EA92E00E94290A82EA92E00E94B4
:1009C0001609082F6AE470E082EA92E00E94B009FA
:1009D00061E070E082EA92E00E945401602F60645E
:1009E00082EA92E00E94670982EA92E00E942E0A5F
:1009F00060E471E080E090E00E940D156AE470E030
:100A000082EA92E00E94B00960E070E082EA92E03F
:100A10000E94540182EA92E00E942E0A42E050E0D5
:100A20006AE470E082EA92E00E94290A82EA92E097
:100A30000E940E09029751F482EA92E00E94160980
:100A4000182F82EA92E00E941609F82E612F70E0BA
:100A5000762F66276F0D711D8B0194E01595079514
:100A60009A95E1F7B8016F707727072E000C880B75
:100A7000990B0E94491E20E030E040E25FE30E94B3
:100A8000D51E0E94111E7F936F93B801110F880B22
:100A9000990B0E94491E20E030E040E85DE30E948F
:100AA000D51E0E94111E7F936F938FE491E09F9358
:100AB0008F9386E492E09F938F930E94F42103E446
:100AC00028EB3BE040E050E066E472E08DE692E027
:100AD0000E94A5136AE571E0CE0101960E945F1D98
:100AE0004CE4BE016F5F7F4F8DE692E00E944013A1
:100AF0008DE692E00E946A1384E00E943C160FB6D5
:100B0000F894DEBF0FBECDBF892B21F010924502B5
:100B100010924402CE0101960E94F11C26960FB657
:100B2000F894DEBF0FBECDBFDF91CF911F910F9123
:100B3000FF900895CF93DF9300D000D000D0CDB7C1
:100B4000DEB7CE0101960E94880D8E811F928F9391
:100B50008D811F928F938C811F928F9383E691E0FA
:100B60009F938F938BE492E09F938F930E94F42145
:100B70004CE46BE472E08DE692E00E94BB1241E02F
:100B800060E070E08DE692E00E94641341E061E075
:100B900070E08DE692E00E94641341E062E070E054
:100BA0008DE692E00E94641341E063E070E08DE620
:100BB00092E00E94641341E064E070E08DE692E010
:100BC0000E94641341E065E070E08DE692E00E94CF
:100BD000641344EF51E060E070E08DE692E00E9423
:100BE000741340E060E070E08DE692E00E946413D0
:100BF00040E061E070E08DE692E00E94641340E026
:100C000062E070E08DE692E00E94641340E063E0F1
:100C100070E08DE692E00E94641340E064E070E0D2
:100C20008DE692E00E94641340E065E070E08DE69E
:100C300092E00E94641344EF51E060E070E08DE6C2
:100C400092E00E94741380914402909145020196B3
:100C500064E270E00E94721F0FB6F894DEBF0FBE10
:100C6000CDBF892B59F40E94BB0484E00E943C163E
:100C7000892B21F0109245021092440226960FB65D
:100C8000F894DEBF0FBECDBFDF91CF9108958F9254
:100C90009F92AF92BF92CF92DF92EF92FF920F930B
:100CA0001F93CF93DF93CDB7DEB762970FB6F8945B
:100CB000DEBF0FBECDBF6AE470E082EA92E00E9420
:100CC000B00961E070E082EA92E00E94540182EA99
:100CD00092E00E942E0A41E050E06AE470E082EA6D
:100CE00092E00E94290A82EA92E00E941609082FE7
:100CF0006AE470E082EA92E00E94B00961E070E08C
:100D000082EA92E00E945401602F606482EA92E0DD
:100D10000E94670982EA92E00E942E0A60E471E074
:100D200080E090E00E940D156AE470E082EA92E0B3
:100D30000E94B00960E070E082EA92E00E945401F3
:100D400082EA92E00E942E0A42E050E06AE470E0FB
:100D500082EA92E00E94290A82EA92E00E940E0949
:100D6000029751F482EA92E00E941609182F82EA53
:100D700092E00E941609F82E612F70E0762F662708
:100D80006F0D711D4B0194E0959487949A95E1F74E
:100D90000E94B8029093430280934202BC01990FD3
:100DA000880B990B1F921F921F9224E62F9322E02B
:100DB000A22EB12CC12CD12C12EDE12E13E0F12E7C
:100DC00000E010E024EF32E040E050E00E94B01C70
:100DD0007093430260934202CE010D960E94880DEB
:100DE000E0904202D0904302F9880889CE010D9626
:100DF0000E94DD0C182FDF92EF92B4016F707727FD
:100E0000072E000C880B990B0E94491E20E030E051
:100E100040E25FE30E94D51E0E94111E7F936F93F4
:100E2000B401990C880B990B0E94491E20E030E018
:100E300040E85DE30E94D51E0E94111E7F936F93D0
:100E40001F92FF921F920F931F921F938F851F92E5
:100E50008F938E851F928F938D8590E08053984F4E
:100E60009F938F9382E791E09F938F938BE492E01F
:100E70009F938F930E94F4216BE472E0CE0107965A
:100E80000E945F1D6AE571E0CE0101960E945F1D20
:100E9000BE01695F7F4FCE0101960E94B91DBC0162
:100EA000CE0107960E94741DCE0101960E94F11C8E
:100EB0000FB6F894DEBF0FBECDBF8B859C85892B06
:100EC000A9F00CE42AE832E040E050E0BE01695F9E
:100ED0007F4F8DE692E00E94BE1341E050E060E05B
:100EE00070E0CE0107960E94DD1DE7CFCE01079688
:100EF0000E94F11C62960FB6F894DEBF0FBECDBF04
:100F0000DF91CF911F910F91FF90EF90DF90CF90E5
:100F1000BF90AF909F908F900895AF92BF92CF9265
:100F2000DF92EF92FF920F931F93CF93DF9360E0D6
:100F300082E00E94D11560E084E00E94D11561E05A
:100F40008CE00E94D11561E080E00E94D11582E022
:100F50000E94841510926C0226E040E056E960E0A1
:100F600070E08BE693E00E9475170E94140D81EAF1
:100F700092E00E94320F0E945B0183B7817F846000
:100F800083BF0E945D0265E372E08BE693E00E94FE
:100F9000F61868EA71E08BE693E00E94E41865E9D0
:100FA00071E08BE693E00E94E41865E372E08BE663
:100FB00093E00E94F61861E871E08BE693E00E94EE
:100FC000E4186DE671E08BE693E00E94E4180E945D
:100FD000B802909343028093420260EA71E08BE68C
:100FE00093E00E94D71860914202709143024AE058
:100FF00050E08BE693E00E94A0196091420270914C
:101000004302072E000C880B990B1F921F921F9210
:1010100024E62F9322E0A22EB12CC12CD12C12ED6C
:10102000E12E13E0F12E00E010E024EF32E040E08A
:1010300050E00E94B01C70934302609342026DEA3C
:1010400071E08BE693E00E94D718609142027091A4
:1010500043024AE050E08BE693E00E94A0190E9410
:101060009B028BE693E00E949E160F900F900F90CC
:101070000F901816190614F58BE693E00E94B81627
:1010800099278435910559F024F48134910551F064
:101090000BC08136910531F08437910529F40E9407
:1010A000B00302C00E9425036AE070E080E090E097
:1010B0000E940D158BE693E00E9453176BE571E0DB
:1010C0008BE693E00E94B31881EA92E00E94E50E5D
:1010D0004AE050E0BC018BE693E00E94A01961E079
:1010E00081EA92E00E940A0E0E94530F0E94470676
:1010F00010926B0210926A02109245021092440202
:1011000084E00E943C16EC016CE471E08BE693E015
:101110000E94B3184AE050E0BE018BE693E0DF91F5
:10112000CF911F910F91FF90EF90DF90CF90BF90E4
:10113000AF900C94A01980916C02882379F082E022
:101140000E9407140E94470610926B0210926A02D6
:10115000109245021092440210926C0280916A0231
:1011600090916B028230910599F03CF4009769F000
:101170000197A1F40E94710115C08330910559F0C7
:10118000049761F40E94470609C00E949A050AC0AC
:101190000E94160207C00E94BB0404C010926B029A
:1011A00010926A02809144029091450284389340E3
:1011B000D1F40E944706109245021092440242E088
:1011C00050E06DE471E082E00E94D8136AE070E0C4
:1011D00080E090E00E940D1583B7816083BF889501
:1011E00083B78E7F83BF8091440290914502019620
:1011F00090934502809344020E9492046DEB71E04B
:101200008BE693E00E94D7186091440270914502EA
:101210004AE050E08BE693E00C94A0198091D20252
:1012200090E02091D302821B910908959091D302FE
:101230008091D202981750F4E92FF0E0EC52FD4F64
:10124000208130E09F5F9093D30202C02FEF3FEFE9
:10125000C9010895E091D3028091D202E81730F4D9
:10126000F0E0EC52FD4F808190E008958FEF9FEF0A
:1012700008950895CF92DF92EF92FF920F931F93FC
:10128000CF93DF937C01CB018A012091AE02222310
:1012900089F0EB016B01C40ED51ECC15DD0569F09C
:1012A0006991D701ED91FC910190F081E02DC7018A
:1012B0000995F3CF642F0E94D30AC801DF91CF9123
:1012C0001F910F91FF90EF90DF90CF900895CF93F3
:1012D000DF931F92CDB7DEB769832091AE02222340
:1012E000D1F02091AF02203240F021E030E0FC014B
:1012F0003383228380E090E015C08091B002E82F14
:10130000F0E0EF54FD4F998190838F5F8093B0029E
:101310008093AF0205C061E0CE0101960E94D30A1E
:1013200081E090E00F90DF91CF910895FC0113824E
:10133000128288EE93E0A0E0B0E084839583A683D8
:10134000B78385EC91E091838083089581E0809359
:10135000AE026093D1021092B0021092AF020895D3
:101360000C94A6090F93062F21E04091AF0261EB88
:1013700072E08091D1020E947D0A1092B002109218
:10138000AF021092AE020F9108954F925F926F924A
:101390007F92AF92BF92CF92EF92FF920F931F93E3
:1013A000CF93DF935C01F62ED42F28013901EE2074
:1013B00021F10E94A609CE2DC43008F0C3E0C1502F
:1013C000C0F028E0C29FC0011124A301920104C013
:1013D00056954795379527958A95D2F7CA01B90151
:1013E000D501ED91FC910190F081E02DC5010995A9
:1013F000E6CF60E0C5010E94B2094D2FD13208F05E
:1014000040E22C2D64ED72E08F2D0E94350A10927F
:10141000D3028093D202DF91CF911F910F91FF9061
:10142000EF90CF90BF90AF907F906F905F904F9074
:101430000895CF92EF920F931F93C22EE12C00E0FC
:1014400010E098010E94C5091F910F91EF90CF9075
:10145000089521E00C94190A0C94190A61E00C9487
:10146000B20982EA92E00C949609413208F043C036
:10147000909161039111FCCF91E0909361032093CF
:101480005F032FEF2093F40210923903240F20936F
:1014900038039093600390916003880F892B8093A9
:1014A000600380915E03813061F410925E0380914D
:1014B00060038093BB008091BC0083FDF8CF85EC76
:1014C00001C085EE8093BC00809161038130E1F31F
:1014D00080913903841710F440913903AAE3B3E0F3
:1014E000962FFB018E2F891B841718F48D91819301
:1014F000F9CF842F089580E008950F93413208F0CA
:101500004AC0909161039111FCCF32E030936103A6
:1015100000935F033FEF3093F4021092390340933E
:101520003803562FAAE3B3E0FB013E2F351B3417D7
:1015300018F431913D93F9CF10926003309160031C
:10154000880F832B8093600380915E03813061F468
:1015500010925E03809160038093BB008091BC0079
:1015600083FDF8CF85EC01C085EE8093BC0022237B
:1015700021F0809161038230D1F38091F4028F3F9A
:1015800079F08091F402803241F08091F40280334E
:1015900031F094E005C091E003C092E001C093E017
:1015A000892F0F910895613298F4209161032430BE
:1015B00089F460931603282FA8E1B3E0FC018E2F75
:1015C000821B861718F481918D93F9CF80E00895DE
:1015D00081E0089582E0089585ED8093BC008091BC
:1015E000BC0084FDFCCF10926103089585EC8093CC
:1015F000BC001092610308951F920F920FB60F92D4
:1016000011242F933F934F935F936F937F938F9307
:101610009F93AF93BF93EF93FF938091B900887F1F
:10162000803609F49EC078F5883209F45DC090F4E4
:10163000803109F456C038F4882309F4F5C08830A5
:1016400009F44FC0F5C0883109F44EC0803209F466
:101650005FC0EEC0803409F46AC058F4803309F4E6
:1016600057C0883309F0E4C08093F4020E94F60A60
:10167000DFC0803509F44FC0883509F45DC0883477
:1016800009F0D6C0D3C0883909F4C4C0A8F488379B
:1016900009F467C038F4883609F463C0803709F468
:1016A00060C0C6C0883809F4B5C0803909F45FC08D
:1016B000803809F0BDC05BC0803B09F483C038F4BA
:1016C000803A09F466C0883A09F47CC0B1C0803C15
:1016D00009F4A4C0883C09F4A1C0883B09F487C080
:1016E000A7C08091600310C09091390380913803A6
:1016F000981770F5E091390381E08E0F80933903DC
:10170000F0E0E65CFC4F80818093BB0085EC83C0F9
:101710008093F4028BC0E091390381E08E0F8093B7
:1017200039038091BB00F0E0E65CFC4F8083909130
:101730003903809138036BC0E091390381E08E0F4B
:10174000809339038091BB00F0E0E65CFC4F80831E
:1017500080915F0381116AC081E080935E0384EA17
:101760005EC083E0809361031092F502CFCF809139
:10177000F502803208F04EC0E091F50281E08E0F54
:101780008093F5028091BB00F0E0EA50FD4F80832A
:10179000BDCF0E94F60A8091F502803230F4E091CC
:1017A000F502F0E0EA50FD4F10826091F50270E022
:1017B000E0915A03F0915B0386EF92E00995109255
:1017C000F50236C084E080936103109217031092F3
:1017D0001603E0915C03F0915D0309958091160377
:1017E000811105C081E08093160310921803E091E7
:1017F000170381E08E0F80931703F0E0E85EFC4F43
:1018000080818093BB0090911703809116039817F5
:1018100008F47CCF85E88093BC000AC085EC8093F7
:10182000BC001092610304C01092F4020E94EC0A02
:10183000FF91EF91BF91AF919F918F917F916F91A8
:101840005F914F913F912F910F900FBE0F901F907E
:101850001895803D27E0920710F0805D974050E09A
:10186000E5EBF1E021E0261730F43491430F511DF0
:101870002F5F3196F8CF633038F09C012370332707
:10188000232B11F44F5F5F4FBC016D5F7F4F769547
:10189000679576956795EDE6F1E08E9F90018F9FB5
:1018A000300D9E9F300D1124C9010197860F971F9F
:1018B000840F951F0895FC01908190539A3008F091
:1018C00090E0818180532AE0929F800D1124089539
:1018D000CF92EF920F93FC01603D87E0780710F004
:1018E000605D77406083418322830383E482C58205
:1018F0000F91EF90CF900895EF92FF920F931F9367
:10190000CF93DF93EC018B017A01CB0109960E9402
:101910005B0C8883D801EC918E2FEE0F990BAA0BEC
:10192000BB0BFC01E154F109E331F10560F5E25C28
:10193000FF4F0C94C71FF8018181813629F0828105
:101940008E3621F087E01EC081E01CC086E01AC000
:1019500082E018C0D80112968C91823711F088E08D
:1019600011C084E00FC0F8018281823711F085E058
:1019700009C083E007C089E005C08AE003C08BE0AE
:1019800001C08CE08983C80104960E945B0C8A83A5
:10199000C7010E945B0C8B83C70103960E945B0CFE
:1019A0008C83C70106960E945B0C8D83DF91CF91DB
:1019B0001F910F91FF90EF900895FC01808142816B
:1019C000618190E00E94290C069667E070E00E9419
:1019D0005E1F089568E670E082EA92E00E94B00916
:1019E00060E070E082EA92E00E94540182EA92E0B4
:1019F0000C942E0A0F931F93CF93DF93082FC8E008
:101A0000D0E010E8802F812311F061E301C060E392
:101A10008BE693E00E94D9181695219799F7DF91EC
:101A2000CF911F910F910895CF93DF9368E670E0F7
:101A300082EA92E00E94B00968E070E082EA92E0F7
:101A40000E94540182EA92E00E942E0A41E050E096
:101A500068E670E082EA92E00E94290A82EA92E057
:101A60000E941609EC0187FF16C068E670E082EA62
:101A700092E00E94B00968E070E082EA92E00E9481
:101A80005401BE01606882EA92E00E94540182EA39
:101A900092E00E942E0A6AE070E080E090E00E94EE
:101AA0000D1568E670E082EA92E00E94B0096AE0F3
:101AB00070E082EA92E00E94540182EA92E00E9481
:101AC0002E0A41E050E068E670E082EA92E00E946F
:101AD000290A82EA92E00E941609EC0168E670E0A9
:101AE00082EA92E00E94B0096AE070E082EA92E045
:101AF0000E945401BE016F7982EA92E00E94540173
:101B000082EA92E00E942E0A81E0DF91CF9108954F
:101B1000CF92DF92EF92FF920F931F93CF93DF93B9
:101B2000EC0168E670E082EA92E00E94B00961E0B0
:101B300070E082EA92E00E94540182EA92E00E9400
:101B40002E0A21E030E047E050E068E670E082EAEB
:101B500092E00E942C0A82EA92E00E9416098F7796
:101B6000982F92959F701AEF082F919F000D1124C6
:101B700082EA92E00E9416098F77982F92959F70C3
:101B8000C82E919FC00C112482EA92E00E9416098F
:101B90008F73982F92959F70D82E919FD00C1124FF
:101BA00082EA92E00E94160982EA92E00E941609F7
:101BB0008F73982F92959F70F82E919FF00C11249F
:101BC00082EA92E00E9416098F71982F92959F7079
:101BD000E82E919FE00C112482EA92E00E941609FF
:101BE0009C01332794E0359527959A95E1F7129F4C
:101BF000800D11248883E982FA82DB82CC820D83F6
:101C0000CE01DF91CF911F910F91FF90EF90DF9068
:101C1000CF900895CF93DF93C62F68E670E082EAF5
:101C200092E00E94B0096AE070E082EA92E00E94CD
:101C3000540182EA92E00E942E0A41E050E068E6F8
:101C400070E082EA92E00E94290A82EA92E00E9411
:101C50001609CC2319F0EC01C06802C0EC01CF7763
:101C600068E670E082EA92E00E94B0096AE070E003
:101C700082EA92E00E945401BE0182EA92E00E9450
:101C8000540182EA92E0DF91CF910C942E0AAF9238
:101C9000BF92CF92DF92EF92FF920F931F93CF9359
:101CA000DF935B0168E670E082EA92E00E94B0098F
:101CB0006BE070E082EA92E00E94540182EA92E0D6
:101CC0000E942E0A44E050E068E670E082EA92E06A
:101CD0000E94290A82EA92E00E941609EC0182EA37
:101CE00092E00E9416096C0182EA92E00E941609B5
:101CF0007C0182EA92E00E9416098C0183E0A8161A
:101D0000B10411F154F481E0A816B104B1F082E0FD
:101D1000A816B10451F50F7711C085E0A816B104DB
:101D2000E9F0B4F086E0A816B104F9F40F77E8946E
:101D3000E7F8E894C7F8CF7318C000686894E7F82C
:101D40006894C7F8C06C11C00F77E894E7F8F8CF33
:101D50000F77E894E7F8E894C7F8F4CF0F77E894A2
:101D6000E7F8E894C7F8CF77C06468E670E082EAE5
:101D700092E00E94B0096BE070E082EA92E00E947B
:101D80005401BE0182EA92E00E945401B60182EA47
:101D900092E00E945401B70182EA92E00E9454014D
:101DA000B80182EA92E00E94540182EA92E00E9425
:101DB0002E0ADF91CF911F910F91FF90EF90DF904E
:101DC000CF90BF90AF900C94EA0CFF920F931F93AB
:101DD000CF93DF9368E670E082EA92E00E94B00958
:101DE0006BE070E082EA92E00E94540182EA92E0A5
:101DF0000E942E0A44E050E068E670E082EA92E039
:101E00000E94290A82EA92E00E941609182F82EAAB
:101E100092E00E941609082F82EA92E00E941609B9
:101E2000F82E82EA92E00E94160987FB882780F943
:101E3000C82F80E0D82FF7FCC26007FDC46017FDF3
:101E4000C86016FDC061C952DE4FC8810C2E000C5F
:101E5000DD0B0E94EA0CCE01DF91CF911F910F9113
:101E6000FF90089568E670E082EA92E00E94B0096F
:101E70006FE070E082EA92E00E94540182EA92E010
:101E80000E942E0A41E050E068E670E082EA92E0AB
:101E90000E94290A82EA92E00E94160986FB88279E
:101EA00080F990E00895CF93DF9368E670E082EACE
:101EB00092E00E94B00960E070E082EA92E00E9445
:101EC000540182EA92E00E942E0A40E150E068E666
:101ED00070E082EA92E00E94290AC0E0D0E082EA43
:101EE00092E00E9416090E94FA0C61ED71E08BE607
:101EF00093E00E94D71840E150E0BE018BE693E0EA
:101F00000E94A0192196C031D10549F768E670E01A
:101F100082EA92E00E94B00960E070E082EA92E01A
:101F20000E94540182EA92E0DF91CF910C942E0A34
:101F3000EF92FF920F931F93CF938C0168E670E0AE
:101F400082EA92E00E94B00964E070E082EA92E0E6
:101F50000E94540182EA92E00E942E0A41E050E081
:101F600068E670E082EA92E00E94290A82EA92E042
:101F70000E9416097C0168E670E082EA92E00E9405
:101F8000B00961E070E082EA92E00E945401F80139
:101F90002581CAE0822F6C2F0E94521F682F660F86
:101FA000860F880F682F620F82EA92E00E9467090D
:101FB000F8012481822F6C2F0E94521F682F660F18
:101FC000860F880F682F620F82EA92E00E946709ED
:101FD000F8012381822F6C2F0E94521F682F660FF9
:101FE000860F880F682F620F82EA92E00E946709CD
:101FF000B70182EA92E00E945401F8012281822F07
:102000006C2F0E94521F682F660F860F880F682F53
:10201000620F82EA92E00E946709F8012181822F13
:102020006C2F0E94521F682F660F860F880F682F33
:10203000620F82EA92E00E946709F8012081822FF4
:102040006C2F0E94521F682F660F860F880F682F13
:10205000620F82EA92E00E94670982EA92E0CF91E1
:102060001F910F91FF90EF900C942E0A1F93CF9326
:10207000DF93EC0168E670E082EA92E00E94B0092A
:102080006AE070E082EA92E00E94540129811AE03D
:10209000822F612F0E94521F682F660F860F880FB4
:1020A000682F620F82EA92E00E9467092A81822FDC
:1020B000612F0E94521F682F660F860F880F682FAE
:1020C000620F82EA92E00E9467092B81822F612FC2
:1020D0000E94521F682F660F860F880F682F620FAD
:1020E00082EA92E00E9467092C81822F612F0E9470
:1020F000521F682F660F860F880F682F620F82EAC3
:1021000092E00E9467092D81822F612F0E94521F49
:10211000682F660F860F880F682F620F82EA92E0A1
:102120000E94670960E070E082EA92E00E94540138
:1021300082EA92E0DF91CF911F910C942E0AEF92E8
:10214000FF920F931F93CF93DF93EC017C018CE2FE
:10215000E80EF11C07EF11E028853985C801875F7B
:102160009140821793072CF560E088810E940D163C
:102170008E819F81F8012081892B09F0209540E014
:102180006A818C810E946516F70121917F0140E0F0
:102190006A818C810E94651661E088810E940D161B
:1021A00061E070E080E090E00E940D150F5F1F4F2E
:1021B000D3CFDF91CF911F910F91FF90EF900895B2
:1021C000CF93DF93EC0160E088810E940D1620E040
:1021D00041E06A818C810E94651620E041E06A81BD
:1021E0008C810E94651661E08881DF91CF910C940B
:1021F0000D16CF93DF93EC01862F688379835B8381
:102200004A833D832C8361E00E94D11561E08A817D
:102210000E94D11561E08C810E94D115CE01DF9121
:10222000CF910C94E010EF92FF920F931F93CF93F6
:10223000DF93EC010E94F910CE018C9661E001154C
:10224000110509F460E0619570E048E050E00E94FB
:10225000D72188E0E816F1041CF49E2D8F2D02C0D2
:1022600098E080E01F830E839887898721E030E023
:102270003B872A879C878D871D8E1C8EDF91CF918F
:102280001F910F91FF90EF900895EF92FF920F939F
:102290001F937A018B0125E030E047E050E066E0D3
:1022A00070E00E9413111F910F91FF90EF9008951D
:1022B000CF93DF93EC01645D7F4FFC01E60FF71FC6
:1022C000D901CD01821B930B841795075CF48E8195
:1022D0009F81892B11F09C9102C09C9190959193C4
:1022E0001196EFCFDF91CF910895FC0126813781C0
:1022F000E60FF71F442319F0232B31F402C0232BE0
:1023000019F084A5816002C084A58E7F84A70895FA
:102310000F931F93CF93DF93EA01D9018FEF97EFCC
:102320004FEE5DEFFD01E21BF30BE617F70784F5B7
:10233000E991F0EDFE0FFA3030F40E2E000CFF0B99
:10234000E751FE4F09C0FFE9FE0FFA3140F40E2EAF
:10235000000CFF0BE256FE4FE081EC9317C0FFEB41
:10236000FE0FFA3130F40E2E000CFF0BE254FE4F3C
:10237000F3CFED3211F45C9309C0EF3511F44C93B7
:1023800005C0E33211F49C9301C08C931196CACF1F
:102390000F3F8FEF180731F0F901E00FF11F808137
:1023A00081608083DF91CF911F910F910895CF922B
:1023B000DF92EF92FF920F931F93CF93DF93EE2D57
:1023C000D9011197EC3429F46150710980E090E053
:1023D00017C0C901861B970BE23511F4BD0108C077
:1023E00097FD019695958795680F791F6150710942
:1023F000F801C0E27F01E01AF10AE816F90614F0CC
:10240000FA0106C0C193F6CF97FF06C00196319638
:1024100068177907CCF709C0A817B907BCF3408142
:10242000E801C80FD91F4883F1CFFB013196E00FB7
:10243000F11F80E2AF01401B510B4217530714F408
:102440008193F8CF8FEFC816D80639F06C197D0943
:1024500077FD03C0A617B7071CF48FEF9FEF01C0ED
:10246000CB01DF91CF911F910F91FF90EF90DF9003
:10247000CF9008952F923F924F925F926F927F92EA
:102480008F929F92AF92BF92CF92DF92EF92FF9284
:102490000F931F93CF93DF93CDB7DEB75C016DB67B
:1024A0007EB677FD50C0FC01828593856817790759
:1024B0000CF049C0FA0101900020E9F73197CF01F3
:1024C000841B950B660F771F1501260E371EF10131
:1024D000848495846DB77EB7681979090FB6F8942E
:1024E0007EBF0FBE6DBFEDB7FEB731962F01CC2476
:1024F000CA94DC2CE22E8F019401BC01C5010E941C
:10250000D7116DB77EB7681979090FB6F8947EBFF9
:102510000FBE6DBF8DB79EB701967C010FEF1FEF09
:102520009C01A201B401C5010E948811F101648DD2
:10253000758D9701A401C5010E9458110FB6F8943A
:102540007EBE0FBE6DBE0FB6F8947EBE0FBE6DBED2
:10255000DF91CF911F910F91FF90EF90DF90CF907F
:10256000BF90AF909F908F907F906F905F904F90B3
:102570003F902F900895242FAB0160E070E00C9401
:102580003A122F923F924F925F926F927F928F9268
:102590009F92AF92BF92CF92DF92EF92FF920F93F2
:1025A0001F93CF93DF9300D01F92CDB7DEB75C01AE
:1025B0006B013A0129838DB79EB79B838A8377FD90
:1025C00042C0F5018285938568177907E4F52DB639
:1025D0003EB600E010E0B801C3010E94CC1D980196
:1025E0002F5F3F4F882311F08901F5CF8DB79EB73C
:1025F000821B930B0FB6F8949EBF0FBE8DBFEDB735
:10260000FEB731962F014F01E12CF12C0E151F055D
:1026100059F0B701C3010E94CC1DF40181934F0111
:10262000FFEFEF1AFF0AF2CFF201E00FF11F108265
:102630002981A201B601C5010E943A120FB6F89491
:102640003EBE0FBE2DBE8A819B810FB6F8949EBF01
:102650000FBE8DBF0F900F900F90DF91CF911F9104
:102660000F91FF90EF90DF90CF90BF90AF909F9031
:102670008F907F906F905F904F903F902F90089534
:10268000242FAB0160E070E00C94C11277FD1BC0F9
:10269000DC011A96ED91FC911B976E177F079CF455
:1026A00057FD11C0660F771FFC01E60FF71F648509
:1026B0007585461757073CF4648D758D640F751F3B
:1026C000422F0C9475110895242FAB0160E070E047
:1026D0000C944613CF93DF93EC010E949F10CE0120
:1026E000DF91CF910C94E010CF92DF92EF92FF92A6
:1026F0000F931F93CF93DF93EC016A017B010E943C
:10270000DC1408851985012E000C220B330BC01A2E
:10271000D10AE20AF30AC60ED71EE81EF91E0E946D
:10272000DC14C616D706E806F90620F0CE010E9492
:102730009F10F5CFCE01DF91CF911F910F91FF90A8
:10274000EF90DF90CF900C94E010CF92DF92EF9259
:10275000FF920F93CF93DF93EC0169017A01402F31
:102760000E94BB12B701A601CE01DF91CF910F915C
:10277000FF90EF90DF90CF900C947413CF92DF9284
:10278000EF92FF920F93CF93DF93EC0169017A01EF
:10279000402F0E944013B701A601CE01DF91CF91D7
:1027A0000F91FF90EF90DF90CF900C9474130895E9
:1027B000833060F5E82FF0E0EE0FFF1FE85FFE4F7B
:1027C00071836083813051F08230A1F08091690083
:1027D0008C7F482B40936900E89A089580916900A6
:1027E000837F440F551F440F551F482B40936900AA
:1027F000E99A0895809169008F7C94E0440F551FF9
:102800009A95E1F7482B40936900EA9A089583303E
:1028100098F4813021F0823021F0E89803C0E998E3
:1028200001C0EA98E82FF0E0EE0FFF1FE85FFE4FCF
:1028300087ED93E19183808308951F920F920FB6E5
:102840000F9211242F933F934F935F936F937F9336
:102850008F939F93AF93BF93EF93FF93E091080102
:10286000F09109010995FF91EF91BF91AF919F916F
:102870008F917F916F915F914F913F912F910F9029
:102880000FBE0F901F9018951F920F920FB60F92C8
:1028900011242F933F934F935F936F937F938F9365
:1028A0009F93AF93BF93EF93FF93E0910A01F09151
:1028B0000B010995FF91EF91BF91AF919F918F917E
:1028C0007F916F915F914F913F912F910F900FBE2C
:1028D0000F901F9018951F920F920FB60F92112410
:1028E0002F933F934F935F936F937F938F939F9318
:1028F000AF93BF93EF93FF93E0910C01F0910D0123
:102900000995FF91EF91BF91AF919F918F917F9129
:102910006F915F914F913F912F910F900FBE0F904C
:102920001F9018951F920F920FB60F9211242F939C
:102930003F938F939F93AF93BF9380916303909145
:102940006403A0916503B09166033091620326E0B1
:10295000230F2D3720F40296A11DB11D05C029E8D3
:10296000230F0396A11DB11D20936203809363037F
:1029700090936403A0936503B0936603809167030B
:1029800090916803A0916903B0916A030196A11D1B
:10299000B11D8093670390936803A0936903B0937C
:1029A0006A03BF91AF919F918F913F912F910F90AB
:1029B0000FBE0F901F9018952FB7F8946091630386
:1029C0007091640380916503909166032FBF089511
:1029D0003FB7F8948091670390916803A0916903D1
:1029E000B0916A0326B5A89B05C02F3F19F0019648
:1029F000A11DB11D3FBFBA2FA92F982F8827820F85
:102A0000911DA11DB11DBC01CD0143E0660F771FD3
:102A1000881F991F4A95D1F708958F929F92AF9280
:102A2000BF92CF92DF92EF92FF926B017C010E94E6
:102A3000E8144B015C01C114D104E104F10401F17B
:102A40000E94101E0E94E814DC01CB01881999092C
:102A5000AA09BB09883E9340A105B10560F321E0B6
:102A6000C21AD108E108F10888EE880E83E0981EAA
:102A7000A11CB11CC114D104E104F10419F7DBCF8E
:102A8000FF90EF90DF90CF90BF90AF909F908F908E
:102A90000895789484B5826084BD84B5816084BDD6
:102AA00085B5826085BD85B5816085BDEEE6F0E0C7
:102AB000808181608083E1E8F0E010828081826023
:102AC0008083808181608083E0E8F0E080818160A4
:102AD0008083E1EBF0E0808184608083E0EBF0E0D4
:102AE000808181608083EAE7F0E080818460808378
:102AF00080818260808380818E7F808380818068F6
:102B000080831092C100089580930E01089588304B
:102B100028F0883110F0885101C08FEF20910E010C
:102B200090E4299F900111248770822B80937C0070
:102B300080917A00806480937A0080917A0086FD8B
:102B4000FCCF809178002091790090E0922B08953D
:102B5000843081F028F4823099F08330A1F0089518
:102B60008830A9F08930B9F08530D1F480918000A7
:102B70008F7D03C0809180008F77809380000895BF
:102B800084B58F7702C084B58F7D84BD0895809110
:102B9000B0008F7703C08091B0008F7D8093B0002C
:102BA0000895CF93DF9390E0FC01EF51FE4F249105
:102BB000FC01EF5FFD4F8491882361F190E0880F65
:102BC000991FFC01EB5CFD4FC591D491FC01E55DC3
:102BD000FD4FA591B491611109C09FB7F894888108
:102BE000209582238883EC912E230BC0623061F400
:102BF0009FB7F8948881322F309583238883EC9196
:102C00002E2B2C939FBF06C08FB7F894E8812E2BF4
:102C100028838FBFDF91CF9108951F93CF93DF93C8
:102C2000282F30E0F901EF53FE4F8491F901EF5165
:102C3000FE4FD491F901EF5FFD4FC491CC23C1F059
:102C4000162F81110E94A815EC2FF0E0EE0FFF1F48
:102C5000E55DFD4FA591B4919FB7F894111104C0A3
:102C60008C91D095D82302C0EC91DE2BDC939FBFD2
:102C7000DF91CF911F910895CF93DF93282F30E0FC
:102C8000F901EF53FE4F8491F901EF51FE4FD491BA
:102C9000F901EF5FFD4FC491CC2391F081110E94A7
:102CA000A815EC2FF0E0EE0FFF1FEF5DFD4FA59193
:102CB000B491EC91ED2381E090E021F480E002C03A
:102CC00080E090E0DF91CF910895BF92CF92DF92A4
:102CD000EF92FF920F931F93CF93DF93C82ED62EC0
:102CE000B42EC7E0D0E0022F10E087E0E82EF12CF0
:102CF000B11005C0C7018C1B9D0BB80102C0B80103
:102D00008C2F02C0759567958A95E2F761708C2DBE
:102D10000E940D1661E08D2D0E940D1660E08D2D34
:102D20000E940D16219720F7DF91CF911F910F91EF
:102D3000FF90EF90DF90CF90BF900895FC01918DB0
:102D4000228D892F90E0805C9F4F821B91098F73A9
:102D500099270895FC01918D828D981731F0828D0D
:102D6000E80FF11D858D90E008958FEF9FEF089596
:102D7000FC01918D828D981761F0828DDF01A80F83
:102D8000B11D5D968C91928D9F5F9F73928F90E0A5
:102D900008958FEF9FEF08958DE298E1892B41F020
:102DA00080E090E0892B21F00E942D1881110DC048
:102DB00080E090E0892B71F080E090E0892B51F069
:102DC0000E940000811104C008950E940000F0CF0D
:102DD0000C9400000895FC01848DDF01A80FB11D43
:102DE000A35ABF4F2C91848D90E001968F73992741
:102DF000848FA689B7892C93A089B1898C9180642E
:102E00008C93938D848D981306C00288F389E02DEE
:102E100080818F7D80830895EF92FF920F931F939F
:102E2000CF93DF93EC0181E0888F9B8D8C8D98137D
:102E300005C0E889F989808185FD24C0F62E0B8DB7
:102E400010E00F5F1F4F0F731127E02E8C8DE812DB
:102E50000CC00FB607FCFACFE889F989808185FF9D
:102E6000F5CFCE010E94EB16F1CF8B8DFE01E80F5E
:102E7000F11DE35AFF4FF0820B8FEA89FB898081B5
:102E8000806207C0EE89FF896083E889F9898081C3
:102E90008064808381E090E0DF91CF911F910F915A
:102EA000FF90EF900895CF93DF93EC01888D8823F6
:102EB000C9F0EA89FB89808185FD05C0A889B989A7
:102EC0008C9186FD0FC00FB607FCF5CF808185FF82
:102ED000F2CFA889B9898C9185FFEDCFCE010E94F0
:102EE000EB16E7CFDF91CF910895CF92DF92EF926B
:102EF000FF921F93CF93DF93EC016A017B01122FA6
:102F000060E874E88EE190E0A70196010E94861FB8
:102F1000DA01C9010197A109B109B695A79597955D
:102F200087959C01E889F98982E08083211580E1F9
:102F30003807A8F0E889F989108260E472E48FE02C
:102F400090E0A70196010E94861FDA01C90101974E
:102F5000A109B109B695A795979587959C01EC8530
:102F6000FD853083EE85FF852083188EEC89FD89F1
:102F70001083EA89FB89808180618083EA89FB89EB
:102F8000808188608083EA89FB8980818068808372
:102F9000EA89FB8980818F7D8083DF91CF911F91AA
:102FA000FF90EF90DF90CF9008951F920F920FB691
:102FB0000F9211242F938F939F93EF93FF93E091A0
:102FC0007B03F0917C038081E0918103F091820387
:102FD00082FD12C09081809184038F5F8F73209156
:102FE0008503821751F0E0918403F0E0E559FC4F2E
:102FF000958F8093840301C08081FF91EF919F9111
:103000008F912F910F900FBE0F901F9018951F92C8
:103010000F920FB60F9211242F933F934F935F930C
:103020006F937F938F939F93AF93BF93EF93FF9390
:103030008BE693E00E94EB16FF91EF91BF91AF9169
:103040009F918F917F916F915F914F913F912F91C0
:103050000F900FBE0F901F9018958BE693E00E9483
:103060009E1621E0892B09F420E0822F0895EBE6DB
:10307000F3E01382128288EE93E0A0E0B0E0848354
:103080009583A683B78387E292E09183808385EC62
:1030900090E09587848784EC90E09787868780EC22
:1030A00090E0918B808B81EC90E0938B828B82EC13
:1030B00090E0958B848B86EC90E0978B868B118EBD
:1030C000128E138E148E089508950E9449150E9441
:1030D00064180E948D07CCECD6E10E949B082097D3
:1030E000E1F30E94CC16F9CFCF92DF92EF92FF92DC
:1030F0000F931F93CF93DF936C017A018B01C0E094
:10310000D0E0CE15DF0581F0D8016D918D01D6019B
:10311000ED91FC910190F081E02DC6010995892B7C
:1031200011F02196EECF7E01C701DF91CF911F9163
:103130000F91FF90EF90DF90CF900895611571058A
:1031400079F0FB0101900020E9F73197AF01461BB0
:10315000570BDC01ED91FC910280F381E02D099485
:1031600080E090E00895EF92FF920F931F93CF932A
:10317000DF938C017B01C0E0D0E0F701EC0FFD1F75
:103180006491662361F0D801ED91FC910190F0818A
:10319000E02DC8010995892B11F02196EECFCE01C3
:1031A000DF91CF911F910F91FF90EF9008950C94B4
:1031B0009E18DC01ED91FC910190F081E02D0994C5
:1031C00063E372E00C949E180F931F93CF93DF93E9
:1031D000EC010E94B3188C01CE010E94E018800F10
:1031E000911FDF91CF911F910F9108950F931F931E
:1031F000CF93DF93EC010E949E188C01CE010E94B8
:10320000E018800F911FDF91CF911F910F910895CA
:103210008F929F92AF92BF92EF92FF920F931F9364
:10322000CF93DF93CDB7DEB7A1970FB6F894DEBF8B
:103230000FBECDBF7C01FA01CB0119A2223008F4E8
:103240002AE08E010F5D1F4F822E912CA12CB12CF4
:10325000BF01A50194010E94861FF901CA01015016
:1032600011096A3014F4605D01C0695CD8016C9387
:10327000232B242B252B61F7B801C7010E949E1830
:10328000A1960FB6F894DEBF0FBECDBFDF91CF91F0
:103290001F910F91FF90EF90BF90AF909F908F90F4
:1032A0000895CF92DF92EF92FF920F931F93CF93E7
:1032B000DF932115310581F4DC01ED91FC91019042
:1032C000F081E02D642FDF91CF911F910F91FF903E
:1032D000EF90DF90CF9009942A30310501F577FF08
:1032E0001DC06A017B01EC016DE20E94D9188C01BE
:1032F00044275527BA014C195D096E097F092AE058
:10330000CE010E940819800F911FDF91CF911F916C
:103310000F91FF90EF90DF90CF9008952AE0DF911A
:10332000CF911F910F91FF90EF90DF90CF900C9471
:1033300008199A01AB01770F660B770B0C945119A2
:103340000F931F93CF93DF93EC010E9499198C0187
:10335000CE010E94E018800F911FDF91CF911F9145
:103360000F9108954F925F926F927F928F929F92EA
:10337000AF92BF92CF92DF92EF92FF920F931F9383
:10338000CF93DF9300D000D01F92CDB7DEB78B0173
:1033900029013A0190910F01891721F09F3F09F00F
:1033A00038C205C0EFE3F2E024912D8384C08093FE
:1033B0000F01EFE3F2E094919D839F3F09F429C24E
:1033C000913009F44DC058F1923009F074C0109258
:1033D000B0001092B1009091B00092609093B00054
:1033E0009091B10091609093B100282F30E0F901E5
:1033F000EF5FFD4FE491F0E0EE0FFF1FE55DFD4F45
:103400004591549150930A0440930904F901EF51F6
:10341000FE4FE491E093080492E09D83F6C114BC52
:1034200015BC94B5926094BD95B5916095BD282F5B
:1034300030E0F901EF5FFD4FE491F0E0EE0FFF1F88
:10344000E55DFD4F45915491509318044093170446
:10345000F901EF51FE4FE491E09316041D82D5C1AE
:10346000109280001092810090918100986090935A
:10347000810090918100916090938100282F30E02D
:10348000F901EF5FFD4FE491F0E0EE0FFF1FE55D06
:10349000FD4F459154915093110440931004F9014C
:1034A000EF51FE4FE491E0930F0461E00E94D115CB
:1034B00021E02D83A5C02D8127FDABC161E00E94D5
:1034C000D1158D818D7F09F09BC04801A12CB12CB5
:1034D00060E079E08DE390E0A50194010E94A81FCF
:1034E00029833A834B835C8369017A0181E0C81A9E
:1034F000D108E108F1089FEFC916D104E104F104F5
:1035000009F008F461C060E271EA87E090E0A5018B
:1035100094010E94A81F69017A0181E0C81AD108AC
:10352000E108F1089D81923009F0F4C02FEFC21636
:10353000D104E104F10409F008F458C068E478EE1D
:1035400081E090E0A50194010E94A81F69017A0121
:1035500081E0C81AD108E108F1089FEFC916D1042B
:10356000E104F10409F008F44EC164E274EF80E074
:1035700090E0A50194010E94A81F69017A0181E0F1
:10358000C81AD108E108F1089FEFC916D104E10477
:10359000F10471F168F162E17AE780E090E0A50161
:1035A00094010E94A81F69017A0181E0C81AD1081C
:1035B000E108F1089FEFC916D104E104F10411F00C
:1035C00008F0C9C085E015C081E09D81911111C04E
:1035D00095B5987F892B85BD411451046104710410
:1035E00009F04FC02FEF3FEFA90163C082E001C097
:1035F00084E09091B100987F892B8093B1003CC00A
:103600004801A12CB12C60E079E08DE390E0A501A8
:1036100094010E94A81F69017A0181E0C81AD108AB
:10362000E108F108C114D10491E0E906F10488F041
:1036300064E274EF80E090E0A50194010E94A81F6D
:1036400069017A0181E0C81AD108E108F10883E034
:1036500001C081E09D81913079F490918100987F43
:10366000892B80938100411451046104710449F451
:103670002FEF3FEFA9012CC04114510461047104E4
:1036800071F0D801AA0FBB1FA30192010E94DC1F99
:1036900028EE33E040E050E00E94861F03C02FEF89
:1036A0003FEFA9018D81813099F0823019F18111AC
:1036B000B0C0C7BC2093190430931A0440931B0474
:1036C00050931C0480916E00826080936E00A1C0B4
:1036D000D0928900C0928800209312043093130482
:1036E000409314045093150480916F00826080937E
:1036F0006F008FC0C092B30020930B0430930C0472
:1037000040930D0450930E0480917000826080936A
:1037100070007FC08FEFC816D104E104F104C9F036
:10372000C0F064E274EF80E090E0A50194010E9493
:10373000A81F69017A0191E0C91AD108E108F108CE
:103740002FEFC216D104E104F10409F080F583E003
:103750003CCF82E03ACF69E07DE380E090E0A501D4
:1037600094010E94A81F69017A0181E0C81AD1085A
:10377000E108F1089FEFC916D104E104F104A9F0B2
:10378000A0F089819A81AB81BC812AE0B595A7958B
:10379000979587952A95D1F76C017D0121E0C21A92
:1037A000D108E108F10887E024CF86E022CF69E064
:1037B0007DE380E090E0A50194010E94A81F6901CB
:1037C0007A0181E0C81AD108E108F1089FEFC91613
:1037D000D104E104F104A9F0A0F089819A81AB81C0
:1037E000BC814AE0B595A795979587954A95D1F7FD
:1037F0006C017D0121E0C21AD108E108F10885E0E1
:10380000E4CE84E0E2CE83E0F4CE61E00E94D11504
:103810005CCE0F900F900F900F900F90DF91CF9193
:103820001F910F91FF90EF90DF90CF90BF90AF90DE
:103830009F908F907F906F905F904F900895813010
:1038400039F018F0823051F0089510926E0008950A
:1038500080916F008D7F80936F000895809170003C
:103860008D7F8093700081E08093B0008091B100E3
:10387000887F84608093B1001092B3000895CF9345
:10388000C82F80910F01C81307C0EFE3F2E08491C5
:103890009FEF90930F0101C08FEF0E941F1C60E00B
:1038A0008C2FCF910C940D161F920F920FB60F9282
:1038B00011242F933F934F935F936F937F938F9335
:1038C0009F93AF93BF93EF93FF9380910B049091DD
:1038D0000C04A0910D04B0910E04892B8A2B8B2B24
:1038E00051F190910804E0910904F0910A0480815B
:1038F0008927808380910B0490910C04A0910D0482
:10390000B0910E04181619061A061B06C4F480910D
:103910000B0490910C04A0910D04B0910E0401973A
:10392000A109B10980930B0490930C04A0930D049A
:10393000B0930E0404C080910F010E943F1CFF91C0
:10394000EF91BF91AF919F918F917F916F915F9117
:103950004F913F912F910F900FBE0F901F90189590
:103960004F925F926F927F92AF92BF92CF92DF920F
:10397000EF92FF920F931F93CF93DF93CDB7DEB7F4
:1039800029013A019B01AC0124193509460957095F
:1039900089899A89AB89BC89BC01CD016A197B09E7
:1039A0008C099D090E94421FA8019701241935091D
:1039B000460957090E94A81FCA01B9016A0D7B1D5B
:1039C0008C1D9D1DDF91CF911F910F91FF90EF9066
:1039D000DF90CF90BF90AF907F906F905F904F90AF
:1039E0000895FC01808191810C947F20CF93DF9317
:1039F000EC0188819981009711F00E947F20198243
:103A000018821D821C821B821A82DF91CF91089539
:103A10000F931F93CF93DF93EC018B016F5F7F4F69
:103A2000888199810E940821009731F099838883C9
:103A30001B830A8381E001C080E0DF91CF911F9159
:103A40000F910895CF93DF93EC0188819981892BA1
:103A500029F08A819B818617970760F4CE010E9426
:103A6000081D882341F08C819D81892B19F4E88100
:103A7000F981108281E0DF91CF910895EF92FF925A
:103A80000F931F93CF93DF93EC017B018A01BA015F
:103A90000E94221D811104C0CE010E94F61C07C0A5
:103AA0001D830C83B701888199810E94DE21CE019C
:103AB000DF91CF911F910F91FF90EF900895FC013E
:103AC000118210821382128215821482611571058F
:103AD00051F0FB0101900020E9F73197AF01461B3F
:103AE000570B0C943E1D0895CF93DF93EC01FB011F
:103AF0008617970761F0608171816115710529F062
:103B0000448155810E943E1D02C00E94F61CCE01D8
:103B1000DF91CF910895EF92FF920F931F93CF9370
:103B2000DF936115710511F480E01CC0411551054A
:103B3000C1F07B01EC018C819D818A01080F191F66
:103B4000B801CE010E94221D882371F3288139819A
:103B50008C819D81B701820F931F0E94DE211D83FE
:103B60000C8381E0DF91CF911F910F91FF90EF9037
:103B70000895CF93DF93EC01FB014481558160816F
:103B800071810E948B1D811103C0CE010E94F61C21
:103B9000CE01DF91CF910895FC0124813581621718
:103BA000730748F480819181009729F0FC01E60FAA
:103BB000F71F8081089580E00895CF93DF93DC01A3
:103BC0001496ED91FC9115976E177F0730F541150E
:103BD000510519F1DF01A61BB70B9A01A417B50710
:103BE00008F49D01DB01EC0188819981E21BF30B54
:103BF000FD83EC83AF01461B570B260F371FBC011B
:103C0000620F731F8A0F9B1F0E94E521E881F981D3
:103C10008C819D81E80FF91F1082DF91CF9108956B
:103C200008950E94181E6894B1110C94CF1E089537
:103C30000E94B41E88F09F5798F0B92F9927B7516A
:103C4000B0F0E1F0660F771F881F991F1AF0BA9540
:103C5000C9F714C0B13091F00E94CE1EB1E00895B2
:103C60000C94CE1E672F782F8827B85F39F0B93FA4
:103C7000CCF3869577956795B395D9F73EF49095F3
:103C80008095709561957F4F8F4F9F4F0895E89471
:103C900009C097FB3EF490958095709561957F4F94
:103CA0008F4F9F4F9923A9F0F92F96E9BB27939542
:103CB000F695879577956795B795F111F8CFFAF452
:103CC000BB0F11F460FF1BC06F5F7F4F8F4F9F4F83
:103CD00016C0882311F096E911C0772321F09EE8E1
:103CE000872F762F05C0662371F096E8862F70E047
:103CF00060E02AF09A95660F771F881FDAF7880F21
:103D00009695879597F9089597F99F6780E870E0F1
:103D100060E008959FEF80EC089500240A94161641
:103D2000170618060906089500240A9412161306A9
:103D3000140605060895092E0394000C11F4882337
:103D400052F0BB0F40F4BF2B11F460FF04C06F5F53
:103D50007F4F8F4F9F4F089557FD9058440F551F29
:103D600059F05F3F71F04795880F97FB991F61F0FD
:103D70009F3F79F087950895121613061406551F74
:103D8000F2CF4695F1DF08C0161617061806991FE0
:103D9000F1CF86957105610508940895E894BB27D5
:103DA00066277727CB0197F908950E94E81E0C94A7
:103DB0009B1E0E948D1E38F00E94941E20F09523B9
:103DC00011F00C94841E0C948A1E11240C94CF1EA6
:103DD0000E94AC1E70F3959FC1F3950F50E0551FE4
:103DE000629FF001729FBB27F00DB11D639FAA2750
:103DF000F00DB11DAA1F649F6627B00DA11D661F9F
:103E0000829F2227B00DA11D621F739FB00DA11DBF
:103E1000621F839FA00D611D221F749F3327A00D79
:103E2000611D231F849F600D211D822F762F6A2F15
:103E300011249F5750409AF0F1F088234AF0EE0F7A
:103E4000FF1FBB1F661F771F881F91505040A9F7A7
:103E50009E3F510580F00C94841E0C94CF1E5F3F52
:103E6000E4F3983ED4F3869577956795B795F795E3
:103E7000E7959F5FC1F7FE2B880F911D969587955B
:103E800097F90895DB018F939F930E94DC1FBF91E8
:103E9000AF91A29F800D911DA39F900DB29F900D99
:103EA00011240895991B79E004C0991F961708F012
:103EB000961B881F7A95C9F780950895AA1BBB1B8E
:103EC00051E107C0AA1FBB1FA617B70710F0A61B1A
:103ED000B70B881F991F5A95A9F780959095BC013B
:103EE000CD01089597FB072E16F4009407D077FDB7
:103EF00009D00E945E1F07FC05D03EF49095819585
:103F00009F4F0895709561957F4F0895A1E21A2EF5
:103F1000AA1BBB1BFD010DC0AA1FBB1FEE1FFF1F6D
:103F2000A217B307E407F50720F0A21BB30BE40BBD
:103F3000F50B661F771F881F991F1A9469F7609504
:103F40007095809590959B01AC01BD01CF010895BE
:103F5000052E97FB1EF400940E94BF1F57FD07D04B
:103F60000E94861F07FC03D04EF40C94BF1F50958F
:103F70004095309521953F4F4F4F5F4F0895909555
:103F80008095709561957F4F8F4F9F4F0895EE0FED
:103F9000FF1F0590F491E02D0994A29FB001B39FFB
:103FA000C001A39F700D811D1124911DB29F700D42
:103FB000811D1124911D08950E94CD1FA59F900D74
:103FC000B49F900DA49F800D911D112408950F930F
:103FD0001F93CF93DF938230910510F482E090E03D
:103FE000E0911F04F091200420E030E0A0E0B0E078
:103FF000309719F140815181028113814817590787
:10400000C8F08417950769F4109731F012960C9355
:10401000129713961C9327C000931F04109320043B
:1040200022C02115310519F04217530718F49A01DF
:10403000BD01EF01DF01F801DBCF21153105F9F0FA
:10404000281B390B2430310580F48A819B8161154E
:10405000710521F0FB019383828304C090932004B7
:1040600080931F04FE01329644C0FE01E20FF31F4D
:104070008193919322503109398328833AC020914A
:104080001D0430911E04232B41F420910201309134
:10409000030130931E0420931D04209100013091F0
:1040A00001012115310541F42DB73EB740910401BE
:1040B00050910501241B350BE0911D04F0911E0465
:1040C000E217F307A0F42E1B3F0B2817390778F0EF
:1040D000AC014E5F5F4F2417350748F04E0F5F1F4E
:1040E00050931E0440931D048193919302C0E0E01D
:1040F000F0E0CF01DF91CF911F910F910895CF9301
:10410000DF93009709F481C0FC0132971382128279
:10411000A0911F04B0912004109781F42081318177
:10412000820F931F20911D0430911E042817390718
:1041300051F5F0931E04E0931D0467C0ED0120E0EB
:1041400030E0CE17DF0740F44A815B819E014115C4
:104150005105F1F0EA01F5CFD383C283408151814B
:10416000840F951FC817D90759F488819981840F46
:10417000951F0296918380838A819B81938382839A
:104180002115310529F4F0932004E0931F043DC06C
:10419000E901FB83EA8349915991C40FD51FEC17BC
:1041A000FD0761F480819181840F951F0296E901DA
:1041B00099838883828193819B838A83E0E0F0E006
:1041C00012968D919C911397009719F0FD01DC01D7
:1041D000F7CF8D919C9111979D012E5F3F4F820FDC
:1041E000931F20911D0430911E042817390769F48C
:1041F000309729F41092200410921F0402C01382F9
:104200001282B0931E04A0931D04DF91CF910895F4
:10421000A0E0B0E0EEE0F1E20C94AB24EC010097FA
:1042200021F4CB010E94E71FB4C0FC01E60FF71F89
:104230009C0122503109E217F30708F4A8C0D90104
:104240000D911C91119706171707B0F00530110555
:1042500008F49BC0C80104978617970708F495C017
:1042600002501109061B170B019311936D937C9358
:10427000CF010E947F2089C05B01A01AB10A4C01C6
:10428000800E911EA0911F04B0912004612C712C0E
:10429000E12CF12C109709F446C08D919C91119757
:1042A000A815B905B1F56C0142E0C40ED11CCA14C1
:1042B000DB0478F14C018A189B08640142E0C40ECB
:1042C000D11C1296BC9012971396AC91B5E0CB1608
:1042D000D10440F0B282A38391828082D9016D9390
:1042E0007C9309C00E5F1F4F800F911FF9019183CE
:1042F0008083EB2DFA2FE114F10431F0D7011396EE
:10430000FC93EE93129741C0F0932004E0931F04B6
:104310003CC06816790608F43C017D0112960D90A8
:10432000BC91A02DB7CF80911D0490911E048816DA
:104330009906E1F466167706C8F480910001909121
:104340000101009741F48DB79EB74091040150914F
:104350000501841B950BE817F907C8F4F0931E04B8
:10436000E0931D04F901718360830FC0CB010E94AB
:10437000E71F7C01009759F0A801BE010E94CE21E1
:10438000CE010E947F20C70104C0CE0102C080E0A0
:1043900090E0CDB7DEB7EEE00C94C724FB01DC0162
:1043A00002C001900D9241505040D8F70895DC01B1
:1043B00001C06D9341505040E0F70895FB01DC01CE
:1043C00001900D920020E1F70895FB01DC014150BE
:1043D000504048F001900D920020C9F701C01D9295
:1043E00041505040E0F70895AEE0B0E0EAEFF1E26E
:1043F0000C94B5240D891E8986E08C831A83098369
:104400008FEF9FE79E838D83AE01475E5F4F6F897D
:10441000788DCE0101960E941622EF81F885E00F7B
:10442000F11F10822E96E4E00C94D124ABE0B0E0B2
:10443000ECE1F2E20C94A7246C017B018A01FC01FF
:1044400017821682838181FFCCC1CE0101963C0187
:10445000F6019381F70193FD859193FF81917F018F
:10446000882309F4BAC1853239F493FD859193FF0D
:1044700081917F01853229F4B60190E00E940D24DC
:10448000E7CF912C212C312CFFE1F315D8F08B32A2
:1044900079F038F4803279F08332A1F4232D206151
:1044A0001DC08D3261F0803369F4232D216016C068
:1044B000832D8260382EE32DE4603E2E2AC0F32D3A
:1044C000F8601DC037FC2DC020ED280F2A3040F0C9
:1044D0008E32B9F436FC81C1232D2064322E19C0EE
:1044E00036FE06C08AE0989E200D1124922E11C03F
:1044F000EAE02E9E200D1124222EF32DF0623F2E95
:1045000008C08C3621F4832D8068382E02C088368E
:1045100041F4F70193FD859193FF81917F01811112
:10452000B3CF982F9F7D9554933028F40C5F1F4F85
:104530009FE399830DC0833631F0833771F0833563
:1045400009F059C021C0F801808189830E5F1F4F97
:1045500088248394912C530113C02801F2E04F0E5C
:10456000511CF801A080B18036FE03C0692D70E0B7
:1045700002C06FEF7FEFC5010E9402244C0182014F
:10458000F32DFF773F2E16C0280122E0420E511C6A
:10459000F801A080B18036FE03C0692D70E002C032
:1045A0006FEF7FEFC5010E94F7234C01F32DF068F8
:1045B0003F2E820133FC1BC0822D90E088169906A5
:1045C000B0F4B60180E290E00E940D242A94F4CF6A
:1045D000F50137FC859137FE81915F01B60190E0CE
:1045E0000E940D2421102A9421E0821A910881143E
:1045F000910471F7E8C0843611F0893641F5F8016D
:1046000037FE07C060817181828193810C5F1F4FEB
:1046100008C060817181072E000C880B990B0E5F1A
:104620001F4FF32DFF763F2E97FF09C09095809581
:10463000709561957F4F8F4F9F4FF0683F2E2AE016
:1046400030E0A3010E944924882E861845C0853792
:1046500031F4232D2F7EB22E2AE030E025C0932D99
:10466000997FB92E8F36C1F018F4883579F0B5C02E
:10467000803719F0883721F0B0C0E92FE061BE2EF5
:10468000B4FE0DC0FB2DF460BF2E09C034FE0AC07D
:10469000292F2660B22E06C028E030E005C020E1B8
:1046A00030E002C020E132E0F801B7FE07C06081CF
:1046B0007181828193810C5F1F4F06C0608171817F
:1046C00080E090E00E5F1F4FA3010E944924882ED6
:1046D0008618FB2DFF773F2E36FE0DC0232D2E7F33
:1046E000A22E891458F434FE0BC032FC09C0832D6D
:1046F0008E7EA82E05C0B82CA32C03C0B82C01C0F8
:10470000B92CA4FE0FC0FE01E80DF11D808180339D
:1047100021F49A2D997EA92E09C0A2FE06C0B39459
:10472000B39404C08A2D867809F0B394A3FC11C019
:10473000A0FE06C0B21488F4280C922C9B180EC060
:10474000B21460F4B60180E290E00E940D24B394AC
:10475000F7CFB21418F42B1802C0982C212CA4FE09
:1047600010C0B60180E390E00E940D24A2FE17C0A5
:10477000A1FC03C088E790E002C088E590E0B601A4
:104780000CC08A2D867859F0A1FE02C08BE201C0D0
:1047900080E2A7FC8DE2B60190E00E940D2489140E
:1047A00038F4B60180E390E00E940D249A94F7CF8C
:1047B0008A94F301E80DF11D8081B60190E00E941A
:1047C0000D248110F5CF222009F442CEB60180E2FB
:1047D00090E00E940D242A94F6CFF60186819781FD
:1047E00002C08FEF9FEF2B96E2E10C94C324FC01F3
:1047F0000590615070400110D8F7809590958E0F0C
:104800009F1F0895FC016150704001900110D8F77E
:10481000809590958E0F9F1F08950F931F93CF93B0
:10482000DF93FB01238121FD03C08FEF9FEF2CC09D
:1048300022FF16C0468157812481358142175307D4
:1048400044F4A081B1819D012F5F3F4F31832083CC
:104850008C93268137812F5F3F4F3783268314C087
:104860008B01EC01FB010084F185E02D0995892B7A
:10487000E1F6D80116968D919C911797019617969F
:104880009C938E931697CE01DF91CF911F910F913C
:104890000895FA01AA27283051F1203181F1E894D6
:1048A0006F936E7F6E5F7F4F8F4F9F4FAF4FB1E023
:1048B0003ED0B4E03CD0670F781F891F9A1FA11D1E
:1048C000680F791F8A1F911DA11D6A0F711D811D1F
:1048D000911DA11D20D009F468943F912AE0269FE4
:1048E00011243019305D3193DEF6CF010895462F43
:1048F0004770405D4193B3E00FD0C9F7F6CF462F24
:104900004F70405D4A3318F0495D31FD405241938C
:1049100002D0A9F7EACFB4E0A69597958795779549
:104920006795BA95C9F700976105710508959B01D0
:10493000AC010A2E06945795479537952795BA9559
:10494000C9F7620F731F841F951FA01D08952F9232
:104950003F924F925F926F927F928F929F92AF920F
:10496000BF92CF92DF92EF92FF920F931F93CF935C
:10497000DF93CDB7DEB7CA1BDB0B0FB6F894DEBFF3
:104980000FBECDBF09942A88398848885F846E8419
:104990007D848C849B84AA84B984C884DF80EE8063
:1049A000FD800C811B81AA81B981CE0FD11D0FB66C
:1049B000F894DEBF0FBECDBFED010895F894FFCF90
:1049C0000000210480007800D7130000000001FFE0
:1049D0002530327520642530317520253032750040
:1049E000253032752D253032752064253031750023
:1049F0002534752D253032752D2530327520253022
:104A000032753A253032753A25303275202E002520
:104A1000303275232530317543002020202020209E
:104A20002020002530327520253032752025303287
:104A30007500202534752D253032752D25303275C1
:104A4000206425317520253032755F253032752080
:104A500020253275232531754320502532752000DD
:104A60004241545445525F56414C3A3D00424154F4
:104A70005445525F56414C2825293A3D006E3A3D37
:104A8000000000000067093A090E0916092A0939D1
:104A900009203A20307800060000000000000000E5
:104AA00000000000000000050000000000000004FD
:104AB00000000003000201804020100804020111E0
:104AC000C1638561714391F38751E313D5C53119F2
:104AD0007349E1C78381938925039F250D99494136
:104AE0001F0119000000000C1774189E16B816AAB2
:104AF0001653170D0A006E616E00696E66006F76C0
:024B000066004D
:00000001FF
