:100000000C941C010C94B8140C94DF140C94061579
:100010000C9444010C9444010C9444010C9444014C
:100020000C9444010C94CB1C0C9444010C9444019A
:100030000C9444010C9444010C9444010C9444012C
:100040000C9444010C9444010C942D150C9444011F
:100050000C944C180C947E180C9444010C9444019C
:100060000C9444010C9444010C94970B0C9444019F
:100070000C9444010C9444010C944401450D5E0D14
:100080005E0D5C0D5E0D430D5E0D5E0D5E0D360D5D
:100090005E0D5E0D4E0D5A0D580D5E0D5E0D5E0D22
:1000A000560D536574205375636365737366756C81
:1000B0000068683A6D6D206D6F646500456E74650B
:1000C0007220616C61726D2074696D6520666F725B
:1000D0006D617420286D6F64652069732031207410
:1000E0006F20362C20342069732070657220646183
:1000F000792900536574205375636365737366755E
:100100006C006D6D6D2D64642D7979797920686846
:100110002D6D6D2D73732073616D706C6520696E2C
:100120007075743A2044656320323620323030399D
:100130002031323A33343A353600456E74657220D8
:100140006461746520666F726D61740052657065DC
:100150006174204D6F6465205365743A20002D2D25
:100160002D2D2D2D2D2D2D2D2D2D2D2D2D2D2D2DBF
:100170002D0043686F6F73652061206D656E75207B
:100180006974656D3A004120736574205B415D6C54
:1001900061726D2074696D65005420736574205B15
:1001A000545D696D65001F1C1F1E1F1E1F1F1E1F33
:1001B0001E1F0000000203000000000000000504F4
:1001C000090800000000000000000000000000001E
:1001D00000000102040810204080010204081020E1
:1001E0004080010204081020408001020408102011
:1001F0004080020202020202020204040404040417
:1002000004040303030303030303010101010101C8
:100210000101000020002300260029000000220028
:10022000250028002B0000002100240027002A00C0
:100230000200BF04AE0AAE1811241FBECFEFD0E1FA
:10024000DEBFCDBF12E0A0E0B1E0ECE0FAE402C016
:1002500005900D92A433B107D9F724E0A4E3B2E0EE
:1002600001C01D92A131B207E1F711E0CCE1D1E06C
:1002700004C02197FE010E94ED1FC931D107C9F7C3
:100280000E94DC180C9404250C94000081E08093FB
:100290005C0283B78E7F83BF0895DC01ED91FC91F2
:1002A0000190F081E02D09946AE470E082E992E027
:1002B0000E942D0A61E070E082E992E00E944D0107
:1002C00061E370E082E992E00E944D0182E992E0F0
:1002D0000C94AB0A1F93CF93DF9300D000D000D0D3
:1002E000CDB7DEB7CE0101960E94230E1D81CE014F
:1002F00001960E94780D1F921F931F928F938C81FD
:100300001F928F938FE091E09F938F938BE392E006
:100310009F938F930E941A224CE46BE372E08DE569
:1003200092E00E94561341E060E070E08DE592E0BB
:100330000E94FF1341E061E070E08DE592E00E94D1
:10034000FF1341E062E070E08DE592E00E94FF1350
:1003500041E063E070E08DE592E00E94FF1341E030
:1003600064E070E08DE592E00E94FF1341E065E0FB
:1003700070E08DE592E00E94FF1344EF51E060E0F1
:1003800070E08DE592E00E940F1440E060E070E0C4
:100390008DE592E00E94FF1340E061E070E08DE5A2
:1003A00092E00E94FF1340E062E070E08DE592E091
:1003B0000E94FF1340E063E070E08DE592E00E9450
:1003C000FF1340E064E070E08DE592E00E94FF13CF
:1003D00040E065E070E08DE592E00E94FF1344EF9D
:1003E00051E060E070E08DE592E00E940F140FB6DE
:1003F000F894DEBF0FBECDBF26960FB6F894DEBFD1
:100400000FBECDBFDF91CF911F910895CF93DF93A2
:1004100000D000D000D0CDB7DEB7CE0101960E944B
:10042000230ECE0101960E94780D1F928F938B812F
:100430001F928F938A811F928F938FE191E09F93F8
:100440008F938BE392E09F938F930E941A224CE448
:100450006BE372E08DE592E00E94561340ED57E0A9
:1004600060E070E08DE592E00E940F140FB6F89402
:10047000DEBF0FBECDBF26960FB6F894DEBF0FBE0F
:10048000CDBFDF91CF910895CF93DF9300D000D0FF
:1004900000D0CDB7DEB7CE0101960E94230E8E812B
:1004A0001F928F938D811F928F938C811F928F93B8
:1004B0008B811F928F938A811F928F93898190E005
:1004C0008053984F9F938F938FE291E09F938F93E8
:1004D0008BE392E09F938F930E941A226BE372E06A
:1004E0008BE593E00E946D190FB6F894DEBF0FBE46
:1004F000CDBF26960FB6F894DEBF0FBECDBFDF91FD
:10050000CF910895CF93DF93C9E0D0E061E080E020
:100510000E9484166CE271E080E090E00E94A815D1
:1005200060E080E00E9484166CE271E080E090E080
:100530000E94A815219751F7DF91CF910895CF938D
:10054000DF93EB0120E030E0A901BC018CE00E94C8
:10055000291A609106017091070188EE93E00E94CC
:10056000981F2FE0269FC001279F900D11248C9F7C
:10057000B0018D9F700D9C9F700D1124072E000CF3
:10058000880B990BDF91CF910C94A815CF93DF9333
:10059000EC018CE00E94B61C60910601709107018D
:1005A00088EE93E00E94981F2FE0269FC001279FAE
:1005B000900D11248C9FB0018D9F700D9C9F700D2C
:1005C0001124072E000C880B990BDF91CF910C940E
:1005D000A81562E070E087E295E00E949F0262E069
:1005E00070E08DED94E00E949F0262E070E087E28F
:1005F00095E00E949F0262E070E08DED94E00E9421
:100600009F0262E070E087E295E00E949F0262E054
:1006100070E08CED93E00E949F0262E070E087E959
:1006200094E00E949F0262E070E087E194E00E9403
:100630009F0262E070E08CED90E00E949F0262E019
:1006400070E08AE491E00E949F0262E070E088EB33
:1006500091E00E949F0262E070E08BE092E00E94D5
:100660009F0262E070E083E992E00E949F0262E0F4
:1006700070E080E793E00E949F0262E070E085EA0C
:1006800090E00E949F0262E070E08AE491E00E94A4
:100690009F0262E070E08FE991E00E949F0262E0B9
:1006A00070E083E992E00E949F0262E070E08FE3D5
:1006B00093E00E949F0262E070E08CED93E00E9464
:1006C0009F0262E070E08CED90E00E949F0262E089
:1006D00070E08AE491E00E949F0262E070E088EBA3
:1006E00091E00E949F0262E070E083E992E00E9444
:1006F0009F0262E070E087E295E00E949F0262E064
:1007000070E08DED94E00E949F0262E070E087E26D
:1007100095E00E949F0262E070E08DED94E00E94FF
:100720009F0262E070E087E295E00E949F0262E033
:1007300070E08CED93E00E949F0262E070E087E938
:1007400094E00E949F0262E070E087E194E00E94E2
:100750009F0262E070E08CED90E00E949F0262E0F8
:1007600070E08AE491E00E949F0262E070E088EB12
:1007700091E00E949F0262E070E08BE092E00E94B4
:100780009F0262E070E083E992E00E949F0262E0D3
:1007900070E080E793E00E949F0262E070E085EAEB
:1007A00090E00E949F0262E070E08AE491E00E9483
:1007B0009F0262E070E08FE991E00E949F0262E098
:1007C00070E083E992E00E949F0262E070E08FE3B4
:1007D00093E00E949F0262E070E08CED93E00E9443
:1007E0009F0262E070E08CED90E00E949F0262E068
:1007F00070E08AE491E00E949F0262E070E088EB82
:1008000091E00E949F0262E070E083E992E00E9422
:100810009F0262E070E087E194E00E949F0262E044
:1008200070E087E994E00E949F0262E070E086E059
:1008300091E00E949F0262E070E088E891E00E94EF
:100840009F0262E070E08BE092E00E949F0262E013
:1008500070E080E193E00E949F0262E070E085E733
:1008600095E00E949F0262E070E087E295E00E94BE
:100870009F0262E070E084EC90E00E949F0262E0E0
:1008800070E088E891E00E949F0262E070E08EEEE6
:1008900091E00E949F0262E070E08AEB92E00E9489
:1008A0009F0262E070E087E295E00E949F0262E0B2
:1008B00070E087E994E00E949F0262E070E08CEDB6
:1008C00090E00E949F0262E070E08AE491E00E9462
:1008D0009F0262E070E088EB91E00E949F0262E07C
:1008E00070E083E992E00E949F0262E070E087E995
:1008F00094E00E949F0262E070E087E194E00E9431
:100900009F0262E070E085EA90E00E949F0262E050
:1009100070E08AE491E00E949F0262E070E080E76C
:1009200093E00E949F0282E090E00E94C6028CE069
:100930000C94B61C82E00E94B316892BF9F46AE08D
:1009400070E080E090E00E94A81582E00E94B3165B
:1009500081E992E00E94CD0F892B39F00E94E902D3
:1009600010925B0210925A02089580915A0290915F
:100970005B02019690935B0280935A02089548E0CF
:1009800050E060E070E08DE592E00C94E011CF92D1
:10099000DF92EF92FF920F931F93CF93DF93CDB728
:1009A000DEB72C970FB6F894DEBF0FBECDBFCE01D9
:1009B00007960E94230EF884D9846CEB70E08BE5D7
:1009C00093E00E945B1961EB70E08BE593E00E947D
:1009D0005B198BE593E00E9415170897D4F38BE51C
:1009E00093E00E942F17082F8BE593E00E942F17AA
:1009F000000F0056902F990F990F090F8053080F81
:100A00008BE593E00E942F178BE593E00E942F1750
:100A1000E82E8BE593E00E942F179E2D990F90569C
:100A2000E92EEE0CEE0CE90E8053E80E8BE593E018
:100A30000E942F178BE593E00E942F17182F6AE072
:100A400070E080E090E00E94A8158BE593E00E94A2
:100A5000CA17C12C2D2D4F2D63EE77E0CE010196E4
:100A60000E94030DCE0101960E94D1101053612FF8
:100A700070E081E992E00E94E20E62EA70E08BE5AC
:100A800093E00E945B192C960FB6F894DEBF0FBE60
:100A9000CDBFDF91CF911F910F91FF90EF90DF902D
:100AA000CF900895AF92BF92CF92DF92EF92FF92D4
:100AB0000F931F93CF93DF93CDB7DEB769970FB630
:100AC000F894DEBF0FBECDBF6AE371E08BE593E023
:100AD0000E945B1962E071E08BE593E00E945B1974
:100AE0008BE593E00E9415174497D4F38E010F5FB6
:100AF0001F4F7E018CE0E80EF11C58018BE593E05E
:100B00000E942F17F80181938F01EE15FF05B1F7B1
:100B10008BE593E00E942F1767018E010C5E1F4F3B
:100B20008BE593E00E942F17F60181936F010E175A
:100B30001F07B1F76AE070E080E090E00E94A8151E
:100B40008BE593E00E94CA17A701B501C8010E9476
:100B5000170DC8010E9433106AE070E080E090E059
:100B60000E94A815B5018BE593E00E946D19C8019C
:100B70000E94230EC8010E94780D182F68E670E0CD
:100B800082E992E00E942D0A64E070E082E992E03E
:100B90000E944D01612F82E992E00E94DA0982E908
:100BA00092E00E94AB0A63EF70E08BE593E00E9455
:100BB0005B1969960FB6F894DEBF0FBECDBFDF910B
:100BC000CF911F910F91FF90EF90DF90CF90BF904A
:100BD000AF900895CF92DF92EF92FF920F931F9301
:100BE000CF93DF93CDB7DEB762970FB6F894DEBF31
:100BF0000FBECDBF6AE470E082E992E00E942D0A48
:100C000061E070E082E992E00E944D0182E992E0A9
:100C10000E94AB0A41E050E06AE470E082E992E0B1
:100C20000E94A60A82E992E00E948909082F6AE4DC
:100C300070E082E992E00E942D0A61E070E082E9B2
:100C400092E00E944D01602F606482E992E00E9470
:100C5000DA0982E992E00E94AB0A60E471E080E088
:100C600090E00E94A8156AE470E082E992E00E9498
:100C70002D0A60E070E082E992E00E944D0182E975
:100C800092E00E94AB0A42E050E06AE470E082E940
:100C900092E00E94A60A82E992E00E9481090297EE
:100CA00051F482E992E00E948909182F82E992E0CA
:100CB0000E948909F82E612F70E0762F66276F0D4C
:100CC000711D8B0194E0159507959A95E1F7CE017A
:100CD0000D960E94230E44E650E060E070E08DE542
:100CE00092E00E940F14CA88D988E888CE010D9638
:100CF0000E94780DF82EB8016F707727072E000C30
:100D0000880B990B0E947F1E20E030E040E25FE3F9
:100D10000E940B1F0E94471E7F936F93B801110F13
:100D2000880B990B0E947F1E20E030E040E85DE3D5
:100D30000E940B1F0E94471E7F936F931F92CF92BA
:100D40001F92DF921F92EF921F92FF928F851F9248
:100D50008F938E851F928F938D8590E08053984F4F
:100D60009F938F9387E691E09F938F938BE392E01D
:100D70009F938F930E941A226BE372E0CE01079635
:100D80000E94951D6EE571E0CE0101960E94951DB1
:100D9000BE01695F7F4FCE0101960E94EF1DBC012D
:100DA000CE0107960E94AA1DCE0101960E94271D22
:100DB0000FB6F894DEBF0FBECDBF8B859C85892B07
:100DC000A9F00CE42AE832E040E050E0BE01695F9F
:100DD0007F4F8DE592E00E94591441E050E060E0C1
:100DE00070E0CE0107960E94131EE7CFCE01079652
:100DF0000E94271D62960FB6F894DEBF0FBECDBFCE
:100E0000DF91CF911F910F91FF90EF90DF90CF90E6
:100E1000089582E992E00E94190A60E082E00E944F
:100E2000481661E08CE00E94481661E080E00E9474
:100E3000481610925C0226E040E056E960E070E05F
:100E40008BE593E00E94EC170E94AF0D81E992E0E0
:100E50000E94CD0F0E94540183B7817F846083BFBD
:100E60000E94440266E272E08BE593E00E946D19F5
:100E700069E971E08BE593E00E945B1966E871E037
:100E80008BE593E00E945B1966E272E08BE593E0EC
:100E90000E946D1962E771E08BE593E00E945B1997
:100EA0006EE571E08BE593E00E945B190E9482027F
:100EB0008BE593E00E9415171816190614F58BE5BB
:100EC00093E00E942F1799278435910559F024F457
:100ED0008134910551F00BC08136910531F0843792
:100EE000910529F40E94520502C00E94C7046AE0DD
:100EF00070E080E090E00E94A8158BE593E00E94EE
:100F0000CA176CE471E08BE593E00E942A1981E92D
:100F100092E00E94800F4AE050E0BC018BE593E034
:100F20000E94171A61E081E992E00E94A50E0E94DA
:100F3000EE0F0E94EA0510925B0210925A02109284
:100F40003502109234020895FF920F931F93CF93AE
:100F5000DF9300D000D000D0CDB7DEB76AE470E0F8
:100F600082E992E00E942D0A61E070E082E992E05D
:100F70000E944D0182E992E00E94AB0A41E050E0FC
:100F80006AE470E082E992E00E94A60A82E992E0B7
:100F90000E948909082F6AE470E082E992E00E94C9
:100FA0002D0A61E070E082E992E00E944D01602F1D
:100FB000606482E992E00E94DA0982E992E00E948C
:100FC000AB0A60E471E080E090E00E94A8156AE45A
:100FD00070E082E992E00E942D0A60E070E082E910
:100FE00092E00E944D0182E992E00E94AB0A42E049
:100FF00050E06AE470E082E992E00E94A60A82E989
:1010000092E00E948109029751F482E992E00E94E5
:101010008909182F82E992E00E948909F82E612F30
:1010200070E0762F66276F0D711D8B0194E015958A
:1010300007959A95E1F7B8016F707727072E000C96
:10104000880B990B0E947F1E20E030E040E25FE3B6
:101050000E940B1F0E94471E7F936F93B801110FD0
:10106000880B990B0E947F1E20E030E040E85DE392
:101070000E940B1F0E94471E7F936F9388E991E0A7
:101080009F938F9386E392E09F938F930E941A22FF
:1010900003E428EB3BE040E050E066E372E08DE5DE
:1010A00092E00E9440146EE571E0CE0101960E942C
:1010B000951D4CE4BE016F5F7F4F8DE592E00E946D
:1010C000DB138DE592E00E940514CE0101960E948B
:1010D000271D0FB6F894DEBF0FBECDBF26960FB604
:1010E000F894DEBF0FBECDBFDF91CF911F910F915E
:1010F000FF900895CF93DF9300D000D000D0CDB7FC
:10110000DEB7CE0101960E94230E8E811F928F932F
:101110008D811F928F938C811F928F9383EA91E030
:101120009F938F938BE392E09F938F930E941A2259
:101130004CE46BE372E08DE592E00E94561341E0CF
:1011400060E070E08DE592E00E94FF1341E061E015
:1011500070E08DE592E00E94FF1341E062E070E0F4
:101160008DE592E00E94FF1341E063E070E08DE5C1
:1011700092E00E94FF1341E064E070E08DE592E0B0
:101180000E94FF1341E065E070E08DE592E00E946F
:10119000FF1344EF51E060E070E08DE592E00E94C3
:1011A0000F1440E060E070E08DE592E00E94FF13D4
:1011B00040E061E070E08DE592E00E94FF1340E0C6
:1011C00062E070E08DE592E00E94FF1340E063E092
:1011D00070E08DE592E00E94FF1340E064E070E073
:1011E0008DE592E00E94FF1340E065E070E08DE540
:1011F00092E00E94FF1344EF51E060E070E08DE563
:1012000092E00E940F148091340290913502019671
:1012100064E270E00E94981F0FB6F894DEBF0FBE24
:10122000CDBF892B11F40E94A40726960FB6F8941F
:10123000DEBF0FBECDBFDF91CF91089580915C02DC
:10124000882379F082E00E94A2140E94EA0510929D
:101250005B0210925A0210923502109234021092E0
:101260005C0280915A0290915B028230910599F064
:101270003CF4009769F00197A1F40E946A0115C03F
:101280008330910559F0049761F40E94EA0509C082
:101290000E947A080AC00E94060207C00E94A407A2
:1012A00004C010925B0210925A0280913402909115
:1012B000350284389340D1F40E94EA051092350239
:1012C0001092340242E050E066E471E082E00E9455
:1012D00073146AE070E080E090E00E94A81583B784
:1012E000816083BF889583B78E7F83BF80913402EE
:1012F00090913502019690933502809334020C94BC
:101300009A048091C20290E02091C302821B91094D
:1013100008959091C3028091C202981750F4E92F6A
:10132000F0E0EC53FD4F208130E09F5F9093C302CB
:1013300002C02FEF3FEFC9010895E091C3028091F1
:10134000C202E81730F4F0E0EC53FD4F808190E0EA
:1013500008958FEF9FEF08950895CF92DF92EF9257
:10136000FF920F931F93CF93DF937C01CB018A01F0
:1013700020919E02222389F0EB016B01C40ED51E41
:10138000CC15DD0569F06991D701ED91FC910190D3
:10139000F081E02DC7010995F3CF642F0E946E0BF9
:1013A000C801DF91CF911F910F91FF90EF90DF90D7
:1013B000CF900895CF93DF931F92CDB7DEB76983A7
:1013C00020919E022223D1F020919F02203240F0F2
:1013D00021E030E0FC013383228380E090E015C0FF
:1013E0008091A002E82FF0E0EF55FD4F99819083A6
:1013F0008F5F8093A00280939F0205C061E0CE01C1
:1014000001960E946E0B81E090E00F90DF91CF91EA
:101410000895FC011382128288EE93E0A0E0B0E010
:1014200084839583A683B78386EB91E09183808341
:1014300008951092C3021092C2021092A00210925C
:101440009F020C94B20A81E080939E026093C102D5
:101450001092A00210929F0208950C94230A0F93F9
:10146000062F21E040919F0261EA72E08091C10263
:101470000E94180B1092A00210929F0210929E02DE
:101480000F9108954F925F926F927F92AF92BF92A9
:10149000CF92EF92FF920F931F93CF93DF935C0154
:1014A000F62ED42F28013901EE2021F10E94230AC3
:1014B000CE2DC43008F0C3E0C150C0F028E0C29F78
:1014C000C0011124A301920104C056954795379598
:1014D00027958A95D2F7CA01B901D501ED91FC9102
:1014E0000190F081E02DC5010995E6CF60E0C501CE
:1014F0000E942F0A4D2FD13208F040E22C2D64ECCF
:1015000072E08F2D0E94D00A1092C3028093C20213
:10151000DF91CF911F910F91FF90EF90CF90BF90EF
:10152000AF907F906F905F904F900895CF92EF9221
:101530000F931F93C22EE12C00E010E098010E944F
:10154000420A1F910F91EF90CF90089521E00C94E3
:10155000960A0C94960A61E00C942F0A82E992E0B4
:101560000C94090A1092510381E080934F0310926A
:101570004E0361E081E10E94841661E080E10E94F7
:101580008416E9EBF0E080818E7F808380818D7FFF
:10159000808380E28093B80085E48093BC00089546
:1015A000413208F043C0909151039111FCCF91E07A
:1015B0009093510320934F032FEF2093E402109256
:1015C0002903240F209328039093500390915003F4
:1015D000880F892B8093500380914E03813061F4F2
:1015E00010924E03809150038093BB008091BC0009
:1015F00083FDF8CF85EC01C085EE8093BC0080911F
:1016000051038130E1F380912903841710F4409154
:101610002903AAE2B3E0962FFB018E2F891B8417C2
:1016200018F48D918193F9CF842F089580E0089567
:101630000F93413208F04AC0909151039111FCCFB1
:1016400032E03093510300934F033FEF3093E402B5
:101650001092290340932803562FAAE2B3E0FB011E
:101660003E2F351B341718F431913D93F9CF10926A
:10167000500330915003880F832B80935003809147
:101680004E03813061F410924E0380915003809399
:10169000BB008091BC0083FDF8CF85EC01C085EED6
:1016A0008093BC00222321F0809151038230D1F33A
:1016B0008091E4028F3F79F08091E402803241F022
:1016C0008091E402803331F094E005C091E003C0E2
:1016D00092E001C093E0892F0F910895613298F450
:1016E00020915103243089F460930603282FA8E049
:1016F000B3E0FC018E2F821B861718F481918D9325
:10170000F9CF80E0089581E0089582E0089585EDA5
:101710008093BC008091BC0084FDFCCF10925103EB
:10172000089585EC8093BC001092510308951F9298
:101730000F920FB60F9211242F933F934F935F9305
:101740006F937F938F939F93AF93BF93EF93FF9389
:101750008091B900887F803609F49EC078F5883280
:1017600009F45DC090F4803109F456C038F4882340
:1017700009F4F5C0883009F44FC0F5C0883109F488
:101780004EC0803209F45FC0EEC0803409F46AC0F4
:1017900058F4803309F457C0883309F0E4C08093CB
:1017A000E4020E94910BDFC0803509F44FC08835F8
:1017B00009F45DC0883409F0D6C0D3C0883909F473
:1017C000C4C0A8F4883709F467C038F4883609F42F
:1017D00063C0803709F460C0C6C0883809F4B5C05A
:1017E000803909F45FC0803809F0BDC05BC0803B20
:1017F00009F483C038F4803A09F466C0883A09F4E1
:101800007CC0B1C0803C09F4A4C0883C09F4A1C0EC
:10181000883B09F487C0A7C08091500310C0909105
:10182000290380912803981770F5E091290381E03E
:101830008E0F80932903F0E0E65DFC4F808180935A
:10184000BB0085EC83C08093E4028BC0E091290348
:1018500081E08E0F809329038091BB00F0E0E65D6C
:10186000FC4F808390912903809128036BC0E09105
:10187000290381E08E0F809329038091BB00F0E063
:10188000E65DFC4F808380914F0381116AC081E047
:1018900080934E0384EA5EC083E0809351031092EC
:1018A000E502CFCF8091E502803208F04EC0E09192
:1018B000E50281E08E0F8093E5028091BB00F0E0AD
:1018C000EA51FD4F8083BDCF0E94910B8091E502CC
:1018D000803230F4E091E502F0E0EA51FD4F1082F1
:1018E0006091E50270E0E0914A03F0914B0386EECF
:1018F00092E009951092E50236C084E0809351038E
:101900001092070310920603E0914C03F0914D03EF
:10191000099580910603811105C081E0809306033B
:1019200010920803E091070381E08E0F8093070374
:10193000F0E0E85FFC4F80818093BB00909107034B
:1019400080910603981708F47CCF85E88093BC004B
:101950000AC085EC8093BC001092510304C0109221
:10196000E4020E94870BFF91EF91BF91AF919F918D
:101970008F917F916F915F914F913F912F910F9038
:101980000FBE0F901F901895803D27E0920710F032
:10199000805D974050E0E6EAF1E021E0261730F460
:1019A0003491430F511D2F5F3196F8CF633038F0DB
:1019B0009C0123703327232B11F44F5F5F4FBC0131
:1019C0006D5F7F4F7695679576956795EDE6F1E0CB
:1019D0008E9F90018F9F300D9E9F300D1124C90165
:1019E0000197860F971F840F951F0895FC01908122
:1019F00090539A3008F090E0818180532AE0929FC2
:101A0000800D11240895CF92EF920F93FC01603D59
:101A100087E0780710F0605D774060834183228320
:101A20000383E482C5820F91EF90CF900895EF92E7
:101A3000FF920F931F93CF93DF93EC018B017A01F9
:101A4000CB0109960E94F60C8883D801EC918E2F69
:101A5000EE0F990BAA0BBB0BFC01E154F109E3312A
:101A6000F10560F5E25CFF4F0C94ED1FF8018181F8
:101A7000813629F082818E3621F087E01EC081E018
:101A80001CC086E01AC082E018C0D80112968C9162
:101A9000823711F088E011C084E00FC0F801828124
:101AA000823711F085E009C083E007C089E005C0F6
:101AB0008AE003C08BE001C08CE08983C8010496F2
:101AC0000E94F60C8A83C7010E94F60C8B83C70123
:101AD00003960E94F60C8C83C70106960E94F60CB2
:101AE0008D83DF91CF911F910F91FF90EF9008951B
:101AF000FC0180814281618190E00E94C40C0696C5
:101B000067E070E00E94841F089568E670E082E953
:101B100092E00E942D0A60E070E082E992E00E946B
:101B20004D0182E992E00C94AB0A0F931F93CF937F
:101B3000DF93082FC8E0D0E010E8802F812311F058
:101B400061E301C060E38BE593E00E9450191695B4
:101B5000219799F7DF91CF911F910F910895CF931E
:101B6000DF9368E670E082E992E00E942D0A68E067
:101B700070E082E992E00E944D0182E992E00E94C9
:101B8000AB0A41E050E068E670E082E992E00E9432
:101B9000A60A82E992E00E948909EC0187FF16C03B
:101BA00068E670E082E992E00E942D0A68E070E049
:101BB00082E992E00E944D01BE01606882E992E0F4
:101BC0000E944D0182E992E00E94AB0A6AE070E057
:101BD00080E090E00E94A81568E670E082E992E05B
:101BE0000E942D0A6AE070E082E992E00E944D01B5
:101BF00082E992E00E94AB0A41E050E068E670E0C2
:101C000082E992E00E94A60A82E992E00E94890994
:101C1000EC0168E670E082E992E00E942D0A6AE039
:101C200070E082E992E00E944D01BE016F7982E985
:101C300092E00E944D0182E992E00E94AB0A81E0AD
:101C4000DF91CF910895CF92DF92EF92FF920F93A1
:101C50001F93CF93DF93EC0168E670E082E992E096
:101C60000E942D0A61E070E082E992E00E944D013D
:101C700082E992E00E94AB0A21E030E047E050E0C8
:101C800068E670E082E992E00E94A90A82E992E0A7
:101C90000E9489098F77982F92959F701AEF082FCD
:101CA000919F000D112482E992E00E9489098F77AB
:101CB000982F92959F70C82E919FC00C112482E995
:101CC00092E00E9489098F73982F92959F70D82E69
:101CD000919FD00C112482E992E00E94890982E947
:101CE00092E00E9489098F73982F92959F70F82E29
:101CF000919FF00C112482E992E00E9489098F7172
:101D0000982F92959F70E82E919FE00C112482E904
:101D100092E00E9489099C01332794E0359527952C
:101D20009A95E1F7129F800D11248883E982FA8247
:101D3000DB82CC820D83CE01DF91CF911F910F9179
:101D4000FF90EF90DF90CF900895CF93DF93C62F51
:101D500068E670E082E992E00E942D0A6AE070E095
:101D600082E992E00E944D0182E992E00E94AB0A72
:101D700041E050E068E670E082E992E00E94A60A45
:101D800082E992E00E948909CC2319F0EC01C06835
:101D900002C0EC01CF7768E670E082E992E00E9431
:101DA0002D0A6AE070E082E992E00E944D01BE01D6
:101DB00082E992E00E944D0182E992E0DF91CF91A9
:101DC0000C94AB0AAF92BF92CF92DF92EF92FF9248
:101DD0000F931F93CF93DF935B0168E670E082E976
:101DE00092E00E942D0A6BE070E082E992E00E948E
:101DF0004D0182E992E00E94AB0A44E050E068E6BF
:101E000070E082E992E00E94A60A82E992E00E94D4
:101E10008909EC0182E992E00E9489096C0182E95A
:101E200092E00E9489097C0182E992E00E9489097E
:101E30008C0183E0A816B10411F154F481E0A816D6
:101E4000B104B1F082E0A816B10451F50F7711C0CA
:101E500085E0A816B104E9F0B4F086E0A816B10454
:101E6000F9F40F77E894E7F8E894C7F8CF7318C04F
:101E700000686894E7F86894C7F8C06C11C00F77E1
:101E8000E894E7F8F8CF0F77E894E7F8E894C7F814
:101E9000F4CF0F77E894E7F8E894C7F8CF77C064F9
:101EA00068E670E082E992E00E942D0A6BE070E043
:101EB00082E992E00E944D01BE0182E992E00E9417
:101EC0004D01B60182E992E00E944D01B70182E91D
:101ED00092E00E944D01B80182E992E00E944D011A
:101EE00082E992E00E94AB0ADF91CF911F910F919E
:101EF000FF90EF90DF90CF90BF90AF900C94850D46
:101F0000FF920F931F93CF93DF9368E670E082E90F
:101F100092E00E942D0A6BE070E082E992E00E945C
:101F20004D0182E992E00E94AB0A44E050E068E68D
:101F300070E082E992E00E94A60A82E992E00E94A3
:101F40008909182F82E992E00E948909082F82E905
:101F500092E00E948909F82E82E992E00E948909A4
:101F600087FB882780F9C82F80E0D82FF7FCC26054
:101F700007FDC46017FDC86016FDC061C853DE4F81
:101F8000C8810C2E000CDD0B0E94850DCE01DF9167
:101F9000CF911F910F91FF90089568E670E082E95C
:101FA00092E00E942D0A6FE070E082E992E00E94C8
:101FB0004D0182E992E00E94AB0A41E050E068E600
:101FC00070E082E992E00E94A60A82E992E00E9413
:101FD000890986FB882780F990E00895CF93DF93E5
:101FE00068E670E082E992E00E942D0A60E070E00D
:101FF00082E992E00E944D0182E992E00E94AB0AE0
:1020000040E150E068E670E082E992E00E94A60AB2
:10201000C0E0D0E082E992E00E9489090E94950D1B
:1020200062EC71E08BE593E00E944E1940E150E0D4
:10203000BE018BE593E00E94171A2196C031D105AD
:1020400049F768E670E082E992E00E942D0A60E0BC
:1020500070E082E992E00E944D0182E992E0DF9116
:10206000CF910C94AB0AEF92FF920F931F93CF93F3
:102070008C0168E670E082E992E00E942D0A64E03B
:1020800070E082E992E00E944D0182E992E00E94B4
:10209000AB0A41E050E068E670E082E992E00E941D
:1020A000A60A82E992E00E9489097C0168E670E054
:1020B00082E992E00E942D0A61E070E082E992E0FC
:1020C0000E944D01F8012581CAE0822F6C2F0E94E9
:1020D000781F682F660F860F880F682F620F82E9BE
:1020E00092E00E94DA09F8012481822F6C2F0E946D
:1020F000781F682F660F860F880F682F620F82E99E
:1021000092E00E94DA09F8012381822F6C2F0E944D
:10211000781F682F660F860F880F682F620F82E97D
:1021200092E00E94DA09B70182E992E00E944D0133
:10213000F8012281822F6C2F0E94781F682F660F72
:10214000860F880F682F620F82E992E00E94DA09F9
:10215000F8012181822F6C2F0E94781F682F660F53
:10216000860F880F682F620F82E992E00E94DA09D9
:10217000F8012081822F6C2F0E94781F682F660F34
:10218000860F880F682F620F82E992E00E94DA09B9
:1021900082E992E0CF911F910F91FF90EF900C9404
:1021A000AB0A1F93CF93DF93EC0168E670E082E9FE
:1021B00092E00E942D0A6AE070E082E992E00E94BB
:1021C0004D0129811AE0822F612F0E94781F682F0C
:1021D000660F860F880F682F620F82E992E00E94D7
:1021E000DA092A81822F612F0E94781F682F660FDB
:1021F000860F880F682F620F82E992E00E94DA0949
:102200002B81822F612F0E94781F682F660F860F07
:10221000880F682F620F82E992E00E94DA092C8110
:10222000822F612F0E94781F682F660F860F880FFC
:10223000682F620F82E992E00E94DA092D81822FD5
:10224000612F0E94781F682F660F860F880F682FF6
:10225000620F82E992E00E94DA0960E070E082E9B0
:1022600092E00E944D0182E992E0DF91CF911F91AF
:102270000C94AB0AEF92FF920F931F93CF93DF93CF
:10228000EC017C018CE2E80EF11C08EE11E02885DF
:102290003985C801885E9140821793072CF560E06C
:1022A00088810E9484168E819F81F8012081892B6C
:1022B00009F0209540E06A818C810E94DC16F701CC
:1022C00021917F0140E06A818C810E94DC1661E0EF
:1022D00088810E94841661E070E080E090E00E94B6
:1022E000A8150F5F1F4FD3CFDF91CF911F910F9193
:1022F000FF90EF900895CF93DF93EC0160E0888129
:102300000E94841620E041E06A818C810E94DC16E4
:1023100020E041E06A818C810E94DC1661E08881C6
:10232000DF91CF910C948416CF93DF93EC01862F2D
:10233000688379835B834A833D832C8361E00E94B9
:10234000481661E08A810E94481661E08C810E94F3
:102350004816CE01DF91CF910C947B11EF92FF9242
:102360000F931F93CF93DF93EC010E949411CE0142
:102370008C9661E00115110509F460E0619570E04B
:1023800048E050E00E94FD2188E0E816F1041CF4CA
:102390009E2D8F2D02C098E080E01F830E839887CA
:1023A000898721E030E03B872A879C878D871D8EB7
:1023B0001C8EDF91CF911F910F91FF90EF900895A8
:1023C000EF92FF920F931F937A018B0125E030E08B
:1023D00047E050E066E070E00E94AE111F910F915F
:1023E000FF90EF900895CF93DF93EC01645D7F4FF2
:1023F000FC01E60FF71FD901CD01821B930B841757
:1024000095075CF48E819F81892B11F09C9102C00D
:102410009C91909591931196EFCFDF91CF91089574
:10242000FC0126813781E60FF71F442319F0232B87
:1024300031F402C0232B19F084A5816002C084A569
:102440008E7F84A708950F931F93CF93DF93EA01A4
:10245000D9018FEF97EF4FEE5DEFFD01E21BF30B1C
:10246000E617F70784F5E991F0EDFE0FFA3030F446
:102470000E2E000CFF0BE652FE4F09C0FFE9FE0FC7
:10248000FA3140F40E2E000CFF0BE157FE4FE081B5
:10249000EC9317C0FFEBFE0FFA3130F40E2E000C58
:1024A000FF0BE155FE4FF3CFED3211F45C9309C001
:1024B000EF3511F44C9305C0E33211F49C9301C045
:1024C0008C931196CACF0F3F8FEF180731F0F901A7
:1024D000E00FF11F808181608083DF91CF911F9198
:1024E0000F910895CF92DF92EF92FF920F931F9377
:1024F000CF93DF93EE2DD9011197EC3429F461507D
:10250000710980E090E017C0C901861B970BE23586
:1025100011F4BD0108C097FD019695958795680F48
:10252000791F61507109F801C0E27F01E01AF10AD8
:10253000E816F90614F0FA0106C0C193F6CF97FF2A
:1025400006C00196319668177907CCF709C0A8171D
:10255000B907BCF34081E801C80FD91F4883F1CF08
:10256000FB013196E00FF11F80E2AF01401B510BE0
:102570004217530714F48193F8CF8FEFC816D8068B
:1025800039F06C197D0977FD03C0A617B7071CF455
:102590008FEF9FEF01C0CB01DF91CF911F910F9182
:1025A000FF90EF90DF90CF9008952F923F924F923F
:1025B0005F926F927F928F929F92AF92BF92CF92D3
:1025C000DF92EF92FF920F931F93CF93DF93CDB7DC
:1025D000DEB75C016DB67EB677FD50C0FC0182852A
:1025E0009385681779070CF049C0FA010190002023
:1025F000E9F73197CF01841B950B660F771F150103
:10260000260E371EF101848495846DB77EB7681954
:1026100079090FB6F8947EBF0FBE6DBFEDB7FEB758
:1026200031962F01CC24CA94DC2CE22E8F01940128
:10263000BC01C5010E9472126DB77EB76819790995
:102640000FB6F8947EBF0FBE6DBF8DB79EB70196D3
:102650007C010FEF1FEF9C01A201B401C5010E9494
:102660002312F101648D758D9701A401C5010E94AB
:10267000F3110FB6F8947EBE0FBE6DBE0FB6F89480
:102680007EBE0FBE6DBEDF91CF911F910F91FF9067
:10269000EF90DF90CF90BF90AF909F908F907F9002
:1026A0006F905F904F903F902F900895242FAB0133
:1026B00060E070E00C94D5122F923F924F925F929F
:1026C0006F927F928F929F92AF92BF92CF92DF9242
:1026D000EF92FF920F931F93CF93DF9300D01F923F
:1026E000CDB7DEB75C016B013A0129838DB79EB788
:1026F0009B838A8377FD42C0F501828593856817A5
:102700007907E4F52DB63EB600E010E0B801C3014C
:102710000E94021E98012F5F3F4F882311F089010C
:10272000F5CF8DB79EB7821B930B0FB6F8949EBF63
:102730000FBE8DBFEDB7FEB731962F014F01E12CD3
:10274000F12C0E151F0559F0B701C3010E94021E9E
:10275000F40181934F01FFEFEF1AFF0AF2CFF2016C
:10276000E00FF11F10822981A201B601C5010E946C
:10277000D5120FB6F8943EBE0FBE2DBE8A819B8146
:102780000FB6F8949EBF0FBE8DBF0F900F900F90A5
:10279000DF91CF911F910F91FF90EF90DF90CF903D
:1027A000BF90AF909F908F907F906F905F904F9071
:1027B0003F902F900895242FAB0160E070E00C94BF
:1027C0005C1377FD1BC0DC011A96ED91FC911B9701
:1027D0006E177F079CF457FD11C0660F771FFC0131
:1027E000E60FF71F64857585461757073CF4648D1F
:1027F000758D640F751F422F0C9410120895242FAD
:10280000AB0160E070E00C94E113CF93DF93EC0137
:102810000E943A11CE01DF91CF910C947B11CF929F
:10282000DF92EF92FF920F931F93CF93DF93EC0110
:102830006A017B010E94771508851985012E000C1D
:10284000220B330BC01AD10AE20AF30AC60ED71EB6
:10285000E81EF91E0E947715C616D706E806F90687
:1028600020F0CE010E943A11F5CFCE01DF91CF9139
:102870001F910F91FF90EF90DF90CF900C947B1100
:10288000CF92DF92EF92FF920F93CF93DF93EC0101
:1028900069017A01402F0E945613B701A601CE01AB
:1028A000DF91CF910F91FF90EF90DF90CF900C943C
:1028B0000F14CF92DF92EF92FF920F93CF93DF939B
:1028C000EC0169017A01402F0E94DB13B701A601D8
:1028D000CE01DF91CF910F91FF90EF90DF90CF90DD
:1028E0000C940F140895833060F5E82FF0E0EE0F9C
:1028F000FF1FE85FFE4F71836083813051F08230AB
:10290000A1F0809169008C7F482B40936900E89A80
:10291000089580916900837F440F551F440F551F10
:10292000482B40936900E99A0895809169008F7C53
:1029300094E0440F551F9A95E1F7482B40936900A6
:10294000EA9A0895833098F4813021F0823021F0A2
:10295000E89803C0E99801C0EA98E82FF0E0EE0F8C
:10296000FF1FE85FFE4F82E794E191838083089523
:102970001F920F920FB60F9211242F933F934F93F4
:102980005F936F937F938F939F93AF93BF93EF93D7
:10299000FF93E0910801F09109010995FF91EF91F2
:1029A000BF91AF919F918F917F916F915F914F9167
:1029B0003F912F910F900FBE0F901F9018951F926F
:1029C0000F920FB60F9211242F933F934F935F9363
:1029D0006F937F938F939F93AF93BF93EF93FF93E7
:1029E000E0910A01F0910B010995FF91EF91BF91E0
:1029F000AF919F918F917F916F915F914F913F9197
:102A00002F910F900FBE0F901F9018951F920F924D
:102A10000FB60F9211242F933F934F935F936F93B1
:102A20007F938F939F93AF93BF93EF93FF93E09127
:102A30000C01F0910D010995FF91EF91BF91AF91BC
:102A40009F918F917F916F915F914F913F912F91C6
:102A50000F900FBE0F901F9018951F920F920FB6F8
:102A60000F9211242F933F938F939F93AF93BF9314
:102A70008091530390915403A0915503B091560354
:102A80003091520326E0230F2D3720F40296A11D2A
:102A9000B11D05C029E8230F0396A11DB11D209388
:102AA00052038093530390935403A0935503B09320
:102AB00056038091570390915803A0915903B09108
:102AC0005A030196A11DB11D80935703909358039B
:102AD000A0935903B0935A03BF91AF919F918F91E7
:102AE0003F912F910F900FBE0F901F9018952FB709
:102AF000F894609153037091540380915503909121
:102B000056032FBF08953FB7F894809157039091D3
:102B10005803A0915903B0915A0326B5A89B05C04C
:102B20002F3F19F00196A11DB11D3FBFBA2FA92F4C
:102B3000982F8827820F911DA11DB11DBC01CD01C9
:102B400043E0660F771F881F991F4A95D1F70895B4
:102B50008F929F92AF92BF92CF92DF92EF92FF92AD
:102B60006B017C010E9483154B015C01C114D104EF
:102B7000E104F10401F10E94461E0E948315DC016C
:102B8000CB0188199909AA09BB09883E9340A10580
:102B9000B10560F321E0C21AD108E108F10888EE1E
:102BA000880E83E0981EA11CB11CC114D104E1045D
:102BB000F10419F7DBCFFF90EF90DF90CF90BF903B
:102BC000AF909F908F900895789484B5826084BD73
:102BD00084B5816084BD85B5826085BD85B5816021
:102BE00085BDEEE6F0E0808181608083E1E8F0E081
:102BF0001082808182608083808181608083E0E8B0
:102C0000F0E0808181608083E1EBF0E0808184608E
:102C10008083E0EBF0E0808181608083EAE7F0E090
:102C200080818460808380818260808380818E7FC8
:102C300080838081806880831092C10008958430F1
:102C400081F028F4823099F08330A1F00895883023
:102C5000A9F08930B9F08530D1F4809180008F7D62
:102C600003C0809180008F7780938000089584B5A1
:102C70008F7702C084B58F7D84BD08958091B000A8
:102C80008F7703C08091B0008F7D8093B00008954E
:102C9000CF93DF9390E0FC01EE52FE4F2491FC01B4
:102CA000EE50FE4F8491882361F190E0880F991FC8
:102CB000FC01EA5DFD4FC591D491FC01E45EFD4F3E
:102CC000A591B491611109C09FB7F89488812095AE
:102CD00082238883EC912E230BC0623061F49FB76E
:102CE000F8948881322F309583238883EC912E2BA2
:102CF0002C939FBF06C08FB7F894E8812E2B2883B2
:102D00008FBFDF91CF9108951F93CF93DF93282F2B
:102D100030E0F901EE54FE4F8491F901EE52FE4F7E
:102D2000D491F901EE50FE4FC491CC23C1F0162F7F
:102D300081110E941F16EC2FF0E0EE0FFF1FE45EE2
:102D4000FD4FA591B4919FB7F894111104C08C91D7
:102D5000D095D82302C0EC91DE2BDC939FBFDF918E
:102D6000CF911F910895CF93DF93282F30E0F90181
:102D7000EE54FE4F8491F901EE52FE4FD491F901C9
:102D8000EE50FE4FC491CC2391F081110E941F168A
:102D9000EC2FF0E0EE0FFF1FEE5EFD4FA591B4911A
:102DA000EC91ED2381E090E021F480E002C080E02E
:102DB00090E0DF91CF910895BF92CF92DF92EF9292
:102DC000FF920F931F93CF93DF93C82ED62EB42E6E
:102DD000C7E0D0E0022F10E087E0E82EF12CB11020
:102DE00005C0C7018C1B9D0BB80102C0B8018C2F18
:102DF00002C0759567958A95E2F761708C2D0E94E7
:102E0000841661E08D2D0E94841660E08D2D0E9455
:102E10008416219720F7DF91CF911F910F91FF909A
:102E2000EF90DF90CF90BF900895FC01918D228D9F
:102E3000892F90E0805C9F4F821B91098F739927A7
:102E40000895FC01918D828D981731F0828DE80FE5
:102E5000F11D858D90E008958FEF9FEF0895FC019F
:102E6000918D828D981761F0828DDF01A80FB11DC1
:102E70005D968C91928D9F5F9F73928F90E00895E5
:102E80008FEF9FEF089584EA98E1892B41F080E06D
:102E900090E0892B21F00E94A41881110DC080E0E0
:102EA00090E0892B71F080E090E0892B51F00E9436
:102EB0000000811104C008950E940000F0CF0C941E
:102EC00000000895FC01848DDF01A80FB11DA35AF5
:102ED000BF4F2C91848D90E001968F739927848F3A
:102EE000A689B7892C93A089B1898C9180648C9331
:102EF000938D848D981306C00288F389E02D80811C
:102F00008F7D80830895EF92FF920F931F93CF934D
:102F1000DF93EC0181E0888F9B8D8C8D981305C029
:102F2000E889F989808185FD24C0F62E0B8D10E09B
:102F30000F5F1F4F0F731127E02E8C8DE8120CC00E
:102F40000FB607FCFACFE889F989808185FFF5CFB4
:102F5000CE010E946217F1CF8B8DFE01E80FF11DAB
:102F6000E35AFF4FF0820B8FEA89FB8980818062F0
:102F700007C0EE89FF896083E889F98980818064D0
:102F8000808381E090E0DF91CF911F910F91FF90BE
:102F9000EF900895CF93DF93EC01888D8823C9F0DB
:102FA000EA89FB89808185FD05C0A889B9898C9152
:102FB00086FD0FC00FB607FCF5CF808185FFF2CFED
:102FC000A889B9898C9185FFEDCFCE010E94621747
:102FD000E7CFDF91CF910895CF92DF92EF92FF92EA
:102FE0001F93CF93DF93EC016A017B01122F60E8FE
:102FF00074E88EE190E0A70196010E94AC1FDA010F
:10300000C9010197A109B109B695A795979587952B
:103010009C01E889F98982E08083211580E13807E5
:10302000A8F0E889F989108260E472E48FE090E00A
:10303000A70196010E94AC1FDA01C9010197A109FD
:10304000B109B695A795979587959C01EC85FD8567
:103050003083EE85FF852083188EEC89FD891083EF
:10306000EA89FB89808180618083EA89FB8980818C
:1030700088608083EA89FB89808180688083EA890F
:10308000FB8980818F7D8083DF91CF911F91FF909D
:10309000EF90DF90CF9008951F920F920FB60F928E
:1030A00011242F938F939F93EF93FF93E0916B03E2
:1030B000F0916C038081E0917103F091720382FDC5
:1030C00012C09081809174038F5F8F73209175037C
:1030D000821751F0E0917403F0E0E55AFC4F958FB0
:1030E0008093740301C08081FF91EF919F918F9134
:1030F0002F910F900FBE0F901F9018951F920F9257
:103100000FB60F9211242F933F934F935F936F93BA
:103110007F938F939F93AF93BF93EF93FF938BE531
:1031200093E00E946217FF91EF91BF91AF919F9141
:103130008F917F916F915F914F913F912F910F9060
:103140000FBE0F901F9018958BE593E00E94151706
:1031500021E0892B09F420E0822F0895EBE5F3E0CC
:103160001382128288EE93E0A0E0B0E0848395831E
:10317000A683B78388E192E09183808385EC90E019
:103180009587848784EC90E09787868780EC90E031
:10319000918B808B81EC90E0938B828B82EC90E022
:1031A000958B848B86EC90E0978B868B118E128E9C
:1031B000138E148E089508950E94E4150E94DB1862
:1031C0000E940907C3E4D7E10E941E092097E1F39A
:1031D0000E944317F9CFCF92DF92EF92FF920F93A5
:1031E0001F93CF93DF936C017A018B01C0E0D0E095
:1031F000CE15DF0581F0D8016D918D01D601ED91DD
:10320000FC910190F081E02DC6010995892B11F008
:103210002196EECF7E01C701DF91CF911F910F91D3
:10322000FF90EF90DF90CF9008956115710579F0D0
:10323000FB0101900020E9F73197AF01461B570BC6
:10324000DC01ED91FC910280F381E02D099480E096
:1032500090E00895EF92FF920F931F93CF93DF9327
:103260008C017B01C0E0D0E0F701EC0FFD1F649101
:10327000662361F0D801ED91FC910190F081E02D81
:10328000C8010995892B11F02196EECFCE01DF916F
:10329000CF911F910F91FF90EF9008950C94151905
:1032A000DC01ED91FC910190F081E02D099464E244
:1032B00072E00C9415190F931F93CF93DF93EC01D9
:1032C0000E942A198C01CE010E945719800F911F6C
:1032D000DF91CF911F910F9108950F931F93CF937B
:1032E000DF93EC010E9415198C01CE010E94571941
:1032F000800F911FDF91CF911F910F9108958F92B1
:103300009F92AF92BF92EF92FF920F931F93CF9332
:10331000DF93CDB7DEB7A1970FB6F894DEBF0FBE2F
:10332000CDBF7C01FA01CB0119A2223008F42AE0BA
:103330008E010F5D1F4F822E912CA12CB12CBF014D
:10334000A50194010E94AC1FF901CA0101501109A5
:103350006A3014F4605D01C0695CD8016C93232B62
:10336000242B252B61F7B801C7010E941519A196DE
:103370000FB6F894DEBF0FBECDBFDF91CF911F9186
:103380000F91FF90EF90BF90AF909F908F90089516
:10339000CF92DF92EF92FF920F931F93CF93DF9321
:1033A0002115310581F4DC01ED91FC910190F08152
:1033B000E02D642FDF91CF911F910F91FF90EF903F
:1033C000DF90CF9009942A30310501F577FF1DC0B9
:1033D0006A017B01EC016DE20E9450198C014427C7
:1033E0005527BA014C195D096E097F092AE0CE0103
:1033F0000E947F19800F911FDF91CF911F910F9134
:10340000FF90EF90DF90CF9008952AE0DF91CF9169
:103410001F910F91FF90EF90DF90CF900C947F1948
:103420009A01AB01770F660B770B0C94C8190F93B9
:103430001F93CF93DF93EC010E94101A8C01CE01F1
:103440000E945719800F911FDF91CF911F910F910B
:1034500008954F925F926F927F928F929F92AF9258
:10346000BF92CF92DF92EF92FF920F931F93CF9371
:10347000DF9300D000D01F92CDB7DEB78B012901BA
:103480003A0190910E01891721F09F3F09F038C24F
:1034900005C0E0E3F2E024912D8384C080930E0107
:1034A000E0E3F2E094919D839F3F09F429C29130BB
:1034B00009F44DC058F1923009F074C01092B00078
:1034C0001092B1009091B00092609093B0009091F2
:1034D000B10091609093B100282F30E0F901EE50D7
:1034E000FE4FE491F0E0EE0FFF1FE45EFD4F4591CB
:1034F00054915093FA034093F903F901EE52FE4FB1
:10350000E491E093F80392E09D83F6C114BC15BCEE
:1035100094B5926094BD95B5916095BD282F30E02B
:10352000F901EE50FE4FE491F0E0EE0FFF1FE45E74
:10353000FD4F459154915093080440930704F901BD
:10354000EE52FE4FE491E09306041D82D5C1109225
:10355000800010928100909181009860909381008A
:1035600090918100916090938100282F30E0F901C3
:10357000EE50FE4FE491F0E0EE0FFF1FE45EFD4FD2
:10358000459154915093010440930004F901EE5287
:10359000FE4FE491E093FF0361E00E94481621E0B2
:1035A0002D83A5C02D8127FDABC161E00E94481687
:1035B0008D818D7F09F09BC04801A12CB12C60E06A
:1035C00079E08DE390E0A50194010E94CE1F29834C
:1035D0003A834B835C8369017A0181E0C81AD10880
:1035E000E108F1089FEFC916D104E104F10409F0E4
:1035F00008F461C060E271EA87E090E0A5019401FF
:103600000E94CE1F69017A0181E0C81AD108E10841
:10361000F1089D81923009F0F4C02FEFC216D10459
:10362000E104F10409F008F458C068E478EE81E0A0
:1036300090E0A50194010E94CE1F69017A0181E00A
:10364000C81AD108E108F1089FEFC916D104E104B6
:10365000F10409F008F44EC164E274EF80E090E0F8
:10366000A50194010E94CE1F69017A0181E0C81A68
:10367000D108E108F1089FEFC916D104E104F10473
:1036800071F168F162E17AE780E090E0A5019401D0
:103690000E94CE1F69017A0181E0C81AD108E108B1
:1036A000F1089FEFC916D104E104F10411F008F00C
:1036B000C9C085E015C081E09D81911111C095B50B
:1036C000987F892B85BD411451046104710409F070
:1036D0004FC02FEF3FEFA90163C082E001C084E03B
:1036E0009091B100987F892B8093B1003CC0480134
:1036F000A12CB12C60E079E08DE390E0A50194016C
:103700000E94CE1F69017A0181E0C81AD108E10840
:10371000F108C114D10491E0E906F10488F064E2F3
:1037200074EF80E090E0A50194010E94CE1F690132
:103730007A0181E0C81AD108E108F10883E001C0EC
:1037400081E09D81913079F490918100987F892B5F
:1037500080938100411451046104710449F42FEFF6
:103760003FEFA9012CC0411451046104710471F0B0
:10377000D801AA0FBB1FA30192010E94022028EECC
:1037800033E040E050E00E94AC1F03C02FEF3FEF5A
:10379000A9018D81813099F0823019F18111B0C079
:1037A000C7BC2093090430930A0440930B04509340
:1037B0000C0480916E00826080936E00A1C0D09254
:1037C0008900C09288002093020430930304409340
:1037D00004045093050480916F00826080936F0011
:1037E0008FC0C092B3002093FB033093FC0340933F
:1037F000FD035093FE0380917000826080937000FF
:103800007FC08FEFC816D104E104F104C9F0C0F005
:1038100064E274EF80E090E0A50194010E94CE1F65
:1038200069017A0191E0C91AD108E108F1082FEF86
:10383000C216D104E104F10409F080F583E03CCF25
:1038400082E03ACF69E07DE380E090E0A501940159
:103850000E94CE1F69017A0181E0C81AD108E108EF
:10386000F1089FEFC916D104E104F104A9F0A0F01A
:1038700089819A81AB81BC812AE0B595A7959795FE
:1038800087952A95D1F76C017D0121E0C21AD108F4
:10389000E108F10887E024CF86E022CF69E07DE3EC
:1038A00080E090E0A50194010E94CE1F69017A0199
:1038B00081E0C81AD108E108F1089FEFC916D104C8
:1038C000E104F104A9F0A0F089819A81AB81BC8167
:1038D0004AE0B595A795979587954A95D1F76C01DC
:1038E0007D0121E0C21AD108E108F10885E0E4CEAB
:1038F00084E0E2CE83E0F4CE61E00E9448165CCE24
:103900000F900F900F900F900F90DF91CF911F911C
:103910000F91FF90EF90DF90CF90BF90AF909F906E
:103920008F907F906F905F904F900895813039F025
:1039300018F0823051F0089510926E000895809131
:103940006F008D7F80936F000895809170008D7F50
:103950008093700081E08093B0008091B100887FF7
:1039600084608093B1001092B3000895CF93C82F64
:1039700080910E01C81307C0E0E3F2E084919FEF4D
:1039800090930E0101C08FEF0E94961C60E08C2F77
:10399000CF910C9484161F920F920FB60F921124A0
:1039A0002F933F934F935F936F937F938F939F9347
:1039B000AF93BF93EF93FF938091FB039091FC0330
:1039C000A091FD03B091FE03892B8A2B8B2B51F123
:1039D0009091F803E091F903F091FA03808189272F
:1039E00080838091FB039091FC03A091FD03B09133
:1039F000FE03181619061A061B06C4F48091FB0371
:103A00009091FC03A091FD03B091FE030197A109E1
:103A1000B1098093FB039093FC03A093FD03B09343
:103A2000FE0304C080910E010E94B61CFF91EF912D
:103A3000BF91AF919F918F917F916F915F914F91C6
:103A40003F912F910F900FBE0F901F901895FC0182
:103A5000808191810C94A520CF93DF93EC01888124
:103A60009981009711F00E94A520198218821D8269
:103A70001C821B821A82DF91CF9108950F931F93AE
:103A8000CF93DF93EC018B016F5F7F4F888199812A
:103A90000E942E21009731F0998388831B830A832B
:103AA00081E001C080E0DF91CF911F910F910895D7
:103AB000CF93DF93EC0188819981892B29F08A814A
:103AC0009B818617970760F4CE010E943E1D8823D4
:103AD00041F08C819D81892B19F4E881F981108254
:103AE00081E0DF91CF910895EF92FF920F931F93A2
:103AF000CF93DF93EC017B018A01BA010E94581D2C
:103B0000811104C0CE010E942C1D07C01D830C83AF
:103B1000B701888199810E940422CE01DF91CF9163
:103B20001F910F91FF90EF900895FC011182108278
:103B300013821282158214826115710551F0FB0106
:103B400001900020E9F73197AF01461B570B0C9409
:103B5000741D0895CF93DF93EC01FB01861797073F
:103B600061F0608171816115710529F04481558191
:103B70000E94741D02C00E942C1DCE01DF91CF91C6
:103B80000895EF92FF920F931F93CF93DF936115E8
:103B9000710511F480E01CC041155105C1F07B0195
:103BA000EC018C819D818A01080F191FB801CE019B
:103BB0000E94581D882371F3288139818C819D8151
:103BC000B701820F931F0E9404221D830C8381E0A2
:103BD000DF91CF911F910F91FF90EF900895CF93B8
:103BE000DF93EC01FB0144815581608171810E946A
:103BF000C11D811103C0CE010E942C1DCE01DF9199
:103C0000CF910895FC01248135816217730748F430
:103C100080819181009729F0FC01E60FF71F8081D8
:103C2000089580E00895CF93DF93DC011496ED9121
:103C3000FC9115976E177F0730F54115510519F165
:103C4000DF01A61BB70B9A01A417B50708F49D0165
:103C5000DB01EC0188819981E21BF30BFD83EC838E
:103C6000AF01461B570B260F371FBC01620F731F96
:103C70008A0F9B1F0E940B22E881F9818C819D8114
:103C8000E80FF91F1082DF91CF91089508950E94E7
:103C90004E1E6894B1110C94051F08950E94EA1EEF
:103CA00088F09F5798F0B92F9927B751B0F0E1F0FD
:103CB000660F771F881F991F1AF0BA95C9F714C0AD
:103CC000B13091F00E94041FB1E008950C94041FDC
:103CD000672F782F8827B85F39F0B93FCCF38695E6
:103CE00077956795B395D9F73EF490958095709543
:103CF00061957F4F8F4F9F4F0895E89409C097FBC0
:103D00003EF490958095709561957F4F8F4F9F4FB2
:103D10009923A9F0F92F96E9BB279395F6958795F6
:103D200077956795B795F111F8CFFAF4BB0F11F4B9
:103D300060FF1BC06F5F7F4F8F4F9F4F16C0882360
:103D400011F096E911C0772321F09EE8872F762F96
:103D500005C0662371F096E8862F70E060E02AF0D7
:103D60009A95660F771F881FDAF7880F96958795C3
:103D700097F9089597F99F6780E870E060E00895EB
:103D80009FEF80EC089500240A9416161706180673
:103D90000906089500240A9412161306140605064F
:103DA0000895092E0394000C11F4882352F0BB0FE0
:103DB00040F4BF2B11F460FF04C06F5F7F4F8F4F43
:103DC0009F4F089557FD9058440F551F59F05F3F7E
:103DD00071F04795880F97FB991F61F09F3F79F02D
:103DE00087950895121613061406551FF2CF4695AF
:103DF000F1DF08C0161617061806991FF1CF869531
:103E00007105610508940895E894BB276627772714
:103E1000CB0197F908950E941E1F0C94D11E0E9499
:103E2000C31E38F00E94CA1E20F0952311F00C9496
:103E3000BA1E0C94C01E11240C94051F0E94E21E91
:103E400070F3959FC1F3950F50E0551F629FF001ED
:103E5000729FBB27F00DB11D639FAA27F00DB11D06
:103E6000AA1F649F6627B00DA11D661F829F22278F
:103E7000B00DA11D621F739FB00DA11D621F839F16
:103E8000A00D611D221F749F3327A00D611D231FEC
:103E9000849F600D211D822F762F6A2F11249F573A
:103EA00050409AF0F1F088234AF0EE0FFF1FBB1F3D
:103EB000661F771F881F91505040A9F79E3F5105FC
:103EC00080F00C94BA1E0C94051F5F3FE4F3983EFB
:103ED000D4F3869577956795B795F795E7959F5FA6
:103EE000C1F7FE2B880F911D9695879597F9089538
:103EF000991B79E004C0991F961708F0961B881F3C
:103F00007A95C9F780950895AA1BBB1B51E107C09C
:103F1000AA1FBB1FA617B70710F0A61BB70B881F59
:103F2000991F5A95A9F780959095BC01CD010895E8
:103F300097FB072E16F4009407D077FD09D00E9456
:103F4000841F07FC05D03EF4909581959F4F0895FE
:103F5000709561957F4F0895A1E21A2EAA1BBB1B95
:103F6000FD010DC0AA1FBB1FEE1FFF1FA217B30745
:103F7000E407F50720F0A21BB30BE40BF50B661F5B
:103F8000771F881F991F1A9469F76095709580951F
:103F900090959B01AC01BD01CF010895052E97FBC3
:103FA0001EF400940E94E51F57FD07D00E94AC1F2D
:103FB00007FC03D04EF40C94E51F509540953095C6
:103FC00021953F4F4F4F5F4F089590958095709585
:103FD00061957F4F8F4F9F4F0895EE0FFF1F059004
:103FE000F491E02D0994A29FB001B39FC001A39F5B
:103FF000700D811D1124911DB29F700D811D112422
:10400000911D08950E94F31FA59F900DB49F900DE0
:10401000A49F800D911D112408950F931F93CF939A
:10402000DF938230910510F482E090E0E0910F047C
:10403000F091100420E030E0A0E0B0E0309719F1FA
:10404000408151810281138148175907C8F08417B4
:10405000950769F4109731F012960C931297139606
:104060001C9327C000930F041093100422C0211545
:10407000310519F04217530718F49A01BD01EF01F9
:10408000DF01F801DBCF21153105F9F0281B390BD1
:104090002430310580F48A819B816115710521F0FE
:1040A000FB019383828304C09093100480930F04D8
:1040B000FE01329644C0FE01E20FF31F81939193FB
:1040C00022503109398328833AC020910D04309160
:1040D0000E04232B41F4209102013091030130930F
:1040E0000E0420930D04209100013091010121154F
:1040F000310541F42DB73EB74091040150910501BF
:10410000241B350BE0910D04F0910E04E217F30728
:10411000A0F42E1B3F0B2817390778F0AC014E5F37
:104120005F4F2417350748F04E0F5F1F50930E0462
:1041300040930D048193919302C0E0E0F0E0CF0141
:10414000DF91CF911F910F910895CF93DF93009747
:1041500009F481C0FC01329713821282A0910F04EE
:10416000B0911004109781F420813181820F931F48
:1041700020910D0430910E042817390751F5F09362
:104180000E04E0930D0467C0ED0120E030E0CE178F
:10419000DF0740F44A815B819E0141155105F1F032
:1041A000EA01F5CFD383C28340815181840F951FEB
:1041B000C817D90759F488819981840F951F0296F1
:1041C000918380838A819B8193838283211531052A
:1041D00029F4F0931004E0930F043DC0E901FB8340
:1041E000EA8349915991C40FD51FEC17FD0761F47B
:1041F00080819181840F951F0296E90199838883BC
:10420000828193819B838A83E0E0F0E012968D9116
:104210009C911397009719F0FD01DC01F7CF8D9168
:104220009C9111979D012E5F3F4F820F931F20910C
:104230000D0430910E042817390769F4309729F4DA
:104240001092100410920F0402C013821282B093D5
:104250000E04A0930D04DF91CF910895A0E0B0E08B
:10426000E4E3F1E20C94D124EC01009721F4CB01BA
:104270000E940D20B4C0FC01E60FF71F9C012250E4
:104280003109E217F30708F4A8C0D9010D911C9178
:10429000119706171707B0F00530110508F49BC0F9
:1042A000C80104978617970708F495C002501109B2
:1042B000061B170B019311936D937C93CF010E9402
:1042C000A52089C05B01A01AB10A4C01800E911E85
:1042D000A0910F04B0911004612C712CE12CF12CF1
:1042E000109709F446C08D919C911197A815B905B6
:1042F000B1F56C0142E0C40ED11CCA14DB0478F1A4
:104300004C018A189B08640142E0C40ED11C12962D
:10431000BC9012971396AC91B5E0CB16D10440F047
:10432000B282A38391828082D9016D937C9309C06C
:104330000E5F1F4F800F911FF90191838083EB2D3A
:10434000FA2FE114F10431F0D7011396FC93EE93A8
:10435000129741C0F0931004E0930F043CC068161C
:10436000790608F43C017D0112960D90BC91A02DB8
:10437000B7CF80910D0490910E0488169906E1F450
:1043800066167706C8F480910001909101010097AC
:1043900041F48DB79EB74091040150910501841BF3
:1043A000950BE817F907C8F4F0930E04E0930D0499
:1043B000F901718360830FC0CB010E940D207C0145
:1043C000009759F0A801BE010E94F421CE010E947D
:1043D000A520C70104C0CE0102C080E090E0CDB7A7
:1043E000DEB7EEE00C94ED24FB01DC0102C001908D
:1043F0000D9241505040D8F70895DC0101C06D93F3
:1044000041505040E0F70895FB01DC0101900D920E
:104410000020E1F70895FB01DC014150504048F0D5
:1044200001900D920020C9F701C01D9241505040EB
:10443000E0F70895AEE0B0E0E0E2F2E20C94DB24B5
:104440000D891E8986E08C831A8309838FEF9FE78D
:104450009E838D83AE01475E5F4F6F89788DCE015D
:1044600001960E943C22EF81F885E00FF11F108237
:104470002E96E4E00C94F724ABE0B0E0E2E4F2E244
:104480000C94CD246C017B018A01FC0117821682F9
:10449000838181FFCCC1CE0101963C01F60193815D
:1044A000F70193FD859193FF81917F01882309F4A2
:1044B000BAC1853239F493FD859193FF81917F01D3
:1044C000853229F4B60190E00E943324E7CF912C85
:1044D000212C312CFFE1F315D8F08B3279F038F430
:1044E000803279F08332A1F4232D20611DC08D32FA
:1044F00061F0803369F4232D216016C0832D826022
:10450000382EE32DE4603E2E2AC0F32DF8601DC046
:1045100037FC2DC020ED280F2A3040F08E32B9F440
:1045200036FC81C1232D2064322E19C036FE06C010
:104530008AE0989E200D1124922E11C0EAE02E9E52
:10454000200D1124222EF32DF0623F2E08C08C3650
:1045500021F4832D8068382E02C0883641F4F7019B
:1045600093FD859193FF81917F018111B3CF982FA6
:104570009F7D9554933028F40C5F1F4F9FE39983E0
:104580000DC0833631F0833771F0833509F059C09F
:1045900021C0F801808189830E5F1F4F8824839496
:1045A000912C530113C02801F2E04F0E511CF80169
:1045B000A080B18036FE03C0692D70E002C06FEFAD
:1045C0007FEFC5010E9428244C018201F32DFF7763
:1045D0003F2E16C0280122E0420E511CF801A08097
:1045E000B18036FE03C0692D70E002C06FEF7FEF2F
:1045F000C5010E941D244C01F32DF0683F2E82015D
:1046000033FC1BC0822D90E088169906B0F4B601E9
:1046100080E290E00E9433242A94F4CFF50137FC25
:10462000859137FE81915F01B60190E00E943324AD
:1046300021102A9421E0821A91088114910471F7C3
:10464000E8C0843611F0893641F5F80137FE07C01D
:1046500060817181828193810C5F1F4F08C06081EE
:104660007181072E000C880B990B0E5F1F4FF32DE5
:10467000FF763F2E97FF09C09095809570956195C4
:104680007F4F8F4F9F4FF0683F2E2AE030E0A3010D
:104690000E946F24882E861845C0853731F4232D5B
:1046A0002F7EB22E2AE030E025C0932D997FB92EBF
:1046B0008F36C1F018F4883579F0B5C0803719F01D
:1046C000883721F0B0C0E92FE061BE2EB4FE0DC0E6
:1046D000FB2DF460BF2E09C034FE0AC0292F2660CE
:1046E000B22E06C028E030E005C020E130E002C074
:1046F00020E132E0F801B7FE07C06081718182815C
:1047000093810C5F1F4F06C06081718180E090E053
:104710000E5F1F4FA3010E946F24882E8618FB2D69
:10472000FF773F2E36FE0DC0232D2E7FA22E89143B
:1047300058F434FE0BC032FC09C0832D8E7EA82EA7
:1047400005C0B82CA32C03C0B82C01C0B92CA4FE02
:104750000FC0FE01E80DF11D8081803321F49A2DF8
:10476000997EA92E09C0A2FE06C0B394B39404C0DA
:104770008A2D867809F0B394A3FC11C0A0FE06C070
:10478000B21488F4280C922C9B180EC0B21460F45A
:10479000B60180E290E00E943324B394F7CFB214C4
:1047A00018F42B1802C0982C212CA4FE10C0B601BE
:1047B00080E390E00E943324A2FE17C0A1FC03C056
:1047C00088E790E002C088E590E0B6010CC08A2D31
:1047D000867859F0A1FE02C08BE201C080E2A7FCFE
:1047E0008DE2B60190E00E943324891438F4B601BA
:1047F00080E390E00E9433249A94F7CF8A94F301E7
:10480000E80DF11D8081B60190E00E9433248110F3
:10481000F5CF222009F442CEB60180E290E00E945A
:1048200033242A94F6CFF6018681978102C08FEF58
:104830009FEF2B96E2E10C94E924FC010590615076
:1048400070400110D8F7809590958E0F9F1F0895A6
:10485000FC016150704001900110D8F7809590954F
:104860008E0F9F1F08950F931F93CF93DF93FB012C
:10487000238121FD03C08FEF9FEF2CC022FF16C0C4
:1048800046815781248135814217530744F4A08122
:10489000B1819D012F5F3F4F318320838C9326810F
:1048A00037812F5F3F4F3783268314C08B01EC0184
:1048B000FB010084F185E02D0995892BE1F6D801F3
:1048C00016968D919C911797019617969C938E93AF
:1048D0001697CE01DF91CF911F910F910895FA01A4
:1048E000AA27283051F1203181F1E8946F936E7F2F
:1048F0006E5F7F4F8F4F9F4FAF4FB1E03ED0B4E020
:104900003CD0670F781F891F9A1FA11D680F791F60
:104910008A1F911DA11D6A0F711D811D911DA11D71
:1049200020D009F468943F912AE0269F1124301981
:10493000305D3193DEF6CF010895462F4770405D1C
:104940004193B3E00FD0C9F7F6CF462F4F70405DCB
:104950004A3318F0495D31FD4052419302D0A9F726
:10496000EACFB4E0A6959795879577956795BA9520
:10497000C9F700976105710508959B01AC010A2EE6
:1049800006945795479537952795BA95C9F7620FBD
:10499000731F841F951FA01D08952F923F924F9261
:1049A0005F926F927F928F929F92AF92BF92CF92BF
:1049B000DF92EF92FF920F931F93CF93DF93CDB7C8
:1049C000DEB7CA1BDB0B0FB6F894DEBF0FBECDBF40
:1049D00009942A88398848885F846E847D848C8411
:1049E0009B84AA84B984C884DF80EE80FD800C811A
:1049F0001B81AA81B981CE0FD11D0FB6F894DEBFFD
:0C4A00000FBECDBFED010895F894FFCF6C
:104A0C000000110480007800721400000000FF25E3
:104A1C0030327520642530317520253032750025F3
:104A2C003032752D253032752064253031750025D6
:104A3C0034752D253032752D2530327520253032C8
:104A4C00753A253032753A25303275202E002025E6
:104A5C0034752D253032752D2530327520002020EF
:104A6C0020202020202000202534752D2530327563
:104A7C002D25303275206425317520202530327576
:104A8C002D253032752D253032752020253032758C
:104A9C0023253031754320002530327523253031E4
:104AAC007543002530327520253032752025303283
:104ABC00750000000000DA09AD09810989099D091A
:104ACC00AC09203A203078000600000000000000FD
:104ADC0000000000000000000500000000000000C5
:104AEC0004000000030002018040201008040201B1
:104AFC0011C1638561714391F38751E313D5C531BE
:104B0C00197349E1C78381938925039F250D994921
:104B1C00411F0119000000008317EB1815172F1700
:104B2C002117CA170D0A006E616E00696E66006F60
:044B3C007666000099
:00000001FF
