:100000000C9423010C9423150C944A150C9471152F
:100010000C944B010C944B010C944B010C944B0130
:100020000C944B010C94801D0C944B010C944B01CF
:100030000C944B010C944B010C944B010C944B0110
:100040000C944B010C944B010C9498150C944B019F
:100050000C94DB180C940D190C944B010C944B016F
:100060000C944B010C944B010C940C0C0C944B0114
:100070000C944B010C944B010C944B01BA0DD30D15
:10008000D30DD10DD30DB80DD30DD30DD30DAB0DB5
:10009000D30DD30DC30DCF0DCD0DD30DD30DD30D7A
:1000A000CB0D536574205375636365737366756C0C
:1000B0000068683A6D6D206D6F646500456E74650B
:1000C0007220616C61726D2074696D6520666F725B
:1000D0006D617420286D6F64652069732031207410
:1000E0006F20362C20342069732070657220646183
:1000F000792900536574205375636365737366755E
:100100006C006D6D6D2D64642D7979797920686846
:100110002D6D6D2D73732073616D706C6520696E2C
:100120007075743A2044656320323620323030399D
:100130002031323A33343A353600456E74657220D8
:100140006461746520666F726D6174006B457874CC
:10015000506F77657250696E3A3D00526570656107
:1001600074204D6F6465205365743A20002D2D2D49
:100170002D2D2D2D2D2D2D2D2D2D2D2D2D2D2D2DAF
:100180000043686F6F73652061206D656E7520692F
:1001900074656D3A004120736574205B415D6C614C
:1001A000726D2074696D65005420736574205B5412
:1001B0005D696D65001F1C1F1E1F1E1F1F1E1F1E59
:1001C0001F000000020300000000000000050409F9
:1001D0000800000000000000000000000000000017
:1001E0000001020408102040800102040810204091
:1001F0008001020408102040800102040810204001
:100200008002020202020202020404040404040442
:1002100004030303030303030301010101010101BB
:1002200001000020002300260029000000220025F4
:100230000028002B0000002100240027002A0002D3
:100240009B03410B3D1911241FBECFEFD0E1DEBF50
:10025000CDBF12E0A0E0B1E0EAE0FCE402C005900E
:100260000D92AA36B107D9F724E0AAE6B2E001C0A0
:100270001D92AF34B207E1F711E0C3E2D1E004C050
:100280002197FE010E94EC20C032D107C9F70E94DD
:100290006B190C9403260C94000081E080939A0261
:1002A0000895DC01ED91FC910190F081E02D09941D
:1002B0006AE470E080ED92E00E94C00A61E070E0C4
:1002C00080ED92E00E94510161E370E080ED92E0E8
:1002D0000E94510180ED92E00E943E0B6AE070E0C6
:1002E00080E090E00E94131660E470E080ED92E000
:1002F0000E94C00A62E070E080ED92E00E9451012D
:1003000060E070E080ED92E00E94510160E070E0FA
:1003100080ED92E00E94510180ED92E00C943E0B42
:100320000F931F93CF93DF9300D000D000D0CDB7B1
:10033000DEB7CE0101960E94980ECE0101960E9472
:10034000ED0D1F928F938D811F928F938C811F9241
:100350008F938EE091E09F938F9303E712E01F93BA
:100360000F930E9419234CE4B8018BE992E00E949C
:10037000CB1344EF51E060E070E08BE992E00E9423
:100380007A14CE0101960E94ED0D1F928F938D81FC
:100390001F928F938C811F928F938DE191E09F9399
:1003A0008F931F930F930E9419234CE4B8018BE99C
:1003B00092E00E94CB1344EF51E060E070E08BE9E3
:1003C00092E00E947A140FB6F894DEBF0FBECDBF44
:1003D00026960FB6F894DEBF0FBECDBFDF91CF914A
:1003E0001F910F9108950F931F93CF93DF9300D028
:1003F00000D000D0CDB7DEB7CE0101960E94980E96
:100400000B811A81CE0101960E94ED0D1F920F9370
:100410001F921F931F928F938CE291E09F938F9373
:1004200083E792E09F938F930E9419234CE463E744
:1004300072E08BE992E00E94CB1340ED57E060E060
:1004400070E08BE992E00E947A140FB6F894DEBF58
:100450000FBECDBF26960FB6F894DEBF0FBECDBF40
:10046000DF91CF911F910F910895EF92FF920F931B
:10047000CF93DF9300D000D000D0CDB7DEB785E0BA
:10048000E82EF12C6CE371E08EE692E00E940323EB
:1004900003E424EF31E040E050E06EE672E08BE9E7
:1004A00092E00E94AB1461E471E0CE0101960E94DB
:1004B0008B1E4CE4BE016F5F7F4F8BE992E00E9480
:1004C000501448E552E060E070E08BE992E00E9451
:1004D0007A14CE0101960E941D1E81E0E81AF108EF
:1004E00089F626960FB6F894DEBF0FBECDBFDF911A
:1004F000CF910F91FF90EF900895EF92FF920F939D
:10050000CF93DF9300D000D000D0CDB7DEB785E029
:10051000E82EF12C6AE471E08EE692E00E9403235B
:1005200003E42CE231E040E050E06EE672E08BE95B
:1005300092E00E94AB1461E471E0CE0101960E944A
:100540008B1E4CE4BE016F5F7F4F8BE992E00E94EF
:1005500050144CE251E060E070E08BE992E00E94C0
:100560007A14CE0101960E941D1E81E0E81AF1085E
:1005700089F626960FB6F894DEBF0FBECDBFDF9189
:10058000CF910F91FF90EF9008950F9303E428EB24
:100590003BE040E050E061E571E08BE992E00E94D1
:1005A000AB140F9108950F9303E428EB3BE040E078
:1005B00050E064E571E08BE992E00E94AB140F918A
:1005C0000895CF93DF9300D000D000D0CDB7DEB731
:1005D000CE0101960E94980E8E811F928F938D817D
:1005E0001F928F938C811F928F938B811F928F9379
:1005F0008A811F928F93898190E08053984F9F93B7
:100600008F9388E591E09F938F9383E792E09F9388
:100610008F930E94192363E772E089E993E00E94B7
:10062000FC190FB6F894DEBF0FBECDBF26960FB6ED
:10063000F894DEBF0FBECDBFDF91CF9108950F9329
:100640001F93CF93DF9303E010E0C0E0D0E08FE191
:100650000E948D16C80FD91F01501109C1F7CE0194
:1006600063E070E00E949720CB01DF91CF911F9152
:100670000F910895CF93DF93EB0120E030E0A901C3
:10068000BC018CE00E94DE1A88E78C9FB0018D9F30
:10069000700D1124072E000C880B990BDF91CF9160
:1006A0000C941316CF93DF93EC018CE00E946B1D2A
:1006B00088E78C9FB0018D9F700D1124072E000CD0
:1006C000880B990BDF91CF910C94131690917A00BF
:1006D0009F7790937A008A30A9F083FD02C098E05A
:1006E00001C098E28770892B98E10FB6F894A8951D
:1006F000909360000FBE80936000809160008064E2
:100700008093600083B7817F846083BFF89483B750
:10071000816083BF85B7806685BF8F7D85BF7894F4
:10072000889583B78E7F83BF789480917A008068A4
:1007300080937A000895EF92FF920F931F9388E0C1
:10074000E82EF12C00E010E02DE030E04FE050E02A
:100750006EE070E08BE992E00E9455121F910F91BC
:10076000FF90EF900895AF92BF92CF92DF92EF92F9
:10077000FF920F931F93CF93DF93CDB7DEB76997A7
:100780000FB6F894DEBF0FBECDBF6AE371E089E912
:1007900093E00E94EA1962E071E089E993E00E9427
:1007A000EA1989E993E00E94A4174497D4F38E01D3
:1007B0000F5F1F4F7E018CE0E80EF11C580189E9A4
:1007C00093E00E94BE17F80181938F01EE15FF059B
:1007D000B1F789E993E00E94BE1767018E010C5EB4
:1007E0001F4F89E993E00E94BE17F60181936F01C4
:1007F0000E171F07B1F76AE070E080E090E00E94FA
:10080000131689E993E00E945918A701B501C801A0
:100810000E948C0DC8010E94A8106AE070E080E080
:1008200090E00E941316B50189E993E00E94FC193B
:10083000C8010E94980EC8010E94ED0D182F68E6AD
:1008400070E080ED92E00E94C00A64E070E080ED0C
:1008500092E00E945101612F80ED92E00E94770AA0
:1008600080ED92E00E943E0B63EF70E089E993E037
:100870000E94EA1969960FB6F894DEBF0FBECDBF8D
:10088000DF91CF911F910F91FF90EF90DF90CF906C
:10089000BF90AF900895BF92CF92DF92EF92FF92F8
:1008A0000F931F93CF93DF93CDB7DEB72C970FB67F
:1008B000F894DEBF0FBECDBFCE0107960E94980E02
:1008C000D884B9846CEB70E089E993E00E94EA195E
:1008D00061EB70E089E993E00E94EA1989E993E00D
:1008E0000E94A4170897D4F389E993E00E94BE17E9
:1008F000182F682F89E993E00E94121889E993E084
:100900000E94BE17082F682F89E993E00E941218F1
:10091000110F1056812F880F880F180F0053010FE9
:1009200089E993E00E94BE17682F89E993E00E944D
:10093000121889E993E00E94BE17182F682F89E9E1
:1009400093E00E94121889E993E00E94BE17F82EE6
:10095000682F89E993E00E941218110F1056E12EBA
:10096000EE0CEE0C1E0D80ED8F0DE12EE80E89E9E8
:1009700093E00E94BE17682F89E993E00E94121845
:1009800089E993E00E94BE17182F682F89E993E048
:100990000E94121868E471E089E993E00E94FC1952
:1009A0006AE070E080E090E00E94131689E993E02D
:1009B0000E945918C12C2B2D4D2D63EE77E0CE01EE
:1009C00001960E94780DCE0101960E94461160EDBD
:1009D000610F70E08FEC92E00E94570F62EA70E0C6
:1009E00089E993E00E94EA192C960FB6F894DEBFCD
:1009F0000FBECDBFDF91CF911F910F91FF90EF9070
:100A0000DF90CF90BF9008951F93CF93DF936AE458
:100A100070E080ED92E00E94C00A61E070E080ED3D
:100A200092E00E94510180ED92E00E943E0B65E051
:100A300070E080E090E00E94131641E050E06AE42C
:100A400070E080ED92E00E94390B80ED92E00E9410
:100A5000260A182F6AE470E080ED92E00E94C00A36
:100A600061E070E080ED92E00E945101612F6064CE
:100A700080ED92E00E94770A80ED92E00E943E0BAA
:100A80006AE471E080E090E00E9413166AE470E08E
:100A900080ED92E00E94C00A60E070E080ED92E09C
:100AA0000E94510180ED92E00E943E0B42E050E036
:100AB0006AE470E080ED92E00E94390B80ED92E0F4
:100AC0000E94260A182F80ED92E00E94260AD12F5C
:100AD00020E0C22F9E01282BC90124E0959587951F
:100AE0002A95E1F7DF91CF911F9108951F93CF933E
:100AF000DF9360E470E080ED92E00E94C00A61E064
:100B000070E080ED92E00E94510180ED92E00E9441
:100B10003E0B6AE070E080E090E00E94131642E035
:100B200050E060E470E080ED92E00E94390B80EDCF
:100B300092E00E94260A182F80ED92E00E94260A79
:100B4000D12F90E0C92FBE01682B80E090E00E9479
:100B50006C1F20E030E040E857E30E94FA1F20E0DD
:100B600030E048EC52E40E94FA1FDF91CF911F91D0
:100B700008950F931F93CF93DF930E940405EC0118
:100B80000E9404058C010E9476050E943D1F1F9261
:100B90006F93BE016F707727072E000C880B990B9F
:100BA0000E946E1F20E030E040E25FE30E94FA1FE7
:100BB0000E943D1F1F926F93B801110F880B990B74
:100BC0000E946E1F20E030E040E85DE30E94FA1FC3
:100BD0000E943D1F1F926F9381E891E09F938F9336
:100BE00083E792E09F938F930E9419234CE463E77D
:100BF00072E08BE992E00E94CB138DB79EB70A9604
:100C00000FB6F8949EBF0FBE8DBF4CEA5DE060E06A
:100C100070E08BE992E0DF91CF911F910F910C94DE
:100C20007A14CF93DF9300D000D000D0CDB7DEB7D9
:100C3000CE0101960E94980ECE0101960E94ED0D04
:100C4000863011F0811103C01092990203C081E037
:100C5000809399028E811F928F938D811F928F9323
:100C60008C811F928F938EE891E09F938F9383E7FF
:100C700092E09F938F930E9419234CE463E772E004
:100C80008BE992E00E94CB1341E060E070E08BE9D9
:100C900092E00E94741441E061E070E08BE992E020
:100CA0000E94741441E062E070E08BE992E00E94DF
:100CB000741441E063E070E08BE992E00E947414E8
:100CC00041E064E070E08BE992E00E94741441E03E
:100CD00065E070E08BE992E00E94741444EF51E00B
:100CE00060E070E08BE992E00E947A1440E060E0FE
:100CF00070E08BE992E00E94741440E061E070E0E3
:100D00008BE992E00E94741440E062E070E08BE9AD
:100D100092E00E94741440E063E070E08BE992E09E
:100D20000E94741440E064E070E08BE992E00E945D
:100D3000741440E065E070E08BE992E00E94741466
:100D400044EF51E060E070E08BE992E00E947A1499
:100D500080916C0290916D02019664E270E00E94B5
:100D600097200FB6F894DEBF0FBECDBF892B11F4CC
:100D70000E94B90526960FB6F894DEBF0FBECDBF10
:100D8000DF91CF9108954F925F926F927F928F92F1
:100D90009F92AF92BF92CF92DF92EF92FF920F930A
:100DA0001F93CF93DF93CDB7DEB762970FB6F8945A
:100DB000DEBF0FBECDBF0E9404054C010E94760528
:100DC0002B013C010E941F03BC01990F880B990B5A
:100DD0001F921F921F9224E62F93A12CB12C650124
:100DE00014EDE12E13E0F12E00E010E02EEE32E0E3
:100DF00040E050E00E94DC1DE62ED72ECE010D967D
:100E00000E94980EF9880889CE010D960E94ED0D7A
:100E1000182FDF92EF92C301B2010E943D1F1F9273
:100E20006F93B401990C880B990B0E946E1F20E000
:100E300030E040E85DE30E94FA1F0E943D1F1F92D0
:100E40006F931F92FF921F920F931F921F938F8594
:100E50001F928F938E851F928F938D8590E0805384
:100E6000984F9F938F938DE991E09F938F9383E7A2
:100E700092E09F938F930E94192363E772E0CE0163
:100E800007960E948B1E61E471E0CE0101960E94DC
:100E90008B1EBE01695F7F4FCE0101960E94E51E49
:100EA000BC01CE0107960E94A01ECE0101960E94B1
:100EB0001D1E0FB6F894DEBF0FBECDBF8B859C857F
:100EC000892BA9F00CE426E232E040E050E0BE01BC
:100ED000695F7F4F8BE992E00E94C41441E050E0CB
:100EE00060E070E0CE0107960E94091FE7CFCE01B7
:100EF00007960E941D1E62960FB6F894DEBF0FBEC5
:100F0000CDBFDF91CF911F910F91FF90EF90DF90B8
:100F1000CF90BF90AF909F908F907F906F905F9099
:100F20004F900895AF92BF92CF92DF92EF92FF92CF
:100F30000F931F93CF93DF9360E082E00E94D71658
:100F400060E081E00E94D71661E08CE00E94D71635
:100F500061E080E00E94D71661E080E00E941317F4
:100F600082E00E948A1610929A0281E08093990290
:100F70008093980226E040E056E960E070E089E95D
:100F800093E00E947B180E94240E8FEC92E00E9456
:100F900042100E9458010E94E1026CE572E089E96A
:100FA00093E00E94FC1968EA71E089E993E00E94ED
:100FB000EA1965E971E089E993E00E94EA196CE5B4
:100FC00072E089E993E00E94FC1961E871E089E927
:100FD00093E00E94EA196DE671E089E993E00E94CE
:100FE000EA190E9435020E941F03EC016BEC71E0CC
:100FF00089E993E00E94DD194AE050E0BE0189E9E9
:1010000093E00E94CC1ABE01DD0F880B990B1F9252
:101010001F921F9224E62F93A12CB12C650114ED91
:10102000E12E13E0F12E00E010E02EEE32E040E081
:1010300050E00E94DC1D6B017C0168ED71E089E9E4
:1010400093E00E94DD194AE050E0B60189E993E09F
:101050000E94CC1A89E993E00E94A4170F900F9088
:101060000F900F901816190614F589E993E00E9465
:10107000BE1799278435910559F024F481349105E0
:1010800051F00BC08136910531F08437910529F478
:101090000E94B30302C00E944B046AE070E080E04B
:1010A00090E00E94131689E993E00E9459186BE5BD
:1010B00071E089E993E00E94B9198FEC92E00E94F7
:1010C000F50F4AE050E0BC0189E993E00E94CC1A98
:1010D00061E08FEC92E00E941A0F0E9463100E9460
:1010E000C30680919802882319F00E94C50202C0AD
:1010F0000E94D302109297021092960210926D02F3
:1011000010926C0210926B0210926A0281E00E94AF
:101110004217C82F6CE471E089E993E00E94B91985
:101120004AE050E06C2F89E993E0DF91CF911F9165
:101130000F91FF90EF90DF90CF90BF90AF900C9405
:101140006B1ACF93DF93EC0160E570E080ED92E0E5
:101150000E94C00A6D2F70E080ED92E00E94510164
:10116000BE01772780ED92E00E94510160E080EDA2
:1011700092E00E94C20A42E050E060E570E080ED3B
:1011800092E00E94390B80ED92E00E94260AC82F5F
:1011900080ED92E00E94260A982F88278C0F911DDF
:1011A000DF91CF910895CF93DF93C0E0D0E0CE01DF
:1011B0000E94A10862E070E00E943A032296C039C2
:1011C000D105A9F782E090E00E945203CCEDD0E077
:1011D0008CE00E946B1D64E670E080E090E00E946D
:1011E000131620E030E0A90162E078E08CE00E9474
:1011F000DE1A6AE570E080E090E00E941316219705
:1012000039F78CE0DF91CF910C946B1D82E00E9446
:101210004217892B21F565E070E080E090E00E94A4
:10122000131682E00E9442178FEC92E00E94421057
:10123000892B09F451C080919902882309F44CC08C
:1012400080919802882309F447C00E94D308109225
:1012500097021092960210926D0210926C0281E039
:101260000E944217892B31F080916C0290916D029F
:10127000C397E4F50E941F038E3F924024F560E07F
:1012800080E00E94131780916C0290916D0201968C
:101290006CE370E00E949720892BA9F40E947D02E4
:1012A00042E050E06DE471E082E00E94DE146AE00A
:1012B00070E080E090E00E9413168AE00E946603CE
:1012C00082E00E940D150E941F03883093409CF01D
:1012D00061E080E00C941317809196029091970240
:1012E00001969093970280939602B5CF10926D026B
:1012F00010926C02BFCF089580919A028823E1F08A
:1013000082E00E940D1510929A0280919802882323
:1013100019F00E94C50202C00E94D3020E94C306B7
:10132000109297021092960210926D0210926C0227
:1013300010926B0210926A0280919602909197022D
:101340008230910511F144F40097E1F0019709F022
:1013500040C00E94900125C08430910539F1FCF015
:101360000597B9F50E947D0242E050E06DE471E01E
:1013700082E00E94DE148AE00E94660382E00E94FE
:101380000D1527C00E94110632C00E94F301809102
:101390006A0290916B0284309105ACF010C00E94FB
:1013A000B90510926B0210926A0221C00E94C30616
:1013B00080916A0290916B021816190624F410921B
:1013C000970210929602019690936B0280936A02A4
:1013D0000EC0109297021092960280919802882374
:1013E00019F01092980203C081E0809398028091D6
:1013F0006C0290916D0288359240A9F40E947D02A2
:1014000042E050E06DE471E082E00E94DE146AE0A8
:1014100070E080E090E00E9413168AE00E9466036C
:1014200082E00E940D1580916C0290916D020196F0
:1014300090936D0280936C020C94060980910003D6
:1014400090E020910103821B91090895909101037E
:1014500080910003981750F4E92FF0E0EE5FFC4F05
:10146000208130E09F5F9093010302C02FEF3FEF98
:10147000C9010895E091010380910003E81730F459
:10148000F0E0EE5FFC4F808190E008958FEF9FEFDA
:1014900008950895CF92DF92EF92FF920F931F93DA
:1014A000CF93DF937C01CB018A012091DC022223C0
:1014B00089F0EB016B01C40ED51ECC15DD0569F07A
:1014C0006991D701ED91FC910190F081E02DC70168
:1014D0000995F3CF642F0E94E30BC801DF91CF91F0
:1014E0001F910F91FF90EF90DF90CF900895CF93D1
:1014F000DF931F92CDB7DEB769832091DC022223F0
:10150000D1F02091DD02203240F021E030E0FC01FA
:101510003383228380E090E015C08091DE02E82FC3
:10152000F0E0E152FD4F998190838F5F8093DE025E
:101530008093DD0205C061E0CE0101960E94E30BBD
:1015400081E090E00F90DF91CF910895FC0113822C
:10155000128288EE93E0A0E0B0E084839583A683B6
:10156000B7838CEE91E091838083089581E080932E
:10157000DC026093FF021092DE021092DD020895F9
:101580000C94B60A0F93062F21E04091DD026FED17
:1015900072E08091FF020E948D0B1092DE02109289
:1015A000DD021092DC020F9108954F925F926F92CC
:1015B0007F92AF92BF92CF92EF92FF920F931F93C1
:1015C000CF93DF935C01F62ED42F28013901EE2052
:1015D00021F10E94B60ACE2DC43008F0C3E0C150FC
:1015E000C0F028E0C29FC0011124A301920104C0F1
:1015F00056954795379527958A95D2F7CA01B9012F
:10160000D501ED91FC910190F081E02DC501099586
:10161000E6CF60E0C5010E94C20A4D2FD13208F02A
:1016200040E22C2D62E073E08F2D0E94450B10925A
:10163000010380930003DF91CF911F910F91FF90E1
:10164000EF90CF90BF90AF907F906F905F904F9052
:101650000895CF92EF920F931F93C22EE12C00E0DA
:1016600010E098010E94D50A1F910F91EF90CF9042
:10167000089521E00C94290B0C94290B61E00C9443
:10168000C20A80ED92E00C94A60A413208F043C0F1
:1016900090918F039111FCCF91E090938F03209351
:1016A0008D032FEF2093220310926703240F2093C2
:1016B000660390938E0390918E03880F892B8093FD
:1016C0008E0380918C03813061F410928C038091A1
:1016D0008E038093BB008091BC0083FDF8CF85EC26
:1016E00001C085EE8093BC0080918F038130E1F3CF
:1016F00080916703841710F440916703A8E6B3E074
:10170000962FFB018E2F891B841718F48D918193DE
:10171000F9CF842F089580E008950F93413208F0A7
:101720004AC090918F039111FCCF32E030938F0328
:1017300000938D033FEF3093220310926703409391
:101740006603562FA8E6B3E0FB013E2F351B341786
:1017500018F431913D93F9CF10928E0330918E039E
:10176000880F832B80938E0380918C03813061F4EA
:1017700010928C0380918E038093BB008091BC00FB
:1017800083FDF8CF85EC01C085EE8093BC00222359
:1017900021F080918F038230D1F3809122038F3F1B
:1017A00079F080912203803241F0809122038033CE
:1017B00031F094E005C091E003C092E001C093E0F5
:1017C000892F0F910895613298F420918F0324306E
:1017D00089F460934403282FA6E4B3E0FC018E2F24
:1017E000821B861718F481918D93F9CF80E00895BC
:1017F00081E0089582E0089585ED8093BC0080919A
:10180000BC0084FDFCCF10928F03089585EC80937B
:10181000BC0010928F0308951F920F920FB60F9283
:1018200011242F933F934F935F936F937F938F93E5
:101830009F93AF93BF93EF93FF938091B900887FFD
:10184000803609F49EC078F5883209F45DC090F4C2
:10185000803109F456C038F4882309F4F5C0883083
:1018600009F44FC0F5C0883109F44EC0803209F444
:101870005FC0EEC0803409F46AC058F4803309F4C4
:1018800057C0883309F0E4C0809322030E94060CFD
:10189000DFC0803509F44FC0883509F45DC0883455
:1018A00009F0D6C0D3C0883909F4C4C0A8F4883779
:1018B00009F467C038F4883609F463C0803709F446
:1018C00060C0C6C0883809F4B5C0803909F45FC06B
:1018D000803809F0BDC05BC0803B09F483C038F498
:1018E000803A09F466C0883A09F47CC0B1C0803CF3
:1018F00009F4A4C0883C09F4A1C0883B09F487C05E
:10190000A7C080918E0310C09091670380916603F9
:10191000981770F5E091670381E08E0F809367035D
:10192000F0E0E859FC4F80818093BB0085EC83C0D8
:10193000809322038BC0E091670381E08E0F809338
:1019400067038091BB00F0E0E859FC4F80839091E1
:101950006703809166036BC0E091670381E08E0F9F
:10196000809367038091BB00F0E0E859FC4F8083CF
:1019700080918D0381116AC081E080938C0384EA99
:101980005EC083E080938F0310922303CFCF8091BA
:101990002303803208F04EC0E091230381E08E0FD4
:1019A000809323038091BB00F0E0EC5DFC4F8083CB
:1019B000BDCF0E94060C80912303803230F4E09169
:1019C0002303F0E0EC5DFC4F10826091230370E094
:1019D000E0918803F091890384E293E009951092E5
:1019E000230336C084E080938F0310924503109246
:1019F0004403E0918A03F0918B030995809144039D
:101A0000811105C081E08093440310924603E09168
:101A1000450381E08E0F80934503F0E0EA5BFC4FC5
:101A200080818093BB009091450380914403981777
:101A300008F47CCF85E88093BC000AC085EC8093D5
:101A4000BC0010928F0304C0109222030E94FC0B72
:101A5000FF91EF91BF91AF919F918F917F916F9186
:101A60005F914F913F912F910F900FBE0F901F905C
:101A70001895803D27E0920710F0805D974050E078
:101A8000E5EBF1E021E0261730F43491430F511DCE
:101A90002F5F3196F8CF633038F09C0123703327E5
:101AA000232B11F44F5F5F4FBC016D5F7F4F769525
:101AB000679576956795EDE6F1E08E9F90018F9F93
:101AC000300D9E9F300D1124C9010197860F971F7D
:101AD000840F951F0895FC01908190539A3008F06F
:101AE00090E0818180532AE0929F800D1124089517
:101AF000CF92EF920F93FC01603D87E0780710F0E2
:101B0000605D77406083418322830383E482C582E2
:101B10000F91EF90CF900895EF92FF920F931F9344
:101B2000CF93DF93EC018B017A01CB0109960E94E0
:101B30006B0D8883D801EC918E2FEE0F990BAA0BB9
:101B4000BB0BFC01E154F109E331F10560F5E25C06
:101B5000FF4F0C94EC20F8018181813629F08281BD
:101B60008E3621F087E01EC081E01CC086E01AC0DE
:101B700082E018C0D80112968C91823711F088E06B
:101B800011C084E00FC0F8018281823711F085E036
:101B900009C083E007C089E005C08AE003C08BE08C
:101BA00001C08CE08983C80104960E946B0D8A8372
:101BB000C7010E946B0D8B83C70103960E946B0DBA
:101BC0008C83C70106960E946B0D8D83DF91CF91A8
:101BD0001F910F91FF90EF900895FC018081428149
:101BE000618190E00E94390D069667E070E00E94E6
:101BF0008320089568E670E080ED92E00E94C00ABC
:101C000060E070E080ED92E00E94510180ED92E092
:101C10000C943E0B0F931F93CF93DF93082FC8E0D4
:101C2000D0E010E8802F812311F061E301C060E370
:101C300089E993E00E94DF191695219799F7DF91C2
:101C4000CF911F910F910895CF93DF9368E670E0D5
:101C500080ED92E00E94C00A68E070E080ED92E0C2
:101C60000E94510180ED92E00E943E0B41E050E065
:101C700068E670E080ED92E00E94390B80ED92E022
:101C80000E94260AEC0187FF16C068E670E080ED2E
:101C900092E00E94C00A68E070E080ED92E00E944D
:101CA0005101BE01606880ED92E00E94510180ED1B
:101CB00092E00E943E0B6AE070E080E090E00E94BB
:101CC000131668E670E080ED92E00E94C00A6AE0B8
:101CD00070E080ED92E00E94510180ED92E00E9460
:101CE0003E0B41E050E068E670E080ED92E00E943B
:101CF000390B80ED92E00E94260AEC0168E670E064
:101D000080ED92E00E94C00A6AE070E080ED92E00F
:101D10000E945101BE016F7980ED92E00E94510155
:101D200080ED92E00E943E0B81E0DF91CF9108951B
:101D3000CF92DF92EF92FF920F931F93CF93DF9397
:101D4000EC0168E670E080ED92E00E94C00A61E07C
:101D500070E080ED92E00E94510180ED92E00E94DF
:101D60003E0B21E030E047E050E068E670E080EDB7
:101D700092E00E943C0B80ED92E00E94260A8F7751
:101D8000982F92959F701AEF082F919F000D1124A4
:101D900080ED92E00E94260A8F77982F92959F708F
:101DA000C82E919FC00C112480ED92E00E94260A5B
:101DB0008F73982F92959F70D82E919FD00C1124DD
:101DC00080ED92E00E94260A80ED92E00E94260AB1
:101DD0008F73982F92959F70F82E919FF00C11247D
:101DE00080ED92E00E94260A8F71982F92959F7045
:101DF000E82E919FE00C112480ED92E00E94260ACB
:101E00009C01332794E0359527959A95E1F7129F29
:101E1000800D11248883E982FA82DB82CC820D83D3
:101E2000CE01DF91CF911F910F91FF90EF90DF9046
:101E3000CF900895CF93DF93C62F68E670E080EDD2
:101E400092E00E94C00A6AE070E080ED92E00E9499
:101E5000510180ED92E00E943E0B41E050E068E6C7
:101E600070E080ED92E00E94390B80ED92E00E94DC
:101E7000260ACC2319F0EC01C06802C0EC01CF7730
:101E800068E670E080ED92E00E94C00A6AE070E0CF
:101E900080ED92E00E945101BE0180ED92E00E942F
:101EA000510180ED92E0DF91CF910C943E0BAF9207
:101EB000BF92CF92DF92EF92FF920F931F93CF9337
:101EC000DF935B0168E670E080ED92E00E94C00A5B
:101ED0006BE070E080ED92E00E94510180ED92E0B5
:101EE0000E943E0B44E050E068E670E080ED92E036
:101EF0000E94390B80ED92E00E94260AEC0180EDF1
:101F000092E00E94260A6C0180ED92E00E94260A6F
:101F10007C0180ED92E00E94260A8C0183E0A816E5
:101F2000B10411F154F481E0A816B104B1F082E0DB
:101F3000A816B10451F50F7711C085E0A816B104B9
:101F4000E9F0B4F086E0A816B104F9F40F77E8944C
:101F5000E7F8E894C7F8CF7318C000686894E7F80A
:101F60006894C7F8C06C11C00F77E894E7F8F8CF11
:101F70000F77E894E7F8E894C7F8F4CF0F77E89480
:101F8000E7F8E894C7F8CF77C06468E670E080EDC2
:101F900092E00E94C00A6BE070E080ED92E00E9447
:101FA0005101BE0180ED92E00E945101B60180ED29
:101FB00092E00E945101B70180ED92E00E94510130
:101FC000B80180ED92E00E94510180ED92E00E9404
:101FD0003E0BDF91CF911F910F91FF90EF90DF901B
:101FE000CF90BF90AF900C94FA0DFF920F931F9378
:101FF000CF93DF9368E670E080ED92E00E94C00A24
:102000006BE070E080ED92E00E94510180ED92E083
:102010000E943E0B44E050E068E670E080ED92E004
:102020000E94390B80ED92E00E94260A182F80ED65
:1020300092E00E94260A082F80ED92E00E94260A74
:10204000F82E80ED92E00E94260A87FB882780F90F
:10205000C82F80E0D82FF7FCC26007FDC46017FDD1
:10206000C86016FDC061C250DE4FC8810C2E000C46
:10207000DD0B0E94FA0DCE01DF91CF911F910F91E0
:10208000FF90089568E670E080ED92E00E94C00A3B
:102090006FE070E080ED92E00E94510180ED92E0EF
:1020A0000E943E0B41E050E068E670E080ED92E077
:1020B0000E94390B80ED92E00E94260A86FB882759
:1020C00080F990E00895CF93DF9368E670E080EDAB
:1020D00092E00E94C00A60E070E080ED92E00E9411
:1020E000510180ED92E00E943E0B40E150E068E635
:1020F00070E080ED92E00E94390BC0E0D0E080ED0E
:1021000092E00E94260A0E940A0E68EF71E089E9B7
:1021100093E00E94DD1940E150E0BE0189E993E0BF
:102120000E94CC1A2196C031D10549F768E670E0CB
:1021300080ED92E00E94C00A60E070E080ED92E0E5
:102140000E94510180ED92E0DF91CF910C943E0B03
:10215000EF92FF920F931F93CF938C0168E670E08C
:1021600080ED92E00E94C00A64E070E080ED92E0B1
:102170000E94510180ED92E00E943E0B41E050E050
:1021800068E670E080ED92E00E94390B80ED92E00D
:102190000E94260A7C0168E670E080ED92E00E94D1
:1021A000C00A61E070E080ED92E00E945101F80108
:1021B0002581CAE0822F6C2F0E947720682F660F3E
:1021C000860F880F682F620F80ED92E00E94770AD9
:1021D000F8012481822F6C2F0E947720682F660FD0
:1021E000860F880F682F620F80ED92E00E94770AB9
:1021F000F8012381822F6C2F0E947720682F660FB1
:10220000860F880F682F620F80ED92E00E94770A98
:10221000B70180ED92E00E945101F8012281822FE6
:102220006C2F0E947720682F660F860F880F682F0B
:10223000620F80ED92E00E94770AF8012181822FDF
:102240006C2F0E947720682F660F860F880F682FEB
:10225000620F80ED92E00E94770AF8012081822FC0
:102260006C2F0E947720682F660F860F880F682FCB
:10227000620F80ED92E00E94770A80ED92E0CF91AC
:102280001F910F91FF90EF900C943E0B1F93CF93F3
:10229000DF93EC0168E670E080ED92E00E94C00AF6
:1022A0006AE070E080ED92E00E94510129811AE01D
:1022B000822F612F0E947720682F660F860F880F6C
:1022C000682F620F80ED92E00E94770A2A81822FA8
:1022D000612F0E947720682F660F860F880F682F66
:1022E000620F80ED92E00E94770A2B81822F612F8E
:1022F0000E947720682F660F860F880F682F620F65
:1023000080ED92E00E94770A2C81822F612F0E943B
:102310007720682F660F860F880F682F620F80ED79
:1023200092E00E94770A2D81822F612F0E947720F0
:10233000682F660F860F880F682F620F80ED92E07E
:102340000E94770A60E070E080ED92E00E94510107
:1023500080ED92E0DF91CF911F910C943E0BEF92B4
:10236000FF920F931F93CF93DF93EC017C018CE2DC
:10237000E80EF11C0EE112E028853985C8018E5166
:102380009240821793072CF560E088810E94131712
:102390008E819F81F8012081892B09F0209540E0F2
:1023A0006A818C810E946B17F70121917F0140E0C7
:1023B0006A818C810E946B1761E088810E941317EB
:1023C00061E070E080E090E00E9413160F5F1F4F05
:1023D000D3CFDF91CF911F910F91FF90EF90089590
:1023E000CF93DF93EC0160E088810E94131720E017
:1023F00041E06A818C810E946B1720E041E06A8194
:102400008C810E946B1761E08881DF91CF910C94E1
:102410001317CF93DF93EC01862F688379835B8357
:102420004A833D832C8361E00E94D71661E08A8154
:102430000E94D71661E08C810E94D716CE01DF91F1
:10244000CF910C94F011EF92FF920F931F93CF93C3
:10245000DF93EC010E940912CE018C9661E0011518
:10246000110509F460E0619570E048E050E00E94D9
:10247000FC2288E0E816F1041CF49E2D8F2D02C08A
:1024800098E080E01F830E839887898721E030E001
:102490003B872A879C878D871D8E1C8EDF91CF916D
:1024A0001F910F91FF90EF900895EF92FF920F937D
:1024B0001F930E9423121F910F91FF90EF90089598
:1024C000CF93DF93EC01645D7F4FFC01E60FF71FB4
:1024D000D901CD01821B930B841795075CF48E8183
:1024E0009F81892B11F09C9102C09C9190959193B2
:1024F0001196EFCFDF91CF910895FC0126813781AE
:10250000E60FF71F442319F0232B31F402C0232BCD
:1025100019F084A5816002C084A58E7F84A70895E8
:10252000FF920F931F93CF93DF93EA01D9018FEFAF
:102530009DEE47EF5FEEEDEFFE2EFD01E21BF30B8C
:10254000E617F707A4F5E991F0EDFE0FFA3030F445
:102550000E2E000CFF0BE05FFD4F09C0FFE9FE0FE0
:10256000FA3140F40E2E000CFF0BEB53FE4FE081CE
:10257000EC931BC0FFEBFE0FFA3130F40E2E000C73
:10258000FF0BEB51FE4FF3CFED3211F4FC920DC077
:10259000EF3511F45C9309C0E33211F44C9305C09C
:1025A000ED3311F49C9301C08C931196C6CF0F3F6D
:1025B0008FEF180731F0F901E00FF11F8081816082
:1025C0008083DF91CF911F910F91FF900895CF925B
:1025D000DF92EF92FF920F931F93CF93DF93EE2D35
:1025E000D9011197EC3429F46150710980E090E031
:1025F00017C0C901861B970BE23511F4BD0108C055
:1026000097FD019695958795680F791F615071091F
:10261000F801C0E27F01E01AF10AE816F90614F0A9
:10262000FA0106C0C193F6CF97FF06C00196319616
:1026300068177907CCF709C0A817B907BCF3408120
:10264000E801C80FD91F4883F1CFFB013196E00F95
:10265000F11F80E2AF01401B510B4217530714F4E6
:102660008193F8CF8FEFC816D80639F06C197D0921
:1026700077FD03C0A617B7071CF48FEF9FEF01C0CB
:10268000CB01DF91CF911F910F91FF90EF90DF90E1
:10269000CF9008952F923F924F925F926F927F92C8
:1026A0008F929F92AF92BF92CF92DF92EF92FF9262
:1026B0000F931F93CF93DF93CDB7DEB75C016DB659
:1026C0007EB677FD50C0FC01828593856817790737
:1026D0000CF049C0FA0101900020E9F73197CF01D1
:1026E000841B950B660F771F1501260E371EF1010F
:1026F000848495846DB77EB7681979090FB6F8940C
:102700007EBF0FBE6DBFEDB7FEB731962F01CC2453
:10271000CA94DC2CE22E8F019401BC01C5010E94F9
:10272000E7126DB77EB7681979090FB6F8947EBFC6
:102730000FBE6DBF8DB79EB701967C010FEF1FEFE7
:102740009C01A201B401C5010E949012F101648DA7
:10275000758D9701A401C5010E9460120FB6F8940F
:102760007EBE0FBE6DBE0FB6F8947EBE0FBE6DBEB0
:10277000DF91CF911F910F91FF90EF90DF90CF905D
:10278000BF90AF909F908F907F906F905F904F9091
:102790003F902F900895242FAB0160E070E00C94DF
:1027A0004A132F923F924F925F926F927F928F9235
:1027B0009F92AF92BF92CF92DF92EF92FF920F93D0
:1027C0001F93CF93DF9300D01F92CDB7DEB75C018C
:1027D0006B013A0129838DB79EB79B838A8377FD6E
:1027E00042C0F5018285938568177907E4F52DB617
:1027F0003EB600E010E0B801C3010E94F81E980147
:102800002F5F3F4F882311F08901F5CF8DB79EB719
:10281000821B930B0FB6F8949EBF0FBE8DBFEDB712
:10282000FEB731962F014F01E12CF12C0E151F053B
:1028300059F0B701C3010E94F81EF40181934F01C2
:10284000FFEFEF1AFF0AF2CFF201E00FF11F108243
:102850002981A201B601C5010E944A130FB6F8945E
:102860003EBE0FBE2DBE8A819B810FB6F8949EBFDF
:102870000FBE8DBF0F900F900F90DF91CF911F91E2
:102880000F91FF90EF90DF90CF90BF90AF909F900F
:102890008F907F906F905F904F903F902F90089512
:1028A000242FAB0160E070E00C94D11377FD1BC0C6
:1028B000DC011A96ED91FC911B976E177F079CF433
:1028C00057FD11C0660F771FFC01E60FF71F6485E7
:1028D0007585461757073CF4648D758D640F751F19
:1028E000422F0C947D120895242FAB0160E070E01C
:1028F0000C945614CF92DF92EF92FF920F931F9396
:10290000CF93DF93EC016A017B010E94E2150885F9
:102910001985012E000C220B330BC01AD10AE20AD2
:10292000F30AC60ED71EE81EF91E0E94E215C6164F
:10293000D706E806F90620F0CE010E94AF11F5CFC8
:10294000CE01DF91CF911F910F91FF90EF90DF901B
:10295000CF900C94F011CF92DF92EF92FF920F93F1
:10296000CF93DF93EC0169017A01402F0E94CB13D2
:10297000B701A601CE01DF91CF910F91FF90EF90AB
:10298000DF90CF900C947A14CF92DF92EF92FF9267
:102990000F93CF93DF93EC0169017A01402F0E94DE
:1029A0005014B701A601CE01DF91CF910F91FF9096
:1029B000EF90DF90CF900C947A140895833060F5F7
:1029C000E82FF0E0EE0FFF1FEA5FFE4F7183608398
:1029D000813051F08230A1F0809169008C7F482BCA
:1029E00040936900E89A089580916900837F440FBD
:1029F000551F440F551F482B40936900E99A0895CD
:102A0000809169008F7C94E0440F551F9A95E1F7FF
:102A1000482B40936900EA9A0895833098F48130F6
:102A200021F0823021F0E89803C0E99801C0EA98CB
:102A3000E82FF0E0EE0FFF1FEA5FFE4F8DED94E10F
:102A40009183808308951F920F920FB60F921124E5
:102A50002F933F934F935F936F937F938F939F93A6
:102A6000AF93BF93EF93FF93E0910601F0910701BD
:102A70000995FF91EF91BF91AF919F918F917F91B8
:102A80006F915F914F913F912F910F900FBE0F90DB
:102A90001F9018951F920F920FB60F9211242F932B
:102AA0003F934F935F936F937F938F939F93AF93D6
:102AB000BF93EF93FF93E0910801F091090109950D
:102AC000FF91EF91BF91AF919F918F917F916F9106
:102AD0005F914F913F912F910F900FBE0F901F90DC
:102AE00018951F920F920FB60F9211242F933F93B8
:102AF0004F935F936F937F938F939F93AF93BF9306
:102B0000EF93FF93E0910A01F0910B010995FF917A
:102B1000EF91BF91AF919F918F917F916F915F9155
:102B20004F913F912F910F900FBE0F901F901895CE
:102B30001F920F920FB60F9211242F933F938F93F2
:102B40009F93AF93BF938091910390919203A09133
:102B50009303B09194033091900326E0230F2D3717
:102B600020F40296A11DB11D05C029E8230F03968C
:102B7000A11DB11D20939003809391039093920324
:102B8000A0939303B093940380919503909196033F
:102B9000A0919703B09198030196A11DB11D809358
:102BA000950390939603A0939703B0939803BF91D6
:102BB000AF919F918F913F912F910F900FBE0F90EA
:102BC0001F9018952FB7F89460919103709192031C
:102BD00080919303909194032FBF08953FB7F89489
:102BE0008091950390919603A0919703B0919803DB
:102BF00026B5A89B05C02F3F19F00196A11DB11D58
:102C00003FBFBA2FA92F982F8827820F911DA11D92
:102C1000B11DBC01CD0143E0660F771F881F991FCE
:102C20004A95D1F708958F929F92AF92BF92CF921B
:102C3000DF92EF92FF926B017C010E94EE154B0137
:102C40005C01C114D104E104F10401F10E943C1FB4
:102C50000E94EE15DC01CB0188199909AA09BB096C
:102C6000883E9340A105B10560F321E0C21AD10866
:102C7000E108F10888EE880E83E0981EA11CB11CC3
:102C8000C114D104E104F10419F7DBCFFF90EF90F8
:102C9000DF90CF90BF90AF909F908F9008957894E1
:102CA00084B5826084BD84B5816084BD85B5826051
:102CB00085BD85B5816085BDEEE6F0E080818160EF
:102CC0008083E1E8F0E010828081826080838081EF
:102CD00081608083E0E8F0E0808181608083E1EBC7
:102CE000F0E0808184608083E0EBF0E080818160AF
:102CF0008083EAE7F0E08081846080838081826065
:102D0000808380818E7F8083808180688083109221
:102D1000C100089580930C010895883028F088310F
:102D200010F0885101C08FEF20910C0190E4299F91
:102D3000900111248770822B80937C0080917A000F
:102D4000806480937A0080917A0086FDFCCF809128
:102D500078002091790090E0922B0895843081F0E2
:102D600028F4823099F08330A1F008958830A9F0DA
:102D70008930B9F08530D1F4809180008F7D03C017
:102D8000809180008F7780938000089584B58F773D
:102D900002C084B58F7D84BD08958091B0008F7787
:102DA00003C08091B0008F7D8093B0000895CF93D1
:102DB000DF9390E0FC01EF51FE4F2491FC01EF5FA7
:102DC000FD4F8491882361F190E0880F991FFC01E9
:102DD000EB5CFD4FC591D491FC01E55DFD4FA591E4
:102DE000B491611109C09FB7F8948881209582231E
:102DF0008883EC912E230BC0623061F49FB7F89466
:102E00008881322F309583238883EC912E2B2C934D
:102E10009FBF06C08FB7F894E8812E2B28838FBF01
:102E2000DF91CF9108951F93CF93DF93282F30E048
:102E3000F901EF53FE4F8491F901EF51FE4FD49108
:102E4000F901EF5FFD4FC491CC23C1F0162F811122
:102E50000E94AE16EC2FF0E0EE0FFF1FE55DFD4F78
:102E6000A591B4919FB7F894111104C08C91D0959D
:102E7000D82302C0EC91DE2BDC939FBFDF91CF9172
:102E80001F910895CF93DF93282F30E0F901EF537E
:102E9000FE4F8491F901EF51FE4FD491F901EF5F9C
:102EA000FD4FC491CC2391F081110E94AE16EC2FFE
:102EB000F0E0EE0FFF1FEF5DFD4FA591B491EC9197
:102EC000ED2381E090E021F480E002C080E090E01A
:102ED000DF91CF910895BF92CF92DF92EF92FF9250
:102EE0000F931F93CF93DF93C82ED62EB42EC7E037
:102EF000D0E0022F10E087E0E82EF12CB11005C0E1
:102F0000C7018C1B9D0BB80102C0B8018C2F02C0F9
:102F1000759567958A95E2F761708C2D0E9413175D
:102F200061E08D2D0E94131760E08D2D0E94131714
:102F3000219720F7DF91CF911F910F91FF90EF9094
:102F4000DF90CF90BF900895FC01918D228D892F45
:102F500090E0805C9F4F821B91098F7399270895A1
:102F6000FC01918D828D981731F0828DE80FF11D53
:102F7000858D90E008958FEF9FEF0895FC01918D6E
:102F8000828D981761F0828DDF01A80FB11D5D96CB
:102F90008C91928D9F5F9F73928F90E008958FEF39
:102FA0009FEF089583E399E1892B41F080E090E061
:102FB000892B21F00E94331981110DC080E090E02F
:102FC000892B71F080E090E0892B51F00E94000085
:102FD000811104C008950E940000F0CF0C940000FD
:102FE0000895FC01848DDF01A80FB11DA35ABF4FC6
:102FF0002C91848D90E001968F739927848FA689F8
:10300000B7892C93A089B1898C9180648C93938D1E
:10301000848D981306C00288F389E02D80818F7D0E
:1030200080830895EF92FF920F931F93CF93DF93C6
:10303000EC0181E0888F9B8D8C8D981305C0E88909
:10304000F989808185FD24C0F62E0B8D10E00F5F7D
:103050001F4F0F731127E02E8C8DE8120CC00FB696
:1030600007FCFACFE889F989808185FFF5CFCE0189
:103070000E94F117F1CF8B8DFE01E80FF11DE35A8D
:10308000FF4FF0820B8FEA89FB898081806207C045
:10309000EE89FF896083E889F98980818064808373
:1030A00081E090E0DF91CF911F910F91FF90EF9021
:1030B0000895CF93DF93EC01888D8823C9F0EA89C6
:1030C000FB89808185FD05C0A889B9898C9186FD21
:1030D0000FC00FB607FCF5CF808185FFF2CFA8891E
:1030E000B9898C9185FFEDCFCE010E94F117E7CF12
:1030F000DF91CF910895CF92DF92EF92FF921F93CD
:10310000CF93DF93EC016A017B01122F60E874E832
:103110008EE190E0A70196010E94AB20DA01C9017F
:103120000197A109B109B695A795979587959C0137
:10313000E889F98982E08083211580E13807A8F0C9
:10314000E889F989108260E472E48FE090E0A701D9
:1031500096010E94AB20DA01C9010197A109B109CA
:10316000B695A795979587959C01EC85FD8530834D
:10317000EE85FF852083188EEC89FD891083EA890E
:10318000FB89808180618083EA89FB8980818860F6
:103190008083EA89FB89808180688083EA89FB8952
:1031A00080818F7D8083DF91CF911F91FF90EF9081
:1031B000DF90CF9008951F920F920FB60F921124B7
:1031C0002F938F939F93EF93FF93E091A903F09137
:1031D000AA038081E091AF03F091B00382FD12C099
:1031E00090818091B2038F5F8F732091B303821718
:1031F00051F0E091B203F0E0E756FC4F958F8093D9
:10320000B20301C08081FF91EF919F918F912F9127
:103210000F900FBE0F901F9018951F920F920FB630
:103220000F9211242F933F934F935F936F937F934C
:103230008F939F93AF93BF93EF93FF9389E993E0AD
:103240000E94F117FF91EF91BF91AF919F918F91E4
:103250007F916F915F914F913F912F910F900FBE92
:103260000F901F90189589E993E00E94A41721E020
:10327000892B09F420E0822F0895E9E9F3E0138215
:10328000128288EE93E0A0E0B0E084839583A68369
:10329000B7838EE492E09183808385EC90E09587FC
:1032A000848784EC90E09787868780EC90E0918B10
:1032B000808B81EC90E0938B828B82EC90E0958BFD
:1032C000848B86EC90E0978B868B118E128E138EFA
:1032D000148E089508950E944F160E946A190E9444
:1032E0009207C2EDD7E10E947C092097E1F30E948A
:1032F000D217F9CFCF92DF92EF92FF920F931F93E5
:10330000CF93DF936C017A018B01C0E0D0E0CE1542
:10331000DF0581F0D8016D918D01D601ED91FC9111
:103320000190F081E02DC6010995892B11F02196BD
:10333000EECF7E01C701DF91CF911F910F91FF90DA
:10334000EF90DF90CF9008956115710579F0FB0142
:1033500001900020E9F73197AF01461B570BDC01C4
:10336000ED91FC910280F381E02D099480E090E0E2
:103370000895EF92FF920F931F93CF93DF938C01E9
:103380007B01C0E0D0E0F701EC0FFD1F64916623E4
:1033900061F0D801ED91FC910190F081E02DC80120
:1033A0000995892B11F02196EECFCE01DF91CF91B7
:1033B0001F910F91FF90EF9008950C94A419DC01D8
:1033C000ED91FC910190F081E02D09946AE572E0A5
:1033D0000C94A4190F931F93CF93DF93EC010E94D9
:1033E000B9198C01CE010E94E619800F911FDF915F
:1033F000CF911F910F9108950F931F93CF93DF9358
:10340000EC010E94A4198C01CE010E94E619800FE4
:10341000911FDF91CF911F910F9108958F929F92ED
:10342000AF92BF92EF92FF920F931F93CF93DF93D0
:10343000CDB7DEB7A1970FB6F894DEBF0FBECDBFF4
:103440007C01FA01CB0119A2223008F42AE08E0196
:103450000F5D1F4F822E912CA12CB12CBF01A50115
:1034600094010E94AB20F901CA01015011096A3090
:1034700014F4605D01C0695CD8016C93232B242B8C
:10348000252B61F7B801C7010E94A419A1960FB6B8
:10349000F894DEBF0FBECDBFDF91CF911F910F918A
:1034A000FF90EF90BF90AF909F908F90089521155F
:1034B000310541F4DC01ED91FC910190F081E02DAA
:1034C000642F09940C940E1A9A01462F50E060E084
:1034D00070E00C94571A0F931F93CF93DF93EC0176
:1034E0000E94641A8C01CE010E94E619800F911F80
:1034F000DF91CF911F910F910895CF92DF92EF92BC
:10350000FF920F931F93CF93DF932115310581F421
:10351000DC01ED91FC910190F081E02D642FDF91B1
:10352000CF911F910F91FF90EF90DF90CF90099472
:103530002A30310501F577FF1DC06A017B01EC01DE
:103540006DE20E94DF198C0144275527BA014C19FE
:103550005D096E097F092AE0CE010E940E1A800FD4
:10356000911FDF91CF911F910F91FF90EF90DF900E
:10357000CF9008952AE0DF91CF911F910F91FF9096
:10358000EF90DF90CF900C940E1A9A01AB01770F59
:10359000660B770B0C947D1A0F931F93CF93DF93D9
:1035A000EC010E94C51A8C01CE010E94E619800F21
:1035B000911FDF91CF911F910F9108954F925F92CC
:1035C0006F927F928F929F92AF92BF92CF92DF9233
:1035D000EF92FF920F931F93CF93DF9300D000D011
:1035E0001F92CDB7DEB78B0129013A0190910D01F1
:1035F000891721F09F3F09F038C205C0EFE3F2E0E0
:1036000024912D8384C080930D01EFE3F2E0949127
:103610009D839F3F09F429C2913009F44DC058F1B0
:10362000923009F074C01092B0001092B1009091E5
:10363000B00092609093B0009091B100916090932F
:10364000B100282F30E0F901EF5FFD4FE491F0E089
:10365000EE0FFF1FE55DFD4F4591549150933804E7
:1036600040933704F901EF51FE4FE491E0933604A3
:1036700092E09D83F6C114BC15BC94B5926094BDD4
:1036800095B5916095BD282F30E0F901EF5FFD4FB2
:10369000E491F0E0EE0FFF1FE55DFD4F4591549181
:1036A0005093460440934504F901EF51FE4FE491D5
:1036B000E09344041D82D5C11092800010928100D5
:1036C0009091810098609093810090918100916029
:1036D00090938100282F30E0F901EF5FFD4FE491D6
:1036E000F0E0EE0FFF1FE55DFD4F459154915093C3
:1036F0003F0440933E04F901EF51FE4FE491E09303
:103700003D0461E00E94D71621E02D83A5C02D81E4
:1037100027FDABC161E00E94D7168D818D7F09F036
:103720009BC04801A12CB12C60E079E08DE390E0D2
:10373000A50194010E94CD2029833A834B835C83A9
:1037400069017A0181E0C81AD108E108F1089FEF08
:10375000C916D104E104F10409F008F461C060E283
:1037600071EA87E090E0A50194010E94CD206901F3
:103770007A0181E0C81AD108E108F1089D819230F0
:1037800009F0F4C02FEFC216D104E104F10409F0EE
:1037900008F458C068E478EE81E090E0A501940157
:1037A0000E94CD2069017A0181E0C81AD108E108A0
:1037B000F1089FEFC916D104E104F10409F008F4FF
:1037C0004EC164E274EF80E090E0A50194010E9494
:1037D000CD2069017A0181E0C81AD108E108F10819
:1037E0009FEFC916D104E104F10471F168F162E1BF
:1037F0007AE780E090E0A50194010E94CD20690164
:103800007A0181E0C81AD108E108F1089FEFC916D2
:10381000D104E104F10411F008F0C9C085E015C03D
:1038200081E09D81911111C095B5987F892B85BD4F
:10383000411451046104710409F04FC02FEF3FEFB0
:10384000A90163C082E001C084E09091B100987F3B
:10385000892B8093B1003CC04801A12CB12C60E0C1
:1038600079E08DE390E0A50194010E94CD206901EB
:103870007A0181E0C81AD108E108F108C114D10425
:1038800091E0E906F10488F064E274EF80E090E0F2
:10389000A50194010E94CD2069017A0181E0C81A36
:1038A000D108E108F10883E001C081E09D819130F9
:1038B00079F490918100987F892B80938100411445
:1038C00051046104710449F42FEF3FEFA9012CC0AA
:1038D000411451046104710471F0D801AA0FBB1F97
:1038E000A30192010E94012128EE33E040E050E064
:1038F0000E94AB2003C02FEF3FEFA9018D818130E3
:1039000099F0823019F18111B0C0C7BC20934704EF
:10391000309348044093490450934A0480916E00C8
:10392000826080936E00A1C0D0928900C09288000E
:103930002093400430934104409342045093430445
:1039400080916F00826080936F008FC0C092B3003F
:103950002093390430933A0440933B0450933C0441
:10396000809170008260809370007FC08FEFC816D6
:10397000D104E104F104C9F0C0F064E274EF80E026
:1039800090E0A50194010E94CD2069017A0191E0A7
:10399000C91AD108E108F1082FEFC216D104E104D9
:1039A000F10409F080F583E03CCF82E03ACF69E092
:1039B0007DE380E090E0A50194010E94CD206901A3
:1039C0007A0181E0C81AD108E108F1089FEFC91611
:1039D000D104E104F104A9F0A0F089819A81AB81BE
:1039E000BC812AE0B595A795979587952A95D1F73B
:1039F0006C017D0121E0C21AD108E108F10887E0DD
:103A000024CF86E022CF69E07DE380E090E0A5014D
:103A100094010E94CD2069017A0181E0C81AD10881
:103A2000E108F1089FEFC916D104E104F104A9F0FF
:103A3000A0F089819A81AB81BC814AE0B595A795B8
:103A4000979587954A95D1F76C017D0121E0C21ABF
:103A5000D108E108F10885E0E4CE84E0E2CE83E01D
:103A6000F4CE61E00E94D7165CCE0F900F900F90BD
:103A70000F900F90DF91CF911F910F91FF90EF90DA
:103A8000DF90CF90BF90AF909F908F907F906F907E
:103A90005F904F900895813039F018F0823051F0E6
:103AA000089510926E00089580916F008D7F80932D
:103AB0006F000895809170008D7F8093700081E089
:103AC0008093B0008091B100887F84608093B100C2
:103AD0001092B3000895CF93C82F80910D01C813A1
:103AE00007C0EFE3F2E084919FEF90930D0101C0D6
:103AF0008FEF0E944B1D60E08C2FCF910C94131719
:103B00001F920F920FB60F9211242F933F934F9352
:103B10005F936F937F938F939F93AF93BF93EF9335
:103B2000FF938091390490913A04A0913B04B091A5
:103B30003C04892B8A2B8B2B51F190913604E09118
:103B40003704F0913804808189278083809139047B
:103B500090913A04A0913B04B0913C0418161906C8
:103B60001A061B06C4F48091390490913A04A0917E
:103B70003B04B0913C040197A109B1098093390439
:103B800090933A04A0933B04B0933C0404C080910A
:103B90000D010E946B1DFF91EF91BF91AF919F911D
:103BA0008F917F916F915F914F913F912F910F90E6
:103BB0000FBE0F901F9018954F925F926F927F9259
:103BC000AF92BF92CF92DF92EF92FF920F931F932B
:103BD000CF93DF93CDB7DEB729013A019B01AC014A
:103BE000241935094609570989899A89AB89BC89FD
:103BF000BC01CD016A197B098C099D090E946720CF
:103C0000A801970124193509460957090E94CD20BA
:103C1000CA01B9016A0D7B1D8C1D9D1DDF91CF91DD
:103C20001F910F91FF90EF90DF90CF90BF90AF90DA
:103C30007F906F905F904F900895FC0180819181FB
:103C40000C94A421CF93DF93EC0188819981009794
:103C500011F00E94A421198218821D821C821B82ED
:103C60001A82DF91CF9108950F931F93CF93DF9323
:103C7000EC018B016F5F7F4F888199810E942D221B
:103C8000009731F0998388831B830A8381E001C008
:103C900080E0DF91CF911F910F910895CF93DF9333
:103CA000EC0188819981892B29F08A819B81861773
:103CB000970760F4CE010E94341E882341F08C8166
:103CC0009D81892B19F4E881F981108281E0DF91CF
:103CD000CF910895EF92FF920F931F93CF93DF93AD
:103CE000EC017B018A01BA010E944E1E811104C0C1
:103CF000CE010E94221E07C01D830C83B70188815C
:103D000099810E940323CE01DF91CF911F910F91E2
:103D1000FF90EF900895FC011182108213821282AD
:103D2000158214826115710551F0FB01019000208C
:103D3000E9F73197AF01461B570B0C946A1E0895A3
:103D4000CF93DF93EC01FB018617970761F0608149
:103D500071816115710529F0448155810E946A1EA7
:103D600002C00E94221ECE01DF91CF910895EF92F2
:103D7000FF920F931F93CF93DF936115710511F499
:103D800080E01CC041155105C1F07B01EC018C8124
:103D90009D818A01080F191FB801CE010E944E1E95
:103DA000882371F3288139818C819D81B701820F2D
:103DB000931F0E9403231D830C8381E0DF91CF9129
:103DC0001F910F91FF90EF900895CF93DF93EC0137
:103DD000FB0144815581608171810E94B71E811170
:103DE00003C0CE010E94221ECE01DF91CF91089523
:103DF000FC01248135816217730748F48081918129
:103E0000009729F0FC01E60FF71F8081089580E0FC
:103E10000895CF93DF93DC011496ED91FC911597F3
:103E20006E177F0730F54115510519F1DF01A61B0B
:103E3000B70B9A01A417B50708F49D01DB01EC014B
:103E400088819981E21BF30BFD83EC83AF01461B54
:103E5000570B260F371FBC01620F731F8A0F9B1F62
:103E60000E940A23E881F9818C819D81E80FF91F66
:103E70001082DF91CF91089508950E94D91F88F094
:103E80009F5798F0B92F9927B751B0F0E1F0660F1E
:103E9000771F881F991F1AF0BA95C9F714C0B1305F
:103EA00091F00E94F31FB1E008950C94F31F672F67
:103EB000782F8827B85F39F0B93FCCF3869577958E
:103EC0006795B395D9F73EF4909580957095619577
:103ED0007F4F8F4F9F4F0895E89409C097FB3EF4A2
:103EE00090958095709561957F4F8F4F9F4F992347
:103EF000A9F0F92F96E9BB279395F69587957795C5
:103F00006795B795F111F8CFFAF4BB0F11F460FF84
:103F10001BC06F5F7F4F8F4F9F4F16C0882311F0DC
:103F200096E911C0772321F09EE8872F762F05C0F0
:103F3000662371F096E8862F70E060E02AF09A958B
:103F4000660F771F881FDAF7880F9695879597F980
:103F5000089597F99F6780E870E060E008959FEF0B
:103F600080EC089500240A94161617061806090610
:103F7000089500240A9412161306140605060895DF
:103F8000092E0394000C11F4882352F0BB0F40F467
:103F9000BF2B11F460FF04C06F5F7F4F8F4F9F4FA7
:103FA000089557FD9058440F551F59F05F3F71F029
:103FB0004795880F97FB991F61F09F3F79F0879590
:103FC0000895121613061406551FF2CF4695F1DF19
:103FD00008C0161617061806991FF1CF86957105A9
:103FE000610508940895E894BB2766277727CB01DD
:103FF00097F908950E940D200C94C01F0E94B21FD3
:1040000038F00E94B91F20F0952311F00C94A91FDD
:104010000C94AF1F11240C94F41F0E94D11F70F355
:10402000959FC1F3950F50E0551F629FF001729F5D
:10403000BB27F00DB11D639FAA27F00DB11DAA1F6C
:10404000649F6627B00DA11D661F829F2227B00DB9
:10405000A11D621F739FB00DA11D621F839FA00D44
:10406000611D221F749F3327A00D611D231F849F94
:10407000600D211D822F762F6A2F11249F575040EB
:104080009AF0F1F088234AF0EE0FFF1FBB1F661F66
:10409000771F881F91505040A9F79E3F510580F02F
:1040A0000C94A91F0C94F41F5F3FE4F3983ED4F3E3
:1040B000869577956795B795F795E7959F5FC1F7D3
:1040C000FE2B880F911D9695879597F90895DB0132
:1040D0008F939F930E940121BF91AF91A29F800D6A
:1040E000911DA39F900DB29F900D11240895991BCF
:1040F00079E004C0991F961708F0961B881F7A95DF
:10410000C9F780950895AA1BBB1B51E107C0AA1FE0
:10411000BB1FA617B70710F0A61BB70B881F991F68
:104120005A95A9F780959095BC01CD01089597FB0C
:10413000072E16F4009407D077FD09D00E94832043
:1041400007FC05D03EF4909581959F4F089570959A
:1041500061957F4F0895A1E21A2EAA1BBB1BFD019A
:104160000DC0AA1FBB1FEE1FFF1FA217B307E40756
:10417000F50720F0A21BB30BE40BF50B661F771FAE
:10418000881F991F1A9469F760957095809590958E
:104190009B01AC01BD01CF010895052E97FB1EF4D4
:1041A00000940E94E42057FD07D00E94AB2007FC3A
:1041B00003D04EF40C94E420509540953095219511
:1041C0003F4F4F4F5F4F0895909580957095619543
:1041D0007F4F8F4F9F4F0895EE0FFF1F0590F49173
:1041E000E02D0994A29FB001B39FC001A39F700D61
:1041F000811D1124911DB29F700D811D1124911DEF
:1042000008950E94F220A59F900DB49F900DA49F49
:10421000800D911D112408950F931F93CF93DF9369
:104220008230910510F482E090E0E0914D04F0912D
:104230004E0420E030E0A0E0B0E0309719F140817A
:1042400051810281138148175907C8F084179507D7
:1042500069F4109731F012960C93129713961C93F1
:1042600027C000934D0410934E0422C02115310540
:1042700019F04217530718F49A01BD01EF01DF014D
:10428000F801DBCF21153105F9F0281B390B24305B
:10429000310580F48A819B816115710521F0FB0154
:1042A0009383828304C090934E0480934D04FE0157
:1042B000329644C0FE01E20FF31F81939193225086
:1042C0003109398328833AC020914B0430914C0442
:1042D000232B41F4209102013091030130934C04CF
:1042E00020934B04209100013091010121153105EB
:1042F00041F42DB73EB74091040150910501241BB4
:10430000350BE0914B04F0914C04E217F307A0F455
:104310002E1B3F0B2817390778F0AC014E5F5F4F1B
:104320002417350748F04E0F5F1F50934C044093FD
:104330004B048193919302C0E0E0F0E0CF01DF9164
:10434000CF911F910F910895CF93DF93009709F4B8
:1043500081C0FC01329713821282A0914D04B0916A
:104360004E04109781F420813181820F931F209198
:104370004B0430914C042817390751F5F0934C0445
:10438000E0934B0467C0ED0120E030E0CE17DF077B
:1043900040F44A815B819E0141155105F1F0EA012B
:1043A000F5CFD383C28340815181840F951FC817F5
:1043B000D90759F488819981840F951F02969183BA
:1043C00080838A819B81938382832115310529F41F
:1043D000F0934E04E0934D043DC0E901FB83EA8372
:1043E00049915991C40FD51FEC17FD0761F48081E5
:1043F0009181840F951F0296E901998388838281B8
:1044000093819B838A83E0E0F0E012968D919C91EA
:104410001397009719F0FD01DC01F7CF8D919C9166
:1044200011979D012E5F3F4F820F931F20914B04E8
:1044300030914C042817390769F4309729F4109209
:104440004E0410924D0402C013821282B0934C04A9
:10445000A0934B04DF91CF910895A0E0B0E0E3E397
:10446000F2E20C94D025EC01009721F4CB010E94DC
:104470000C21B4C0FC01E60FF71F9C01225031094A
:10448000E217F30708F4A8C0D9010D911C91119708
:1044900006171707B0F00530110508F49BC0C801D6
:1044A00004978617970708F495C002501109061B58
:1044B000170B019311936D937C93CF010E94A4215C
:1044C00089C05B01A01AB10A4C01800E911EA09117
:1044D0004D04B0914E04612C712CE12CF12C1097FD
:1044E00009F446C08D919C911197A815B905B1F5B5
:1044F0006C0142E0C40ED11CCA14DB0478F14C01FB
:104500008A189B08640142E0C40ED11C1296BC902C
:1045100012971396AC91B5E0CB16D10440F0B2825D
:10452000A38391828082D9016D937C9309C00E5F31
:104530001F4F800F911FF90191838083EB2DFA2F7C
:10454000E114F10431F0D7011396FC93EE93129726
:1045500041C0F0934E04E0934D043CC068167906C8
:1045600008F43C017D0112960D90BC91A02DB7CFAF
:1045700080914B0490914C0488169906E1F46616DC
:104580007706C8F48091000190910101009741F4F1
:104590008DB79EB74091040150910501841B950B86
:1045A000E817F907C8F4F0934C04E0934B04F901C1
:1045B000718360830FC0CB010E940C217C010097A6
:1045C00059F0A801BE010E94F322CE010E94A4214D
:1045D000C70104C0CE0102C080E090E0CDB7DEB7D5
:1045E000EEE00C94EC25FB01DC0102C001900D9281
:1045F00041505040D8F70895DC0101C06D934150FF
:104600005040E0F70895FB01DC0101900D9200207D
:10461000E1F70895FB01DC014150504048F0019062
:104620000D920020C9F701C01D9241505040E0F7A3
:104630000895AEE0B0E0EFE1F3E20C94DA250D89E5
:104640001E8986E08C831A8309838FEF9FE79E8300
:104650008D83AE01475E5F4F6F89788DCE010196E5
:104660000E943B23EF81F885E00FF11F10822E9608
:10467000E4E00C94F625ABE0B0E0E1E4F3E20C9466
:10468000CC256C017B018A01FC0117821682838193
:1046900081FFCCC1CE0101963C01F6019381F70167
:1046A00093FD859193FF81917F01882309F4BAC11D
:1046B000853239F493FD859193FF81917F01853295
:1046C00029F4B60190E00E943225E7CF912C212CED
:1046D000312CFFE1F315D8F08B3279F038F48032C9
:1046E00079F08332A1F4232D20611DC08D3261F059
:1046F000803369F4232D216016C0832D8260382E0B
:10470000E32DE4603E2E2AC0F32DF8601DC037FC77
:104710002DC020ED280F2A3040F08E32B9F436FC3F
:1047200081C1232D2064322E19C036FE06C08AE0D6
:10473000989E200D1124922E11C0EAE02E9E200D8D
:104740001124222EF32DF0623F2E08C08C3621F466
:10475000832D8068382E02C0883641F4F70193FD1E
:10476000859193FF81917F018111B3CF982F9F7D18
:104770009554933028F40C5F1F4F9FE399830DC02D
:10478000833631F0833771F0833509F059C021C089
:10479000F801808189830E5F1F4F88248394912CB8
:1047A000530113C02801F2E04F0E511CF801A08004
:1047B000B18036FE03C0692D70E002C06FEF7FEF5D
:1047C000C5010E9427254C018201F32DFF773F2E62
:1047D00016C0280122E0420E511CF801A080B180D1
:1047E00036FE03C0692D70E002C06FEF7FEFC50198
:1047F0000E941C254C01F32DF0683F2E820133FCF2
:104800001BC0822D90E088169906B0F4B60180E2B4
:1048100090E00E9432252A94F4CFF50137FC85916F
:1048200037FE81915F01B60190E00E943225211090
:104830002A9421E0821A91088114910471F7E8C04A
:10484000843611F0893641F5F80137FE07C06081E2
:104850007181828193810C5F1F4F08C060817181DB
:10486000072E000C880B990B0E5F1F4FF32DFF7660
:104870003F2E97FF09C090958095709561957F4F69
:104880008F4F9F4FF0683F2E2AE030E0A3010E9437
:104890006E25882E861845C0853731F4232D2F7E4E
:1048A000B22E2AE030E025C0932D997FB92E8F36A5
:1048B000C1F018F4883579F0B5C0803719F0883721
:1048C00021F0B0C0E92FE061BE2EB4FE0DC0FB2D7B
:1048D000F460BF2E09C034FE0AC0292F2660B22E14
:1048E00006C028E030E005C020E130E002C020E151
:1048F00032E0F801B7FE07C0608171818281938147
:104900000C5F1F4F06C06081718180E090E00E5FF8
:104910001F4FA3010E946E25882E8618FB2DFF775E
:104920003F2E36FE0DC0232D2E7FA22E891458F463
:1049300034FE0BC032FC09C0832D8E7EA82E05C02C
:10494000B82CA32C03C0B82C01C0B92CA4FE0FC0F6
:10495000FE01E80DF11D8081803321F49A2D997EAE
:10496000A92E09C0A2FE06C0B394B39404C08A2D38
:10497000867809F0B394A3FC11C0A0FE06C0B2145F
:1049800088F4280C922C9B180EC0B21460F4B60167
:1049900080E290E00E943225B394F7CFB21418F46D
:1049A0002B1802C0982C212CA4FE10C0B60180E365
:1049B00090E00E943225A2FE17C0A1FC03C088E748
:1049C00090E002C088E590E0B6010CC08A2D8678A0
:1049D00059F0A1FE02C08BE201C080E2A7FC8DE28B
:1049E000B60190E00E943225891438F4B60180E3C4
:1049F00090E00E9432259A94F7CF8A94F301E80D53
:104A0000F11D8081B60190E00E9432258110F5CF22
:104A1000222009F442CEB60180E290E00E943225C5
:104A20002A94F6CFF6018681978102C08FEF9FEF1F
:104A30002B96E2E10C94E825FC0105906150704052
:104A40000110D8F7809590958E0F9F1F0895FC0157
:104A50006150704001900110D8F7809590958E0FAD
:104A60009F1F08950F931F93CF93DF93FB01238123
:104A700021FD03C08FEF9FEF2CC022FF16C046819F
:104A80005781248135814217530744F4A081B181B5
:104A90009D012F5F3F4F318320838C932681378187
:104AA0002F5F3F4F3783268314C08B01EC01FB013E
:104AB0000084F185E02D0995892BE1F6D801169641
:104AC0008D919C911797019617969C938E931697AC
:104AD000CE01DF91CF911F910F910895FA01AA277E
:104AE000283051F1203181F1E8946F936E7F6E5F31
:104AF0007F4F8F4F9F4FAF4FB1E03ED0B4E03CD0DF
:104B0000670F781F891F9A1FA11D680F791F8A1FC1
:104B1000911DA11D6A0F711D811D911DA11D20D028
:104B200009F468943F912AE0269F11243019305DE2
:104B30003193DEF6CF010895462F4770405D4193D3
:104B4000B3E00FD0C9F7F6CF462F4F70405D4A3320
:104B500018F0495D31FD4052419302D0A9F7EACFE8
:104B6000B4E0A6959795879577956795BA95C9F717
:104B700000976105710508959B01AC010A2E06940A
:104B80005795479537952795BA95C9F7620F731FC3
:104B9000841F951FA01D08952F923F924F925F9200
:104BA0006F927F928F929F92AF92BF92CF92DF923D
:104BB000EF92FF920F931F93CF93DF93CDB7DEB7A2
:104BC000CA1BDB0B0FB6F894DEBF0FBECDBF099436
:104BD0002A88398848885F846E847D848C849B848D
:104BE000AA84B984C884DF80EE80FD800C811B819B
:104BF000AA81B981CE0FD11D0FB6F894DEBF0FBECA
:0A4C0000CDBFED010895F894FFCF39
:104C0A0000004F048000DD140000000001FF253081
:104C1A0032753D25303275206425317500253032D4
:104C2A00752025303275206425317500642531756B
:104C3A0020253032752D2530327520004C4F4144E5
:104C4A00002020202020202020004F4F4F4F4F4F80
:104C5A00004F4E004F4646002534752D25303275DB
:104C6A002D2530327520253032753A253032753A85
:104C7A0025303275202E00253032752325317543B3
:104C8A0000253275232531752025327548002530D7
:104C9A0032752025303275202530327500202534B2
:104CAA00752D253032752D253032752064253175E4
:104CBA0020253032753D2530327520253275435F07
:104CCA0025327548205025327520004241545445FA
:104CDA00525F56414C3A3D004241545445525F5648
:104CEA00414C2825293A3D0000000000770A4A0A6B
:104CFA001E0A260A3A0A490A203A20307800060093
:104D0A000000000000000000000000000000050094
:104D1A0000000000000004000000030002018040BF
:104D2A0020100804020111C1638561714391F38760
:104D3A0051E313D5C531197349E1C7838193892595
:104D4A00039F250D9949411F0119000000001218FF
:104D5A007A19A417BE17B01759180D0A006E616E9A
:0A4D6A0000696E66006F76660000B7
:00000001FF
