:100000000C9423010C9418150C943F150C94661550
:100010000C944B010C944B010C944B010C944B0130
:100020000C944B010C948D1D0C944B010C944B01C2
:100030000C944B010C944B010C944B010C944B0110
:100040000C944B010C944B010C948D150C944B01AA
:100050000C94D0180C9402190C944B010C944B0185
:100060000C944B010C944B010C94090C0C944B0117
:100070000C944B010C944B010C944B01B70DD00D1B
:10008000D00DCE0DD00DB50DD00DD00DD00DA80DCD
:10009000D00DD00DC00DCC0DCA0DD00DD00DD00D92
:1000A000C80D536574205375636365737366756C0F
:1000B0000068683A6D6D206D6F646500456E74650B
:1000C0007220616C61726D2074696D6520666F725B
:1000D0006D617420286D6F64652069732031207410
:1000E0006F20362C20342069732070657220646183
:1000F000792900536574205375636365737366755E
:100100006C006D6D6D2D64642D7979797920686846
:100110002D6D6D2D73732073616D706C6520696E2C
:100120007075743A2044656320323620323030399D
:100130002031323A33343A353600456E74657220D8
:100140006461746520666F726D6174006B457874CC
:10015000506F77657250696E3A3D00526570656107
:1001600074204D6F6465205365743A20002D2D2D49
:100170002D2D2D2D2D2D2D2D2D2D2D2D2D2D2D2DAF
:100180000043686F6F73652061206D656E7520692F
:1001900074656D3A004120736574205B415D6C614C
:1001A000726D2074696D65005420736574205B5412
:1001B0005D696D65001F1C1F1E1F1E1F1F1E1F1E59
:1001C0001F000000020300000000000000050409F9
:1001D0000800000000000000000000000000000017
:1001E0000001020408102040800102040810204091
:1001F0008001020408102040800102040810204001
:100200008002020202020202020404040404040442
:1002100004030303030303030301010101010101BB
:1002200001000020002300260029000000220025F4
:100230000028002B0000002100240027002A0002D3
:10024000DF033E0B321911241FBECFEFD0E1DEBF1A
:10025000CDBF12E0A0E0B1E0E4E2FCE402C0059012
:100260000D92A636B107D9F724E0A6E6B2E001C0A8
:100270001D92AB34B207E1F711E0C3E2D1E004C054
:100280002197FE010E94F920C032D107C9F70E94D0
:1002900060190C9410260C94000081E08093960263
:1002A0000895DC01ED91FC910190F081E02D09941D
:1002B0006AE470E08CEC92E00E94BD0A61E070E0BC
:1002C0008CEC92E00E94510161E370E08CEC92E0D2
:1002D0000E9451018CEC92E00E943B0B6AE070E0BE
:1002E00080E090E00E94081660E470E08CEC92E000
:1002F0000E94BD0A62E070E08CEC92E00E94510125
:1003000060E070E08CEC92E00E94510160E070E0EF
:100310008CEC92E00E9451018CEC92E00C943B0B2F
:10032000CF93DF9300D000D000D0CDB7DEB7CE01A1
:1003300001960E94950ECE0101960E94EA0D1F9231
:100340008F938D811F928F938C811F928F938EE05C
:1003500091E09F938F938FE692E09F938F930E94FB
:1003600026234CE46FE672E087E992E00E94C01316
:1003700041E060E070E087E992E00E94691441E0AA
:1003800061E070E087E992E00E94691441E062E078
:1003900070E087E992E00E94691441E063E070E058
:1003A00087E992E00E94691441E064E070E087E927
:1003B00092E00E94691441E065E070E087E992E014
:1003C0000E94691444EF51E060E070E087E992E038
:1003D0000E946F1440E060E070E087E992E00E94C4
:1003E000691440E061E070E087E992E00E946914DE
:1003F00040E062E070E087E992E00E94691440E02A
:1004000063E070E087E992E00E94691440E064E0F4
:1004100070E087E992E00E94691440E065E070E0D6
:1004200087E992E00E94691444EF51E060E070E0D7
:1004300087E992E00E946F140FB6F894DEBF0FBEFA
:10044000CDBF26960FB6F894DEBF0FBECDBFDF91AD
:10045000CF9108950F931F93CF93DF9300D000D0D7
:1004600000D0CDB7DEB7CE0101960E94950E0B816C
:100470001A81CE0101960E94EA0D1F920F931F92DE
:100480001F931F928F938DE191E09F938F938FE63F
:1004900092E09F938F930E9426234CE46FE672E0D4
:1004A00087E992E00E94C01340ED57E060E070E001
:1004B00087E992E00E946F140FB6F894DEBF0FBE7A
:1004C000CDBF26960FB6F894DEBF0FBECDBFDF912D
:1004D000CF911F910F910895EF92FF920F93CF93B9
:1004E000DF9300D000D000D0CDB7DEB785E0E82E96
:1004F000F12C6DE271E08AE692E00E94102303E4A1
:1005000024EF31E040E050E06AE672E087E992E0F3
:100510000E94A01462E371E0CE0101960E94981E31
:100520004CE4BE016F5F7F4F87E992E00E94451463
:1005300048E552E060E070E087E992E00E946F14C5
:10054000CE0101960E942A1E81E0E81AF10889F680
:1005500026960FB6F894DEBF0FBECDBFDF91CF91C8
:100560000F91FF90EF900895EF92FF920F93CF932A
:10057000DF9300D000D000D0CDB7DEB785E0E82E05
:10058000F12C6BE371E08AE692E00E94102303E411
:100590002CE231E040E050E06AE672E087E992E068
:1005A0000E94A01462E371E0CE0101960E94981EA1
:1005B0004CE4BE016F5F7F4F87E992E00E944514D3
:1005C0004CE251E060E070E087E992E00E946F1435
:1005D000CE0101960E942A1E81E0E81AF10889F6F0
:1005E00026960FB6F894DEBF0FBECDBFDF91CF9138
:1005F0000F91FF90EF9008950F9303E428EB3BE0F9
:1006000040E050E062E471E087E992E00E94A014CB
:100610000F9108950F9303E428EB3BE040E050E096
:1006200065E471E087E992E00E94A0140F910895BB
:10063000CF93DF9300D000D000D0CDB7DEB7CE018E
:1006400001960E94950E8E811F928F938D811F922D
:100650008F938C811F928F938B811F928F938A81AE
:100660001F928F93898190E08053984F9F938F932F
:1006700089E491E09F938F938FE692E09F938F930D
:100680000E9426236FE672E085E993E00E94F1194B
:100690000FB6F894DEBF0FBECDBF26960FB6F89406
:1006A000DEBF0FBECDBFDF91CF9108950F931F9393
:1006B000CF93DF9303E010E0C0E0D0E08FE10E9431
:1006C0008216C80FD91F68E671E085E993E00E94A1
:1006D000D2194AE050E0BE0185E993E00E94D91AA0
:1006E0000150110959F7CE0163E070E00E94A42087
:1006F000CB01DF91CF911F910F910895CF93DF939D
:10070000EB0120E030E0A901BC018CE00E94EB1A73
:1007100088E78C9FB0018D9F700D1124072E000C6F
:10072000880B990BDF91CF910C940816CF93DF9330
:10073000EC018CE00E94781D88E78C9FB0018D9FB2
:10074000700D1124072E000C880B990BDF91CF91AF
:100750000C94081690917A009F7790937A008A30D3
:10076000A9F083FD02C098E001C098E28770892B50
:1007700098E10FB6F894A895909360000FBE80930F
:1007800060008091600080648093600083B7817F07
:10079000846083BFF89483B7816083BF85B7806628
:1007A00085BF8F7D85BF7894889583B78E7F83BF03
:1007B000789480917A00806880937A000895EF920F
:1007C000FF920F931F9388E0E82EF12C00E010E0D9
:1007D0002DE030E04FE050E06EE070E087E992E01D
:1007E0000E9452121F910F91FF90EF900895AF92C7
:1007F000BF92CF92DF92EF92FF920F931F93CF930E
:10080000DF93CDB7DEB769970FB6F894DEBF0FBEA2
:10081000CDBF6AE371E085E993E00E94DF1962E0F1
:1008200071E085E993E00E94DF1985E993E00E9479
:1008300099174497D4F38E010F5F1F4F7E018CE010
:10084000E80EF11C580185E993E00E94B317F80106
:1008500081938F01EE15FF05B1F785E993E00E94C2
:10086000B31767018E010C5E1F4F85E993E00E946C
:10087000B317F60181936F010E171F07B1F76AE0F6
:1008800070E080E090E00E94081685E993E00E9405
:100890004E18A701B501C8010E94890DC8010E9428
:1008A000A5106AE070E080E090E00E940816B501B3
:1008B00085E993E00E94F119C8010E94950EC801D4
:1008C0000E94EA0D182F68E670E08CEC92E00E941E
:1008D000BD0A64E070E08CEC92E00E945101612F4F
:1008E0008CEC92E00E94740A8CEC92E00E943B0B2C
:1008F00063EF70E085E993E00E94DF1969960FB617
:10090000F894DEBF0FBECDBFDF91CF911F910F9145
:10091000FF90EF90DF90CF90BF90AF900895BF927F
:10092000CF92DF92EF92FF920F931F93CF93DF93BB
:10093000CDB7DEB72C970FB6F894DEBF0FBECDBF94
:10094000CE0107960E94950ED884B9846CEB70E0B6
:1009500085E993E00E94DF1961EB70E085E993E09F
:100960000E94DF1985E993E00E9499170897D4F354
:1009700085E993E00E94B317182F682F85E993E06B
:100980000E94071885E993E00E94B317082F682F8B
:1009900085E993E00E940718110F1056812F880FE8
:1009A000880F180F0053010F85E993E00E94B317D9
:1009B000682F85E993E00E94071885E993E00E947B
:1009C000B317182F682F85E993E00E94071885E96F
:1009D00093E00E94B317F82E682F85E993E00E94F8
:1009E0000718110F1056E12EEE0CEE0C1E0D80EDC7
:1009F0008F0DE12EE80E85E993E00E94B317682F72
:100A000085E993E00E94071885E993E00E94B317F7
:100A1000182F682F85E993E00E94071869E371E0B9
:100A200085E993E00E94F1196AE070E080E090E0CF
:100A30000E94081685E993E00E944E18C12C2B2DC8
:100A40004D2D63EE77E0CE0101960E94750DCE012B
:100A500001960E94431160ED610F70E08BEC92E013
:100A60000E94540F62EA70E085E993E00E94DF196A
:100A70002C960FB6F894DEBF0FBECDBFDF91CF919D
:100A80001F910F91FF90EF90DF90CF90BF9008954E
:100A90001F93CF93DF936AE470E08CEC92E00E94A6
:100AA000BD0A61E070E08CEC92E00E9451018CEC98
:100AB00092E00E943B0B65E070E080E090E00E94D5
:100AC000081641E050E06AE470E08CEC92E00E948D
:100AD000360B8CEC92E00E94230A182F6AE470E037
:100AE0008CEC92E00E94BD0A61E070E08CEC92E038
:100AF0000E945101612F60648CEC92E00E94740AA4
:100B00008CEC92E00E943B0B6AE471E080E090E0A4
:100B10000E9408166AE470E08CEC92E00E94BD0A24
:100B200060E070E08CEC92E00E9451018CEC92E06D
:100B30000E943B0B42E050E06AE470E08CEC92E0F3
:100B40000E94360B8CEC92E00E94230A182F8CEC4A
:100B500092E00E94230AD12F20E0C22F9E01282B71
:100B6000C90124E0959587952A95E1F7DF91CF910A
:100B70001F9108951F93CF93DF9360E470E08CEC96
:100B800092E00E94BD0A61E070E08CEC92E00E946D
:100B900051018CEC92E00E943B0B6AE070E080E037
:100BA00090E00E94081642E050E060E470E08CECB7
:100BB00092E00E94360B8CEC92E00E94230A182FE0
:100BC0008CEC92E00E94230AD12F90E0C92FC82B11
:100BD00068E771E085E993E00E94D2194AE050E0AD
:100BE000BE0185E993E00E94781ABE0180E090E0A2
:100BF0000E94791F20E030E040E857E30E94072080
:100C000020E030E048EC52E40E940720DF91CF91D1
:100C10001F9108950F931F93CF93DF930E94480570
:100C2000EC010E9448058C010E94BA050E944A1FEF
:100C30001F926F93BE016F707727072E000C880BF1
:100C4000990B0E947B1F20E030E040E25FE30E94AE
:100C500007200E944A1F1F926F93B801110F880B43
:100C6000990B0E947B1F20E030E040E85DE30E948A
:100C700007200E944A1F1F926F938EE791E09F9377
:100C80008F938FE692E09F938F930E9426234CE4EC
:100C90006FE672E087E992E00E94C0138DB79EB7BD
:100CA0000A960FB6F8949EBF0FBE8DBF4CEA5DE06A
:100CB00060E070E087E992E0DF91CF911F910F91A2
:100CC0000C946F14CF93DF9300D000D000D0CDB739
:100CD000DEB7CE0101960E94950ECE0101960E94CC
:100CE000EA0D863011F0811103C01092950203C005
:100CF00081E0809395028E811F928F938D811F9248
:100D00008F938C811F928F938BE891E09F938F93A9
:100D10008FE692E09F938F930E9426234CE46FE628
:100D200072E087E992E00E94C01341E060E070E069
:100D300087E992E00E94691441E061E070E087E990
:100D400092E00E94691441E062E070E087E992E07D
:100D50000E94691441E063E070E087E992E00E943C
:100D6000691441E064E070E087E992E00E94691450
:100D700041E065E070E087E992E00E94691444EF89
:100D800051E060E070E087E992E00E946F1440E07B
:100D900060E070E087E992E00E94691440E061E061
:100DA00070E087E992E00E94691440E062E070E040
:100DB00087E992E00E94691440E063E070E087E90F
:100DC00092E00E94691440E064E070E087E992E0FC
:100DD0000E94691440E065E070E087E992E00E94BB
:100DE000691444EF51E060E070E087E992E00E940E
:100DF0006F148091680290916902019664E270E03C
:100E00000E94A4200FB6F894DEBF0FBECDBF892B81
:100E100011F40E940A0626960FB6F894DEBF0FBEA4
:100E2000CDBFDF91CF9108954F925F926F927F92E5
:100E30008F929F92AF92BF92CF92DF92EF92FF92EA
:100E40000F931F93CF93DF93CDB7DEB762970FB6A3
:100E5000F894DEBF0FBECDBF0E9448054C010E9432
:100E6000BA052B013C010E945603BC01990F880B67
:100E7000990B1F921F921F9224E62F93A12CB12C45
:100E8000650114EDE12E13E0F12E00E010E02EEEEE
:100E900032E040E050E00E94E91DE62ED72ECE0160
:100EA0000D960E94950EF9880889CE010D960E9434
:100EB000EA0D182FDF92EF92C301B2010E944A1F80
:100EC0001F926F93B401990C880B990B0E947B1FA2
:100ED00020E030E040E85DE30E9407200E944A1FC6
:100EE0001F926F931F92FF921F920F931F921F9357
:100EF0008F851F928F938E851F928F938D8590E0A3
:100F00008053984F9F938F938AE991E09F938F939B
:100F10008FE692E09F938F930E9426236FE672E004
:100F2000CE0107960E94981E62E371E0CE01019601
:100F30000E94981EBE01695F7F4FCE0101960E94FC
:100F4000F21EBC01CE0107960E94AD1ECE01019695
:100F50000E942A1E0FB6F894DEBF0FBECDBF8B8550
:100F60009C85892BA9F00CE426E232E040E050E0B9
:100F7000BE01695F7F4F87E992E00E94B91441E0AA
:100F800050E060E070E0CE0107960E94161FE7CFA8
:100F9000CE0107960E942A1E62960FB6F894DEBF15
:100FA0000FBECDBFDF91CF911F910F91FF90EF90BA
:100FB000DF90CF90BF90AF909F908F907F906F9079
:100FC0005F904F900895AF92BF92CF92DF92EF92D1
:100FD000FF920F931F93CF93DF9360E082E00E9414
:100FE000CC1660E081E00E94CC1661E08CE00E94AB
:100FF000CC1661E080E00E94CC1682E00E947F1651
:101000001092960281E0809395028093940226E0EC
:1010100040E056E960E070E085E993E00E947018D6
:101020000E94210E8BEC92E00E943F100E9458011A
:101030000E94180369E572E085E993E00E94F119C6
:1010400068EA71E085E993E00E94DF1965E971E0E3
:1010500085E993E00E94DF1969E572E085E993E094
:101060000E94F11961E871E085E993E00E94DF19BF
:101070006DE671E085E993E00E94DF190E946C0241
:101080000E945603EC0168EC71E085E993E00E9450
:10109000D2194AE050E0BE0185E993E00E94D91AD6
:1010A000BE01DD0F880B990B1F921F921F9224E641
:1010B0002F93A12CB12C650114EDE12E13E0F12E3C
:1010C00000E010E02EEE32E040E050E00E94E91D2A
:1010D0006B017C0165ED71E085E993E00E94D21916
:1010E0004AE050E0B60185E993E00E94D91A85E90B
:1010F00093E00E9499170F900F900F900F90181681
:10110000190614F585E993E00E94B31799278435F1
:10111000910559F024F48134910551F00BC08136CA
:10112000910531F08437910529F40E94F70302C03C
:101130000E948F046AE070E080E090E00E94081650
:1011400085E993E00E944E186BE571E085E993E034
:101150000E94AE198BEC92E00E94F20F4AE050E040
:10116000BC0185E993E00E94D91A61E08BEC92E022
:101170000E94170F0E9460100E9414078091940231
:10118000882319F00E94FC0202C00E940A031092F8
:1011900093021092920210926902109268021092C9
:1011A00067021092660281E00E943717C82F6CE434
:1011B00071E085E993E00E94AE194AE050E06C2F9F
:1011C00085E993E0DF91CF911F910F91FF90EF9010
:1011D000DF90CF90BF90AF900C94601ACF93DF93C5
:1011E000EC0160E570E08CEC92E00E94BD0A6D2F8E
:1011F00070E08CEC92E00E945101BE0177278CECEC
:1012000092E00E94510160E08CEC92E00E94BF0AE3
:1012100042E050E060E570E08CEC92E00E94360B1A
:101220008CEC92E00E94230AC82F8CEC92E00E9482
:10123000230A982F88278C0F911DDF91CF91089555
:10124000CF93DF93C0E0D0E0CE010E94EE0862E0D1
:1012500070E00E947E032296C039D105A9F782E092
:1012600090E00E9496038CE0DF91CF910C94781D62
:1012700082E00E943717892B09F565E070E080E075
:1012800090E00E94081682E00E9437178BEC92E0F3
:101290000E943F10892BF1F0809195028823D1F0B4
:1012A000809194028823B1F00E9420091092930249
:1012B00010929202109269021092680281E00E94DC
:1012C0003717892BA9F08091680290916902C39722
:1012D0005CF408958091920290919302019690930C
:1012E000930280939202E6CF1092690210926802F4
:1012F0000895809196028823E1F082E00E94021511
:101300001092960280919402882319F00E94FC02A8
:1013100002C00E940A030E941407109293021092C6
:101320009202109269021092680210926702109263
:10133000660280919202909193028230910511F1A0
:1013400044F40097E1F0019709F040C00E94900139
:1013500025C08430910539F1FCF00597B9F50E945C
:10136000B40242E050E06DE471E082E00E94D314E8
:101370008AE00E94AA0382E00E94021527C00E9410
:10138000620632C00E942A02809166029091670232
:1013900084309105ACF010C00E940A0610926702DA
:1013A0001092660221C00E941407809166029091FB
:1013B00067021816190624F41092930210929202F2
:1013C000019690936702809366020EC0109293027A
:1013D0001092920280919402882319F01092940244
:1013E00003C081E080939402809168029091690229
:1013F00088359240A9F40E94B40242E050E06DE4C6
:1014000071E082E00E94D3146AE070E080E090E036
:101410000E9408168AE00E94AA0382E00E94021538
:10142000809168029091690201969093690280937D
:1014300068020C9438098091FC0290E02091FD0232
:10144000821B910908959091FD028091FC029817EA
:1014500050F4E92FF0E0E250FD4F208130E09F5F33
:101460009093FD0202C02FEF3FEFC9010895E09174
:10147000FD028091FC02E81730F4F0E0E250FD4FED
:10148000808190E008958FEF9FEF08950895CF92A7
:10149000DF92EF92FF920F931F93CF93DF937C0124
:1014A000CB018A012091D802222389F0EB016B0144
:1014B000C40ED51ECC15DD0569F06991D701ED91FB
:1014C000FC910190F081E02DC7010995F3CF642FC5
:1014D0000E94E00BC801DF91CF911F910F91FF9007
:1014E000EF90DF90CF900895CF93DF931F92CDB709
:1014F000DEB769832091D8022223D1F02091D9024E
:10150000203240F021E030E0FC013383228380E090
:1015100090E015C08091DA02E82FF0E0E552FD4F2F
:10152000998190838F5F8093DA028093D90205C0FE
:1015300061E0CE0101960E94E00B81E090E00F9007
:10154000DF91CF910895FC011382128288EE93E01F
:10155000A0E0B0E084839583A683B78389EE91E011
:1015600091838083089581E08093D8026093FB0289
:101570001092DA021092D90208950C94B30A0F93D4
:10158000062F21E04091D9026BED72E08091FB02C1
:101590000E948A0B1092DA021092D9021092D8029D
:1015A0000F9108954F925F926F927F92AF92BF9288
:1015B000CF92EF92FF920F931F93CF93DF935C0133
:1015C000F62ED42F28013901EE2021F10E94B30A12
:1015D000CE2DC43008F0C3E0C150C0F028E0C29F57
:1015E000C0011124A301920104C056954795379577
:1015F00027958A95D2F7CA01B901D501ED91FC91E1
:101600000190F081E02DC5010995E6CF60E0C501AC
:101610000E94BF0A4D2FD13208F040E22C2D6EEF10
:1016200072E08F2D0E94420B1092FD028093FC020B
:10163000DF91CF911F910F91FF90EF90CF90BF90CE
:10164000AF907F906F905F904F900895CF92EF9200
:101650000F931F93C22EE12C00E010E098010E942E
:10166000D20A1F910F91EF90CF90089521E00C9432
:10167000260B0C94260B61E00C94BF0A8CEC92E0D4
:101680000C94A30A413208F043C090918B0391114E
:10169000FCCF91E090938B03209389032FEF20934D
:1016A0001E0310926303240F2093620390938A0316
:1016B00090918A03880F892B80938A0380918803F5
:1016C000813061F41092880380918A038093BB007B
:1016D0008091BC0083FDF8CF85EC01C085EE80933E
:1016E000BC0080918B038130E1F380916303841708
:1016F00010F440916303A4E6B3E0962FFB018E2F14
:10170000891B841718F48D918193F9CF842F089544
:1017100080E008950F93413208F04AC090918B0306
:101720009111FCCF32E030938B03009389033FEF9C
:1017300030931E031092630340936203562FA4E676
:10174000B3E0FB013E2F351B341718F431913D9364
:10175000F9CF10928A0330918A03880F832B8093EC
:101760008A0380918803813061F41092880380910C
:101770008A038093BB008091BC0083FDF8CF85EC89
:1017800001C085EE8093BC00222321F080918B0361
:101790008230D1F380911E038F3F79F080911E0338
:1017A000803241F080911E03803331F094E005C017
:1017B00091E003C092E001C093E0892F0F9108955A
:1017C000613298F420918B03243089F460934003B4
:1017D000282FA2E4B3E0FC018E2F821B861718F499
:1017E00081918D93F9CF80E0089581E0089582E0A2
:1017F000089585ED8093BC008091BC0084FDFCCFF2
:1018000010928B03089585EC8093BC0010928B039B
:1018100008951F920F920FB60F9211242F933F93AA
:101820004F935F936F937F938F939F93AF93BF93E8
:10183000EF93FF938091B900887F803609F49EC0B2
:1018400078F5883209F45DC090F4803109F456C00F
:1018500038F4882309F4F5C0883009F44FC0F5C086
:10186000883109F44EC0803209F45FC0EEC0803484
:1018700009F46AC058F4803309F457C0883309F07A
:10188000E4C080931E030E94030CDFC0803509F47E
:101890004FC0883509F45DC0883409F0D6C0D3C084
:1018A000883909F4C4C0A8F4883709F467C038F44B
:1018B000883609F463C0803709F460C0C6C0883830
:1018C00009F4B5C0803909F45FC0803809F0BDC0A3
:1018D0005BC0803B09F483C038F4803A09F466C0E9
:1018E000883A09F47CC0B1C0803C09F4A4C0883CAB
:1018F00009F4A1C0883B09F487C0A7C080918A037E
:1019000010C09091630380916203981770F5E09185
:10191000630381E08E0F80936303F0E0EC59FC4F8A
:1019200080818093BB0085EC83C080931E038BC0B5
:10193000E091630381E08E0F809363038091BB008D
:10194000F0E0EC59FC4F8083909163038091620337
:101950006BC0E091630381E08E0F809363038091FD
:10196000BB00F0E0EC59FC4F80838091890381112A
:101970006AC081E08093880384EA5EC083E080933C
:101980008B0310921F03CFCF80911F03803208F08A
:101990004EC0E0911F0381E08E0F80931F03809162
:1019A000BB00F0E0E05EFC4F8083BDCF0E94030CE3
:1019B00080911F03803230F4E0911F03F0E0E05E7D
:1019C000FC4F108260911F0370E0E0918403F0915E
:1019D000850380E293E0099510921F0336C084E0EE
:1019E00080938B031092410310924003E091860391
:1019F000F0918703099580914003811105C081E032
:101A00008093400310924203E091410381E08E0FE6
:101A100080934103F0E0EE5BFC4F80818093BB003C
:101A20009091410380914003981708F47CCF85E89A
:101A30008093BC000AC085EC8093BC0010928B039D
:101A400004C010921E030E94F90BFF91EF91BF9109
:101A5000AF919F918F917F916F915F914F913F9146
:101A60002F910F900FBE0F901F901895803D27E08B
:101A7000920710F0805D974050E0E5EBF1E021E047
:101A8000261730F43491430F511D2F5F3196F8CF54
:101A9000633038F09C0123703327232B11F44F5F00
:101AA0005F4FBC016D5F7F4F769567957695679523
:101AB000EDE6F1E08E9F90018F9F300D9E9F300DDF
:101AC0001124C9010197860F971F840F951F089550
:101AD000FC01908190539A3008F090E0818180530E
:101AE0002AE0929F800D11240895CF92EF920F93D8
:101AF000FC01603D87E0780710F0605D774060830F
:101B0000418322830383E482C5820F91EF90CF90BB
:101B10000895EF92FF920F931F93CF93DF93EC0101
:101B20008B017A01CB0109960E94680D8883D80148
:101B3000EC918E2FEE0F990BAA0BBB0BFC01E1541D
:101B4000F109E331F10560F5E25CFF4F0C94F920F7
:101B5000F8018181813629F082818E3621F087E07B
:101B60001EC081E01CC086E01AC082E018C0D80107
:101B700012968C91823711F088E011C084E00FC07A
:101B8000F8018281823711F085E009C083E007C047
:101B900089E005C08AE003C08BE001C08CE0898346
:101BA000C80104960E94680D8A83C7010E94680DCF
:101BB0008B83C70103960E94680D8C83C70106962C
:101BC0000E94680D8D83DF91CF911F910F91FF903F
:101BD000EF900895FC0180814281618190E00E9434
:101BE000360D069667E070E00E949020089568E642
:101BF00070E08CEC92E00E94BD0A60E070E08CEC3A
:101C000092E00E9451018CEC92E00C943B0B0F93FC
:101C10001F93CF93DF93082FC8E0D0E010E8802F08
:101C2000812311F061E301C060E385E993E00E9444
:101C3000D4191695219799F7DF91CF911F910F91A4
:101C40000895CF93DF9368E670E08CEC92E00E94F9
:101C5000BD0A68E070E08CEC92E00E9451018CECCF
:101C600092E00E943B0B41E050E068E670E08CECB3
:101C700092E00E94360B8CEC92E00E94230AEC0169
:101C800087FF16C068E670E08CEC92E00E94BD0A07
:101C900068E070E08CEC92E00E945101BE01606847
:101CA0008CEC92E00E9451018CEC92E00E943B0B84
:101CB0006AE070E080E090E00E94081668E670E05C
:101CC0008CEC92E00E94BD0A6AE070E08CEC92E03D
:101CD0000E9451018CEC92E00E943B0B41E050E0ED
:101CE00068E670E08CEC92E00E94360B8CEC92E09F
:101CF0000E94230AEC0168E670E08CEC92E00E94FE
:101D0000BD0A6AE070E08CEC92E00E945101BE01D5
:101D10006F798CEC92E00E9451018CEC92E00E9471
:101D20003B0B81E0DF91CF910895CF92DF92EF924C
:101D3000FF920F931F93CF93DF93EC0168E670E05F
:101D40008CEC92E00E94BD0A61E070E08CEC92E0C5
:101D50000E9451018CEC92E00E943B0B21E030E0AC
:101D600047E050E068E670E08CEC92E00E94390BAE
:101D70008CEC92E00E94230A8F77982F92959F70A7
:101D80001AEF082F919F000D11248CEC92E00E9415
:101D9000230A8F77982F92959F70C82E919FC00C21
:101DA00011248CEC92E00E94230A8F73982F929555
:101DB0009F70D82E919FD00C11248CEC92E00E9441
:101DC000230A8CEC92E00E94230A8F73982F92953D
:101DD0009F70F82E919FF00C11248CEC92E00E94E1
:101DE000230A8F71982F92959F70E82E919FE00C97
:101DF00011248CEC92E00E94230A9C01332794E08A
:101E0000359527959A95E1F7129F800D11248883C7
:101E1000E982FA82DB82CC820D83CE01DF91CF9101
:101E20001F910F91FF90EF90DF90CF900895CF9387
:101E3000DF93C62F68E670E08CEC92E00E94BD0A4A
:101E40006AE070E08CEC92E00E9451018CEC92E030
:101E50000E943B0B41E050E068E670E08CEC92E0C1
:101E60000E94360B8CEC92E00E94230ACC2319F0DE
:101E7000EC01C06802C0EC01CF7768E670E08CEC42
:101E800092E00E94BD0A6AE070E08CEC92E00E9451
:101E90005101BE018CEC92E00E9451018CEC92E069
:101EA000DF91CF910C943B0BAF92BF92CF92DF9218
:101EB000EF92FF920F931F93CF93DF935B0168E63E
:101EC00070E08CEC92E00E94BD0A6BE070E08CEC5C
:101ED00092E00E9451018CEC92E00E943B0B44E0A6
:101EE00050E068E670E08CEC92E00E94360B8CECDF
:101EF00092E00E94230AEC018CEC92E00E94230AFB
:101F00006C018CEC92E00E94230A7C018CEC92E044
:101F10000E94230A8C0183E0A816B10411F154F445
:101F200081E0A816B104B1F082E0A816B10451F521
:101F30000F7711C085E0A816B104E9F0B4F086E08F
:101F4000A816B104F9F40F77E894E7F8E894C7F815
:101F5000CF7318C000686894E7F86894C7F8C06C3D
:101F600011C00F77E894E7F8F8CF0F77E894E7F817
:101F7000E894C7F8F4CF0F77E894E7F8E894C7F847
:101F8000CF77C06468E670E08CEC92E00E94BD0AF6
:101F90006BE070E08CEC92E00E945101BE018CEC91
:101FA00092E00E945101B6018CEC92E00E94510136
:101FB000B7018CEC92E00E945101B8018CEC92E0E8
:101FC0000E9451018CEC92E00E943B0BDF91CF917B
:101FD0001F910F91FF90EF90DF90CF90BF90AF9047
:101FE0000C94F70DFF920F931F93CF93DF9368E646
:101FF00070E08CEC92E00E94BD0A6BE070E08CEC2B
:1020000092E00E9451018CEC92E00E943B0B44E074
:1020100050E068E670E08CEC92E00E94360B8CECAD
:1020200092E00E94230A182F8CEC92E00E94230A6F
:10203000082F8CEC92E00E94230AF82E8CEC92E0A0
:102040000E94230A87FB882780F9C82F80E0D82FB9
:10205000F7FCC26007FDC46017FDC86016FDC061D3
:10206000C550DE4FC8810C2E000CDD0B0E94F70D11
:10207000CE01DF91CF911F910F91FF90089568E6F7
:1020800070E08CEC92E00E94BD0A6FE070E08CEC96
:1020900092E00E9451018CEC92E00E943B0B41E0E7
:1020A00050E068E670E08CEC92E00E94360B8CEC1D
:1020B00092E00E94230A86FB882780F990E0089529
:1020C000CF93DF9368E670E08CEC92E00E94BD0A4B
:1020D00060E070E08CEC92E00E9451018CEC92E0A8
:1020E0000E943B0B40E150E068E670E08CEC92E02F
:1020F0000E94360BC0E0D0E08CEC92E00E94230AF4
:102100000E94070E65EF71E085E993E00E94D21905
:1021100040E150E0BE0185E993E00E94D91A219682
:10212000C031D10549F768E670E08CEC92E00E947E
:10213000BD0A60E070E08CEC92E00E9451018CECF2
:1021400092E0DF91CF910C943B0BEF92FF920F93B3
:102150001F93CF938C0168E670E08CEC92E00E94B4
:10216000BD0A64E070E08CEC92E00E9451018CECBE
:1021700092E00E943B0B41E050E068E670E08CEC9E
:1021800092E00E94360B8CEC92E00E94230A7C01C4
:1021900068E670E08CEC92E00E94BD0A61E070E0BD
:1021A0008CEC92E00E945101F8012581CAE0822F57
:1021B0006C2F0E948420682F660F860F880F682F6F
:1021C000620F8CEC92E00E94740AF8012481822F45
:1021D0006C2F0E948420682F660F860F880F682F4F
:1021E000620F8CEC92E00E94740AF8012381822F26
:1021F0006C2F0E948420682F660F860F880F682F2F
:10220000620F8CEC92E00E94740AB7018CEC92E0B1
:102210000E945101F8012281822F6C2F0E9484209C
:10222000682F660F860F880F682F620F8CEC92E084
:102230000E94740AF8012181822F6C2F0E94842051
:10224000682F660F860F880F682F620F8CEC92E064
:102250000E94740AF8012081822F6C2F0E94842032
:10226000682F660F860F880F682F620F8CEC92E044
:102270000E94740A8CEC92E0CF911F910F91FF9015
:10228000EF900C943B0B1F93CF93DF93EC0168E628
:1022900070E08CEC92E00E94BD0A6AE070E08CEC89
:1022A00092E00E94510129811AE0822F612F0E9441
:1022B0008420682F660F860F880F682F620F8CECC2
:1022C00092E00E94740A2A81822F612F0E9484204A
:1022D000682F660F860F880F682F620F8CEC92E0D4
:1022E0000E94740A2B81822F612F0E948420682F04
:1022F000660F860F880F682F620F8CEC92E00E94A9
:10230000740A2C81822F612F0E948420682F660F0F
:10231000860F880F682F620F8CEC92E00E94740A7F
:102320002D81822F612F0E948420682F660F860FD7
:10233000880F682F620F8CEC92E00E94740A60E0B4
:1023400070E08CEC92E00E9451018CEC92E0DF9105
:10235000CF911F910C943B0BEF92FF920F931F9321
:10236000CF93DF93EC017C018CE2E80EF11C0BE1D2
:1023700012E028853985C8018B5192408217930756
:102380002CF560E088810E9408178E819F81F801FA
:102390002081892B09F0209540E06A818C810E9480
:1023A0006017F70121917F0140E06A818C810E94D2
:1023B000601761E088810E94081761E070E080E0AA
:1023C00090E00E9408160F5F1F4FD3CFDF91CF918F
:1023D0001F910F91FF90EF900895CF93DF93EC0141
:1023E00060E088810E94081720E041E06A818C81CA
:1023F0000E94601720E041E06A818C810E94601792
:1024000061E08881DF91CF910C940817CF93DF931F
:10241000EC01862F688379835B834A833D832C8319
:1024200061E00E94CC1661E08A810E94CC1661E0D6
:102430008C810E94CC16CE01DF91CF910C94ED11CE
:10244000EF92FF920F931F93CF93DF93EC010E94C3
:102450000612CE018C9661E00115110509F460E0C9
:10246000619570E048E050E00E94092388E0E8169A
:10247000F1041CF49E2D8F2D02C098E080E01F8394
:102480000E839887898721E030E03B872A879C87E5
:102490008D871D8E1C8EDF91CF911F910F91FF9024
:1024A000EF900895EF92FF920F931F930E942012D6
:1024B0001F910F91FF90EF900895CF93DF93EC0160
:1024C000645D7F4FFC01E60FF71FD901CD01821B30
:1024D000930B841795075CF48E819F81892B11F0F3
:1024E0009C9102C09C91909591931196EFCFDF91B2
:1024F000CF910895FC0126813781E60FF71F442311
:1025000019F0232B31F402C0232B19F084A581602C
:1025100002C084A58E7F84A708950F931F93CF9345
:10252000DF93EA01D9018FEF97EF4FEE5DEFFD01E9
:10253000E21BF30BE617F70784F5E991F0EDFE0FC8
:10254000FA3030F40E2E000CFF0BE35FFD4F09C094
:10255000FFE9FE0FFA3140F40E2E000CFF0BEE5394
:10256000FE4FE081EC9317C0FFEBFE0FFA3130F421
:102570000E2E000CFF0BEE51FE4FF3CFED3211F497
:102580005C9309C0EF3511F44C9305C0E33211F4AC
:102590009C9301C08C931196CACF0F3F8FEF180701
:1025A00031F0F901E00FF11F808181608083DF91BC
:1025B000CF911F910F910895CF92DF92EF92FF92EA
:1025C0000F931F93CF93DF93EE2DD9011197EC3426
:1025D00029F46150710980E090E017C0C901861BA1
:1025E000970BE23511F4BD0108C097FD0196959552
:1025F0008795680F791F61507109F801C0E27F016A
:10260000E01AF10AE816F90614F0FA0106C0C193BF
:10261000F6CF97FF06C00196319668177907CCF779
:1026200009C0A817B907BCF34081E801C80FD91F3A
:102630004883F1CFFB013196E00FF11F80E2AF013B
:10264000401B510B4217530714F48193F8CF8FEFBF
:10265000C816D80639F06C197D0977FD03C0A61796
:10266000B7071CF48FEF9FEF01C0CB01DF91CF9133
:102670001F910F91FF90EF90DF90CF9008952F92D0
:102680003F924F925F926F927F928F929F92AF9202
:10269000BF92CF92DF92EF92FF920F931F93CF934F
:1026A000DF93CDB7DEB75C016DB67EB677FD50C067
:1026B000FC0182859385681779070CF049C0FA01FF
:1026C00001900020E9F73197CF01841B950B660F2D
:1026D000771F1501260E371EF101848495846DB78E
:1026E0007EB7681979090FB6F8947EBF0FBE6DBF2B
:1026F000EDB7FEB731962F01CC24CA94DC2CE22E24
:102700008F019401BC01C5010E94DC126DB77EB738
:10271000681979090FB6F8947EBF0FBE6DBF8DB7EB
:102720009EB701967C010FEF1FEF9C01A201B4013F
:10273000C5010E948D12F101648D758D9701A40170
:10274000C5010E945D120FB6F8947EBE0FBE6DBE2D
:102750000FB6F8947EBE0FBE6DBEDF91CF911F9174
:102760000F91FF90EF90DF90CF90BF90AF909F9030
:102770008F907F906F905F904F903F902F90089533
:10278000242FAB0160E070E00C943F132F923F9236
:102790004F925F926F927F928F929F92AF92BF9271
:1027A000CF92DF92EF92FF920F931F93CF93DF931D
:1027B00000D01F92CDB7DEB75C016B013A012983CF
:1027C0008DB79EB79B838A8377FD42C0F5018285D2
:1027D000938568177907E4F52DB63EB600E010E062
:1027E000B801C3010E94051F98012F5F3F4F882346
:1027F00011F08901F5CF8DB79EB7821B930B0FB6F1
:10280000F8949EBF0FBE8DBFEDB7FEB731962F0176
:102810004F01E12CF12C0E151F0559F0B701C30132
:102820000E94051FF40181934F01FFEFEF1AFF0A89
:10283000F2CFF201E00FF11F10822981A201B6014F
:10284000C5010E943F130FB6F8943EBE0FBE2DBEC9
:102850008A819B810FB6F8949EBF0FBE8DBF0F90EB
:102860000F900F90DF91CF911F910F91FF90EF90FC
:10287000DF90CF90BF90AF909F908F907F906F90A0
:102880005F904F903F902F900895242FAB0160E010
:1028900070E00C94C61377FD1BC0DC011A96ED9115
:1028A000FC911B976E177F079CF457FD11C0660FB4
:1028B000771FFC01E60FF71F6485758546175707DC
:1028C0003CF4648D758D640F751F422F0C947A1241
:1028D0000895242FAB0160E070E00C944B14CF926C
:1028E000DF92EF92FF920F931F93CF93DF93EC0150
:1028F0006A017B010E94D71508851985012E000CFD
:10290000220B330BC01AD10AE20AF30AC60ED71EF5
:10291000E81EF91E0E94D715C616D706E806F90666
:1029200020F0CE010E94AC11F5CFCE01DF91CF9106
:102930001F910F91FF90EF90DF90CF900C94ED11CD
:10294000CF92DF92EF92FF920F93CF93DF93EC0140
:1029500069017A01402F0E94C013B701A601CE0180
:10296000DF91CF910F91FF90EF90DF90CF900C947B
:102970006F14CF92DF92EF92FF920F93CF93DF937A
:10298000EC0169017A01402F0E944514B701A601AC
:10299000CE01DF91CF910F91FF90EF90DF90CF901C
:1029A0000C946F140895833060F5E82FF0E0EE0F7B
:1029B000FF1FEA5FFE4F71836083813051F08230E8
:1029C000A1F0809169008C7F482B40936900E89AC0
:1029D000089580916900837F440F551F440F551F50
:1029E000482B40936900E99A0895809169008F7C93
:1029F00094E0440F551F9A95E1F7482B40936900E6
:102A0000EA9A0895833098F4813021F0823021F0E1
:102A1000E89803C0E99801C0EA98E82FF0E0EE0FCB
:102A2000FF1FEA5FFE4F82ED94E19183808308955A
:102A30001F920F920FB60F9211242F933F934F9333
:102A40005F936F937F938F939F93AF93BF93EF9316
:102A5000FF93E0910601F09107010995FF91EF9135
:102A6000BF91AF919F918F917F916F915F914F91A6
:102A70003F912F910F900FBE0F901F9018951F92AE
:102A80000F920FB60F9211242F933F934F935F93A2
:102A90006F937F938F939F93AF93BF93EF93FF9326
:102AA000E0910801F09109010995FF91EF91BF9123
:102AB000AF919F918F917F916F915F914F913F91D6
:102AC0002F910F900FBE0F901F9018951F920F928D
:102AD0000FB60F9211242F933F934F935F936F93F1
:102AE0007F938F939F93AF93BF93EF93FF93E09167
:102AF0000A01F0910B010995FF91EF91BF91AF9100
:102B00009F918F917F916F915F914F913F912F9105
:102B10000F900FBE0F901F9018951F920F920FB637
:102B20000F9211242F933F938F939F93AF93BF9353
:102B300080918D0390918E03A0918F03B0919003AB
:102B400030918C0326E0230F2D3720F40296A11D2F
:102B5000B11D05C029E8230F0396A11DB11D2093C7
:102B60008C0380938D0390938E03A0938F03B09377
:102B700090038091910390919203A0919303B0915F
:102B800094030196A11DB11D80939103909392032C
:102B9000A0939303B0939403BF91AF919F918F91B2
:102BA0003F912F910F900FBE0F901F9018952FB748
:102BB000F89460918D0370918E0380918F039091B2
:102BC00090032FBF08953FB7F8948091910390919F
:102BD0009203A0919303B091940326B5A89B05C0DE
:102BE0002F3F19F00196A11DB11D3FBFBA2FA92F8C
:102BF000982F8827820F911DA11DB11DBC01CD0109
:102C000043E0660F771F881F991F4A95D1F70895F3
:102C10008F929F92AF92BF92CF92DF92EF92FF92EC
:102C20006B017C010E94E3154B015C01C114D104CE
:102C3000E104F10401F10E94491F0E94E315DC0147
:102C4000CB0188199909AA09BB09883E9340A105BF
:102C5000B10560F321E0C21AD108E108F10888EE5D
:102C6000880E83E0981EA11CB11CC114D104E1049C
:102C7000F10419F7DBCFFF90EF90DF90CF90BF907A
:102C8000AF909F908F900895789484B5826084BDB2
:102C900084B5816084BD85B5826085BD85B5816060
:102CA00085BDEEE6F0E0808181608083E1E8F0E0C0
:102CB0001082808182608083808181608083E0E8EF
:102CC000F0E0808181608083E1EBF0E080818460CE
:102CD0008083E0EBF0E0808181608083EAE7F0E0D0
:102CE00080818460808380818260808380818E7F08
:102CF00080838081806880831092C10008958093D2
:102D00000C010895883028F0883110F0885101C0F6
:102D10008FEF20910C0190E4299F9001112487707E
:102D2000822B80937C0080917A00806480937A006B
:102D300080917A0086FDFCCF809178002091790007
:102D400090E0922B0895843081F028F4823099F03D
:102D50008330A1F008958830A9F08930B9F085302A
:102D6000D1F4809180008F7D03C0809180008F77A7
:102D700080938000089584B58F7702C084B58F7DDD
:102D800084BD08958091B0008F7703C08091B0001A
:102D90008F7D8093B0000895CF93DF9390E0FC0186
:102DA000EF51FE4F2491FC01EF5FFD4F849188238A
:102DB00061F190E0880F991FFC01EB5CFD4FC5911C
:102DC000D491FC01E55DFD4FA591B491611109C05D
:102DD0009FB7F8948881209582238883EC912E23D5
:102DE0000BC0623061F49FB7F8948881322F309520
:102DF00083238883EC912E2B2C939FBF06C08FB723
:102E0000F894E8812E2B28838FBFDF91CF9108950E
:102E10001F93CF93DF93282F30E0F901EF53FE4F3C
:102E20008491F901EF51FE4FD491F901EF5FFD4F0D
:102E3000C491CC23C1F0162F81110E94A316EC2F50
:102E4000F0E0EE0FFF1FE55DFD4FA591B4919FB738
:102E5000F894111104C08C91D095D82302C0EC9144
:102E6000DE2BDC939FBFDF91CF911F910895CF930D
:102E7000DF93282F30E0F901EF53FE4F8491F901E1
:102E8000EF51FE4FD491F901EF5FFD4FC491CC2378
:102E900091F081110E94A316EC2FF0E0EE0FFF1FBE
:102EA000EF5DFD4FA591B491EC91ED2381E090E0B1
:102EB00021F480E002C080E090E0DF91CF9108959E
:102EC000BF92CF92DF92EF92FF920F931F93CF9317
:102ED000DF93C82ED62EB42EC7E0D0E0022F10E02C
:102EE00087E0E82EF12CB11005C0C7018C1B9D0BAB
:102EF000B80102C0B8018C2F02C0759567958A95FC
:102F0000E2F761708C2D0E94081761E08D2D0E9400
:102F1000081760E08D2D0E940817219720F7DF9198
:102F2000CF911F910F91FF90EF90DF90CF90BF90C6
:102F30000895FC01918D228D892F90E0805C9F4F38
:102F4000821B91098F7399270895FC01918D828DC1
:102F5000981731F0828DE80FF11D858D90E008956E
:102F60008FEF9FEF0895FC01918D828D981761F08E
:102F7000828DDF01A80FB11D5D968C91928D9F5FB0
:102F80009F73928F90E008958FEF9FEF089588E2EE
:102F900099E1892B41F080E090E0892B21F00E949B
:102FA000281981110DC080E090E0892B71F080E03C
:102FB00090E0892B51F00E940000811104C0089517
:102FC0000E940000F0CF0C9400000895FC01848D55
:102FD000DF01A80FB11DA35ABF4F2C91848D90E043
:102FE00001968F739927848FA689B7892C93A0891E
:102FF000B1898C9180648C93938D848D981306C0D5
:103000000288F389E02D80818F7D80830895EF927F
:10301000FF920F931F93CF93DF93EC0181E0888F92
:103020009B8D8C8D981305C0E889F989808185FD79
:1030300024C0F62E0B8D10E00F5F1F4F0F7311276A
:10304000E02E8C8DE8120CC00FB607FCFACFE88991
:10305000F989808185FFF5CFCE010E94E617F1CF77
:103060008B8DFE01E80FF11DE35AFF4FF0820B8FAD
:10307000EA89FB898081806207C0EE89FF896083CD
:10308000E889F98980818064808381E090E0DF9124
:10309000CF911F910F91FF90EF900895CF93DF9301
:1030A000EC01888D8823C9F0EA89FB89808185FD40
:1030B00005C0A889B9898C9186FD0FC00FB607FCA1
:1030C000F5CF808185FFF2CFA889B9898C9185FFE2
:1030D000EDCFCE010E94E617E7CFDF91CF910895A3
:1030E000CF92DF92EF92FF921F93CF93DF93EC0189
:1030F0006A017B01122F60E874E88EE190E0A7017D
:1031000096010E94B820DA01C9010197A109B1090D
:10311000B695A795979587959C01E889F98982E0EE
:103120008083211580E13807A8F0E889F9891082A9
:1031300060E472E48FE090E0A70196010E94B8205D
:10314000DA01C9010197A109B109B695A79597952B
:1031500087959C01EC85FD853083EE85FF85208376
:10316000188EEC89FD891083EA89FB898081806152
:103170008083EA89FB89808188608083EA89FB8972
:10318000808180688083EA89FB8980818F7D80834C
:10319000DF91CF911F91FF90EF90DF90CF90089536
:1031A0001F920F920FB60F9211242F938F939F931C
:1031B000EF93FF93E091A503F091A6038081E09146
:1031C000AB03F091AC0382FD12C090818091AE03FD
:1031D0008F5F8F732091AF03821751F0E091AE03A0
:1031E000F0E0EB56FC4F958F8093AE0301C08081D9
:1031F000FF91EF919F918F912F910F900FBE0F90A4
:103200001F9018951F920F920FB60F9211242F93B3
:103210003F934F935F936F937F938F939F93AF935E
:10322000BF93EF93FF9385E993E00E94E617FF9128
:10323000EF91BF91AF919F918F917F916F915F912E
:103240004F913F912F910F900FBE0F901F901895A7
:1032500085E993E00E94991721E0892B09F420E089
:10326000822F0895E5E9F3E01382128288EE93E05D
:10327000A0E0B0E084839583A683B7838BE492E0DB
:103280009183808385EC90E09587848784EC90E03F
:103290009787868780EC90E0918B808B81EC90E023
:1032A000938B828B82EC90E0958B848B86EC90E004
:1032B000978B868B118E128E138E148E089508951F
:1032C0000E9444160E945F190E94E307C7ECD7E1F1
:1032D0000E9479092097E1F30E94C717F9CFCF9296
:1032E000DF92EF92FF920F931F93CF93DF936C01C6
:1032F0007A018B01C0E0D0E0CE15DF0581F0D80166
:103300006D918D01D601ED91FC910190F081E02D40
:10331000C6010995892B11F02196EECF7E01C701D8
:10332000DF91CF911F910F91FF90EF90DF90CF90A1
:1033300008956115710579F0FB0101900020E9F70E
:103340003197AF01461B570BDC01ED91FC910280D8
:10335000F381E02D099480E090E00895EF92FF92D0
:103360000F931F93CF93DF938C017B01C0E0D0E0DC
:10337000F701EC0FFD1F6491662361F0D801ED9118
:10338000FC910190F081E02DC8010995892B11F085
:103390002196EECFCE01DF91CF911F910F91FF903B
:1033A000EF9008950C949919DC01ED91FC91019036
:1033B000F081E02D099467E572E00C9499190F9360
:1033C0001F93CF93DF93EC010E94AE198C01CE01C5
:1033D0000E94DB19800F911FDF91CF911F910F91F8
:1033E00008950F931F93CF93DF93EC010E949919D7
:1033F0008C01CE010E94DB19800F911FDF91CF91CC
:103400001F910F9108958F929F92AF92BF92EF926A
:10341000FF920F931F93CF93DF93CDB7DEB7A197A2
:103420000FB6F894DEBF0FBECDBF7C01FA01CB0111
:1034300019A2223008F42AE08E010F5D1F4F822E60
:10344000912CA12CB12CBF01A50194010E94B820A0
:10345000F901CA01015011096A3014F4605D01C01C
:10346000695CD8016C93232B242B252B61F7B801C1
:10347000C7010E949919A1960FB6F894DEBF0FBE3E
:10348000CDBFDF91CF911F910F91FF90EF90BF9033
:10349000AF909F908F9008952115310541F4DC0184
:1034A000ED91FC910190F081E02D642F09940C9432
:1034B000031A9A01462F50E060E070E00C944C1A19
:1034C0000F931F93CF93DF93EC010E94591A8C0145
:1034D000CE010E94DB19800F911FDF91CF911F91C8
:1034E0000F9108959A01AB0160E070E00C944C1AC2
:1034F0000F931F93CF93DF93EC010E94721A8C01FC
:10350000CE010E94DB19800F911FDF91CF911F9197
:103510000F910895CF92DF92EF92FF920F931F9336
:10352000CF93DF932115310581F4DC01ED91FC91FE
:103530000190F081E02D642FDF91CF911F910F91C9
:10354000FF90EF90DF90CF9009942A30310501F57C
:1035500077FF1DC06A017B01EC016DE20E94D41966
:103560008C0144275527BA014C195D096E097F0962
:103570002AE0CE010E94031A800F911FDF91CF91A4
:103580001F910F91FF90EF90DF90CF9008952AE068
:10359000DF91CF911F910F91FF90EF90DF90CF902F
:1035A0000C94031A9A01AB01770F660B770B0C94FE
:1035B0008A1A0F931F93CF93DF93EC010E94D21AC4
:1035C0008C01CE010E94DB19800F911FDF91CF91FA
:1035D0001F910F9108954F925F926F927F928F92F9
:1035E0009F92AF92BF92CF92DF92EF92FF920F9392
:1035F0001F93CF93DF9300D000D01F92CDB7DEB7DB
:103600008B0129013A0190910D01891721F09F3F0B
:1036100009F038C205C0EFE3F2E024912D8384C0A5
:1036200080930D01EFE3F2E094919D839F3F09F4B5
:1036300029C2913009F44DC058F1923009F074C09C
:103640001092B0001092B1009091B00092609093EF
:10365000B0009091B10091609093B100282F30E0BC
:10366000F901EF5FFD4FE491F0E0EE0FFF1FE55D24
:10367000FD4F459154915093340440933304F90124
:10368000EF51FE4FE491E093320492E09D83F6C146
:1036900014BC15BC94B5926094BD95B5916095BD70
:1036A000282F30E0F901EF5FFD4FE491F0E0EE0FDD
:1036B000FF1FE55DFD4F45915491509342044093A7
:1036C0004104F901EF51FE4FE491E09340041D8263
:1036D000D5C1109280001092810090918100986075
:1036E0009093810090918100916090938100282FA8
:1036F00030E0F901EF5FFD4FE491F0E0EE0FFF1FC6
:10370000E55DFD4F4591549150933B0440933A043D
:10371000F901EF51FE4FE491E093390461E00E941A
:10372000CC1621E02D83A5C02D8127FDABC161E022
:103730000E94CC168D818D7F09F09BC04801A12C81
:10374000B12C60E079E08DE390E0A50194010E9446
:10375000DA2029833A834B835C8369017A0181E013
:10376000C81AD108E108F1089FEFC916D104E10495
:10377000F10409F008F461C060E271EA87E090E0CA
:10378000A50194010E94DA2069017A0181E0C81A3A
:10379000D108E108F1089D81923009F0F4C02FEFC3
:1037A000C216D104E104F10409F008F458C068E439
:1037B00078EE81E090E0A50194010E94DA20690191
:1037C0007A0181E0C81AD108E108F1089FEFC91613
:1037D000D104E104F10409F008F44EC164E274EF8D
:1037E00080E090E0A50194010E94DA2069017A014D
:1037F00081E0C81AD108E108F1089FEFC916D10489
:10380000E104F10471F168F162E17AE780E090E0AF
:10381000A50194010E94DA2069017A0181E0C81AA9
:10382000D108E108F1089FEFC916D104E104F104C1
:1038300011F008F0C9C085E015C081E09D819111AB
:1038400011C095B5987F892B85BD41145104610441
:10385000710409F04FC02FEF3FEFA90163C082E070
:1038600001C084E09091B100987F892B8093B100D2
:103870003CC04801A12CB12C60E079E08DE390E0E0
:10388000A50194010E94DA2069017A0181E0C81A39
:10389000D108E108F108C114D10491E0E906F1046E
:1038A00088F064E274EF80E090E0A50194010E944A
:1038B000DA2069017A0181E0C81AD108E108F1082B
:1038C00083E001C081E09D81913079F49091810085
:1038D000987F892B80938100411451046104710405
:1038E00049F42FEF3FEFA9012CC0411451046104AA
:1038F000710471F0D801AA0FBB1FA30192010E94AD
:103900000E2128EE33E040E050E00E94B82003C0D2
:103910002FEF3FEFA9018D81813099F0823019F1AD
:103920008111B0C0C7BC209343043093440440933A
:1039300045045093460480916E00826080936E002F
:10394000A1C0D0928900C092880020933C0430939B
:103950003D0440933E0450933F0480916F00826089
:1039600080936F008FC0C092B300209335043093D2
:10397000360440933704509338048091700082607D
:10398000809370007FC08FEFC816D104E104F1046A
:10399000C9F0C0F064E274EF80E090E0A50194010A
:1039A0000E94DA2069017A0191E0C91AD108E10880
:1039B000F1082FEFC216D104E104F10409F080F5FB
:1039C00083E03CCF82E03ACF69E07DE380E090E0A5
:1039D000A50194010E94DA2069017A0181E0C81AE8
:1039E000D108E108F1089FEFC916D104E104F10400
:1039F000A9F0A0F089819A81AB81BC812AE0B595BC
:103A0000A795979587952A95D1F76C017D0121E0BF
:103A1000C21AD108E108F10887E024CF86E022CF5E
:103A200069E07DE380E090E0A50194010E94DA2046
:103A300069017A0181E0C81AD108E108F1089FEF15
:103A4000C916D104E104F104A9F0A0F089819A819A
:103A5000AB81BC814AE0B595A795979587954A9526
:103A6000D1F76C017D0121E0C21AD108E108F1080B
:103A700085E0E4CE84E0E2CE83E0F4CE61E00E9413
:103A8000CC165CCE0F900F900F900F900F90DF919F
:103A9000CF911F910F91FF90EF90DF90CF90BF904B
:103AA000AF909F908F907F906F905F904F90089510
:103AB000813039F018F0823051F0089510926E0084
:103AC000089580916F008D7F80936F00089580919D
:103AD00070008D7F8093700081E08093B0008091B2
:103AE000B100887F84608093B1001092B300089584
:103AF000CF93C82F80910D01C81307C0EFE3F2E008
:103B000084919FEF90930D0101C08FEF0E94581D8B
:103B100060E08C2FCF910C9408171F920F920FB674
:103B20000F9211242F933F934F935F936F937F9343
:103B30008F939F93AF93BF93EF93FF93809135043F
:103B400090913604A0913704B0913804892B8A2BC8
:103B50008B2B51F190913204E0913304F0913404B5
:103B60008081892780838091350490913604A091CB
:103B70003704B0913804181619061A061B06C4F447
:103B80008091350490913604A0913704B0913804A7
:103B90000197A109B1098093350490933604A0934D
:103BA0003704B093380404C080910D010E94781D41
:103BB000FF91EF91BF91AF919F918F917F916F9105
:103BC0005F914F913F912F910F900FBE0F901F90DB
:103BD00018954F925F926F927F92AF92BF92CF9261
:103BE000DF92EF92FF920F931F93CF93DF93CDB7A6
:103BF000DEB729013A019B01AC01241935094609B8
:103C0000570989899A89AB89BC89BC01CD016A1998
:103C10007B098C099D090E947420A8019701241931
:103C20003509460957090E94DA20CA01B9016A0D0F
:103C30007B1D8C1D9D1DDF91CF911F910F91FF90DA
:103C4000EF90DF90CF90BF90AF907F906F905F909C
:103C50004F900895FC01808191810C94B121CF9304
:103C6000DF93EC0188819981009711F00E94B121C6
:103C7000198218821D821C821B821A82DF91CF91C9
:103C800008950F931F93CF93DF93EC018B016F5F28
:103C90007F4F888199810E943A22009731F0998361
:103CA00088831B830A8381E001C080E0DF91CF918C
:103CB0001F910F910895CF93DF93EC018881998133
:103CC000892B29F08A819B818617970760F4CE01A2
:103CD0000E94411E882341F08C819D81892B19F41B
:103CE000E881F981108281E0DF91CF910895EF9210
:103CF000FF920F931F93CF93DF93EC017B018A0117
:103D0000BA010E945B1E811104C0CE010E942F1EC9
:103D100007C01D830C83B701888199810E941023FD
:103D2000CE01DF91CF911F910F91FF90EF900895F9
:103D3000FC01118210821382128215821482611595
:103D4000710551F0FB0101900020E9F73197AF01B7
:103D5000461B570B0C94771E0895CF93DF93EC010D
:103D6000FB018617970761F060817181611571050C
:103D700029F0448155810E94771E02C00E942F1EA7
:103D8000CE01DF91CF910895EF92FF920F931F9391
:103D9000CF93DF936115710511F480E01CC04115CC
:103DA0005105C1F07B01EC018C819D818A01080FD6
:103DB000191FB801CE010E945B1E882371F3288170
:103DC00039818C819D81B701820F931F0E9410233E
:103DD0001D830C8381E0DF91CF911F910F91FF90A4
:103DE000EF900895CF93DF93EC01FB01448155815F
:103DF000608171810E94C41E811103C0CE010E94A6
:103E00002F1ECE01DF91CF910895FC0124813581D1
:103E10006217730748F480819181009729F0FC01B3
:103E2000E60FF71F8081089580E00895CF93DF9318
:103E3000DC011496ED91FC9115976E177F0730F514
:103E40004115510519F1DF01A61BB70B9A01A41703
:103E5000B50708F49D01DB01EC0188819981E21B23
:103E6000F30BFD83EC83AF01461B570B260F371F67
:103E7000BC01620F731F8A0F9B1F0E941723E881EA
:103E8000F9818C819D81E80FF91F1082DF91CF911C
:103E9000089508950E94E61F88F09F5798F0B92F63
:103EA0009927B751B0F0E1F0660F771F881F991F6F
:103EB0001AF0BA95C9F714C0B13091F00E940020F1
:103EC000B1E008950C940020672F782F8827B85F01
:103ED00039F0B93FCCF3869577956795B395D9F7C7
:103EE0003EF490958095709561957F4F8F4F9F4FD1
:103EF0000895E89409C097FB3EF4909580957095DD
:103F000061957F4F8F4F9F4F9923A9F0F92F96E925
:103F1000BB279395F695879577956795B795F1119A
:103F2000F8CFFAF4BB0F11F460FF1BC06F5F7F4F37
:103F30008F4F9F4F16C0882311F096E911C0772349
:103F400021F09EE8872F762F05C0662371F096E852
:103F5000862F70E060E02AF09A95660F771F881F21
:103F6000DAF7880F9695879597F9089597F99F67DF
:103F700080E870E060E008959FEF80EC08950024F1
:103F80000A941616170618060906089500240A94BE
:103F900012161306140605060895092E0394000C44
:103FA00011F4882352F0BB0F40F4BF2B11F460FFD3
:103FB00004C06F5F7F4F8F4F9F4F089557FD9058FC
:103FC000440F551F59F05F3F71F04795880F97FBDD
:103FD000991F61F09F3F79F0879508951216130697
:103FE0001406551FF2CF4695F1DF08C016161706C6
:103FF0001806991FF1CF86957105610508940895FB
:10400000E894BB2766277727CB0197F908950E948C
:104010001A200C94CD1F0E94BF1F38F00E94C61FAB
:1040200020F0952311F00C94B61F0C94BC1F1124A2
:104030000C9401200E94DE1F70F3959FC1F3950F31
:1040400050E0551F629FF001729FBB27F00DB11D1C
:10405000639FAA27F00DB11DAA1F649F6627B00DAC
:10406000A11D661F829F2227B00DA11D621F739F95
:10407000B00DA11D621F839FA00D611D221F749FA3
:104080003327A00D611D231F849F600D211D822FEA
:10409000762F6A2F11249F5750409AF0F1F0882311
:1040A0004AF0EE0FFF1FBB1F661F771F881F91503E
:1040B0005040A9F79E3F510580F00C94B61F0C9418
:1040C00001205F3FE4F3983ED4F38695779567959A
:1040D000B795F795E7959F5FC1F7FE2B880F911D68
:1040E0009695879597F90895DB018F939F930E948A
:1040F0000E21BF91AF91A29F800D911DA39F900DA6
:10410000B29F900D11240895991B79E004C0991F66
:10411000961708F0961B881F7A95C9F78095089521
:10412000AA1BBB1B51E107C0AA1FBB1FA617B707DD
:1041300010F0A61BB70B881F991F5A95A9F78095F9
:104140009095BC01CD01089597FB072E16F40094BD
:1041500007D077FD09D00E94902007FC05D03EF4DF
:10416000909581959F4F0895709561957F4F089523
:10417000A1E21A2EAA1BBB1BFD010DC0AA1FBB1F6B
:10418000EE1FFF1FA217B307E407F50720F0A21BDD
:10419000B30BE40BF50B661F771F881F991F1A944A
:1041A00069F760957095809590959B01AC01BD0174
:1041B000CF010895052E97FB1EF400940E94F12074
:1041C00057FD07D00E94B82007FC03D04EF40C9492
:1041D000F12050954095309521953F4F4F4F5F4FBF
:1041E000089590958095709561957F4F8F4F9F4F63
:1041F0000895EE0FFF1F0590F491E02D0994A29F02
:10420000B001B39FC001A39F700D811D1124911DAA
:10421000B29F700D811D1124911D08950E94FF20F1
:10422000A59F900DB49F900DA49F800D911D11240A
:1042300008950F931F93CF93DF938230910510F46D
:1042400082E090E0E0914904F0914A0420E030E0FF
:10425000A0E0B0E0309719F14081518102811381D3
:1042600048175907C8F08417950769F4109731F07B
:1042700012960C93129713961C9327C0009349042F
:1042800010934A0422C02115310519F04217530733
:1042900018F49A01BD01EF01DF01F801DBCF211510
:1042A0003105F9F0281B390B2430310580F48A815F
:1042B0009B816115710521F0FB019383828304C00A
:1042C00090934A0480934904FE01329644C0FE0153
:1042D000E20FF31F81939193225031093983288390
:1042E0003AC02091470430914804232B41F4209197
:1042F0000201309103013093480420934704209138
:104300000001309101012115310541F42DB73EB76F
:104310004091040150910501241B350BE0914704A5
:10432000F0914804E217F307A0F42E1B3F0B281767
:10433000390778F0AC014E5F5F4F2417350748F01E
:104340004E0F5F1F5093480440934704819391930D
:1043500002C0E0E0F0E0CF01DF91CF911F910F911B
:104360000895CF93DF93009709F481C0FC01329741
:1043700013821282A0914904B0914A04109781F4EB
:1043800020813181820F931F20914704309148048E
:104390002817390751F5F0934804E093470467C0A4
:1043A000ED0120E030E0CE17DF0740F44A815B8169
:1043B0009E0141155105F1F0EA01F5CFD383C28387
:1043C00040815181840F951FC817D90759F48881FE
:1043D0009981840F951F0296918380838A819B81A6
:1043E000938382832115310529F4F0934A04E093E5
:1043F00049043DC0E901FB83EA8349915991C40F07
:10440000D51FEC17FD0761F480819181840F951F02
:104410000296E90199838883828193819B838A83B1
:10442000E0E0F0E012968D919C911397009719F0BF
:10443000FD01DC01F7CF8D919C9111979D012E5FBD
:104440003F4F820F931F2091470430914804281753
:10445000390769F4309729F410924A0410924904FC
:1044600002C013821282B0934804A0934704DF91E4
:10447000CF910895A0E0B0E0E0E4F2E20C94DD25F5
:10448000EC01009721F4CB010E941921B4C0FC017A
:10449000E60FF71F9C0122503109E217F30708F4D9
:1044A000A8C0D9010D911C91119706171707B0F0FC
:1044B0000530110508F49BC0C801049786179707BB
:1044C00008F495C002501109061B170B01931193B4
:1044D0006D937C93CF010E94B12189C05B01A01A2A
:1044E000B10A4C01800E911EA0914904B0914A047A
:1044F000612C712CE12CF12C109709F446C08D91A0
:104500009C911197A815B905B1F56C0142E0C40E54
:10451000D11CCA14DB0478F14C018A189B08640191
:1045200042E0C40ED11C1296BC9012971396AC9127
:10453000B5E0CB16D10440F0B282A3839182808291
:10454000D9016D937C9309C00E5F1F4F800F911F9F
:10455000F90191838083EB2DFA2FE114F10431F0FE
:10456000D7011396FC93EE93129741C0F0934A043F
:10457000E09349043CC06816790608F43C017D01CB
:1045800012960D90BC91A02DB7CF809147049091C9
:10459000480488169906E1F466167706C8F48091F7
:1045A000000190910101009741F48DB79EB74091B1
:1045B000040150910501841B950BE817F907C8F415
:1045C000F0934804E0934704F901718360830FC0BE
:1045D000CB010E9419217C01009759F0A801BE016E
:1045E0000E940023CE010E94B121C70104C0CE0168
:1045F00002C080E090E0CDB7DEB7EEE00C94F92584
:10460000FB01DC0102C001900D9241505040D8F7EF
:104610000895DC0101C06D9341505040E0F70895CA
:10462000FB01DC0101900D920020E1F70895FB01F0
:10463000DC014150504048F001900D920020C9F734
:1046400001C01D9241505040E0F70895AEE0B0E047
:10465000ECE2F3E20C94E7250D891E8986E08C8359
:104660001A8309838FEF9FE79E838D83AE01475E98
:104670005F4F6F89788DCE0101960E944823EF81AC
:10468000F885E00FF11F10822E96E4E00C940326CB
:10469000ABE0B0E0EEE4F3E20C94D9256C017B01D1
:1046A0008A01FC0117821682838181FFCCC1CE0171
:1046B00001963C01F6019381F70193FD859193FFEB
:1046C00081917F01882309F4BAC1853239F493FDC1
:1046D000859193FF81917F01853229F4B60190E0A5
:1046E0000E943F25E7CF912C212C312CFFE1F315BF
:1046F000D8F08B3279F038F4803279F08332A1F43B
:10470000232D20611DC08D3261F0803369F4232D8B
:10471000216016C0832D8260382EE32DE4603E2E8A
:104720002AC0F32DF8601DC037FC2DC020ED280FE6
:104730002A3040F08E32B9F436FC81C1232D20643A
:10474000322E19C036FE06C08AE0989E200D112434
:10475000922E11C0EAE02E9E200D1124222EF32D60
:10476000F0623F2E08C08C3621F4832D8068382EED
:1047700002C0883641F4F70193FD859193FF819142
:104780007F018111B3CF982F9F7D9554933028F4EA
:104790000C5F1F4F9FE399830DC0833631F0833741
:1047A00071F0833509F059C021C0F80180818983F7
:1047B0000E5F1F4F88248394912C530113C028014E
:1047C000F2E04F0E511CF801A080B18036FE03C00C
:1047D000692D70E002C06FEF7FEFC5010E943425A4
:1047E0004C018201F32DFF773F2E16C0280122E0F5
:1047F000420E511CF801A080B18036FE03C0692D25
:1048000070E002C06FEF7FEFC5010E9429254C01C7
:10481000F32DF0683F2E820133FC1BC0822D90E007
:1048200088169906B0F4B60180E290E00E943F2518
:104830002A94F4CFF50137FC859137FE81915F0111
:10484000B60190E00E943F2521102A9421E0821AAF
:1048500091088114910471F7E8C0843611F089360B
:1048600041F5F80137FE07C0608171818281938133
:104870000C5F1F4F08C060817181072E000C880BF0
:10488000990B0E5F1F4FF32DFF763F2E97FF09C048
:1048900090958095709561957F4F8F4F9F4FF068F1
:1048A0003F2E2AE030E0A3010E947B25882E861847
:1048B00045C0853731F4232D2F7EB22E2AE030E01B
:1048C00025C0932D997FB92E8F36C1F018F4883505
:1048D00079F0B5C0803719F0883721F0B0C0E92FE2
:1048E000E061BE2EB4FE0DC0FB2DF460BF2E09C0EA
:1048F00034FE0AC0292F2660B22E06C028E030E020
:1049000005C020E130E002C020E132E0F801B7FE4E
:1049100007C060817181828193810C5F1F4F06C047
:104920006081718180E090E00E5F1F4FA3010E94C3
:104930007B25882E8618FB2DFF773F2E36FE0DC077
:10494000232D2E7FA22E891458F434FE0BC032FC86
:1049500009C0832D8E7EA82E05C0B82CA32C03C0C1
:10496000B82C01C0B92CA4FE0FC0FE01E80DF11D4A
:104970008081803321F49A2D997EA92E09C0A2FE50
:1049800006C0B394B39404C08A2D867809F0B3941A
:10499000A3FC11C0A0FE06C0B21488F4280C922C0F
:1049A0009B180EC0B21460F4B60180E290E00E9441
:1049B0003F25B394F7CFB21418F42B1802C0982CEB
:1049C000212CA4FE10C0B60180E390E00E943F2598
:1049D000A2FE17C0A1FC03C088E790E002C088E5F2
:1049E00090E0B6010CC08A2D867859F0A1FE02C075
:1049F0008BE201C080E2A7FC8DE2B60190E00E944C
:104A00003F25891438F4B60180E390E00E943F25E9
:104A10009A94F7CF8A94F301E80DF11D8081B601D5
:104A200090E00E943F258110F5CF222009F442CE6C
:104A3000B60180E290E00E943F252A94F6CFF6016D
:104A40008681978102C08FEF9FEF2B96E2E10C9455
:104A5000F525FC010590615070400110D8F7809554
:104A600090958E0F9F1F0895FC016150704001903A
:104A70000110D8F7809590958E0F9F1F08950F9382
:104A80001F93CF93DF93FB01238121FD03C08FEFA1
:104A90009FEF2CC022FF16C04681578124813581AB
:104AA0004217530744F4A081B1819D012F5F3F4F0E
:104AB000318320838C93268137812F5F3F4F37834B
:104AC000268314C08B01EC01FB010084F185E02DED
:104AD0000995892BE1F6D80116968D919C9117972F
:104AE000019617969C938E931697CE01DF91CF91E6
:104AF0001F910F910895FA01AA27283051F1203112
:104B000081F1E8946F936E7F6E5F7F4F8F4F9F4F61
:104B1000AF4FB1E03ED0B4E03CD0670F781F891FA3
:104B20009A1FA11D680F791F8A1F911DA11D6A0F71
:104B3000711D811D911DA11D20D009F468943F9124
:104B40002AE0269F11243019305D3193DEF6CF0123
:104B50000895462F4770405D4193B3E00FD0C9F7E9
:104B6000F6CF462F4F70405D4A3318F0495D31FD56
:104B70004052419302D0A9F7EACFB4E0A6959795A9
:104B8000879577956795BA95C9F70097610571057F
:104B900008959B01AC010A2E0694579547953795C9
:104BA0002795BA95C9F7620F731F841F951FA01D23
:104BB00008952F923F924F925F926F927F928F92C1
:104BC0009F92AF92BF92CF92DF92EF92FF920F939C
:104BD0001F93CF93DF93CDB7DEB7CA1BDB0B0FB6A6
:104BE000F894DEBF0FBECDBF09942A883988488863
:104BF0005F846E847D848C849B84AA84B984C884F9
:104C0000DF80EE80FD800C811B81AA81B981CE0FEF
:104C1000D11D0FB6F894DEBF0FBECDBFED010895D4
:044C2000F894FFCF36
:104C240000004B048000D2140000000001FF253076
:104C340032752530327520206425317500642531A4
:104C44007520253032752D2530327520004C4F41AA
:104C540044002020202020202020004F4F4F4F4F81
:104C64004F004F4E004F4646002534752D253032F7
:104C7400752D2530327520253032753A2530327540
:104C84003A25303275202E0053756D3A3D0025309B
:104C9400327523253175430048756D3A3D00253240
:104CA400752325317520253275480025303275204D
:104CB40025303275202530327500202534752D2598
:104CC4003032752D2530327520642531752025301C
:104CD40032752D2530327520253275435F253275A6
:104CE40048205025327520004241545445525F56A5
:104CF400414C3A3D004241545445525F56414C2880
:104D040025293A3D0000000000740A470A1B0A23C3
:104D14000A370A460A203A203078000600000000CC
:104D2400000000000000000000000005000000007A
:104D3400000000040000000300020180402010086D
:104D440004020111C1638561714391F38751E31337
:104D5400D5C531197349E1C78381938925039F25FB
:104D64000D9949411F01190000000007186F199996
:104D740017B317A5174E180D0A006E616E00696E01
:064D840066006F76660078
:00000001FF
